{
	"contracts/src/Nova3.sol": {
		"SubscriptionManager": {
			"abi": [
				{
					"inputs": [
						{
							"internalType": "address",
							"name": "_usdcToken",
							"type": "address"
						},
						{
							"internalType": "address",
							"name": "defaultAdmin",
							"type": "address"
						}
					],
					"stateMutability": "nonpayable",
					"type": "constructor"
				},
				{
					"inputs": [],
					"name": "AccessControlBadConfirmation",
					"type": "error"
				},
				{
					"inputs": [
						{
							"internalType": "address",
							"name": "account",
							"type": "address"
						},
						{
							"internalType": "bytes32",
							"name": "neededRole",
							"type": "bytes32"
						}
					],
					"name": "AccessControlUnauthorizedAccount",
					"type": "error"
				},
				{
					"anonymous": false,
					"inputs": [
						{
							"indexed": true,
							"internalType": "address",
							"name": "user",
							"type": "address"
						},
						{
							"indexed": false,
							"internalType": "bool",
							"name": "enabled",
							"type": "bool"
						}
					],
					"name": "AutoRenewToggled",
					"type": "event"
				},
				{
					"anonymous": false,
					"inputs": [
						{
							"indexed": true,
							"internalType": "address",
							"name": "recipient",
							"type": "address"
						},
						{
							"indexed": false,
							"internalType": "uint256",
							"name": "amount",
							"type": "uint256"
						}
					],
					"name": "FundsWithdrawn",
					"type": "event"
				},
				{
					"anonymous": false,
					"inputs": [
						{
							"indexed": false,
							"internalType": "address",
							"name": "account",
							"type": "address"
						}
					],
					"name": "Paused",
					"type": "event"
				},
				{
					"anonymous": false,
					"inputs": [
						{
							"indexed": true,
							"internalType": "uint256",
							"name": "planId",
							"type": "uint256"
						},
						{
							"indexed": false,
							"internalType": "uint256",
							"name": "price",
							"type": "uint256"
						},
						{
							"indexed": false,
							"internalType": "uint256",
							"name": "duration",
							"type": "uint256"
						},
						{
							"indexed": false,
							"internalType": "string",
							"name": "benefits",
							"type": "string"
						},
						{
							"indexed": false,
							"internalType": "uint256",
							"name": "version",
							"type": "uint256"
						}
					],
					"name": "PlanAdded",
					"type": "event"
				},
				{
					"anonymous": false,
					"inputs": [
						{
							"indexed": true,
							"internalType": "uint256",
							"name": "planId",
							"type": "uint256"
						}
					],
					"name": "PlanDeactivated",
					"type": "event"
				},
				{
					"anonymous": false,
					"inputs": [
						{
							"indexed": true,
							"internalType": "uint256",
							"name": "planId",
							"type": "uint256"
						},
						{
							"indexed": false,
							"internalType": "uint256",
							"name": "price",
							"type": "uint256"
						},
						{
							"indexed": false,
							"internalType": "uint256",
							"name": "duration",
							"type": "uint256"
						},
						{
							"indexed": false,
							"internalType": "string",
							"name": "benefits",
							"type": "string"
						},
						{
							"indexed": false,
							"internalType": "uint256",
							"name": "version",
							"type": "uint256"
						}
					],
					"name": "PlanUpdated",
					"type": "event"
				},
				{
					"anonymous": false,
					"inputs": [
						{
							"indexed": true,
							"internalType": "bytes32",
							"name": "role",
							"type": "bytes32"
						},
						{
							"indexed": true,
							"internalType": "bytes32",
							"name": "previousAdminRole",
							"type": "bytes32"
						},
						{
							"indexed": true,
							"internalType": "bytes32",
							"name": "newAdminRole",
							"type": "bytes32"
						}
					],
					"name": "RoleAdminChanged",
					"type": "event"
				},
				{
					"anonymous": false,
					"inputs": [
						{
							"indexed": true,
							"internalType": "bytes32",
							"name": "role",
							"type": "bytes32"
						},
						{
							"indexed": true,
							"internalType": "address",
							"name": "account",
							"type": "address"
						},
						{
							"indexed": true,
							"internalType": "address",
							"name": "sender",
							"type": "address"
						}
					],
					"name": "RoleGranted",
					"type": "event"
				},
				{
					"anonymous": false,
					"inputs": [
						{
							"indexed": true,
							"internalType": "bytes32",
							"name": "role",
							"type": "bytes32"
						},
						{
							"indexed": true,
							"internalType": "address",
							"name": "account",
							"type": "address"
						},
						{
							"indexed": true,
							"internalType": "address",
							"name": "sender",
							"type": "address"
						}
					],
					"name": "RoleRevoked",
					"type": "event"
				},
				{
					"anonymous": false,
					"inputs": [
						{
							"indexed": true,
							"internalType": "address",
							"name": "user",
							"type": "address"
						}
					],
					"name": "SubscriptionCancelled",
					"type": "event"
				},
				{
					"anonymous": false,
					"inputs": [
						{
							"indexed": true,
							"internalType": "address",
							"name": "user",
							"type": "address"
						},
						{
							"indexed": false,
							"internalType": "uint256",
							"name": "planId",
							"type": "uint256"
						},
						{
							"indexed": false,
							"internalType": "uint256",
							"name": "expiryTime",
							"type": "uint256"
						},
						{
							"indexed": false,
							"internalType": "uint256",
							"name": "amount",
							"type": "uint256"
						},
						{
							"indexed": false,
							"internalType": "uint256",
							"name": "duration",
							"type": "uint256"
						},
						{
							"indexed": false,
							"internalType": "uint256",
							"name": "planVersion",
							"type": "uint256"
						}
					],
					"name": "SubscriptionPurchased",
					"type": "event"
				},
				{
					"anonymous": false,
					"inputs": [
						{
							"indexed": true,
							"internalType": "address",
							"name": "user",
							"type": "address"
						},
						{
							"indexed": false,
							"internalType": "uint256",
							"name": "amount",
							"type": "uint256"
						}
					],
					"name": "SubscriptionRefunded",
					"type": "event"
				},
				{
					"anonymous": false,
					"inputs": [
						{
							"indexed": true,
							"internalType": "address",
							"name": "user",
							"type": "address"
						},
						{
							"indexed": false,
							"internalType": "uint256",
							"name": "planId",
							"type": "uint256"
						},
						{
							"indexed": false,
							"internalType": "uint256",
							"name": "expiryTime",
							"type": "uint256"
						}
					],
					"name": "SubscriptionRenewed",
					"type": "event"
				},
				{
					"anonymous": false,
					"inputs": [
						{
							"indexed": false,
							"internalType": "address",
							"name": "account",
							"type": "address"
						}
					],
					"name": "Unpaused",
					"type": "event"
				},
				{
					"inputs": [],
					"name": "ADMIN_ROLE",
					"outputs": [
						{
							"internalType": "bytes32",
							"name": "",
							"type": "bytes32"
						}
					],
					"stateMutability": "view",
					"type": "function"
				},
				{
					"inputs": [],
					"name": "DEFAULT_ADMIN_ROLE",
					"outputs": [
						{
							"internalType": "bytes32",
							"name": "",
							"type": "bytes32"
						}
					],
					"stateMutability": "view",
					"type": "function"
				},
				{
					"inputs": [],
					"name": "MAX_DURATION",
					"outputs": [
						{
							"internalType": "uint256",
							"name": "",
							"type": "uint256"
						}
					],
					"stateMutability": "view",
					"type": "function"
				},
				{
					"inputs": [],
					"name": "REFUND_WINDOW",
					"outputs": [
						{
							"internalType": "uint256",
							"name": "",
							"type": "uint256"
						}
					],
					"stateMutability": "view",
					"type": "function"
				},
				{
					"inputs": [],
					"name": "TREASURY_ROLE",
					"outputs": [
						{
							"internalType": "bytes32",
							"name": "",
							"type": "bytes32"
						}
					],
					"stateMutability": "view",
					"type": "function"
				},
				{
					"inputs": [
						{
							"internalType": "uint256",
							"name": "price",
							"type": "uint256"
						},
						{
							"internalType": "uint256",
							"name": "duration",
							"type": "uint256"
						},
						{
							"internalType": "uint256",
							"name": "trialDuration",
							"type": "uint256"
						},
						{
							"internalType": "string",
							"name": "benefits",
							"type": "string"
						}
					],
					"name": "addPlan",
					"outputs": [],
					"stateMutability": "nonpayable",
					"type": "function"
				},
				{
					"inputs": [
						{
							"internalType": "address[]",
							"name": "users",
							"type": "address[]"
						}
					],
					"name": "batchProcessRenewals",
					"outputs": [],
					"stateMutability": "nonpayable",
					"type": "function"
				},
				{
					"inputs": [],
					"name": "cancelSubscription",
					"outputs": [],
					"stateMutability": "nonpayable",
					"type": "function"
				},
				{
					"inputs": [
						{
							"internalType": "uint256",
							"name": "newPlanId",
							"type": "uint256"
						}
					],
					"name": "changePlan",
					"outputs": [],
					"stateMutability": "nonpayable",
					"type": "function"
				},
				{
					"inputs": [
						{
							"internalType": "uint256",
							"name": "planId",
							"type": "uint256"
						}
					],
					"name": "deactivatePlan",
					"outputs": [],
					"stateMutability": "nonpayable",
					"type": "function"
				},
				{
					"inputs": [
						{
							"internalType": "bytes32",
							"name": "role",
							"type": "bytes32"
						}
					],
					"name": "getRoleAdmin",
					"outputs": [
						{
							"internalType": "bytes32",
							"name": "",
							"type": "bytes32"
						}
					],
					"stateMutability": "view",
					"type": "function"
				},
				{
					"inputs": [
						{
							"internalType": "address",
							"name": "user",
							"type": "address"
						}
					],
					"name": "getSubscription",
					"outputs": [
						{
							"internalType": "bool",
							"name": "isActive",
							"type": "bool"
						},
						{
							"internalType": "uint256",
							"name": "expiryTime",
							"type": "uint256"
						},
						{
							"internalType": "uint256",
							"name": "planId",
							"type": "uint256"
						},
						{
							"internalType": "uint256",
							"name": "planVersion",
							"type": "uint256"
						}
					],
					"stateMutability": "view",
					"type": "function"
				},
				{
					"inputs": [
						{
							"internalType": "bytes32",
							"name": "role",
							"type": "bytes32"
						},
						{
							"internalType": "address",
							"name": "account",
							"type": "address"
						}
					],
					"name": "grantRole",
					"outputs": [],
					"stateMutability": "nonpayable",
					"type": "function"
				},
				{
					"inputs": [
						{
							"internalType": "bytes32",
							"name": "role",
							"type": "bytes32"
						},
						{
							"internalType": "address",
							"name": "account",
							"type": "address"
						}
					],
					"name": "hasRole",
					"outputs": [
						{
							"internalType": "bool",
							"name": "",
							"type": "bool"
						}
					],
					"stateMutability": "view",
					"type": "function"
				},
				{
					"inputs": [],
					"name": "paused",
					"outputs": [
						{
							"internalType": "bool",
							"name": "",
							"type": "bool"
						}
					],
					"stateMutability": "view",
					"type": "function"
				},
				{
					"inputs": [],
					"name": "planCount",
					"outputs": [
						{
							"internalType": "uint256",
							"name": "",
							"type": "uint256"
						}
					],
					"stateMutability": "view",
					"type": "function"
				},
				{
					"inputs": [
						{
							"internalType": "uint256",
							"name": "",
							"type": "uint256"
						}
					],
					"name": "plans",
					"outputs": [
						{
							"internalType": "uint256",
							"name": "price",
							"type": "uint256"
						},
						{
							"internalType": "uint256",
							"name": "duration",
							"type": "uint256"
						},
						{
							"internalType": "uint256",
							"name": "trialDuration",
							"type": "uint256"
						},
						{
							"internalType": "bool",
							"name": "isActive",
							"type": "bool"
						},
						{
							"internalType": "string",
							"name": "benefits",
							"type": "string"
						},
						{
							"internalType": "uint256",
							"name": "version",
							"type": "uint256"
						}
					],
					"stateMutability": "view",
					"type": "function"
				},
				{
					"inputs": [
						{
							"internalType": "uint256",
							"name": "planId",
							"type": "uint256"
						}
					],
					"name": "purchaseSubscription",
					"outputs": [],
					"stateMutability": "nonpayable",
					"type": "function"
				},
				{
					"inputs": [],
					"name": "refundSubscription",
					"outputs": [],
					"stateMutability": "nonpayable",
					"type": "function"
				},
				{
					"inputs": [
						{
							"internalType": "bytes32",
							"name": "role",
							"type": "bytes32"
						},
						{
							"internalType": "address",
							"name": "callerConfirmation",
							"type": "address"
						}
					],
					"name": "renounceRole",
					"outputs": [],
					"stateMutability": "nonpayable",
					"type": "function"
				},
				{
					"inputs": [
						{
							"internalType": "bytes32",
							"name": "role",
							"type": "bytes32"
						},
						{
							"internalType": "address",
							"name": "account",
							"type": "address"
						}
					],
					"name": "revokeRole",
					"outputs": [],
					"stateMutability": "nonpayable",
					"type": "function"
				},
				{
					"inputs": [
						{
							"internalType": "uint256",
							"name": "planId",
							"type": "uint256"
						}
					],
					"name": "startTrial",
					"outputs": [],
					"stateMutability": "nonpayable",
					"type": "function"
				},
				{
					"inputs": [
						{
							"internalType": "address",
							"name": "",
							"type": "address"
						}
					],
					"name": "subscriptions",
					"outputs": [
						{
							"internalType": "bool",
							"name": "isActive",
							"type": "bool"
						},
						{
							"internalType": "uint256",
							"name": "expiryTime",
							"type": "uint256"
						},
						{
							"internalType": "uint256",
							"name": "planId",
							"type": "uint256"
						},
						{
							"internalType": "uint256",
							"name": "planVersion",
							"type": "uint256"
						},
						{
							"internalType": "uint256",
							"name": "startTime",
							"type": "uint256"
						},
						{
							"internalType": "bool",
							"name": "autoRenew",
							"type": "bool"
						}
					],
					"stateMutability": "view",
					"type": "function"
				},
				{
					"inputs": [
						{
							"internalType": "bytes4",
							"name": "interfaceId",
							"type": "bytes4"
						}
					],
					"name": "supportsInterface",
					"outputs": [
						{
							"internalType": "bool",
							"name": "",
							"type": "bool"
						}
					],
					"stateMutability": "view",
					"type": "function"
				},
				{
					"inputs": [],
					"name": "toggleAutoRenew",
					"outputs": [],
					"stateMutability": "nonpayable",
					"type": "function"
				},
				{
					"inputs": [
						{
							"internalType": "uint256",
							"name": "planId",
							"type": "uint256"
						},
						{
							"internalType": "uint256",
							"name": "price",
							"type": "uint256"
						},
						{
							"internalType": "uint256",
							"name": "duration",
							"type": "uint256"
						},
						{
							"internalType": "uint256",
							"name": "trialDuration",
							"type": "uint256"
						},
						{
							"internalType": "string",
							"name": "benefits",
							"type": "string"
						}
					],
					"name": "updatePlan",
					"outputs": [],
					"stateMutability": "nonpayable",
					"type": "function"
				},
				{
					"inputs": [],
					"name": "usdcToken",
					"outputs": [
						{
							"internalType": "contract IERC20",
							"name": "",
							"type": "address"
						}
					],
					"stateMutability": "view",
					"type": "function"
				},
				{
					"inputs": [
						{
							"internalType": "address",
							"name": "recipient",
							"type": "address"
						},
						{
							"internalType": "uint256",
							"name": "amount",
							"type": "uint256"
						}
					],
					"name": "withdrawFunds",
					"outputs": [],
					"stateMutability": "nonpayable",
					"type": "function"
				}
			],
			"devdoc": {
				"errors": {
					"AccessControlBadConfirmation()": [
						{
							"details": "The caller of a function is not the expected one. NOTE: Don't confuse with {AccessControlUnauthorizedAccount}."
						}
					],
					"AccessControlUnauthorizedAccount(address,bytes32)": [
						{
							"details": "The `account` is missing a role."
						}
					]
				},
				"events": {
					"Paused(address)": {
						"details": "Emitted when the pause is triggered by `account`."
					},
					"RoleAdminChanged(bytes32,bytes32,bytes32)": {
						"details": "Emitted when `newAdminRole` is set as ``role``'s admin role, replacing `previousAdminRole` `DEFAULT_ADMIN_ROLE` is the starting admin for all roles, despite {RoleAdminChanged} not being emitted to signal this."
					},
					"RoleGranted(bytes32,address,address)": {
						"details": "Emitted when `account` is granted `role`. `sender` is the account that originated the contract call. This account bears the admin role (for the granted role). Expected in cases where the role was granted using the internal {AccessControl-_grantRole}."
					},
					"RoleRevoked(bytes32,address,address)": {
						"details": "Emitted when `account` is revoked `role`. `sender` is the account that originated the contract call:   - if using `revokeRole`, it is the admin role bearer   - if using `renounceRole`, it is the role bearer (i.e. `account`)"
					},
					"Unpaused(address)": {
						"details": "Emitted when the pause is lifted by `account`."
					}
				},
				"kind": "dev",
				"methods": {
					"getRoleAdmin(bytes32)": {
						"details": "Returns the admin role that controls `role`. See {grantRole} and {revokeRole}. To change a role's admin, use {_setRoleAdmin}."
					},
					"grantRole(bytes32,address)": {
						"details": "Grants `role` to `account`. If `account` had not been already granted `role`, emits a {RoleGranted} event. Requirements: - the caller must have ``role``'s admin role. May emit a {RoleGranted} event."
					},
					"hasRole(bytes32,address)": {
						"details": "Returns `true` if `account` has been granted `role`."
					},
					"paused()": {
						"details": "Returns true if the contract is paused, and false otherwise."
					},
					"renounceRole(bytes32,address)": {
						"details": "Revokes `role` from the calling account. Roles are often managed via {grantRole} and {revokeRole}: this function's purpose is to provide a mechanism for accounts to lose their privileges if they are compromised (such as when a trusted device is misplaced). If the calling account had been revoked `role`, emits a {RoleRevoked} event. Requirements: - the caller must be `callerConfirmation`. May emit a {RoleRevoked} event."
					},
					"revokeRole(bytes32,address)": {
						"details": "Revokes `role` from `account`. If `account` had been granted `role`, emits a {RoleRevoked} event. Requirements: - the caller must have ``role``'s admin role. May emit a {RoleRevoked} event."
					},
					"supportsInterface(bytes4)": {
						"details": "See {IERC165-supportsInterface}."
					}
				},
				"version": 1
			},
			"evm": {
				"assembly": "    /* \"contracts/src/Nova3.sol\":302:10733  contract SubscriptionManager is AccessControl, Pausable, ReentrancyGuard {... */\n  mstore(0x40, 0x80)\n    /* \"contracts/src/Nova3.sol\":2024:2424  constructor(address _usdcToken, address defaultAdmin) {... */\n  callvalue\n  dup1\n  iszero\n  tag_1\n  jumpi\n  0x00\n  dup1\n  revert\ntag_1:\n  pop\n  mload(0x40)\n  sub(codesize, bytecodeSize)\n  dup1\n  bytecodeSize\n  dup4\n  codecopy\n  dup2\n  add\n  0x40\n  dup2\n  swap1\n  mstore\n  tag_2\n  swap2\n  tag_3\n  jump\t// in\ntag_2:\n    /* \"@openzeppelin/contracts/security/Pausable.sol\":996:1003  _paused */\n  0x01\n    /* \"@openzeppelin/contracts/security/Pausable.sol\":996:1011  _paused = false */\n  dup1\n  sload\n  not(0xff)\n  and\n  dup2\n  sstore\n    /* \"@openzeppelin/contracts/security/ReentrancyGuard.sol\":1821:1828  _status */\n  0x02\n    /* \"@openzeppelin/contracts/security/ReentrancyGuard.sol\":1821:1843  _status = _NOT_ENTERED */\n  sstore\n  sub(shl(0xa0, 0x01), 0x01)\n    /* \"contracts/src/Nova3.sol\":2097:2121  _usdcToken != address(0) */\n  dup3\n  and\n    /* \"contracts/src/Nova3.sol\":2089:2152  require(_usdcToken != address(0), \"Invalid USDC token address\") */\n  tag_10\n  jumpi\n  mload(0x40)\n  shl(0xe5, 0x461bcd)\n  dup2\n  mstore\n    /* \"#utility.yul\":696:698   */\n  0x20\n    /* \"contracts/src/Nova3.sol\":2089:2152  require(_usdcToken != address(0), \"Invalid USDC token address\") */\n  0x04\n  dup3\n  add\n    /* \"#utility.yul\":678:699   */\n  mstore\n    /* \"#utility.yul\":735:737   */\n  0x1a\n    /* \"#utility.yul\":715:733   */\n  0x24\n  dup3\n  add\n    /* \"#utility.yul\":708:738   */\n  mstore\n    /* \"#utility.yul\":774:802   */\n  0x496e76616c6964205553444320746f6b656e2061646472657373000000000000\n    /* \"#utility.yul\":754:772   */\n  0x44\n  dup3\n  add\n    /* \"#utility.yul\":747:803   */\n  mstore\n    /* \"#utility.yul\":820:838   */\n  0x64\n  add\n    /* \"contracts/src/Nova3.sol\":2089:2152  require(_usdcToken != address(0), \"Invalid USDC token address\") */\ntag_11:\n  mload(0x40)\n  dup1\n  swap2\n  sub\n  swap1\n  revert\ntag_10:\n  sub(shl(0xa0, 0x01), 0x01)\n    /* \"contracts/src/Nova3.sol\":2171:2197  defaultAdmin != address(0) */\n  dup2\n  and\n    /* \"contracts/src/Nova3.sol\":2163:2223  require(defaultAdmin != address(0), \"Invalid admin address\") */\n  tag_13\n  jumpi\n  mload(0x40)\n  shl(0xe5, 0x461bcd)\n  dup2\n  mstore\n    /* \"#utility.yul\":1051:1053   */\n  0x20\n    /* \"contracts/src/Nova3.sol\":2163:2223  require(defaultAdmin != address(0), \"Invalid admin address\") */\n  0x04\n  dup3\n  add\n    /* \"#utility.yul\":1033:1054   */\n  mstore\n    /* \"#utility.yul\":1090:1092   */\n  0x15\n    /* \"#utility.yul\":1070:1088   */\n  0x24\n  dup3\n  add\n    /* \"#utility.yul\":1063:1093   */\n  mstore\n    /* \"#utility.yul\":1129:1152   */\n  0x496e76616c69642061646d696e20616464726573730000000000000000000000\n    /* \"#utility.yul\":1109:1127   */\n  0x44\n  dup3\n  add\n    /* \"#utility.yul\":1102:1153   */\n  mstore\n    /* \"#utility.yul\":1170:1188   */\n  0x64\n  add\n    /* \"contracts/src/Nova3.sol\":2163:2223  require(defaultAdmin != address(0), \"Invalid admin address\") */\n  tag_11\n    /* \"#utility.yul\":849:1194   */\n  jump\n    /* \"contracts/src/Nova3.sol\":2163:2223  require(defaultAdmin != address(0), \"Invalid admin address\") */\ntag_13:\n    /* \"contracts/src/Nova3.sol\":2234:2243  usdcToken */\n  0x03\n    /* \"contracts/src/Nova3.sol\":2234:2264  usdcToken = IERC20(_usdcToken) */\n  dup1\n  sload\n  not(sub(shl(0xa0, 0x01), 0x01))\n  and\n  sub(shl(0xa0, 0x01), 0x01)\n  dup5\n  and\n  or\n  swap1\n  sstore\n    /* \"contracts/src/Nova3.sol\":2275:2319  _grantRole(DEFAULT_ADMIN_ROLE, defaultAdmin) */\n  tag_16\n  0x00\n    /* \"contracts/src/Nova3.sol\":2306:2318  defaultAdmin */\n  dup3\n    /* \"contracts/src/Nova3.sol\":2275:2285  _grantRole */\n  tag_17\n    /* \"contracts/src/Nova3.sol\":2275:2319  _grantRole(DEFAULT_ADMIN_ROLE, defaultAdmin) */\n  jump\t// in\ntag_16:\n  pop\n    /* \"contracts/src/Nova3.sol\":2330:2366  _grantRole(ADMIN_ROLE, defaultAdmin) */\n  tag_18\n    /* \"contracts/src/Nova3.sol\":449:472  keccak256(\"ADMIN_ROLE\") */\n  0xa49807205ce4d355092ef5a8a18f56e8913cf4a201fbe287825b095693c21775\n    /* \"contracts/src/Nova3.sol\":2353:2365  defaultAdmin */\n  dup3\n    /* \"contracts/src/Nova3.sol\":2330:2340  _grantRole */\n  tag_17\n    /* \"contracts/src/Nova3.sol\":2330:2366  _grantRole(ADMIN_ROLE, defaultAdmin) */\n  jump\t// in\ntag_18:\n  pop\n    /* \"contracts/src/Nova3.sol\":2377:2416  _grantRole(TREASURY_ROLE, defaultAdmin) */\n  tag_19\n    /* \"contracts/src/Nova3.sol\":519:545  keccak256(\"TREASURY_ROLE\") */\n  0xe1dcbdb91df27212a29bc27177c840cf2f819ecf2187432e1fac86c2dd5dfca9\n    /* \"contracts/src/Nova3.sol\":2403:2415  defaultAdmin */\n  dup3\n    /* \"contracts/src/Nova3.sol\":2377:2387  _grantRole */\n  tag_17\n    /* \"contracts/src/Nova3.sol\":2377:2416  _grantRole(TREASURY_ROLE, defaultAdmin) */\n  jump\t// in\ntag_19:\n  pop\n    /* \"contracts/src/Nova3.sol\":2024:2424  constructor(address _usdcToken, address defaultAdmin) {... */\n  pop\n  pop\n    /* \"contracts/src/Nova3.sol\":302:10733  contract SubscriptionManager is AccessControl, Pausable, ReentrancyGuard {... */\n  jump(tag_31)\n    /* \"@openzeppelin/contracts/access/AccessControl.sol\":6179:6495  function _grantRole(bytes32 role, address account) internal virtual returns (bool) {... */\ntag_17:\n    /* \"@openzeppelin/contracts/access/AccessControl.sol\":6256:6260  bool */\n  0x00\n    /* \"@openzeppelin/contracts/access/AccessControl.sol\":2954:2966  _roles[role] */\n  dup3\n  dup2\n  mstore\n  0x20\n  dup2\n  dup2\n  mstore\n  0x40\n  dup1\n  dup4\n  keccak256\n  sub(shl(0xa0, 0x01), 0x01)\n    /* \"@openzeppelin/contracts/access/AccessControl.sol\":2954:2983  _roles[role].hasRole[account] */\n  dup6\n  and\n  dup5\n  mstore\n  swap1\n  swap2\n  mstore\n  dup2\n  keccak256\n  sload\n  0xff\n  and\n    /* \"@openzeppelin/contracts/access/AccessControl.sol\":6272:6489  if (!hasRole(role, account)) {... */\n  tag_24\n  jumpi\n    /* \"@openzeppelin/contracts/access/AccessControl.sol\":6315:6321  _roles */\n  0x00\n    /* \"@openzeppelin/contracts/access/AccessControl.sol\":6315:6327  _roles[role] */\n  dup4\n  dup2\n  mstore\n  0x20\n  dup2\n  dup2\n  mstore\n  0x40\n  dup1\n  dup4\n  keccak256\n  sub(shl(0xa0, 0x01), 0x01)\n    /* \"@openzeppelin/contracts/access/AccessControl.sol\":6315:6344  _roles[role].hasRole[account] */\n  dup7\n  and\n  dup5\n  mstore\n  swap1\n  swap2\n  mstore\n  swap1\n  keccak256\n    /* \"@openzeppelin/contracts/access/AccessControl.sol\":6315:6351  _roles[role].hasRole[account] = true */\n  dup1\n  sload\n  not(0xff)\n  and\n    /* \"@openzeppelin/contracts/access/AccessControl.sol\":6347:6351  true */\n  0x01\n    /* \"@openzeppelin/contracts/access/AccessControl.sol\":6315:6351  _roles[role].hasRole[account] = true */\n  or\n  swap1\n  sstore\n    /* \"@openzeppelin/contracts/access/AccessControl.sol\":6397:6409  _msgSender() */\n  tag_25\n    /* \"@openzeppelin/contracts/utils/Context.sol\":735:745  msg.sender */\n  caller\n  swap1\n    /* \"@openzeppelin/contracts/utils/Context.sol\":656:752  function _msgSender() internal view virtual returns (address) {... */\n  jump\n    /* \"@openzeppelin/contracts/access/AccessControl.sol\":6397:6409  _msgSender() */\ntag_25:\n  sub(shl(0xa0, 0x01), 0x01)\n    /* \"@openzeppelin/contracts/access/AccessControl.sol\":6370:6410  RoleGranted(role, account, _msgSender()) */\n  and\n    /* \"@openzeppelin/contracts/access/AccessControl.sol\":6388:6395  account */\n  dup3\n  sub(shl(0xa0, 0x01), 0x01)\n    /* \"@openzeppelin/contracts/access/AccessControl.sol\":6370:6410  RoleGranted(role, account, _msgSender()) */\n  and\n    /* \"@openzeppelin/contracts/access/AccessControl.sol\":6382:6386  role */\n  dup5\n    /* \"@openzeppelin/contracts/access/AccessControl.sol\":6370:6410  RoleGranted(role, account, _msgSender()) */\n  0x2f8788117e7eff1d82e926ec794901d17c78024a50270940304540a733656f0d\n  mload(0x40)\n  mload(0x40)\n  dup1\n  swap2\n  sub\n  swap1\n  log4\n  pop\n    /* \"@openzeppelin/contracts/access/AccessControl.sol\":6431:6435  true */\n  0x01\n    /* \"@openzeppelin/contracts/access/AccessControl.sol\":6424:6435  return true */\n  jump(tag_27)\n    /* \"@openzeppelin/contracts/access/AccessControl.sol\":6272:6489  if (!hasRole(role, account)) {... */\ntag_24:\n  pop\n    /* \"@openzeppelin/contracts/access/AccessControl.sol\":6473:6478  false */\n  0x00\n    /* \"@openzeppelin/contracts/access/AccessControl.sol\":6272:6489  if (!hasRole(role, account)) {... */\ntag_27:\n    /* \"@openzeppelin/contracts/access/AccessControl.sol\":6179:6495  function _grantRole(bytes32 role, address account) internal virtual returns (bool) {... */\n  swap3\n  swap2\n  pop\n  pop\n  jump\t// out\n    /* \"#utility.yul\":14:191   */\ntag_30:\n    /* \"#utility.yul\":93:106   */\n  dup1\n  mload\n  sub(shl(0xa0, 0x01), 0x01)\n    /* \"#utility.yul\":135:166   */\n  dup2\n  and\n    /* \"#utility.yul\":125:167   */\n  dup2\n  eq\n    /* \"#utility.yul\":115:185   */\n  tag_33\n  jumpi\n    /* \"#utility.yul\":181:182   */\n  0x00\n    /* \"#utility.yul\":178:179   */\n  dup1\n    /* \"#utility.yul\":171:183   */\n  revert\n    /* \"#utility.yul\":115:185   */\ntag_33:\n    /* \"#utility.yul\":14:191   */\n  swap2\n  swap1\n  pop\n  jump\t// out\n    /* \"#utility.yul\":196:489   */\ntag_3:\n    /* \"#utility.yul\":275:281   */\n  0x00\n    /* \"#utility.yul\":283:289   */\n  dup1\n    /* \"#utility.yul\":336:338   */\n  0x40\n    /* \"#utility.yul\":324:333   */\n  dup4\n    /* \"#utility.yul\":315:322   */\n  dup6\n    /* \"#utility.yul\":311:334   */\n  sub\n    /* \"#utility.yul\":307:339   */\n  slt\n    /* \"#utility.yul\":304:356   */\n  iszero\n  tag_35\n  jumpi\n    /* \"#utility.yul\":352:353   */\n  0x00\n    /* \"#utility.yul\":349:350   */\n  dup1\n    /* \"#utility.yul\":342:354   */\n  revert\n    /* \"#utility.yul\":304:356   */\ntag_35:\n    /* \"#utility.yul\":375:415   */\n  tag_36\n    /* \"#utility.yul\":405:414   */\n  dup4\n    /* \"#utility.yul\":375:415   */\n  tag_30\n  jump\t// in\ntag_36:\n    /* \"#utility.yul\":365:415   */\n  swap2\n  pop\n    /* \"#utility.yul\":434:483   */\n  tag_37\n    /* \"#utility.yul\":479:481   */\n  0x20\n    /* \"#utility.yul\":468:477   */\n  dup5\n    /* \"#utility.yul\":464:482   */\n  add\n    /* \"#utility.yul\":434:483   */\n  tag_30\n  jump\t// in\ntag_37:\n    /* \"#utility.yul\":424:483   */\n  swap1\n  pop\n    /* \"#utility.yul\":196:489   */\n  swap3\n  pop\n  swap3\n  swap1\n  pop\n  jump\t// out\n    /* \"#utility.yul\":849:1194   */\ntag_31:\n    /* \"contracts/src/Nova3.sol\":302:10733  contract SubscriptionManager is AccessControl, Pausable, ReentrancyGuard {... */\n  dataSize(sub_0)\n  dup1\n  dataOffset(sub_0)\n  0x00\n  codecopy\n  0x00\n  return\nstop\n\nsub_0: assembly {\n        /* \"contracts/src/Nova3.sol\":302:10733  contract SubscriptionManager is AccessControl, Pausable, ReentrancyGuard {... */\n      mstore(0x40, 0x80)\n      callvalue\n      dup1\n      iszero\n      tag_1\n      jumpi\n      0x00\n      dup1\n      revert\n    tag_1:\n      pop\n      jumpi(tag_2, lt(calldatasize, 0x04))\n      shr(0xe0, calldataload(0x00))\n      dup1\n      0x793cdd1a\n      gt\n      tag_31\n      jumpi\n      dup1\n      0xc1075329\n      gt\n      tag_32\n      jumpi\n      dup1\n      0xd11a57ec\n      gt\n      tag_33\n      jumpi\n      dup1\n      0xd11a57ec\n      eq\n      tag_27\n      jumpi\n      dup1\n      0xd547741f\n      eq\n      tag_28\n      jumpi\n      dup1\n      0xe22ba7ad\n      eq\n      tag_29\n      jumpi\n      dup1\n      0xf046395a\n      eq\n      tag_30\n      jumpi\n      0x00\n      dup1\n      revert\n    tag_33:\n      dup1\n      0xc1075329\n      eq\n      tag_24\n      jumpi\n      dup1\n      0xc3da1afe\n      eq\n      tag_25\n      jumpi\n      dup1\n      0xc5a7f77b\n      eq\n      tag_26\n      jumpi\n      0x00\n      dup1\n      revert\n    tag_32:\n      dup1\n      0x91d14854\n      gt\n      tag_34\n      jumpi\n      dup1\n      0x91d14854\n      eq\n      tag_20\n      jumpi\n      dup1\n      0xa217fddf\n      eq\n      tag_21\n      jumpi\n      dup1\n      0xb1620616\n      eq\n      tag_22\n      jumpi\n      dup1\n      0xb1724b46\n      eq\n      tag_23\n      jumpi\n      0x00\n      dup1\n      revert\n    tag_34:\n      dup1\n      0x793cdd1a\n      eq\n      tag_17\n      jumpi\n      dup1\n      0x88860e4e\n      eq\n      tag_18\n      jumpi\n      dup1\n      0x8edf72f5\n      eq\n      tag_19\n      jumpi\n      0x00\n      dup1\n      revert\n    tag_31:\n      dup1\n      0x2f2ff15d\n      gt\n      tag_35\n      jumpi\n      dup1\n      0x42912c9e\n      gt\n      tag_36\n      jumpi\n      dup1\n      0x42912c9e\n      eq\n      tag_13\n      jumpi\n      dup1\n      0x5c975abb\n      eq\n      tag_14\n      jumpi\n      dup1\n      0x6174bc63\n      eq\n      tag_15\n      jumpi\n      dup1\n      0x75b238fc\n      eq\n      tag_16\n      jumpi\n      0x00\n      dup1\n      revert\n    tag_36:\n      dup1\n      0x2f2ff15d\n      eq\n      tag_10\n      jumpi\n      dup1\n      0x36568abe\n      eq\n      tag_11\n      jumpi\n      dup1\n      0x382d39bb\n      eq\n      tag_12\n      jumpi\n      0x00\n      dup1\n      revert\n    tag_35:\n      dup1\n      0x1153b5f3\n      gt\n      tag_37\n      jumpi\n      dup1\n      0x1153b5f3\n      eq\n      tag_6\n      jumpi\n      dup1\n      0x11eac855\n      eq\n      tag_7\n      jumpi\n      dup1\n      0x248a9ca3\n      eq\n      tag_8\n      jumpi\n      dup1\n      0x24e9edb0\n      eq\n      tag_9\n      jumpi\n      0x00\n      dup1\n      revert\n    tag_37:\n      dup1\n      0x01ffc9a7\n      eq\n      tag_3\n      jumpi\n      dup1\n      0x05d567ca\n      eq\n      tag_4\n      jumpi\n      dup1\n      0x0cbebc24\n      eq\n      tag_5\n      jumpi\n    tag_2:\n      0x00\n      dup1\n      revert\n        /* \"@openzeppelin/contracts/access/AccessControl.sol\":2565:2767  function supportsInterface(bytes4 interfaceId) public view virtual override returns (bool) {... */\n    tag_3:\n      tag_38\n      tag_39\n      calldatasize\n      0x04\n      tag_40\n      jump\t// in\n    tag_39:\n      tag_41\n      jump\t// in\n    tag_38:\n      mload(0x40)\n        /* \"#utility.yul\":470:484   */\n      swap1\n      iszero\n        /* \"#utility.yul\":463:485   */\n      iszero\n        /* \"#utility.yul\":445:486   */\n      dup2\n      mstore\n        /* \"#utility.yul\":433:435   */\n      0x20\n        /* \"#utility.yul\":418:436   */\n      add\n        /* \"@openzeppelin/contracts/access/AccessControl.sol\":2565:2767  function supportsInterface(bytes4 interfaceId) public view virtual override returns (bool) {... */\n    tag_42:\n      mload(0x40)\n      dup1\n      swap2\n      sub\n      swap1\n      return\n        /* \"contracts/src/Nova3.sol\":4242:5307  function changePlan(uint256 newPlanId) external nonReentrant whenNotPaused {... */\n    tag_4:\n      tag_44\n      tag_45\n      calldatasize\n      0x04\n      tag_46\n      jump\t// in\n    tag_45:\n      tag_47\n      jump\t// in\n    tag_44:\n      stop\n        /* \"contracts/src/Nova3.sol\":7825:8223  function getSubscription(address user)... */\n    tag_5:\n      tag_48\n      tag_49\n      calldatasize\n      0x04\n      tag_50\n      jump\t// in\n    tag_49:\n      tag_51\n      jump\t// in\n    tag_48:\n      0x40\n      dup1\n      mload\n        /* \"#utility.yul\":1301:1315   */\n      swap5\n      iszero\n        /* \"#utility.yul\":1294:1316   */\n      iszero\n        /* \"#utility.yul\":1276:1317   */\n      dup6\n      mstore\n        /* \"#utility.yul\":1348:1350   */\n      0x20\n        /* \"#utility.yul\":1333:1351   */\n      dup6\n      add\n        /* \"#utility.yul\":1326:1360   */\n      swap4\n      swap1\n      swap4\n      mstore\n        /* \"#utility.yul\":1376:1394   */\n      swap2\n      dup4\n      add\n        /* \"#utility.yul\":1369:1403   */\n      mstore\n        /* \"#utility.yul\":1434:1436   */\n      0x60\n        /* \"#utility.yul\":1419:1437   */\n      dup3\n      add\n        /* \"#utility.yul\":1412:1446   */\n      mstore\n        /* \"#utility.yul\":1263:1266   */\n      0x80\n        /* \"#utility.yul\":1248:1267   */\n      add\n        /* \"contracts/src/Nova3.sol\":7825:8223  function getSubscription(address user)... */\n      tag_42\n        /* \"#utility.yul\":1051:1452   */\n      jump\n        /* \"contracts/src/Nova3.sol\":606:652  uint256 public constant REFUND_WINDOW = 1 days */\n    tag_6:\n      tag_54\n        /* \"contracts/src/Nova3.sol\":646:652  1 days */\n      0x015180\n        /* \"contracts/src/Nova3.sol\":606:652  uint256 public constant REFUND_WINDOW = 1 days */\n      dup2\n      jump\n    tag_54:\n      mload(0x40)\n        /* \"#utility.yul\":1603:1628   */\n      swap1\n      dup2\n      mstore\n        /* \"#utility.yul\":1591:1593   */\n      0x20\n        /* \"#utility.yul\":1576:1594   */\n      add\n        /* \"contracts/src/Nova3.sol\":606:652  uint256 public constant REFUND_WINDOW = 1 days */\n      tag_42\n        /* \"#utility.yul\":1457:1634   */\n      jump\n        /* \"contracts/src/Nova3.sol\":382:405  IERC20 public usdcToken */\n    tag_7:\n      sload(0x03)\n      tag_58\n      swap1\n      sub(shl(0xa0, 0x01), 0x01)\n      and\n      dup2\n      jump\n    tag_58:\n      mload(0x40)\n      sub(shl(0xa0, 0x01), 0x01)\n        /* \"#utility.yul\":1817:1849   */\n      swap1\n      swap2\n      and\n        /* \"#utility.yul\":1799:1850   */\n      dup2\n      mstore\n        /* \"#utility.yul\":1787:1789   */\n      0x20\n        /* \"#utility.yul\":1772:1790   */\n      add\n        /* \"contracts/src/Nova3.sol\":382:405  IERC20 public usdcToken */\n      tag_42\n        /* \"#utility.yul\":1639:1856   */\n      jump\n        /* \"@openzeppelin/contracts/access/AccessControl.sol\":3810:3930  function getRoleAdmin(bytes32 role) public view virtual returns (bytes32) {... */\n    tag_8:\n      tag_54\n      tag_63\n      calldatasize\n      0x04\n      tag_46\n      jump\t// in\n    tag_63:\n        /* \"@openzeppelin/contracts/access/AccessControl.sol\":3875:3882  bytes32 */\n      0x00\n        /* \"@openzeppelin/contracts/access/AccessControl.sol\":3901:3913  _roles[role] */\n      swap1\n      dup2\n      mstore\n      0x20\n      dup2\n      swap1\n      mstore\n      0x40\n      swap1\n      keccak256\n        /* \"@openzeppelin/contracts/access/AccessControl.sol\":3901:3923  _roles[role].adminRole */\n      0x01\n      add\n      sload\n      swap1\n        /* \"@openzeppelin/contracts/access/AccessControl.sol\":3810:3930  function getRoleAdmin(bytes32 role) public view virtual returns (bytes32) {... */\n      jump\n        /* \"contracts/src/Nova3.sol\":5315:5739  function cancelSubscription() external {... */\n    tag_9:\n      tag_44\n      tag_69\n      jump\t// in\n        /* \"@openzeppelin/contracts/access/AccessControl.sol\":4226:4362  function grantRole(bytes32 role, address account) public virtual onlyRole(getRoleAdmin(role)) {... */\n    tag_10:\n      tag_44\n      tag_71\n      calldatasize\n      0x04\n      tag_72\n      jump\t// in\n    tag_71:\n      tag_73\n      jump\t// in\n        /* \"@openzeppelin/contracts/access/AccessControl.sol\":5328:5573  function renounceRole(bytes32 role, address callerConfirmation) public virtual {... */\n    tag_11:\n      tag_44\n      tag_75\n      calldatasize\n      0x04\n      tag_72\n      jump\t// in\n    tag_75:\n      tag_76\n      jump\t// in\n        /* \"contracts/src/Nova3.sol\":1149:1173  uint256 public planCount */\n    tag_12:\n      tag_54\n      sload(0x06)\n      dup2\n      jump\n        /* \"contracts/src/Nova3.sol\":3563:4234  function startTrial(uint256 planId) external nonReentrant whenNotPaused {... */\n    tag_13:\n      tag_44\n      tag_81\n      calldatasize\n      0x04\n      tag_46\n      jump\t// in\n    tag_81:\n      tag_82\n      jump\t// in\n        /* \"@openzeppelin/contracts/security/Pausable.sol\":1615:1699  function paused() public view virtual returns (bool) {... */\n    tag_14:\n        /* \"@openzeppelin/contracts/security/Pausable.sol\":1685:1692  _paused */\n      and(0xff, sload(0x01))\n        /* \"@openzeppelin/contracts/security/Pausable.sol\":1615:1699  function paused() public view virtual returns (bool) {... */\n      jump(tag_38)\n        /* \"contracts/src/Nova3.sol\":9931:10169  function deactivatePlan(uint256 planId) external onlyRole(ADMIN_ROLE) {... */\n    tag_15:\n      tag_44\n      tag_87\n      calldatasize\n      0x04\n      tag_46\n      jump\t// in\n    tag_87:\n      tag_88\n      jump\t// in\n        /* \"contracts/src/Nova3.sol\":412:472  bytes32 public constant ADMIN_ROLE = keccak256(\"ADMIN_ROLE\") */\n    tag_16:\n      tag_54\n      0x00\n      dup1\n      mload\n      0x20\n      data_cb864c43dd5d441bb6271f424f11befa622c032dfd374d226e26fbbdb782b8f8\n      dup4\n      codecopy\n      dup2\n      mload\n      swap2\n      mstore\n      dup2\n      jump\n        /* \"contracts/src/Nova3.sol\":9048:9923  function updatePlan(... */\n    tag_17:\n      tag_44\n      tag_93\n      calldatasize\n      0x04\n      tag_94\n      jump\t// in\n    tag_93:\n      tag_95\n      jump\t// in\n        /* \"contracts/src/Nova3.sol\":6530:6753  function toggleAutoRenew() external {... */\n    tag_18:\n      tag_44\n      tag_97\n      jump\t// in\n        /* \"contracts/src/Nova3.sol\":2432:3555  function purchaseSubscription(uint256 planId) external nonReentrant whenNotPaused {... */\n    tag_19:\n      tag_44\n      tag_99\n      calldatasize\n      0x04\n      tag_46\n      jump\t// in\n    tag_99:\n      tag_100\n      jump\t// in\n        /* \"@openzeppelin/contracts/access/AccessControl.sol\":2854:2990  function hasRole(bytes32 role, address account) public view virtual returns (bool) {... */\n    tag_20:\n      tag_38\n      tag_102\n      calldatasize\n      0x04\n      tag_72\n      jump\t// in\n    tag_102:\n      tag_103\n      jump\t// in\n        /* \"@openzeppelin/contracts/access/AccessControl.sol\":2187:2236  bytes32 public constant DEFAULT_ADMIN_ROLE = 0x00 */\n    tag_21:\n      tag_54\n        /* \"@openzeppelin/contracts/access/AccessControl.sol\":2232:2236  0x00 */\n      0x00\n        /* \"@openzeppelin/contracts/access/AccessControl.sol\":2187:2236  bytes32 public constant DEFAULT_ADMIN_ROLE = 0x00 */\n      dup2\n      jump\n        /* \"contracts/src/Nova3.sol\":1105:1142  mapping(uint256 => Plan) public plans */\n    tag_22:\n      tag_108\n      tag_109\n      calldatasize\n      0x04\n      tag_46\n      jump\t// in\n    tag_109:\n      tag_110\n      jump\t// in\n    tag_108:\n      mload(0x40)\n      tag_42\n      swap7\n      swap6\n      swap5\n      swap4\n      swap3\n      swap2\n      swap1\n      tag_112\n      jump\t// in\n        /* \"contracts/src/Nova3.sol\":552:599  uint256 public constant MAX_DURATION = 365 days */\n    tag_23:\n      tag_54\n        /* \"contracts/src/Nova3.sol\":591:599  365 days */\n      0x01e13380\n        /* \"contracts/src/Nova3.sol\":552:599  uint256 public constant MAX_DURATION = 365 days */\n      dup2\n      jump\n        /* \"contracts/src/Nova3.sol\":10177:10730  function withdrawFunds(address recipient, uint256 amount)... */\n    tag_24:\n      tag_44\n      tag_117\n      calldatasize\n      0x04\n      tag_118\n      jump\t// in\n    tag_117:\n      tag_119\n      jump\t// in\n        /* \"contracts/src/Nova3.sol\":8231:9040  function addPlan(... */\n    tag_25:\n      tag_44\n      tag_121\n      calldatasize\n      0x04\n      tag_122\n      jump\t// in\n    tag_121:\n      tag_123\n      jump\t// in\n        /* \"contracts/src/Nova3.sol\":5747:6522  function refundSubscription() external nonReentrant {... */\n    tag_26:\n      tag_44\n      tag_125\n      jump\t// in\n        /* \"contracts/src/Nova3.sol\":479:545  bytes32 public constant TREASURY_ROLE = keccak256(\"TREASURY_ROLE\") */\n    tag_27:\n      tag_54\n        /* \"contracts/src/Nova3.sol\":519:545  keccak256(\"TREASURY_ROLE\") */\n      0xe1dcbdb91df27212a29bc27177c840cf2f819ecf2187432e1fac86c2dd5dfca9\n        /* \"contracts/src/Nova3.sol\":479:545  bytes32 public constant TREASURY_ROLE = keccak256(\"TREASURY_ROLE\") */\n      dup2\n      jump\n        /* \"@openzeppelin/contracts/access/AccessControl.sol\":4642:4780  function revokeRole(bytes32 role, address account) public virtual onlyRole(getRoleAdmin(role)) {... */\n    tag_28:\n      tag_44\n      tag_130\n      calldatasize\n      0x04\n      tag_72\n      jump\t// in\n    tag_130:\n      tag_131\n      jump\t// in\n        /* \"contracts/src/Nova3.sol\":6761:7817  function batchProcessRenewals(address[] calldata users) external {... */\n    tag_29:\n      tag_44\n      tag_133\n      calldatasize\n      0x04\n      tag_134\n      jump\t// in\n    tag_133:\n      tag_135\n      jump\t// in\n        /* \"contracts/src/Nova3.sol\":1045:1098  mapping(address => Subscription) public subscriptions */\n    tag_30:\n      tag_136\n      tag_137\n      calldatasize\n      0x04\n      tag_50\n      jump\t// in\n    tag_137:\n      0x04\n      0x20\n      dup2\n      swap1\n      mstore\n      0x00\n      swap2\n      dup3\n      mstore\n      0x40\n      swap1\n      swap2\n      keccak256\n      dup1\n      sload\n      0x01\n      dup3\n      add\n      sload\n      0x02\n      dup4\n      add\n      sload\n      0x03\n      dup5\n      add\n      sload\n      swap5\n      dup5\n      add\n      sload\n      0x05\n      swap1\n      swap5\n      add\n      sload\n      0xff\n      swap4\n      dup5\n      and\n      swap6\n      swap3\n      swap5\n      swap2\n      swap4\n      and\n      dup7\n      jump\n    tag_136:\n      0x40\n      dup1\n      mload\n        /* \"#utility.yul\":6255:6269   */\n      swap7\n      iszero\n        /* \"#utility.yul\":6248:6270   */\n      iszero\n        /* \"#utility.yul\":6230:6271   */\n      dup8\n      mstore\n        /* \"#utility.yul\":6302:6304   */\n      0x20\n        /* \"#utility.yul\":6287:6305   */\n      dup8\n      add\n        /* \"#utility.yul\":6280:6314   */\n      swap6\n      swap1\n      swap6\n      mstore\n        /* \"#utility.yul\":6330:6348   */\n      swap4\n      dup6\n      add\n        /* \"#utility.yul\":6323:6357   */\n      swap3\n      swap1\n      swap3\n      mstore\n        /* \"#utility.yul\":6388:6390   */\n      0x60\n        /* \"#utility.yul\":6373:6391   */\n      dup5\n      add\n        /* \"#utility.yul\":6366:6400   */\n      mstore\n        /* \"#utility.yul\":6431:6434   */\n      0x80\n        /* \"#utility.yul\":6416:6435   */\n      dup4\n      add\n        /* \"#utility.yul\":6409:6444   */\n      mstore\n        /* \"#utility.yul\":6488:6502   */\n      iszero\n        /* \"#utility.yul\":6481:6503   */\n      iszero\n        /* \"#utility.yul\":6475:6478   */\n      0xa0\n        /* \"#utility.yul\":6460:6479   */\n      dup3\n      add\n        /* \"#utility.yul\":6453:6504   */\n      mstore\n        /* \"#utility.yul\":6217:6220   */\n      0xc0\n        /* \"#utility.yul\":6202:6221   */\n      add\n        /* \"contracts/src/Nova3.sol\":1045:1098  mapping(address => Subscription) public subscriptions */\n      tag_42\n        /* \"#utility.yul\":5955:6510   */\n      jump\n        /* \"@openzeppelin/contracts/access/AccessControl.sol\":2565:2767  function supportsInterface(bytes4 interfaceId) public view virtual override returns (bool) {... */\n    tag_41:\n        /* \"@openzeppelin/contracts/access/AccessControl.sol\":2650:2654  bool */\n      0x00\n      not(sub(shl(0xe0, 0x01), 0x01))\n        /* \"@openzeppelin/contracts/access/AccessControl.sol\":2673:2720  interfaceId == type(IAccessControl).interfaceId */\n      dup3\n      and\n      shl(0xe0, 0x7965db0b)\n      eq\n      dup1\n        /* \"@openzeppelin/contracts/access/AccessControl.sol\":2673:2760  interfaceId == type(IAccessControl).interfaceId || super.supportsInterface(interfaceId) */\n      tag_143\n      jumpi\n      pop\n      shl(0xe0, 0x01ffc9a7)\n      not(sub(shl(0xe0, 0x01), 0x01))\n        /* \"@openzeppelin/contracts/utils/introspection/ERC165.sol\":862:902  interfaceId == type(IERC165).interfaceId */\n      dup4\n      and\n      eq\n        /* \"@openzeppelin/contracts/access/AccessControl.sol\":2724:2760  super.supportsInterface(interfaceId) */\n    tag_143:\n        /* \"@openzeppelin/contracts/access/AccessControl.sol\":2666:2760  return interfaceId == type(IAccessControl).interfaceId || super.supportsInterface(interfaceId) */\n      swap3\n        /* \"@openzeppelin/contracts/access/AccessControl.sol\":2565:2767  function supportsInterface(bytes4 interfaceId) public view virtual override returns (bool) {... */\n      swap2\n      pop\n      pop\n      jump\t// out\n        /* \"contracts/src/Nova3.sol\":4242:5307  function changePlan(uint256 newPlanId) external nonReentrant whenNotPaused {... */\n    tag_47:\n        /* \"@openzeppelin/contracts/security/ReentrancyGuard.sol\":2261:2282  _nonReentrantBefore() */\n      tag_146\n        /* \"@openzeppelin/contracts/security/ReentrancyGuard.sol\":2261:2280  _nonReentrantBefore */\n      tag_147\n        /* \"@openzeppelin/contracts/security/ReentrancyGuard.sol\":2261:2282  _nonReentrantBefore() */\n      jump\t// in\n    tag_146:\n        /* \"@openzeppelin/contracts/security/Pausable.sol\":1239:1258  _requireNotPaused() */\n      tag_149\n        /* \"@openzeppelin/contracts/security/Pausable.sol\":1239:1256  _requireNotPaused */\n      tag_150\n        /* \"@openzeppelin/contracts/security/Pausable.sol\":1239:1258  _requireNotPaused() */\n      jump\t// in\n    tag_149:\n        /* \"contracts/src/Nova3.sol\":4373:4383  msg.sender */\n      caller\n        /* \"contracts/src/Nova3.sol\":4328:4356  Subscription storage userSub */\n      0x00\n        /* \"contracts/src/Nova3.sol\":4359:4384  subscriptions[msg.sender] */\n      swap1\n      dup2\n      mstore\n        /* \"contracts/src/Nova3.sol\":4359:4372  subscriptions */\n      0x04\n        /* \"contracts/src/Nova3.sol\":4359:4384  subscriptions[msg.sender] */\n      0x20\n      mstore\n      0x40\n      swap1\n      keccak256\n        /* \"contracts/src/Nova3.sol\":4403:4419  userSub.isActive */\n      dup1\n      sload\n      0xff\n      and\n        /* \"contracts/src/Nova3.sol\":4403:4459  userSub.isActive && userSub.expiryTime > block.timestamp */\n      dup1\n      iszero\n      tag_152\n      jumpi\n      pop\n        /* \"contracts/src/Nova3.sol\":4444:4459  block.timestamp */\n      timestamp\n        /* \"contracts/src/Nova3.sol\":4423:4430  userSub */\n      dup2\n        /* \"contracts/src/Nova3.sol\":4423:4441  userSub.expiryTime */\n      0x01\n      add\n      sload\n        /* \"contracts/src/Nova3.sol\":4423:4459  userSub.expiryTime > block.timestamp */\n      gt\n        /* \"contracts/src/Nova3.sol\":4403:4459  userSub.isActive && userSub.expiryTime > block.timestamp */\n    tag_152:\n        /* \"contracts/src/Nova3.sol\":4395:4486  require(userSub.isActive && userSub.expiryTime > block.timestamp, \"No active subscription\") */\n      tag_153\n      jumpi\n      mload(0x40)\n      shl(0xe5, 0x461bcd)\n      dup2\n      mstore\n      0x04\n      add\n      tag_154\n      swap1\n      tag_155\n      jump\t// in\n    tag_154:\n      mload(0x40)\n      dup1\n      swap2\n      sub\n      swap1\n      revert\n    tag_153:\n        /* \"contracts/src/Nova3.sol\":4497:4516  Plan memory newPlan */\n      0x00\n        /* \"contracts/src/Nova3.sol\":4519:4535  plans[newPlanId] */\n      dup3\n      dup2\n      mstore\n        /* \"contracts/src/Nova3.sol\":4519:4524  plans */\n      0x05\n        /* \"contracts/src/Nova3.sol\":4519:4535  plans[newPlanId] */\n      0x20\n      swap1\n      dup2\n      mstore\n      0x40\n      dup1\n      dup4\n      keccak256\n        /* \"contracts/src/Nova3.sol\":4497:4535  Plan memory newPlan = plans[newPlanId] */\n      dup2\n      mload\n      0xc0\n      dup2\n      add\n      dup4\n      mstore\n      dup2\n      sload\n      dup2\n      mstore\n      0x01\n      dup3\n      add\n      sload\n      swap4\n      dup2\n      add\n      swap4\n      swap1\n      swap4\n      mstore\n      0x02\n      dup2\n      add\n      sload\n      swap2\n      dup4\n      add\n      swap2\n      swap1\n      swap2\n      mstore\n      0x03\n      dup2\n      add\n      sload\n      0xff\n      and\n      iszero\n      iszero\n      0x60\n      dup4\n      add\n      mstore\n      0x04\n      dup2\n      add\n      dup1\n      sload\n      0x80\n      dup5\n      add\n      swap2\n      swap1\n      tag_156\n      swap1\n      tag_157\n      jump\t// in\n    tag_156:\n      dup1\n      0x1f\n      add\n      0x20\n      dup1\n      swap2\n      div\n      mul\n      0x20\n      add\n      mload(0x40)\n      swap1\n      dup2\n      add\n      0x40\n      mstore\n      dup1\n      swap3\n      swap2\n      swap1\n      dup2\n      dup2\n      mstore\n      0x20\n      add\n      dup3\n      dup1\n      sload\n      tag_158\n      swap1\n      tag_157\n      jump\t// in\n    tag_158:\n      dup1\n      iszero\n      tag_159\n      jumpi\n      dup1\n      0x1f\n      lt\n      tag_160\n      jumpi\n      0x0100\n      dup1\n      dup4\n      sload\n      div\n      mul\n      dup4\n      mstore\n      swap2\n      0x20\n      add\n      swap2\n      jump(tag_159)\n    tag_160:\n      dup3\n      add\n      swap2\n      swap1\n      0x00\n      mstore\n      keccak256(0x00, 0x20)\n      swap1\n    tag_161:\n      dup2\n      sload\n      dup2\n      mstore\n      swap1\n      0x01\n      add\n      swap1\n      0x20\n      add\n      dup1\n      dup4\n      gt\n      tag_161\n      jumpi\n      dup3\n      swap1\n      sub\n      0x1f\n      and\n      dup3\n      add\n      swap2\n    tag_159:\n      pop\n      pop\n      pop\n      pop\n      pop\n      dup2\n      mstore\n      0x20\n      add\n      0x05\n      dup3\n      add\n      sload\n      dup2\n      mstore\n      pop\n      pop\n      swap1\n      pop\n        /* \"contracts/src/Nova3.sol\":4554:4561  newPlan */\n      dup1\n        /* \"contracts/src/Nova3.sol\":4554:4570  newPlan.isActive */\n      0x60\n      add\n      mload\n        /* \"contracts/src/Nova3.sol\":4554:4591  newPlan.isActive && newPlan.price > 0 */\n      dup1\n      iszero\n      tag_162\n      jumpi\n      pop\n        /* \"contracts/src/Nova3.sol\":4574:4587  newPlan.price */\n      dup1\n      mload\n        /* \"contracts/src/Nova3.sol\":4574:4591  newPlan.price > 0 */\n      iszero\n      iszero\n        /* \"contracts/src/Nova3.sol\":4554:4591  newPlan.isActive && newPlan.price > 0 */\n    tag_162:\n        /* \"contracts/src/Nova3.sol\":4554:4615  newPlan.isActive && newPlan.price > 0 && newPlan.duration > 0 */\n      dup1\n      iszero\n      tag_163\n      jumpi\n      pop\n        /* \"contracts/src/Nova3.sol\":4614:4615  0 */\n      0x00\n        /* \"contracts/src/Nova3.sol\":4595:4602  newPlan */\n      dup2\n        /* \"contracts/src/Nova3.sol\":4595:4611  newPlan.duration */\n      0x20\n      add\n      mload\n        /* \"contracts/src/Nova3.sol\":4595:4615  newPlan.duration > 0 */\n      gt\n        /* \"contracts/src/Nova3.sol\":4554:4615  newPlan.isActive && newPlan.price > 0 && newPlan.duration > 0 */\n    tag_163:\n        /* \"contracts/src/Nova3.sol\":4546:4636  require(newPlan.isActive && newPlan.price > 0 && newPlan.duration > 0, \"Invalid new plan\") */\n      tag_164\n      jumpi\n      mload(0x40)\n      shl(0xe5, 0x461bcd)\n      dup2\n      mstore\n        /* \"#utility.yul\":7453:7455   */\n      0x20\n        /* \"contracts/src/Nova3.sol\":4546:4636  require(newPlan.isActive && newPlan.price > 0 && newPlan.duration > 0, \"Invalid new plan\") */\n      0x04\n      dup3\n      add\n        /* \"#utility.yul\":7435:7456   */\n      mstore\n        /* \"#utility.yul\":7492:7494   */\n      0x10\n        /* \"#utility.yul\":7472:7490   */\n      0x24\n      dup3\n      add\n        /* \"#utility.yul\":7465:7495   */\n      mstore\n      shl(0x81, 0x24b73b30b634b2103732bb90383630b7)\n        /* \"#utility.yul\":7511:7529   */\n      0x44\n      dup3\n      add\n        /* \"#utility.yul\":7504:7550   */\n      mstore\n        /* \"#utility.yul\":7567:7585   */\n      0x64\n      add\n        /* \"contracts/src/Nova3.sol\":4546:4636  require(newPlan.isActive && newPlan.price > 0 && newPlan.duration > 0, \"Invalid new plan\") */\n      tag_154\n        /* \"#utility.yul\":7251:7591   */\n      jump\n        /* \"contracts/src/Nova3.sol\":4546:4636  require(newPlan.isActive && newPlan.price > 0 && newPlan.duration > 0, \"Invalid new plan\") */\n    tag_164:\n        /* \"contracts/src/Nova3.sol\":4671:4680  usdcToken */\n      sload(0x03)\n        /* \"contracts/src/Nova3.sol\":4671:4705  usdcToken.balanceOf(address(this)) */\n      mload(0x40)\n      shl(0xe0, 0x70a08231)\n      dup2\n      mstore\n        /* \"contracts/src/Nova3.sol\":4699:4703  this */\n      address\n        /* \"contracts/src/Nova3.sol\":4671:4705  usdcToken.balanceOf(address(this)) */\n      0x04\n      dup3\n      add\n        /* \"#utility.yul\":1799:1850   */\n      mstore\n        /* \"contracts/src/Nova3.sol\":4647:4668  uint256 balanceBefore */\n      0x00\n      swap2\n      sub(shl(0xa0, 0x01), 0x01)\n        /* \"contracts/src/Nova3.sol\":4671:4680  usdcToken */\n      and\n      swap1\n        /* \"contracts/src/Nova3.sol\":4671:4690  usdcToken.balanceOf */\n      0x70a08231\n      swap1\n        /* \"#utility.yul\":1772:1790   */\n      0x24\n      add\n        /* \"contracts/src/Nova3.sol\":4671:4705  usdcToken.balanceOf(address(this)) */\n      0x20\n      mload(0x40)\n      dup1\n      dup4\n      sub\n      dup2\n      dup7\n      gas\n      staticcall\n      iszero\n      dup1\n      iszero\n      tag_170\n      jumpi\n      returndatasize\n      0x00\n      dup1\n      returndatacopy\n      revert(0x00, returndatasize)\n    tag_170:\n      pop\n      pop\n      pop\n      pop\n      mload(0x40)\n      returndatasize\n      not(0x1f)\n      0x1f\n      dup3\n      add\n      and\n      dup3\n      add\n      dup1\n      0x40\n      mstore\n      pop\n      dup2\n      add\n      swap1\n      tag_171\n      swap2\n      swap1\n      tag_172\n      jump\t// in\n    tag_171:\n        /* \"contracts/src/Nova3.sol\":4724:4733  usdcToken */\n      sload(0x03)\n        /* \"contracts/src/Nova3.sol\":4774:4787  newPlan.price */\n      dup4\n      mload\n        /* \"contracts/src/Nova3.sol\":4724:4788  usdcToken.transferFrom(msg.sender, address(this), newPlan.price) */\n      mload(0x40)\n      shl(0xe0, 0x23b872dd)\n      dup2\n      mstore\n        /* \"contracts/src/Nova3.sol\":4747:4757  msg.sender */\n      caller\n        /* \"contracts/src/Nova3.sol\":4724:4788  usdcToken.transferFrom(msg.sender, address(this), newPlan.price) */\n      0x04\n      dup3\n      add\n        /* \"#utility.yul\":8233:8267   */\n      mstore\n        /* \"contracts/src/Nova3.sol\":4767:4771  this */\n      address\n        /* \"#utility.yul\":8283:8301   */\n      0x24\n      dup3\n      add\n        /* \"#utility.yul\":8276:8319   */\n      mstore\n        /* \"#utility.yul\":8335:8353   */\n      0x44\n      dup2\n      add\n        /* \"#utility.yul\":8328:8362   */\n      swap2\n      swap1\n      swap2\n      mstore\n        /* \"contracts/src/Nova3.sol\":4647:4705  uint256 balanceBefore = usdcToken.balanceOf(address(this)) */\n      swap2\n      swap3\n      pop\n      sub(shl(0xa0, 0x01), 0x01)\n        /* \"contracts/src/Nova3.sol\":4724:4733  usdcToken */\n      and\n      swap1\n        /* \"contracts/src/Nova3.sol\":4724:4746  usdcToken.transferFrom */\n      0x23b872dd\n      swap1\n        /* \"#utility.yul\":8168:8186   */\n      0x64\n      add\n        /* \"contracts/src/Nova3.sol\":4724:4788  usdcToken.transferFrom(msg.sender, address(this), newPlan.price) */\n      0x20\n      mload(0x40)\n      dup1\n      dup4\n      sub\n      dup2\n      0x00\n      dup8\n      gas\n      call\n      iszero\n      dup1\n      iszero\n      tag_176\n      jumpi\n      returndatasize\n      0x00\n      dup1\n      returndatacopy\n      revert(0x00, returndatasize)\n    tag_176:\n      pop\n      pop\n      pop\n      pop\n      mload(0x40)\n      returndatasize\n      not(0x1f)\n      0x1f\n      dup3\n      add\n      and\n      dup3\n      add\n      dup1\n      0x40\n      mstore\n      pop\n      dup2\n      add\n      swap1\n      tag_177\n      swap2\n      swap1\n      tag_178\n      jump\t// in\n    tag_177:\n        /* \"contracts/src/Nova3.sol\":4716:4813  require(usdcToken.transferFrom(msg.sender, address(this), newPlan.price), \"USDC transfer failed\") */\n      tag_179\n      jumpi\n      mload(0x40)\n      shl(0xe5, 0x461bcd)\n      dup2\n      mstore\n      0x04\n      add\n      tag_154\n      swap1\n      tag_181\n      jump\t// in\n    tag_179:\n        /* \"contracts/src/Nova3.sol\":4900:4913  newPlan.price */\n      dup2\n      mload\n        /* \"contracts/src/Nova3.sol\":4846:4855  usdcToken */\n      sload(0x03)\n        /* \"contracts/src/Nova3.sol\":4846:4880  usdcToken.balanceOf(address(this)) */\n      mload(0x40)\n      shl(0xe0, 0x70a08231)\n      dup2\n      mstore\n        /* \"contracts/src/Nova3.sol\":4874:4878  this */\n      address\n        /* \"contracts/src/Nova3.sol\":4846:4880  usdcToken.balanceOf(address(this)) */\n      0x04\n      dup3\n      add\n        /* \"#utility.yul\":1799:1850   */\n      mstore\n        /* \"contracts/src/Nova3.sol\":4883:4896  balanceBefore */\n      dup4\n      swap2\n      sub(shl(0xa0, 0x01), 0x01)\n        /* \"contracts/src/Nova3.sol\":4846:4855  usdcToken */\n      and\n      swap1\n        /* \"contracts/src/Nova3.sol\":4846:4865  usdcToken.balanceOf */\n      0x70a08231\n      swap1\n        /* \"#utility.yul\":1772:1790   */\n      0x24\n      add\n        /* \"contracts/src/Nova3.sol\":4846:4880  usdcToken.balanceOf(address(this)) */\n      0x20\n      mload(0x40)\n      dup1\n      dup4\n      sub\n      dup2\n      dup7\n      gas\n      staticcall\n      iszero\n      dup1\n      iszero\n      tag_184\n      jumpi\n      returndatasize\n      0x00\n      dup1\n      returndatacopy\n      revert(0x00, returndatasize)\n    tag_184:\n      pop\n      pop\n      pop\n      pop\n      mload(0x40)\n      returndatasize\n      not(0x1f)\n      0x1f\n      dup3\n      add\n      and\n      dup3\n      add\n      dup1\n      0x40\n      mstore\n      pop\n      dup2\n      add\n      swap1\n      tag_185\n      swap2\n      swap1\n      tag_172\n      jump\t// in\n    tag_185:\n        /* \"contracts/src/Nova3.sol\":4846:4896  usdcToken.balanceOf(address(this)) - balanceBefore */\n      tag_186\n      swap2\n      swap1\n      tag_187\n      jump\t// in\n    tag_186:\n        /* \"contracts/src/Nova3.sol\":4846:4913  usdcToken.balanceOf(address(this)) - balanceBefore >= newPlan.price */\n      lt\n      iszero\n        /* \"contracts/src/Nova3.sol\":4824:4972  require(... */\n      tag_188\n      jumpi\n      mload(0x40)\n      shl(0xe5, 0x461bcd)\n      dup2\n      mstore\n        /* \"#utility.yul\":9471:9473   */\n      0x20\n        /* \"contracts/src/Nova3.sol\":4824:4972  require(... */\n      0x04\n      dup3\n      add\n        /* \"#utility.yul\":9453:9474   */\n      mstore\n        /* \"#utility.yul\":9510:9512   */\n      0x1f\n        /* \"#utility.yul\":9490:9508   */\n      0x24\n      dup3\n      add\n        /* \"#utility.yul\":9483:9513   */\n      mstore\n        /* \"#utility.yul\":9549:9582   */\n      0x526563656976656420616d6f756e74206c657373207468616e20707269636500\n        /* \"#utility.yul\":9529:9547   */\n      0x44\n      dup3\n      add\n        /* \"#utility.yul\":9522:9583   */\n      mstore\n        /* \"#utility.yul\":9600:9618   */\n      0x64\n      add\n        /* \"contracts/src/Nova3.sol\":4824:4972  require(... */\n      tag_154\n        /* \"#utility.yul\":9269:9624   */\n      jump\n        /* \"contracts/src/Nova3.sol\":4824:4972  require(... */\n    tag_188:\n        /* \"contracts/src/Nova3.sol\":4983:4997  userSub.planId */\n      0x02\n      dup4\n      add\n        /* \"contracts/src/Nova3.sol\":4983:5009  userSub.planId = newPlanId */\n      dup5\n      swap1\n      sstore\n        /* \"contracts/src/Nova3.sol\":5042:5057  newPlan.version */\n      0xa0\n      dup3\n      add\n      mload\n        /* \"contracts/src/Nova3.sol\":5020:5039  userSub.planVersion */\n      0x03\n      dup5\n      add\n        /* \"contracts/src/Nova3.sol\":5020:5057  userSub.planVersion = newPlan.version */\n      sstore\n        /* \"contracts/src/Nova3.sol\":5107:5123  newPlan.duration */\n      0x20\n      dup3\n      add\n      mload\n        /* \"contracts/src/Nova3.sol\":5089:5123  block.timestamp + newPlan.duration */\n      tag_191\n      swap1\n        /* \"contracts/src/Nova3.sol\":5089:5104  block.timestamp */\n      timestamp\n        /* \"contracts/src/Nova3.sol\":5089:5123  block.timestamp + newPlan.duration */\n      tag_192\n      jump\t// in\n    tag_191:\n        /* \"contracts/src/Nova3.sol\":5068:5086  userSub.expiryTime */\n      0x01\n      dup5\n      add\n        /* \"contracts/src/Nova3.sol\":5068:5123  userSub.expiryTime = block.timestamp + newPlan.duration */\n      dup2\n      swap1\n      sstore\n        /* \"contracts/src/Nova3.sol\":5154:5169  block.timestamp */\n      timestamp\n        /* \"contracts/src/Nova3.sol\":5134:5151  userSub.startTime */\n      0x04\n      dup6\n      add\n        /* \"contracts/src/Nova3.sol\":5134:5169  userSub.startTime = block.timestamp */\n      sstore\n        /* \"contracts/src/Nova3.sol\":5250:5263  newPlan.price */\n      dup3\n      mload\n        /* \"contracts/src/Nova3.sol\":5265:5281  newPlan.duration */\n      0x20\n      dup1\n      dup6\n      add\n      mload\n        /* \"contracts/src/Nova3.sol\":5283:5298  newPlan.version */\n      0xa0\n      dup1\n      dup8\n      add\n      mload\n        /* \"contracts/src/Nova3.sol\":5185:5299  SubscriptionPurchased(msg.sender, newPlanId, userSub.expiryTime, newPlan.price, newPlan.duration, newPlan.version) */\n      0x40\n      dup1\n      mload\n        /* \"#utility.yul\":10018:10043   */\n      dup12\n      dup2\n      mstore\n        /* \"#utility.yul\":10059:10077   */\n      swap5\n      dup6\n      add\n        /* \"#utility.yul\":10052:10086   */\n      swap7\n      swap1\n      swap7\n      mstore\n        /* \"#utility.yul\":10102:10120   */\n      swap5\n      dup4\n      add\n        /* \"#utility.yul\":10095:10129   */\n      swap4\n      swap1\n      swap4\n      mstore\n        /* \"#utility.yul\":10160:10162   */\n      0x60\n        /* \"#utility.yul\":10145:10163   */\n      dup3\n      add\n        /* \"#utility.yul\":10138:10172   */\n      mstore\n        /* \"#utility.yul\":10203:10206   */\n      0x80\n        /* \"#utility.yul\":10188:10207   */\n      dup2\n      add\n        /* \"#utility.yul\":10181:10216   */\n      swap3\n      swap1\n      swap3\n      mstore\n        /* \"contracts/src/Nova3.sol\":5207:5217  msg.sender */\n      caller\n      swap2\n        /* \"contracts/src/Nova3.sol\":5185:5299  SubscriptionPurchased(msg.sender, newPlanId, userSub.expiryTime, newPlan.price, newPlan.duration, newPlan.version) */\n      0x69c719af4ea46cca8c932184a3e30a956161742ed2332e6ebf6703327d799284\n      swap2\n        /* \"#utility.yul\":9990:10009   */\n      add\n        /* \"contracts/src/Nova3.sol\":5185:5299  SubscriptionPurchased(msg.sender, newPlanId, userSub.expiryTime, newPlan.price, newPlan.duration, newPlan.version) */\n      mload(0x40)\n      dup1\n      swap2\n      sub\n      swap1\n      log2\n        /* \"contracts/src/Nova3.sol\":4317:5307  {... */\n      pop\n      pop\n      pop\n        /* \"@openzeppelin/contracts/security/ReentrancyGuard.sol\":2303:2323  _nonReentrantAfter() */\n      tag_195\n        /* \"@openzeppelin/contracts/security/ReentrancyGuard.sol\":1716:1717  1 */\n      0x01\n        /* \"@openzeppelin/contracts/security/ReentrancyGuard.sol\":2809:2816  _status */\n      0x02\n        /* \"@openzeppelin/contracts/security/ReentrancyGuard.sol\":2809:2831  _status = _NOT_ENTERED */\n      sstore\n        /* \"@openzeppelin/contracts/security/ReentrancyGuard.sol\":2629:2838  function _nonReentrantAfter() private {... */\n      jump\n        /* \"@openzeppelin/contracts/security/ReentrancyGuard.sol\":2303:2323  _nonReentrantAfter() */\n    tag_195:\n        /* \"contracts/src/Nova3.sol\":4242:5307  function changePlan(uint256 newPlanId) external nonReentrant whenNotPaused {... */\n      pop\n      jump\t// out\n        /* \"contracts/src/Nova3.sol\":7825:8223  function getSubscription(address user)... */\n    tag_51:\n      sub(shl(0xa0, 0x01), 0x01)\n        /* \"contracts/src/Nova3.sol\":8032:8051  subscriptions[user] */\n      dup2\n      and\n        /* \"contracts/src/Nova3.sol\":7914:7927  bool isActive */\n      0x00\n        /* \"contracts/src/Nova3.sol\":8032:8051  subscriptions[user] */\n      swap1\n      dup2\n      mstore\n        /* \"contracts/src/Nova3.sol\":8032:8045  subscriptions */\n      0x04\n        /* \"contracts/src/Nova3.sol\":8032:8051  subscriptions[user] */\n      0x20\n      dup2\n      dup2\n      mstore\n      0x40\n      dup1\n      dup5\n      keccak256\n        /* \"contracts/src/Nova3.sol\":8002:8051  Subscription memory userSub = subscriptions[user] */\n      dup2\n      mload\n      0xc0\n      dup2\n      add\n      dup4\n      mstore\n      dup2\n      sload\n      0xff\n      swap1\n      dup2\n      and\n      iszero\n      dup1\n      iszero\n      dup1\n      dup5\n      mstore\n      0x01\n      dup6\n      add\n      sload\n      swap7\n      dup5\n      add\n      swap7\n      swap1\n      swap7\n      mstore\n      0x02\n      dup5\n      add\n      sload\n      swap5\n      dup4\n      add\n      swap5\n      swap1\n      swap5\n      mstore\n      0x03\n      dup4\n      add\n      sload\n      0x60\n      dup4\n      add\n      mstore\n      swap5\n      dup3\n      add\n      sload\n      0x80\n      dup3\n      add\n      mstore\n      0x05\n      swap1\n      swap2\n      add\n      sload\n      swap1\n      swap4\n      and\n      iszero\n      iszero\n      0xa0\n      dup5\n      add\n      mstore\n        /* \"contracts/src/Nova3.sol\":7914:7927  bool isActive */\n      dup4\n      swap3\n      dup4\n      swap3\n      dup4\n      swap3\n      dup4\n      swap2\n        /* \"contracts/src/Nova3.sol\":8002:8051  Subscription memory userSub = subscriptions[user] */\n      swap1\n        /* \"contracts/src/Nova3.sol\":8076:8132  userSub.isActive && userSub.expiryTime > block.timestamp */\n      tag_198\n      jumpi\n      pop\n        /* \"contracts/src/Nova3.sol\":8117:8132  block.timestamp */\n      timestamp\n        /* \"contracts/src/Nova3.sol\":8096:8103  userSub */\n      dup3\n        /* \"contracts/src/Nova3.sol\":8096:8114  userSub.expiryTime */\n      0x20\n      add\n      mload\n        /* \"contracts/src/Nova3.sol\":8096:8132  userSub.expiryTime > block.timestamp */\n      gt\n        /* \"contracts/src/Nova3.sol\":8076:8132  userSub.isActive && userSub.expiryTime > block.timestamp */\n    tag_198:\n        /* \"contracts/src/Nova3.sol\":8159:8177  userSub.expiryTime */\n      0x20\n      dup4\n      add\n      mload\n        /* \"contracts/src/Nova3.sol\":8179:8193  userSub.planId */\n      0x40\n      dup5\n      add\n      mload\n        /* \"contracts/src/Nova3.sol\":8195:8214  userSub.planVersion */\n      0x60\n      swap1\n      swap5\n      add\n      mload\n        /* \"contracts/src/Nova3.sol\":8062:8132  bool active = userSub.isActive && userSub.expiryTime > block.timestamp */\n      swap2\n      swap10\n        /* \"contracts/src/Nova3.sol\":8159:8177  userSub.expiryTime */\n      swap1\n      swap9\n      pop\n        /* \"contracts/src/Nova3.sol\":8179:8193  userSub.planId */\n      swap3\n      swap7\n      pop\n        /* \"contracts/src/Nova3.sol\":8195:8214  userSub.planVersion */\n      swap5\n      pop\n        /* \"contracts/src/Nova3.sol\":7825:8223  function getSubscription(address user)... */\n      swap1\n      swap3\n      pop\n      pop\n      pop\n      jump\t// out\n        /* \"contracts/src/Nova3.sol\":5315:5739  function cancelSubscription() external {... */\n    tag_69:\n        /* \"contracts/src/Nova3.sol\":5410:5420  msg.sender */\n      caller\n        /* \"contracts/src/Nova3.sol\":5365:5393  Subscription storage userSub */\n      0x00\n        /* \"contracts/src/Nova3.sol\":5396:5421  subscriptions[msg.sender] */\n      swap1\n      dup2\n      mstore\n        /* \"contracts/src/Nova3.sol\":5396:5409  subscriptions */\n      0x04\n        /* \"contracts/src/Nova3.sol\":5396:5421  subscriptions[msg.sender] */\n      0x20\n      mstore\n      0x40\n      swap1\n      keccak256\n        /* \"contracts/src/Nova3.sol\":5440:5456  userSub.isActive */\n      dup1\n      sload\n      0xff\n      and\n        /* \"contracts/src/Nova3.sol\":5432:5483  require(userSub.isActive, \"No active subscription\") */\n      tag_201\n      jumpi\n      mload(0x40)\n      shl(0xe5, 0x461bcd)\n      dup2\n      mstore\n      0x04\n      add\n      tag_154\n      swap1\n      tag_155\n      jump\t// in\n    tag_201:\n        /* \"contracts/src/Nova3.sol\":5494:5518  userSub.isActive = false */\n      dup1\n      sload\n      not(0xff)\n      swap1\n      dup2\n      and\n      dup3\n      sstore\n        /* \"contracts/src/Nova3.sol\":5513:5518  false */\n      0x00\n        /* \"contracts/src/Nova3.sol\":5494:5518  userSub.isActive = false */\n      0x01\n        /* \"contracts/src/Nova3.sol\":5529:5547  userSub.expiryTime */\n      dup4\n      add\n        /* \"contracts/src/Nova3.sol\":5529:5551  userSub.expiryTime = 0 */\n      dup2\n      swap1\n      sstore\n        /* \"contracts/src/Nova3.sol\":5562:5576  userSub.planId */\n      0x02\n      dup4\n      add\n        /* \"contracts/src/Nova3.sol\":5562:5580  userSub.planId = 0 */\n      dup2\n      swap1\n      sstore\n        /* \"contracts/src/Nova3.sol\":5591:5610  userSub.planVersion */\n      0x03\n      dup4\n      add\n        /* \"contracts/src/Nova3.sol\":5591:5614  userSub.planVersion = 0 */\n      dup2\n      swap1\n      sstore\n        /* \"contracts/src/Nova3.sol\":5625:5642  userSub.startTime */\n      0x04\n      dup4\n      add\n        /* \"contracts/src/Nova3.sol\":5625:5646  userSub.startTime = 0 */\n      dup2\n      swap1\n      sstore\n        /* \"contracts/src/Nova3.sol\":5657:5674  userSub.autoRenew */\n      0x05\n      dup4\n      add\n        /* \"contracts/src/Nova3.sol\":5657:5682  userSub.autoRenew = false */\n      dup1\n      sload\n      swap1\n      swap3\n      and\n      swap1\n      swap2\n      sstore\n        /* \"contracts/src/Nova3.sol\":5698:5731  SubscriptionCancelled(msg.sender) */\n      mload(0x40)\n        /* \"contracts/src/Nova3.sol\":5720:5730  msg.sender */\n      caller\n      swap2\n        /* \"contracts/src/Nova3.sol\":5698:5731  SubscriptionCancelled(msg.sender) */\n      0x71215198e3f86c24dc3af6d0d7f84d0095e5ee736aa56daf9927fae51935e95d\n      swap2\n      log2\n        /* \"contracts/src/Nova3.sol\":5354:5739  {... */\n      pop\n        /* \"contracts/src/Nova3.sol\":5315:5739  function cancelSubscription() external {... */\n      jump\t// out\n        /* \"@openzeppelin/contracts/access/AccessControl.sol\":4226:4362  function grantRole(bytes32 role, address account) public virtual onlyRole(getRoleAdmin(role)) {... */\n    tag_73:\n        /* \"@openzeppelin/contracts/access/AccessControl.sol\":3875:3882  bytes32 */\n      0x00\n        /* \"@openzeppelin/contracts/access/AccessControl.sol\":3901:3913  _roles[role] */\n      dup3\n      dup2\n      mstore\n      0x20\n      dup2\n      swap1\n      mstore\n      0x40\n      swap1\n      keccak256\n        /* \"@openzeppelin/contracts/access/AccessControl.sol\":3901:3923  _roles[role].adminRole */\n      0x01\n      add\n      sload\n        /* \"@openzeppelin/contracts/access/AccessControl.sol\":2464:2480  _checkRole(role) */\n      tag_205\n        /* \"@openzeppelin/contracts/access/AccessControl.sol\":2475:2479  role */\n      dup2\n        /* \"@openzeppelin/contracts/access/AccessControl.sol\":2464:2474  _checkRole */\n      tag_206\n        /* \"@openzeppelin/contracts/access/AccessControl.sol\":2464:2480  _checkRole(role) */\n      jump\t// in\n    tag_205:\n        /* \"@openzeppelin/contracts/access/AccessControl.sol\":4330:4355  _grantRole(role, account) */\n      tag_208\n        /* \"@openzeppelin/contracts/access/AccessControl.sol\":4341:4345  role */\n      dup4\n        /* \"@openzeppelin/contracts/access/AccessControl.sol\":4347:4354  account */\n      dup4\n        /* \"@openzeppelin/contracts/access/AccessControl.sol\":4330:4340  _grantRole */\n      tag_209\n        /* \"@openzeppelin/contracts/access/AccessControl.sol\":4330:4355  _grantRole(role, account) */\n      jump\t// in\n    tag_208:\n      pop\n        /* \"@openzeppelin/contracts/access/AccessControl.sol\":4226:4362  function grantRole(bytes32 role, address account) public virtual onlyRole(getRoleAdmin(role)) {... */\n      pop\n      pop\n      pop\n      jump\t// out\n        /* \"@openzeppelin/contracts/access/AccessControl.sol\":5328:5573  function renounceRole(bytes32 role, address callerConfirmation) public virtual {... */\n    tag_76:\n      sub(shl(0xa0, 0x01), 0x01)\n        /* \"@openzeppelin/contracts/access/AccessControl.sol\":5421:5455  callerConfirmation != _msgSender() */\n      dup2\n      and\n        /* \"@openzeppelin/contracts/utils/Context.sol\":735:745  msg.sender */\n      caller\n        /* \"@openzeppelin/contracts/access/AccessControl.sol\":5421:5455  callerConfirmation != _msgSender() */\n      eq\n        /* \"@openzeppelin/contracts/access/AccessControl.sol\":5417:5519  if (callerConfirmation != _msgSender()) {... */\n      tag_213\n      jumpi\n        /* \"@openzeppelin/contracts/access/AccessControl.sol\":5478:5508  AccessControlBadConfirmation() */\n      mload(0x40)\n      shl(0xe1, 0x334bd919)\n      dup2\n      mstore\n      0x04\n      add\n      mload(0x40)\n      dup1\n      swap2\n      sub\n      swap1\n      revert\n        /* \"@openzeppelin/contracts/access/AccessControl.sol\":5417:5519  if (callerConfirmation != _msgSender()) {... */\n    tag_213:\n        /* \"@openzeppelin/contracts/access/AccessControl.sol\":5529:5566  _revokeRole(role, callerConfirmation) */\n      tag_214\n        /* \"@openzeppelin/contracts/access/AccessControl.sol\":5541:5545  role */\n      dup3\n        /* \"@openzeppelin/contracts/access/AccessControl.sol\":5547:5565  callerConfirmation */\n      dup3\n        /* \"@openzeppelin/contracts/access/AccessControl.sol\":5529:5540  _revokeRole */\n      tag_215\n        /* \"@openzeppelin/contracts/access/AccessControl.sol\":5529:5566  _revokeRole(role, callerConfirmation) */\n      jump\t// in\n    tag_214:\n      pop\n        /* \"@openzeppelin/contracts/access/AccessControl.sol\":5328:5573  function renounceRole(bytes32 role, address callerConfirmation) public virtual {... */\n      pop\n      pop\n      jump\t// out\n        /* \"contracts/src/Nova3.sol\":3563:4234  function startTrial(uint256 planId) external nonReentrant whenNotPaused {... */\n    tag_82:\n        /* \"@openzeppelin/contracts/security/ReentrancyGuard.sol\":2261:2282  _nonReentrantBefore() */\n      tag_217\n        /* \"@openzeppelin/contracts/security/ReentrancyGuard.sol\":2261:2280  _nonReentrantBefore */\n      tag_147\n        /* \"@openzeppelin/contracts/security/ReentrancyGuard.sol\":2261:2282  _nonReentrantBefore() */\n      jump\t// in\n    tag_217:\n        /* \"@openzeppelin/contracts/security/Pausable.sol\":1239:1258  _requireNotPaused() */\n      tag_219\n        /* \"@openzeppelin/contracts/security/Pausable.sol\":1239:1256  _requireNotPaused */\n      tag_150\n        /* \"@openzeppelin/contracts/security/Pausable.sol\":1239:1258  _requireNotPaused() */\n      jump\t// in\n    tag_219:\n        /* \"contracts/src/Nova3.sol\":3646:3662  Plan memory plan */\n      0x00\n        /* \"contracts/src/Nova3.sol\":3665:3678  plans[planId] */\n      dup2\n      dup2\n      mstore\n        /* \"contracts/src/Nova3.sol\":3665:3670  plans */\n      0x05\n        /* \"contracts/src/Nova3.sol\":3665:3678  plans[planId] */\n      0x20\n      swap1\n      dup2\n      mstore\n      0x40\n      dup1\n      dup4\n      keccak256\n        /* \"contracts/src/Nova3.sol\":3646:3678  Plan memory plan = plans[planId] */\n      dup2\n      mload\n      0xc0\n      dup2\n      add\n      dup4\n      mstore\n      dup2\n      sload\n      dup2\n      mstore\n      0x01\n      dup3\n      add\n      sload\n      swap4\n      dup2\n      add\n      swap4\n      swap1\n      swap4\n      mstore\n      0x02\n      dup2\n      add\n      sload\n      swap2\n      dup4\n      add\n      swap2\n      swap1\n      swap2\n      mstore\n      0x03\n      dup2\n      add\n      sload\n      0xff\n      and\n      iszero\n      iszero\n      0x60\n      dup4\n      add\n      mstore\n      0x04\n      dup2\n      add\n      dup1\n      sload\n      0x80\n      dup5\n      add\n      swap2\n      swap1\n      tag_221\n      swap1\n      tag_157\n      jump\t// in\n    tag_221:\n      dup1\n      0x1f\n      add\n      0x20\n      dup1\n      swap2\n      div\n      mul\n      0x20\n      add\n      mload(0x40)\n      swap1\n      dup2\n      add\n      0x40\n      mstore\n      dup1\n      swap3\n      swap2\n      swap1\n      dup2\n      dup2\n      mstore\n      0x20\n      add\n      dup3\n      dup1\n      sload\n      tag_222\n      swap1\n      tag_157\n      jump\t// in\n    tag_222:\n      dup1\n      iszero\n      tag_223\n      jumpi\n      dup1\n      0x1f\n      lt\n      tag_224\n      jumpi\n      0x0100\n      dup1\n      dup4\n      sload\n      div\n      mul\n      dup4\n      mstore\n      swap2\n      0x20\n      add\n      swap2\n      jump(tag_223)\n    tag_224:\n      dup3\n      add\n      swap2\n      swap1\n      0x00\n      mstore\n      keccak256(0x00, 0x20)\n      swap1\n    tag_225:\n      dup2\n      sload\n      dup2\n      mstore\n      swap1\n      0x01\n      add\n      swap1\n      0x20\n      add\n      dup1\n      dup4\n      gt\n      tag_225\n      jumpi\n      dup3\n      swap1\n      sub\n      0x1f\n      and\n      dup3\n      add\n      swap2\n    tag_223:\n      pop\n      pop\n      pop\n      pop\n      pop\n      dup2\n      mstore\n      0x20\n      add\n      0x05\n      dup3\n      add\n      sload\n      dup2\n      mstore\n      pop\n      pop\n      swap1\n      pop\n        /* \"contracts/src/Nova3.sol\":3697:3701  plan */\n      dup1\n        /* \"contracts/src/Nova3.sol\":3697:3710  plan.isActive */\n      0x60\n      add\n      mload\n        /* \"contracts/src/Nova3.sol\":3697:3736  plan.isActive && plan.trialDuration > 0 */\n      dup1\n      iszero\n      tag_226\n      jumpi\n      pop\n        /* \"contracts/src/Nova3.sol\":3735:3736  0 */\n      0x00\n        /* \"contracts/src/Nova3.sol\":3714:3718  plan */\n      dup2\n        /* \"contracts/src/Nova3.sol\":3714:3732  plan.trialDuration */\n      0x40\n      add\n      mload\n        /* \"contracts/src/Nova3.sol\":3714:3736  plan.trialDuration > 0 */\n      gt\n        /* \"contracts/src/Nova3.sol\":3697:3736  plan.isActive && plan.trialDuration > 0 */\n    tag_226:\n        /* \"contracts/src/Nova3.sol\":3689:3759  require(plan.isActive && plan.trialDuration > 0, \"No trial available\") */\n      tag_227\n      jumpi\n      mload(0x40)\n      shl(0xe5, 0x461bcd)\n      dup2\n      mstore\n        /* \"#utility.yul\":10429:10431   */\n      0x20\n        /* \"contracts/src/Nova3.sol\":3689:3759  require(plan.isActive && plan.trialDuration > 0, \"No trial available\") */\n      0x04\n      dup3\n      add\n        /* \"#utility.yul\":10411:10432   */\n      mstore\n        /* \"#utility.yul\":10468:10470   */\n      0x12\n        /* \"#utility.yul\":10448:10466   */\n      0x24\n      dup3\n      add\n        /* \"#utility.yul\":10441:10471   */\n      mstore\n      shl(0x70, 0x4e6f20747269616c20617661696c61626c65)\n        /* \"#utility.yul\":10487:10505   */\n      0x44\n      dup3\n      add\n        /* \"#utility.yul\":10480:10528   */\n      mstore\n        /* \"#utility.yul\":10545:10563   */\n      0x64\n      add\n        /* \"contracts/src/Nova3.sol\":3689:3759  require(plan.isActive && plan.trialDuration > 0, \"No trial available\") */\n      tag_154\n        /* \"#utility.yul\":10227:10569   */\n      jump\n        /* \"contracts/src/Nova3.sol\":3689:3759  require(plan.isActive && plan.trialDuration > 0, \"No trial available\") */\n    tag_227:\n        /* \"contracts/src/Nova3.sol\":3815:3825  msg.sender */\n      caller\n        /* \"contracts/src/Nova3.sol\":3770:3798  Subscription storage userSub */\n      0x00\n        /* \"contracts/src/Nova3.sol\":3801:3826  subscriptions[msg.sender] */\n      swap1\n      dup2\n      mstore\n        /* \"contracts/src/Nova3.sol\":3801:3814  subscriptions */\n      0x04\n        /* \"contracts/src/Nova3.sol\":3801:3826  subscriptions[msg.sender] */\n      0x20\n      mstore\n      0x40\n      swap1\n      keccak256\n        /* \"contracts/src/Nova3.sol\":3846:3862  userSub.isActive */\n      dup1\n      sload\n      0xff\n      and\n        /* \"contracts/src/Nova3.sol\":3845:3862  !userSub.isActive */\n      iszero\n        /* \"contracts/src/Nova3.sol\":3837:3885  require(!userSub.isActive, \"Already subscribed\") */\n      tag_230\n      jumpi\n      mload(0x40)\n      shl(0xe5, 0x461bcd)\n      dup2\n      mstore\n        /* \"#utility.yul\":10776:10778   */\n      0x20\n        /* \"contracts/src/Nova3.sol\":3837:3885  require(!userSub.isActive, \"Already subscribed\") */\n      0x04\n      dup3\n      add\n        /* \"#utility.yul\":10758:10779   */\n      mstore\n        /* \"#utility.yul\":10815:10817   */\n      0x12\n        /* \"#utility.yul\":10795:10813   */\n      0x24\n      dup3\n      add\n        /* \"#utility.yul\":10788:10818   */\n      mstore\n      shl(0x72, 0x105b1c9958591e481cdd589cd8dc9a589959)\n        /* \"#utility.yul\":10834:10852   */\n      0x44\n      dup3\n      add\n        /* \"#utility.yul\":10827:10875   */\n      mstore\n        /* \"#utility.yul\":10892:10910   */\n      0x64\n      add\n        /* \"contracts/src/Nova3.sol\":3837:3885  require(!userSub.isActive, \"Already subscribed\") */\n      tag_154\n        /* \"#utility.yul\":10574:10916   */\n      jump\n        /* \"contracts/src/Nova3.sol\":3837:3885  require(!userSub.isActive, \"Already subscribed\") */\n    tag_230:\n        /* \"contracts/src/Nova3.sol\":3896:3919  userSub.isActive = true */\n      dup1\n      sload\n      not(0xff)\n      and\n        /* \"contracts/src/Nova3.sol\":3915:3919  true */\n      0x01\n        /* \"contracts/src/Nova3.sol\":3896:3919  userSub.isActive = true */\n      or\n      dup2\n      sstore\n        /* \"contracts/src/Nova3.sol\":3969:3987  plan.trialDuration */\n      0x40\n      dup3\n      add\n      mload\n        /* \"contracts/src/Nova3.sol\":3951:3987  block.timestamp + plan.trialDuration */\n      tag_233\n      swap1\n        /* \"contracts/src/Nova3.sol\":3951:3966  block.timestamp */\n      timestamp\n        /* \"contracts/src/Nova3.sol\":3951:3987  block.timestamp + plan.trialDuration */\n      tag_192\n      jump\t// in\n    tag_233:\n        /* \"contracts/src/Nova3.sol\":3930:3948  userSub.expiryTime */\n      0x01\n      dup3\n      add\n        /* \"contracts/src/Nova3.sol\":3930:3987  userSub.expiryTime = block.timestamp + plan.trialDuration */\n      dup2\n      swap1\n      sstore\n        /* \"contracts/src/Nova3.sol\":3998:4012  userSub.planId */\n      0x02\n      dup3\n      add\n        /* \"contracts/src/Nova3.sol\":3998:4021  userSub.planId = planId */\n      dup5\n      swap1\n      sstore\n        /* \"contracts/src/Nova3.sol\":4054:4066  plan.version */\n      0xa0\n      dup4\n      dup2\n      add\n      mload\n        /* \"contracts/src/Nova3.sol\":4032:4051  userSub.planVersion */\n      0x03\n      dup5\n      add\n        /* \"contracts/src/Nova3.sol\":4032:4066  userSub.planVersion = plan.version */\n      dup2\n      swap1\n      sstore\n        /* \"contracts/src/Nova3.sol\":4097:4112  block.timestamp */\n      timestamp\n        /* \"contracts/src/Nova3.sol\":4077:4094  userSub.startTime */\n      0x04\n      dup6\n      add\n        /* \"contracts/src/Nova3.sol\":4077:4112  userSub.startTime = block.timestamp */\n      sstore\n        /* \"contracts/src/Nova3.sol\":4193:4211  plan.trialDuration */\n      0x40\n      dup1\n      dup7\n      add\n      mload\n        /* \"contracts/src/Nova3.sol\":4128:4226  SubscriptionPurchased(msg.sender, planId, userSub.expiryTime, 0, plan.trialDuration, plan.version) */\n      dup2\n      mload\n        /* \"#utility.yul\":10018:10043   */\n      dup9\n      dup2\n      mstore\n        /* \"#utility.yul\":10074:10076   */\n      0x20\n        /* \"#utility.yul\":10059:10077   */\n      dup2\n      add\n        /* \"#utility.yul\":10052:10086   */\n      swap6\n      swap1\n      swap6\n      mstore\n      0x00\n        /* \"#utility.yul\":10102:10120   */\n      swap2\n      dup6\n      add\n        /* \"#utility.yul\":10095:10129   */\n      swap2\n      swap1\n      swap2\n      mstore\n        /* \"#utility.yul\":10160:10162   */\n      0x60\n        /* \"#utility.yul\":10145:10163   */\n      dup5\n      add\n        /* \"#utility.yul\":10138:10172   */\n      mstore\n        /* \"#utility.yul\":10203:10206   */\n      0x80\n        /* \"#utility.yul\":10188:10207   */\n      dup4\n      add\n        /* \"#utility.yul\":10181:10216   */\n      mstore\n        /* \"contracts/src/Nova3.sol\":4150:4160  msg.sender */\n      caller\n      swap2\n        /* \"contracts/src/Nova3.sol\":4128:4226  SubscriptionPurchased(msg.sender, planId, userSub.expiryTime, 0, plan.trialDuration, plan.version) */\n      0x69c719af4ea46cca8c932184a3e30a956161742ed2332e6ebf6703327d799284\n      swap2\n        /* \"#utility.yul\":9990:10009   */\n      add\n        /* \"contracts/src/Nova3.sol\":4128:4226  SubscriptionPurchased(msg.sender, planId, userSub.expiryTime, 0, plan.trialDuration, plan.version) */\n      mload(0x40)\n      dup1\n      swap2\n      sub\n      swap1\n      log2\n        /* \"contracts/src/Nova3.sol\":3635:4234  {... */\n      pop\n      pop\n        /* \"@openzeppelin/contracts/security/ReentrancyGuard.sol\":2303:2323  _nonReentrantAfter() */\n      tag_195\n        /* \"@openzeppelin/contracts/security/ReentrancyGuard.sol\":1716:1717  1 */\n      0x01\n        /* \"@openzeppelin/contracts/security/ReentrancyGuard.sol\":2809:2816  _status */\n      0x02\n        /* \"@openzeppelin/contracts/security/ReentrancyGuard.sol\":2809:2831  _status = _NOT_ENTERED */\n      sstore\n        /* \"@openzeppelin/contracts/security/ReentrancyGuard.sol\":2629:2838  function _nonReentrantAfter() private {... */\n      jump\n        /* \"contracts/src/Nova3.sol\":9931:10169  function deactivatePlan(uint256 planId) external onlyRole(ADMIN_ROLE) {... */\n    tag_88:\n      0x00\n      dup1\n      mload\n      0x20\n      data_cb864c43dd5d441bb6271f424f11befa622c032dfd374d226e26fbbdb782b8f8\n      dup4\n      codecopy\n      dup2\n      mload\n      swap2\n      mstore\n        /* \"@openzeppelin/contracts/access/AccessControl.sol\":2464:2480  _checkRole(role) */\n      tag_239\n        /* \"@openzeppelin/contracts/access/AccessControl.sol\":2475:2479  role */\n      dup2\n        /* \"@openzeppelin/contracts/access/AccessControl.sol\":2464:2474  _checkRole */\n      tag_206\n        /* \"@openzeppelin/contracts/access/AccessControl.sol\":2464:2480  _checkRole(role) */\n      jump\t// in\n    tag_239:\n        /* \"contracts/src/Nova3.sol\":10020:10033  plans[planId] */\n      0x00\n      dup3\n      dup2\n      mstore\n        /* \"contracts/src/Nova3.sol\":10020:10025  plans */\n      0x05\n        /* \"contracts/src/Nova3.sol\":10020:10033  plans[planId] */\n      0x20\n      mstore\n      0x40\n      swap1\n      keccak256\n        /* \"contracts/src/Nova3.sol\":10020:10042  plans[planId].isActive */\n      0x03\n      add\n      sload\n      0xff\n      and\n        /* \"contracts/src/Nova3.sol\":10012:10081  require(plans[planId].isActive, \"Plan does not exist or is inactive\") */\n      tag_241\n      jumpi\n      mload(0x40)\n      shl(0xe5, 0x461bcd)\n      dup2\n      mstore\n      0x04\n      add\n      tag_154\n      swap1\n      tag_243\n      jump\t// in\n    tag_241:\n        /* \"contracts/src/Nova3.sol\":10117:10122  false */\n      0x00\n        /* \"contracts/src/Nova3.sol\":10092:10105  plans[planId] */\n      dup3\n      dup2\n      mstore\n        /* \"contracts/src/Nova3.sol\":10092:10097  plans */\n      0x05\n        /* \"contracts/src/Nova3.sol\":10092:10105  plans[planId] */\n      0x20\n      mstore\n      0x40\n      dup1\n      dup3\n      keccak256\n        /* \"contracts/src/Nova3.sol\":10092:10114  plans[planId].isActive */\n      0x03\n      add\n        /* \"contracts/src/Nova3.sol\":10092:10122  plans[planId].isActive = false */\n      dup1\n      sload\n      not(0xff)\n      and\n      swap1\n      sstore\n        /* \"contracts/src/Nova3.sol\":10138:10161  PlanDeactivated(planId) */\n      mload\n        /* \"contracts/src/Nova3.sol\":10098:10104  planId */\n      dup4\n      swap2\n        /* \"contracts/src/Nova3.sol\":10138:10161  PlanDeactivated(planId) */\n      0x9d249762cccbda1c5e13d7d903a7fd4d9787cebc8b34172efbf22b612e90c14c\n      swap2\n      log2\n        /* \"contracts/src/Nova3.sol\":9931:10169  function deactivatePlan(uint256 planId) external onlyRole(ADMIN_ROLE) {... */\n      pop\n      pop\n      jump\t// out\n        /* \"contracts/src/Nova3.sol\":9048:9923  function updatePlan(... */\n    tag_95:\n      0x00\n      dup1\n      mload\n      0x20\n      data_cb864c43dd5d441bb6271f424f11befa622c032dfd374d226e26fbbdb782b8f8\n      dup4\n      codecopy\n      dup2\n      mload\n      swap2\n      mstore\n        /* \"@openzeppelin/contracts/access/AccessControl.sol\":2464:2480  _checkRole(role) */\n      tag_245\n        /* \"@openzeppelin/contracts/access/AccessControl.sol\":2475:2479  role */\n      dup2\n        /* \"@openzeppelin/contracts/access/AccessControl.sol\":2464:2474  _checkRole */\n      tag_206\n        /* \"@openzeppelin/contracts/access/AccessControl.sol\":2464:2480  _checkRole(role) */\n      jump\t// in\n    tag_245:\n        /* \"contracts/src/Nova3.sol\":9259:9276  Plan storage plan */\n      0x00\n        /* \"contracts/src/Nova3.sol\":9279:9292  plans[planId] */\n      dup8\n      dup2\n      mstore\n        /* \"contracts/src/Nova3.sol\":9279:9284  plans */\n      0x05\n        /* \"contracts/src/Nova3.sol\":9279:9292  plans[planId] */\n      0x20\n      mstore\n      0x40\n      swap1\n      keccak256\n        /* \"contracts/src/Nova3.sol\":9311:9324  plan.isActive */\n      0x03\n      dup2\n      add\n      sload\n      0xff\n      and\n        /* \"contracts/src/Nova3.sol\":9303:9363  require(plan.isActive, \"Plan does not exist or is inactive\") */\n      tag_247\n      jumpi\n      mload(0x40)\n      shl(0xe5, 0x461bcd)\n      dup2\n      mstore\n      0x04\n      add\n      tag_154\n      swap1\n      tag_243\n      jump\t// in\n    tag_247:\n        /* \"contracts/src/Nova3.sol\":9390:9391  0 */\n      0x00\n        /* \"contracts/src/Nova3.sol\":9382:9387  price */\n      dup8\n        /* \"contracts/src/Nova3.sol\":9382:9391  price > 0 */\n      gt\n        /* \"contracts/src/Nova3.sol\":9382:9412  price > 0 || trialDuration > 0 */\n      dup1\n      tag_249\n      jumpi\n      pop\n        /* \"contracts/src/Nova3.sol\":9411:9412  0 */\n      0x00\n        /* \"contracts/src/Nova3.sol\":9395:9408  trialDuration */\n      dup6\n        /* \"contracts/src/Nova3.sol\":9395:9412  trialDuration > 0 */\n      gt\n        /* \"contracts/src/Nova3.sol\":9382:9412  price > 0 || trialDuration > 0 */\n    tag_249:\n        /* \"contracts/src/Nova3.sol\":9374:9440  require(price > 0 || trialDuration > 0, \"Price or trial required\") */\n      tag_250\n      jumpi\n      mload(0x40)\n      shl(0xe5, 0x461bcd)\n      dup2\n      mstore\n        /* \"#utility.yul\":12002:12004   */\n      0x20\n        /* \"contracts/src/Nova3.sol\":9374:9440  require(price > 0 || trialDuration > 0, \"Price or trial required\") */\n      0x04\n      dup3\n      add\n        /* \"#utility.yul\":11984:12005   */\n      mstore\n        /* \"#utility.yul\":12041:12043   */\n      0x17\n        /* \"#utility.yul\":12021:12039   */\n      0x24\n      dup3\n      add\n        /* \"#utility.yul\":12014:12044   */\n      mstore\n      shl(0x4a, 0x141c9a58d9481bdc881d1c9a585b081c995c5d5a5c9959)\n        /* \"#utility.yul\":12060:12078   */\n      0x44\n      dup3\n      add\n        /* \"#utility.yul\":12053:12106   */\n      mstore\n        /* \"#utility.yul\":12123:12141   */\n      0x64\n      add\n        /* \"contracts/src/Nova3.sol\":9374:9440  require(price > 0 || trialDuration > 0, \"Price or trial required\") */\n      tag_154\n        /* \"#utility.yul\":11800:12147   */\n      jump\n        /* \"contracts/src/Nova3.sol\":9374:9440  require(price > 0 || trialDuration > 0, \"Price or trial required\") */\n    tag_250:\n        /* \"contracts/src/Nova3.sol\":9470:9471  0 */\n      0x00\n        /* \"contracts/src/Nova3.sol\":9459:9467  duration */\n      dup7\n        /* \"contracts/src/Nova3.sol\":9459:9471  duration > 0 */\n      gt\n        /* \"contracts/src/Nova3.sol\":9459:9499  duration > 0 && duration <= MAX_DURATION */\n      dup1\n      iszero\n      tag_253\n      jumpi\n      pop\n        /* \"contracts/src/Nova3.sol\":591:599  365 days */\n      0x01e13380\n        /* \"contracts/src/Nova3.sol\":9475:9483  duration */\n      dup7\n        /* \"contracts/src/Nova3.sol\":9475:9499  duration <= MAX_DURATION */\n      gt\n      iszero\n        /* \"contracts/src/Nova3.sol\":9459:9499  duration > 0 && duration <= MAX_DURATION */\n    tag_253:\n        /* \"contracts/src/Nova3.sol\":9451:9526  require(duration > 0 && duration <= MAX_DURATION, \"Duration out of bounds\") */\n      tag_254\n      jumpi\n      mload(0x40)\n      shl(0xe5, 0x461bcd)\n      dup2\n      mstore\n        /* \"#utility.yul\":12354:12356   */\n      0x20\n        /* \"contracts/src/Nova3.sol\":9451:9526  require(duration > 0 && duration <= MAX_DURATION, \"Duration out of bounds\") */\n      0x04\n      dup3\n      add\n        /* \"#utility.yul\":12336:12357   */\n      mstore\n        /* \"#utility.yul\":12393:12395   */\n      0x16\n        /* \"#utility.yul\":12373:12391   */\n      0x24\n      dup3\n      add\n        /* \"#utility.yul\":12366:12396   */\n      mstore\n      shl(0x50, 0x4475726174696f6e206f7574206f6620626f756e6473)\n        /* \"#utility.yul\":12412:12430   */\n      0x44\n      dup3\n      add\n        /* \"#utility.yul\":12405:12457   */\n      mstore\n        /* \"#utility.yul\":12474:12492   */\n      0x64\n      add\n        /* \"contracts/src/Nova3.sol\":9451:9526  require(duration > 0 && duration <= MAX_DURATION, \"Duration out of bounds\") */\n      tag_154\n        /* \"#utility.yul\":12152:12498   */\n      jump\n        /* \"contracts/src/Nova3.sol\":9451:9526  require(duration > 0 && duration <= MAX_DURATION, \"Duration out of bounds\") */\n    tag_254:\n        /* \"contracts/src/Nova3.sol\":9562:9570  duration */\n      dup6\n        /* \"contracts/src/Nova3.sol\":9545:9558  trialDuration */\n      dup6\n        /* \"contracts/src/Nova3.sol\":9545:9570  trialDuration <= duration */\n      gt\n      iszero\n        /* \"contracts/src/Nova3.sol\":9537:9597  require(trialDuration <= duration, \"Trial exceeds duration\") */\n      tag_257\n      jumpi\n      mload(0x40)\n      shl(0xe5, 0x461bcd)\n      dup2\n      mstore\n        /* \"#utility.yul\":12705:12707   */\n      0x20\n        /* \"contracts/src/Nova3.sol\":9537:9597  require(trialDuration <= duration, \"Trial exceeds duration\") */\n      0x04\n      dup3\n      add\n        /* \"#utility.yul\":12687:12708   */\n      mstore\n        /* \"#utility.yul\":12744:12746   */\n      0x16\n        /* \"#utility.yul\":12724:12742   */\n      0x24\n      dup3\n      add\n        /* \"#utility.yul\":12717:12747   */\n      mstore\n      shl(0x51, 0x2a3934b0b61032bc31b2b2b23990323ab930ba34b7b7)\n        /* \"#utility.yul\":12763:12781   */\n      0x44\n      dup3\n      add\n        /* \"#utility.yul\":12756:12808   */\n      mstore\n        /* \"#utility.yul\":12825:12843   */\n      0x64\n      add\n        /* \"contracts/src/Nova3.sol\":9537:9597  require(trialDuration <= duration, \"Trial exceeds duration\") */\n      tag_154\n        /* \"#utility.yul\":12503:12849   */\n      jump\n        /* \"contracts/src/Nova3.sol\":9537:9597  require(trialDuration <= duration, \"Trial exceeds duration\") */\n    tag_257:\n        /* \"contracts/src/Nova3.sol\":9642:9645  100 */\n      0x64\n        /* \"contracts/src/Nova3.sol\":9616:9645  bytes(benefits).length <= 100 */\n      dup4\n      gt\n      iszero\n        /* \"contracts/src/Nova3.sol\":9608:9667  require(bytes(benefits).length <= 100, \"Benefits too long\") */\n      tag_260\n      jumpi\n      mload(0x40)\n      shl(0xe5, 0x461bcd)\n      dup2\n      mstore\n        /* \"#utility.yul\":13056:13058   */\n      0x20\n        /* \"contracts/src/Nova3.sol\":9608:9667  require(bytes(benefits).length <= 100, \"Benefits too long\") */\n      0x04\n      dup3\n      add\n        /* \"#utility.yul\":13038:13059   */\n      mstore\n        /* \"#utility.yul\":13095:13097   */\n      0x11\n        /* \"#utility.yul\":13075:13093   */\n      0x24\n      dup3\n      add\n        /* \"#utility.yul\":13068:13098   */\n      mstore\n      shl(0x78, 0x42656e656669747320746f6f206c6f6e67)\n        /* \"#utility.yul\":13114:13132   */\n      0x44\n      dup3\n      add\n        /* \"#utility.yul\":13107:13154   */\n      mstore\n        /* \"#utility.yul\":13171:13189   */\n      0x64\n      add\n        /* \"contracts/src/Nova3.sol\":9608:9667  require(bytes(benefits).length <= 100, \"Benefits too long\") */\n      tag_154\n        /* \"#utility.yul\":12854:13195   */\n      jump\n        /* \"contracts/src/Nova3.sol\":9608:9667  require(bytes(benefits).length <= 100, \"Benefits too long\") */\n    tag_260:\n        /* \"contracts/src/Nova3.sol\":9678:9696  plan.price = price */\n      dup7\n      dup2\n      sstore\n        /* \"contracts/src/Nova3.sol\":9707:9720  plan.duration */\n      0x01\n      dup2\n      add\n        /* \"contracts/src/Nova3.sol\":9707:9731  plan.duration = duration */\n      dup7\n      swap1\n      sstore\n        /* \"contracts/src/Nova3.sol\":9742:9760  plan.trialDuration */\n      0x02\n      dup2\n      add\n        /* \"contracts/src/Nova3.sol\":9742:9776  plan.trialDuration = trialDuration */\n      dup6\n      swap1\n      sstore\n        /* \"contracts/src/Nova3.sol\":9787:9800  plan.benefits */\n      0x04\n      dup2\n      add\n        /* \"contracts/src/Nova3.sol\":9787:9811  plan.benefits = benefits */\n      tag_263\n        /* \"contracts/src/Nova3.sol\":9803:9811  benefits */\n      dup5\n      dup7\n        /* \"contracts/src/Nova3.sol\":9787:9800  plan.benefits */\n      dup4\n        /* \"contracts/src/Nova3.sol\":9787:9811  plan.benefits = benefits */\n      tag_264\n      jump\t// in\n    tag_263:\n      pop\n        /* \"contracts/src/Nova3.sol\":9838:9839  1 */\n      0x01\n        /* \"contracts/src/Nova3.sol\":9822:9826  plan */\n      dup2\n        /* \"contracts/src/Nova3.sol\":9822:9834  plan.version */\n      0x05\n      add\n      0x00\n        /* \"contracts/src/Nova3.sol\":9822:9839  plan.version += 1 */\n      dup3\n      dup3\n      sload\n      tag_265\n      swap2\n      swap1\n      tag_192\n      jump\t// in\n    tag_265:\n      swap3\n      pop\n      pop\n      dup2\n      swap1\n      sstore\n      pop\n        /* \"contracts/src/Nova3.sol\":9867:9873  planId */\n      dup8\n        /* \"contracts/src/Nova3.sol\":9855:9915  PlanUpdated(planId, price, duration, benefits, plan.version) */\n      0x6c70fdafe6efdd158f0115013b98f9cc8071f9b91f26e100c3d2f68245c32673\n        /* \"contracts/src/Nova3.sol\":9875:9880  price */\n      dup9\n        /* \"contracts/src/Nova3.sol\":9882:9890  duration */\n      dup9\n        /* \"contracts/src/Nova3.sol\":9892:9900  benefits */\n      dup8\n      dup8\n        /* \"contracts/src/Nova3.sol\":9902:9906  plan */\n      dup7\n        /* \"contracts/src/Nova3.sol\":9902:9914  plan.version */\n      0x05\n      add\n      sload\n        /* \"contracts/src/Nova3.sol\":9855:9915  PlanUpdated(planId, price, duration, benefits, plan.version) */\n      mload(0x40)\n      tag_266\n      swap6\n      swap5\n      swap4\n      swap3\n      swap2\n      swap1\n      tag_267\n      jump\t// in\n    tag_266:\n      mload(0x40)\n      dup1\n      swap2\n      sub\n      swap1\n      log2\n        /* \"contracts/src/Nova3.sol\":9248:9923  {... */\n      pop\n        /* \"contracts/src/Nova3.sol\":9048:9923  function updatePlan(... */\n      pop\n      pop\n      pop\n      pop\n      pop\n      pop\n      pop\n      jump\t// out\n        /* \"contracts/src/Nova3.sol\":6530:6753  function toggleAutoRenew() external {... */\n    tag_97:\n        /* \"contracts/src/Nova3.sol\":6622:6632  msg.sender */\n      caller\n        /* \"contracts/src/Nova3.sol\":6577:6605  Subscription storage userSub */\n      0x00\n        /* \"contracts/src/Nova3.sol\":6608:6633  subscriptions[msg.sender] */\n      dup2\n      dup2\n      mstore\n        /* \"contracts/src/Nova3.sol\":6608:6621  subscriptions */\n      0x04\n        /* \"contracts/src/Nova3.sol\":6608:6633  subscriptions[msg.sender] */\n      0x20\n      swap1\n      dup2\n      mstore\n      0x40\n      swap2\n      dup3\n      swap1\n      keccak256\n        /* \"contracts/src/Nova3.sol\":6665:6682  userSub.autoRenew */\n      0x05\n      dup2\n      add\n      dup1\n      sload\n      0xff\n      dup1\n      dup3\n      and\n        /* \"contracts/src/Nova3.sol\":6664:6682  !userSub.autoRenew */\n      iszero\n      not(0xff)\n        /* \"contracts/src/Nova3.sol\":6644:6682  userSub.autoRenew = !userSub.autoRenew */\n      swap1\n      swap3\n      and\n      dup3\n      or\n      swap1\n      swap3\n      sstore\n        /* \"contracts/src/Nova3.sol\":6698:6745  AutoRenewToggled(msg.sender, userSub.autoRenew) */\n      swap4\n      mload\n        /* \"contracts/src/Nova3.sol\":6727:6744  userSub.autoRenew */\n      swap4\n      and\n        /* \"#utility.yul\":470:484   */\n      iszero\n        /* \"#utility.yul\":463:485   */\n      iszero\n        /* \"#utility.yul\":445:486   */\n      dup4\n      mstore\n        /* \"contracts/src/Nova3.sol\":6608:6633  subscriptions[msg.sender] */\n      swap3\n        /* \"contracts/src/Nova3.sol\":6622:6632  msg.sender */\n      swap2\n        /* \"contracts/src/Nova3.sol\":6698:6745  AutoRenewToggled(msg.sender, userSub.autoRenew) */\n      0x37ff880f3c2c6e3296bac1dfa534ac207e04dc7b8725592b2dca2d4da646dc59\n      swap2\n        /* \"#utility.yul\":418:436   */\n      add\n        /* \"contracts/src/Nova3.sol\":6698:6745  AutoRenewToggled(msg.sender, userSub.autoRenew) */\n      mload(0x40)\n      dup1\n      swap2\n      sub\n      swap1\n      log2\n        /* \"contracts/src/Nova3.sol\":6566:6753  {... */\n      pop\n        /* \"contracts/src/Nova3.sol\":6530:6753  function toggleAutoRenew() external {... */\n      jump\t// out\n        /* \"contracts/src/Nova3.sol\":2432:3555  function purchaseSubscription(uint256 planId) external nonReentrant whenNotPaused {... */\n    tag_100:\n        /* \"@openzeppelin/contracts/security/ReentrancyGuard.sol\":2261:2282  _nonReentrantBefore() */\n      tag_271\n        /* \"@openzeppelin/contracts/security/ReentrancyGuard.sol\":2261:2280  _nonReentrantBefore */\n      tag_147\n        /* \"@openzeppelin/contracts/security/ReentrancyGuard.sol\":2261:2282  _nonReentrantBefore() */\n      jump\t// in\n    tag_271:\n        /* \"@openzeppelin/contracts/security/Pausable.sol\":1239:1258  _requireNotPaused() */\n      tag_273\n        /* \"@openzeppelin/contracts/security/Pausable.sol\":1239:1256  _requireNotPaused */\n      tag_150\n        /* \"@openzeppelin/contracts/security/Pausable.sol\":1239:1258  _requireNotPaused() */\n      jump\t// in\n    tag_273:\n        /* \"contracts/src/Nova3.sol\":2525:2541  Plan memory plan */\n      0x00\n        /* \"contracts/src/Nova3.sol\":2544:2557  plans[planId] */\n      dup2\n      dup2\n      mstore\n        /* \"contracts/src/Nova3.sol\":2544:2549  plans */\n      0x05\n        /* \"contracts/src/Nova3.sol\":2544:2557  plans[planId] */\n      0x20\n      swap1\n      dup2\n      mstore\n      0x40\n      dup1\n      dup4\n      keccak256\n        /* \"contracts/src/Nova3.sol\":2525:2557  Plan memory plan = plans[planId] */\n      dup2\n      mload\n      0xc0\n      dup2\n      add\n      dup4\n      mstore\n      dup2\n      sload\n      dup2\n      mstore\n      0x01\n      dup3\n      add\n      sload\n      swap4\n      dup2\n      add\n      swap4\n      swap1\n      swap4\n      mstore\n      0x02\n      dup2\n      add\n      sload\n      swap2\n      dup4\n      add\n      swap2\n      swap1\n      swap2\n      mstore\n      0x03\n      dup2\n      add\n      sload\n      0xff\n      and\n      iszero\n      iszero\n      0x60\n      dup4\n      add\n      mstore\n      0x04\n      dup2\n      add\n      dup1\n      sload\n      0x80\n      dup5\n      add\n      swap2\n      swap1\n      tag_275\n      swap1\n      tag_157\n      jump\t// in\n    tag_275:\n      dup1\n      0x1f\n      add\n      0x20\n      dup1\n      swap2\n      div\n      mul\n      0x20\n      add\n      mload(0x40)\n      swap1\n      dup2\n      add\n      0x40\n      mstore\n      dup1\n      swap3\n      swap2\n      swap1\n      dup2\n      dup2\n      mstore\n      0x20\n      add\n      dup3\n      dup1\n      sload\n      tag_276\n      swap1\n      tag_157\n      jump\t// in\n    tag_276:\n      dup1\n      iszero\n      tag_277\n      jumpi\n      dup1\n      0x1f\n      lt\n      tag_278\n      jumpi\n      0x0100\n      dup1\n      dup4\n      sload\n      div\n      mul\n      dup4\n      mstore\n      swap2\n      0x20\n      add\n      swap2\n      jump(tag_277)\n    tag_278:\n      dup3\n      add\n      swap2\n      swap1\n      0x00\n      mstore\n      keccak256(0x00, 0x20)\n      swap1\n    tag_279:\n      dup2\n      sload\n      dup2\n      mstore\n      swap1\n      0x01\n      add\n      swap1\n      0x20\n      add\n      dup1\n      dup4\n      gt\n      tag_279\n      jumpi\n      dup3\n      swap1\n      sub\n      0x1f\n      and\n      dup3\n      add\n      swap2\n    tag_277:\n      pop\n      pop\n      pop\n      pop\n      pop\n      dup2\n      mstore\n      0x20\n      add\n      0x05\n      dup3\n      add\n      sload\n      dup2\n      mstore\n      pop\n      pop\n      swap1\n      pop\n        /* \"contracts/src/Nova3.sol\":2576:2580  plan */\n      dup1\n        /* \"contracts/src/Nova3.sol\":2576:2589  plan.isActive */\n      0x60\n      add\n      mload\n        /* \"contracts/src/Nova3.sol\":2576:2607  plan.isActive && plan.price > 0 */\n      dup1\n      iszero\n      tag_280\n      jumpi\n      pop\n        /* \"contracts/src/Nova3.sol\":2593:2603  plan.price */\n      dup1\n      mload\n        /* \"contracts/src/Nova3.sol\":2593:2607  plan.price > 0 */\n      iszero\n      iszero\n        /* \"contracts/src/Nova3.sol\":2576:2607  plan.isActive && plan.price > 0 */\n    tag_280:\n        /* \"contracts/src/Nova3.sol\":2576:2628  plan.isActive && plan.price > 0 && plan.duration > 0 */\n      dup1\n      iszero\n      tag_281\n      jumpi\n      pop\n        /* \"contracts/src/Nova3.sol\":2627:2628  0 */\n      0x00\n        /* \"contracts/src/Nova3.sol\":2611:2615  plan */\n      dup2\n        /* \"contracts/src/Nova3.sol\":2611:2624  plan.duration */\n      0x20\n      add\n      mload\n        /* \"contracts/src/Nova3.sol\":2611:2628  plan.duration > 0 */\n      gt\n        /* \"contracts/src/Nova3.sol\":2576:2628  plan.isActive && plan.price > 0 && plan.duration > 0 */\n    tag_281:\n        /* \"contracts/src/Nova3.sol\":2568:2645  require(plan.isActive && plan.price > 0 && plan.duration > 0, \"Invalid plan\") */\n      tag_282\n      jumpi\n      mload(0x40)\n      shl(0xe5, 0x461bcd)\n      dup2\n      mstore\n        /* \"#utility.yul\":16331:16333   */\n      0x20\n        /* \"contracts/src/Nova3.sol\":2568:2645  require(plan.isActive && plan.price > 0 && plan.duration > 0, \"Invalid plan\") */\n      0x04\n      dup3\n      add\n        /* \"#utility.yul\":16313:16334   */\n      mstore\n        /* \"#utility.yul\":16370:16372   */\n      0x0c\n        /* \"#utility.yul\":16350:16368   */\n      0x24\n      dup3\n      add\n        /* \"#utility.yul\":16343:16373   */\n      mstore\n      shl(0xa1, 0x24b73b30b634b210383630b7)\n        /* \"#utility.yul\":16389:16407   */\n      0x44\n      dup3\n      add\n        /* \"#utility.yul\":16382:16424   */\n      mstore\n        /* \"#utility.yul\":16441:16459   */\n      0x64\n      add\n        /* \"contracts/src/Nova3.sol\":2568:2645  require(plan.isActive && plan.price > 0 && plan.duration > 0, \"Invalid plan\") */\n      tag_154\n        /* \"#utility.yul\":16129:16465   */\n      jump\n        /* \"contracts/src/Nova3.sol\":2568:2645  require(plan.isActive && plan.price > 0 && plan.duration > 0, \"Invalid plan\") */\n    tag_282:\n        /* \"contracts/src/Nova3.sol\":2680:2689  usdcToken */\n      sload(0x03)\n        /* \"contracts/src/Nova3.sol\":2680:2714  usdcToken.balanceOf(address(this)) */\n      mload(0x40)\n      shl(0xe0, 0x70a08231)\n      dup2\n      mstore\n        /* \"contracts/src/Nova3.sol\":2708:2712  this */\n      address\n        /* \"contracts/src/Nova3.sol\":2680:2714  usdcToken.balanceOf(address(this)) */\n      0x04\n      dup3\n      add\n        /* \"#utility.yul\":1799:1850   */\n      mstore\n        /* \"contracts/src/Nova3.sol\":2656:2677  uint256 balanceBefore */\n      0x00\n      swap2\n      sub(shl(0xa0, 0x01), 0x01)\n        /* \"contracts/src/Nova3.sol\":2680:2689  usdcToken */\n      and\n      swap1\n        /* \"contracts/src/Nova3.sol\":2680:2699  usdcToken.balanceOf */\n      0x70a08231\n      swap1\n        /* \"#utility.yul\":1772:1790   */\n      0x24\n      add\n        /* \"contracts/src/Nova3.sol\":2680:2714  usdcToken.balanceOf(address(this)) */\n      0x20\n      mload(0x40)\n      dup1\n      dup4\n      sub\n      dup2\n      dup7\n      gas\n      staticcall\n      iszero\n      dup1\n      iszero\n      tag_287\n      jumpi\n      returndatasize\n      0x00\n      dup1\n      returndatacopy\n      revert(0x00, returndatasize)\n    tag_287:\n      pop\n      pop\n      pop\n      pop\n      mload(0x40)\n      returndatasize\n      not(0x1f)\n      0x1f\n      dup3\n      add\n      and\n      dup3\n      add\n      dup1\n      0x40\n      mstore\n      pop\n      dup2\n      add\n      swap1\n      tag_288\n      swap2\n      swap1\n      tag_172\n      jump\t// in\n    tag_288:\n        /* \"contracts/src/Nova3.sol\":2733:2742  usdcToken */\n      sload(0x03)\n        /* \"contracts/src/Nova3.sol\":2783:2793  plan.price */\n      dup4\n      mload\n        /* \"contracts/src/Nova3.sol\":2733:2794  usdcToken.transferFrom(msg.sender, address(this), plan.price) */\n      mload(0x40)\n      shl(0xe0, 0x23b872dd)\n      dup2\n      mstore\n        /* \"contracts/src/Nova3.sol\":2756:2766  msg.sender */\n      caller\n        /* \"contracts/src/Nova3.sol\":2733:2794  usdcToken.transferFrom(msg.sender, address(this), plan.price) */\n      0x04\n      dup3\n      add\n        /* \"#utility.yul\":8233:8267   */\n      mstore\n        /* \"contracts/src/Nova3.sol\":2776:2780  this */\n      address\n        /* \"#utility.yul\":8283:8301   */\n      0x24\n      dup3\n      add\n        /* \"#utility.yul\":8276:8319   */\n      mstore\n        /* \"#utility.yul\":8335:8353   */\n      0x44\n      dup2\n      add\n        /* \"#utility.yul\":8328:8362   */\n      swap2\n      swap1\n      swap2\n      mstore\n        /* \"contracts/src/Nova3.sol\":2656:2714  uint256 balanceBefore = usdcToken.balanceOf(address(this)) */\n      swap2\n      swap3\n      pop\n      sub(shl(0xa0, 0x01), 0x01)\n        /* \"contracts/src/Nova3.sol\":2733:2742  usdcToken */\n      and\n      swap1\n        /* \"contracts/src/Nova3.sol\":2733:2755  usdcToken.transferFrom */\n      0x23b872dd\n      swap1\n        /* \"#utility.yul\":8168:8186   */\n      0x64\n      add\n        /* \"contracts/src/Nova3.sol\":2733:2794  usdcToken.transferFrom(msg.sender, address(this), plan.price) */\n      0x20\n      mload(0x40)\n      dup1\n      dup4\n      sub\n      dup2\n      0x00\n      dup8\n      gas\n      call\n      iszero\n      dup1\n      iszero\n      tag_291\n      jumpi\n      returndatasize\n      0x00\n      dup1\n      returndatacopy\n      revert(0x00, returndatasize)\n    tag_291:\n      pop\n      pop\n      pop\n      pop\n      mload(0x40)\n      returndatasize\n      not(0x1f)\n      0x1f\n      dup3\n      add\n      and\n      dup3\n      add\n      dup1\n      0x40\n      mstore\n      pop\n      dup2\n      add\n      swap1\n      tag_292\n      swap2\n      swap1\n      tag_178\n      jump\t// in\n    tag_292:\n        /* \"contracts/src/Nova3.sol\":2725:2819  require(usdcToken.transferFrom(msg.sender, address(this), plan.price), \"USDC transfer failed\") */\n      tag_293\n      jumpi\n      mload(0x40)\n      shl(0xe5, 0x461bcd)\n      dup2\n      mstore\n      0x04\n      add\n      tag_154\n      swap1\n      tag_181\n      jump\t// in\n    tag_293:\n        /* \"contracts/src/Nova3.sol\":2906:2916  plan.price */\n      dup2\n      mload\n        /* \"contracts/src/Nova3.sol\":2852:2861  usdcToken */\n      sload(0x03)\n        /* \"contracts/src/Nova3.sol\":2852:2886  usdcToken.balanceOf(address(this)) */\n      mload(0x40)\n      shl(0xe0, 0x70a08231)\n      dup2\n      mstore\n        /* \"contracts/src/Nova3.sol\":2880:2884  this */\n      address\n        /* \"contracts/src/Nova3.sol\":2852:2886  usdcToken.balanceOf(address(this)) */\n      0x04\n      dup3\n      add\n        /* \"#utility.yul\":1799:1850   */\n      mstore\n        /* \"contracts/src/Nova3.sol\":2889:2902  balanceBefore */\n      dup4\n      swap2\n      sub(shl(0xa0, 0x01), 0x01)\n        /* \"contracts/src/Nova3.sol\":2852:2861  usdcToken */\n      and\n      swap1\n        /* \"contracts/src/Nova3.sol\":2852:2871  usdcToken.balanceOf */\n      0x70a08231\n      swap1\n        /* \"#utility.yul\":1772:1790   */\n      0x24\n      add\n        /* \"contracts/src/Nova3.sol\":2852:2886  usdcToken.balanceOf(address(this)) */\n      0x20\n      mload(0x40)\n      dup1\n      dup4\n      sub\n      dup2\n      dup7\n      gas\n      staticcall\n      iszero\n      dup1\n      iszero\n      tag_297\n      jumpi\n      returndatasize\n      0x00\n      dup1\n      returndatacopy\n      revert(0x00, returndatasize)\n    tag_297:\n      pop\n      pop\n      pop\n      pop\n      mload(0x40)\n      returndatasize\n      not(0x1f)\n      0x1f\n      dup3\n      add\n      and\n      dup3\n      add\n      dup1\n      0x40\n      mstore\n      pop\n      dup2\n      add\n      swap1\n      tag_298\n      swap2\n      swap1\n      tag_172\n      jump\t// in\n    tag_298:\n        /* \"contracts/src/Nova3.sol\":2852:2902  usdcToken.balanceOf(address(this)) - balanceBefore */\n      tag_299\n      swap2\n      swap1\n      tag_187\n      jump\t// in\n    tag_299:\n        /* \"contracts/src/Nova3.sol\":2852:2916  usdcToken.balanceOf(address(this)) - balanceBefore >= plan.price */\n      lt\n      iszero\n        /* \"contracts/src/Nova3.sol\":2830:2975  require(... */\n      tag_300\n      jumpi\n      mload(0x40)\n      shl(0xe5, 0x461bcd)\n      dup2\n      mstore\n        /* \"#utility.yul\":9471:9473   */\n      0x20\n        /* \"contracts/src/Nova3.sol\":2830:2975  require(... */\n      0x04\n      dup3\n      add\n        /* \"#utility.yul\":9453:9474   */\n      mstore\n        /* \"#utility.yul\":9510:9512   */\n      0x1f\n        /* \"#utility.yul\":9490:9508   */\n      0x24\n      dup3\n      add\n        /* \"#utility.yul\":9483:9513   */\n      mstore\n        /* \"#utility.yul\":9549:9582   */\n      0x526563656976656420616d6f756e74206c657373207468616e20707269636500\n        /* \"#utility.yul\":9529:9547   */\n      0x44\n      dup3\n      add\n        /* \"#utility.yul\":9522:9583   */\n      mstore\n        /* \"#utility.yul\":9600:9618   */\n      0x64\n      add\n        /* \"contracts/src/Nova3.sol\":2830:2975  require(... */\n      tag_154\n        /* \"#utility.yul\":9269:9624   */\n      jump\n        /* \"contracts/src/Nova3.sol\":2830:2975  require(... */\n    tag_300:\n        /* \"contracts/src/Nova3.sol\":3031:3041  msg.sender */\n      caller\n        /* \"contracts/src/Nova3.sol\":2986:3014  Subscription storage userSub */\n      0x00\n        /* \"contracts/src/Nova3.sol\":3017:3042  subscriptions[msg.sender] */\n      swap1\n      dup2\n      mstore\n        /* \"contracts/src/Nova3.sol\":3017:3030  subscriptions */\n      0x04\n        /* \"contracts/src/Nova3.sol\":3017:3042  subscriptions[msg.sender] */\n      0x20\n      mstore\n      0x40\n      dup2\n      keccak256\n        /* \"contracts/src/Nova3.sol\":3077:3093  userSub.isActive */\n      dup1\n      sload\n        /* \"contracts/src/Nova3.sol\":3017:3042  subscriptions[msg.sender] */\n      swap1\n      swap2\n        /* \"contracts/src/Nova3.sol\":2986:3014  Subscription storage userSub */\n      swap1\n        /* \"contracts/src/Nova3.sol\":3077:3093  userSub.isActive */\n      0xff\n      and\n        /* \"contracts/src/Nova3.sol\":3077:3133  userSub.isActive && userSub.expiryTime > block.timestamp */\n      dup1\n      iszero\n      tag_302\n      jumpi\n      pop\n        /* \"contracts/src/Nova3.sol\":3118:3133  block.timestamp */\n      timestamp\n        /* \"contracts/src/Nova3.sol\":3097:3104  userSub */\n      dup3\n        /* \"contracts/src/Nova3.sol\":3097:3115  userSub.expiryTime */\n      0x01\n      add\n      sload\n        /* \"contracts/src/Nova3.sol\":3097:3133  userSub.expiryTime > block.timestamp */\n      gt\n        /* \"contracts/src/Nova3.sol\":3077:3133  userSub.isActive && userSub.expiryTime > block.timestamp */\n    tag_302:\n        /* \"contracts/src/Nova3.sol\":3077:3230  userSub.isActive && userSub.expiryTime > block.timestamp... */\n      tag_303\n      jumpi\n        /* \"contracts/src/Nova3.sol\":3217:3230  plan.duration */\n      0x20\n      dup5\n      add\n      mload\n        /* \"contracts/src/Nova3.sol\":3199:3230  block.timestamp + plan.duration */\n      tag_304\n      swap1\n        /* \"contracts/src/Nova3.sol\":3199:3214  block.timestamp */\n      timestamp\n        /* \"contracts/src/Nova3.sol\":3199:3230  block.timestamp + plan.duration */\n      tag_192\n      jump\t// in\n    tag_304:\n        /* \"contracts/src/Nova3.sol\":3077:3230  userSub.isActive && userSub.expiryTime > block.timestamp... */\n      jump(tag_306)\n    tag_303:\n        /* \"contracts/src/Nova3.sol\":3170:3174  plan */\n      dup4\n        /* \"contracts/src/Nova3.sol\":3170:3183  plan.duration */\n      0x20\n      add\n      mload\n        /* \"contracts/src/Nova3.sol\":3149:3156  userSub */\n      dup3\n        /* \"contracts/src/Nova3.sol\":3149:3167  userSub.expiryTime */\n      0x01\n      add\n      sload\n        /* \"contracts/src/Nova3.sol\":3149:3183  userSub.expiryTime + plan.duration */\n      tag_306\n      swap2\n      swap1\n      tag_192\n      jump\t// in\n    tag_306:\n        /* \"contracts/src/Nova3.sol\":3241:3264  userSub.isActive = true */\n      dup3\n      sload\n      not(0xff)\n      and\n        /* \"contracts/src/Nova3.sol\":3260:3264  true */\n      0x01\n        /* \"contracts/src/Nova3.sol\":3241:3264  userSub.isActive = true */\n      swap1\n      dup2\n      or\n      dup5\n      sstore\n        /* \"contracts/src/Nova3.sol\":3275:3293  userSub.expiryTime */\n      dup4\n      add\n        /* \"contracts/src/Nova3.sol\":3275:3309  userSub.expiryTime = newExpiryTime */\n      dup2\n      swap1\n      sstore\n        /* \"contracts/src/Nova3.sol\":3320:3334  userSub.planId */\n      0x02\n      dup4\n      add\n        /* \"contracts/src/Nova3.sol\":3320:3343  userSub.planId = planId */\n      dup7\n      swap1\n      sstore\n        /* \"contracts/src/Nova3.sol\":3376:3388  plan.version */\n      0xa0\n      dup6\n      dup2\n      add\n      mload\n        /* \"contracts/src/Nova3.sol\":3354:3373  userSub.planVersion */\n      0x03\n      dup6\n      add\n        /* \"contracts/src/Nova3.sol\":3354:3388  userSub.planVersion = plan.version */\n      dup2\n      swap1\n      sstore\n        /* \"contracts/src/Nova3.sol\":3419:3434  block.timestamp */\n      timestamp\n        /* \"contracts/src/Nova3.sol\":3399:3416  userSub.startTime */\n      0x04\n      dup7\n      add\n        /* \"contracts/src/Nova3.sol\":3399:3434  userSub.startTime = block.timestamp */\n      sstore\n        /* \"contracts/src/Nova3.sol\":3507:3517  plan.price */\n      dup7\n      mload\n        /* \"contracts/src/Nova3.sol\":3519:3532  plan.duration */\n      0x20\n      dup1\n      dup10\n      add\n      mload\n        /* \"contracts/src/Nova3.sol\":3450:3547  SubscriptionPurchased(msg.sender, planId, newExpiryTime, plan.price, plan.duration, plan.version) */\n      0x40\n      dup1\n      mload\n        /* \"#utility.yul\":10018:10043   */\n      dup13\n      dup2\n      mstore\n        /* \"#utility.yul\":10059:10077   */\n      swap3\n      dup4\n      add\n        /* \"#utility.yul\":10052:10086   */\n      dup8\n      swap1\n      mstore\n        /* \"#utility.yul\":10102:10120   */\n      dup3\n      add\n        /* \"#utility.yul\":10095:10129   */\n      swap3\n      swap1\n      swap3\n      mstore\n        /* \"#utility.yul\":10160:10162   */\n      0x60\n        /* \"#utility.yul\":10145:10163   */\n      dup2\n      add\n        /* \"#utility.yul\":10138:10172   */\n      swap2\n      swap1\n      swap2\n      mstore\n        /* \"#utility.yul\":10203:10206   */\n      0x80\n        /* \"#utility.yul\":10188:10207   */\n      dup2\n      add\n        /* \"#utility.yul\":10181:10216   */\n      swap2\n      swap1\n      swap2\n      mstore\n        /* \"contracts/src/Nova3.sol\":3275:3309  userSub.expiryTime = newExpiryTime */\n      swap2\n      swap3\n      pop\n        /* \"contracts/src/Nova3.sol\":3472:3482  msg.sender */\n      caller\n      swap2\n        /* \"contracts/src/Nova3.sol\":3450:3547  SubscriptionPurchased(msg.sender, planId, newExpiryTime, plan.price, plan.duration, plan.version) */\n      0x69c719af4ea46cca8c932184a3e30a956161742ed2332e6ebf6703327d799284\n      swap2\n        /* \"#utility.yul\":9990:10009   */\n      add\n        /* \"contracts/src/Nova3.sol\":3450:3547  SubscriptionPurchased(msg.sender, planId, newExpiryTime, plan.price, plan.duration, plan.version) */\n      mload(0x40)\n      dup1\n      swap2\n      sub\n      swap1\n      log2\n        /* \"contracts/src/Nova3.sol\":2514:3555  {... */\n      pop\n      pop\n      pop\n      pop\n        /* \"@openzeppelin/contracts/security/ReentrancyGuard.sol\":2303:2323  _nonReentrantAfter() */\n      tag_195\n        /* \"@openzeppelin/contracts/security/ReentrancyGuard.sol\":1716:1717  1 */\n      0x01\n        /* \"@openzeppelin/contracts/security/ReentrancyGuard.sol\":2809:2816  _status */\n      0x02\n        /* \"@openzeppelin/contracts/security/ReentrancyGuard.sol\":2809:2831  _status = _NOT_ENTERED */\n      sstore\n        /* \"@openzeppelin/contracts/security/ReentrancyGuard.sol\":2629:2838  function _nonReentrantAfter() private {... */\n      jump\n        /* \"@openzeppelin/contracts/access/AccessControl.sol\":2854:2990  function hasRole(bytes32 role, address account) public view virtual returns (bool) {... */\n    tag_103:\n        /* \"@openzeppelin/contracts/access/AccessControl.sol\":2931:2935  bool */\n      0x00\n        /* \"@openzeppelin/contracts/access/AccessControl.sol\":2954:2966  _roles[role] */\n      swap2\n      dup3\n      mstore\n      0x20\n      dup3\n      dup2\n      mstore\n      0x40\n      dup1\n      dup5\n      keccak256\n      sub(shl(0xa0, 0x01), 0x01)\n        /* \"@openzeppelin/contracts/access/AccessControl.sol\":2954:2983  _roles[role].hasRole[account] */\n      swap4\n      swap1\n      swap4\n      and\n      dup5\n      mstore\n      swap2\n      swap1\n      mstore\n      swap1\n      keccak256\n      sload\n      0xff\n      and\n      swap1\n        /* \"@openzeppelin/contracts/access/AccessControl.sol\":2854:2990  function hasRole(bytes32 role, address account) public view virtual returns (bool) {... */\n      jump\t// out\n        /* \"contracts/src/Nova3.sol\":1105:1142  mapping(uint256 => Plan) public plans */\n    tag_110:\n      mstore(0x20, 0x05)\n      0x00\n      swap1\n      dup2\n      mstore\n      0x40\n      swap1\n      keccak256\n      dup1\n      sload\n      0x01\n      dup3\n      add\n      sload\n      0x02\n      dup4\n      add\n      sload\n      0x03\n      dup5\n      add\n      sload\n      0x04\n      dup6\n      add\n      dup1\n      sload\n      swap5\n      swap6\n      swap4\n      swap5\n      swap3\n      swap4\n      0xff\n      swap1\n      swap3\n      and\n      swap3\n      tag_310\n      swap1\n      tag_157\n      jump\t// in\n    tag_310:\n      dup1\n      0x1f\n      add\n      0x20\n      dup1\n      swap2\n      div\n      mul\n      0x20\n      add\n      mload(0x40)\n      swap1\n      dup2\n      add\n      0x40\n      mstore\n      dup1\n      swap3\n      swap2\n      swap1\n      dup2\n      dup2\n      mstore\n      0x20\n      add\n      dup3\n      dup1\n      sload\n      tag_311\n      swap1\n      tag_157\n      jump\t// in\n    tag_311:\n      dup1\n      iszero\n      tag_312\n      jumpi\n      dup1\n      0x1f\n      lt\n      tag_313\n      jumpi\n      0x0100\n      dup1\n      dup4\n      sload\n      div\n      mul\n      dup4\n      mstore\n      swap2\n      0x20\n      add\n      swap2\n      jump(tag_312)\n    tag_313:\n      dup3\n      add\n      swap2\n      swap1\n      0x00\n      mstore\n      keccak256(0x00, 0x20)\n      swap1\n    tag_314:\n      dup2\n      sload\n      dup2\n      mstore\n      swap1\n      0x01\n      add\n      swap1\n      0x20\n      add\n      dup1\n      dup4\n      gt\n      tag_314\n      jumpi\n      dup3\n      swap1\n      sub\n      0x1f\n      and\n      dup3\n      add\n      swap2\n    tag_312:\n      pop\n      pop\n      pop\n      pop\n      pop\n      swap1\n      dup1\n      0x05\n      add\n      sload\n      swap1\n      pop\n      dup7\n      jump\t// out\n        /* \"contracts/src/Nova3.sol\":10177:10730  function withdrawFunds(address recipient, uint256 amount)... */\n    tag_119:\n        /* \"contracts/src/Nova3.sol\":519:545  keccak256(\"TREASURY_ROLE\") */\n      0xe1dcbdb91df27212a29bc27177c840cf2f819ecf2187432e1fac86c2dd5dfca9\n        /* \"@openzeppelin/contracts/access/AccessControl.sol\":2464:2480  _checkRole(role) */\n      tag_316\n        /* \"@openzeppelin/contracts/access/AccessControl.sol\":2475:2479  role */\n      dup2\n        /* \"@openzeppelin/contracts/access/AccessControl.sol\":2464:2474  _checkRole */\n      tag_206\n        /* \"@openzeppelin/contracts/access/AccessControl.sol\":2464:2480  _checkRole(role) */\n      jump\t// in\n    tag_316:\n        /* \"@openzeppelin/contracts/security/ReentrancyGuard.sol\":2261:2282  _nonReentrantBefore() */\n      tag_318\n        /* \"@openzeppelin/contracts/security/ReentrancyGuard.sol\":2261:2280  _nonReentrantBefore */\n      tag_147\n        /* \"@openzeppelin/contracts/security/ReentrancyGuard.sol\":2261:2282  _nonReentrantBefore() */\n      jump\t// in\n    tag_318:\n        /* \"@openzeppelin/contracts/security/Pausable.sol\":1239:1258  _requireNotPaused() */\n      tag_320\n        /* \"@openzeppelin/contracts/security/Pausable.sol\":1239:1256  _requireNotPaused */\n      tag_150\n        /* \"@openzeppelin/contracts/security/Pausable.sol\":1239:1258  _requireNotPaused() */\n      jump\t// in\n    tag_320:\n      sub(shl(0xa0, 0x01), 0x01)\n        /* \"contracts/src/Nova3.sol\":10355:10378  recipient != address(0) */\n      dup4\n      and\n        /* \"contracts/src/Nova3.sol\":10347:10408  require(recipient != address(0), \"Invalid recipient address\") */\n      tag_322\n      jumpi\n      mload(0x40)\n      shl(0xe5, 0x461bcd)\n      dup2\n      mstore\n        /* \"#utility.yul\":16672:16674   */\n      0x20\n        /* \"contracts/src/Nova3.sol\":10347:10408  require(recipient != address(0), \"Invalid recipient address\") */\n      0x04\n      dup3\n      add\n        /* \"#utility.yul\":16654:16675   */\n      mstore\n        /* \"#utility.yul\":16711:16713   */\n      0x19\n        /* \"#utility.yul\":16691:16709   */\n      0x24\n      dup3\n      add\n        /* \"#utility.yul\":16684:16714   */\n      mstore\n        /* \"#utility.yul\":16750:16777   */\n      0x496e76616c696420726563697069656e74206164647265737300000000000000\n        /* \"#utility.yul\":16730:16748   */\n      0x44\n      dup3\n      add\n        /* \"#utility.yul\":16723:16778   */\n      mstore\n        /* \"#utility.yul\":16795:16813   */\n      0x64\n      add\n        /* \"contracts/src/Nova3.sol\":10347:10408  require(recipient != address(0), \"Invalid recipient address\") */\n      tag_154\n        /* \"#utility.yul\":16470:16819   */\n      jump\n        /* \"contracts/src/Nova3.sol\":10347:10408  require(recipient != address(0), \"Invalid recipient address\") */\n    tag_322:\n        /* \"contracts/src/Nova3.sol\":10436:10437  0 */\n      0x00\n        /* \"contracts/src/Nova3.sol\":10427:10433  amount */\n      dup3\n        /* \"contracts/src/Nova3.sol\":10427:10437  amount > 0 */\n      gt\n        /* \"contracts/src/Nova3.sol\":10419:10471  require(amount > 0, \"Amount must be greater than 0\") */\n      tag_325\n      jumpi\n      mload(0x40)\n      shl(0xe5, 0x461bcd)\n      dup2\n      mstore\n        /* \"#utility.yul\":17026:17028   */\n      0x20\n        /* \"contracts/src/Nova3.sol\":10419:10471  require(amount > 0, \"Amount must be greater than 0\") */\n      0x04\n      dup3\n      add\n        /* \"#utility.yul\":17008:17029   */\n      mstore\n        /* \"#utility.yul\":17065:17067   */\n      0x1d\n        /* \"#utility.yul\":17045:17063   */\n      0x24\n      dup3\n      add\n        /* \"#utility.yul\":17038:17068   */\n      mstore\n        /* \"#utility.yul\":17104:17135   */\n      0x416d6f756e74206d7573742062652067726561746572207468616e2030000000\n        /* \"#utility.yul\":17084:17102   */\n      0x44\n      dup3\n      add\n        /* \"#utility.yul\":17077:17136   */\n      mstore\n        /* \"#utility.yul\":17153:17171   */\n      0x64\n      add\n        /* \"contracts/src/Nova3.sol\":10419:10471  require(amount > 0, \"Amount must be greater than 0\") */\n      tag_154\n        /* \"#utility.yul\":16824:17177   */\n      jump\n        /* \"contracts/src/Nova3.sol\":10419:10471  require(amount > 0, \"Amount must be greater than 0\") */\n    tag_325:\n        /* \"contracts/src/Nova3.sol\":10490:10499  usdcToken */\n      sload(0x03)\n        /* \"contracts/src/Nova3.sol\":10490:10524  usdcToken.balanceOf(address(this)) */\n      mload(0x40)\n      shl(0xe0, 0x70a08231)\n      dup2\n      mstore\n        /* \"contracts/src/Nova3.sol\":10518:10522  this */\n      address\n        /* \"contracts/src/Nova3.sol\":10490:10524  usdcToken.balanceOf(address(this)) */\n      0x04\n      dup3\n      add\n        /* \"#utility.yul\":1799:1850   */\n      mstore\n        /* \"contracts/src/Nova3.sol\":10528:10534  amount */\n      dup4\n      swap2\n      sub(shl(0xa0, 0x01), 0x01)\n        /* \"contracts/src/Nova3.sol\":10490:10499  usdcToken */\n      and\n      swap1\n        /* \"contracts/src/Nova3.sol\":10490:10509  usdcToken.balanceOf */\n      0x70a08231\n      swap1\n        /* \"#utility.yul\":1772:1790   */\n      0x24\n      add\n        /* \"contracts/src/Nova3.sol\":10490:10524  usdcToken.balanceOf(address(this)) */\n      0x20\n      mload(0x40)\n      dup1\n      dup4\n      sub\n      dup2\n      dup7\n      gas\n      staticcall\n      iszero\n      dup1\n      iszero\n      tag_330\n      jumpi\n      returndatasize\n      0x00\n      dup1\n      returndatacopy\n      revert(0x00, returndatasize)\n    tag_330:\n      pop\n      pop\n      pop\n      pop\n      mload(0x40)\n      returndatasize\n      not(0x1f)\n      0x1f\n      dup3\n      add\n      and\n      dup3\n      add\n      dup1\n      0x40\n      mstore\n      pop\n      dup2\n      add\n      swap1\n      tag_331\n      swap2\n      swap1\n      tag_172\n      jump\t// in\n    tag_331:\n        /* \"contracts/src/Nova3.sol\":10490:10534  usdcToken.balanceOf(address(this)) >= amount */\n      lt\n      iszero\n        /* \"contracts/src/Nova3.sol\":10482:10559  require(usdcToken.balanceOf(address(this)) >= amount, \"Insufficient balance\") */\n      tag_332\n      jumpi\n      mload(0x40)\n      shl(0xe5, 0x461bcd)\n      dup2\n      mstore\n        /* \"#utility.yul\":17384:17386   */\n      0x20\n        /* \"contracts/src/Nova3.sol\":10482:10559  require(usdcToken.balanceOf(address(this)) >= amount, \"Insufficient balance\") */\n      0x04\n      dup3\n      add\n        /* \"#utility.yul\":17366:17387   */\n      mstore\n        /* \"#utility.yul\":17423:17425   */\n      0x14\n        /* \"#utility.yul\":17403:17421   */\n      0x24\n      dup3\n      add\n        /* \"#utility.yul\":17396:17426   */\n      mstore\n      shl(0x60, 0x496e73756666696369656e742062616c616e6365)\n        /* \"#utility.yul\":17442:17460   */\n      0x44\n      dup3\n      add\n        /* \"#utility.yul\":17435:17485   */\n      mstore\n        /* \"#utility.yul\":17502:17520   */\n      0x64\n      add\n        /* \"contracts/src/Nova3.sol\":10482:10559  require(usdcToken.balanceOf(address(this)) >= amount, \"Insufficient balance\") */\n      tag_154\n        /* \"#utility.yul\":17182:17526   */\n      jump\n        /* \"contracts/src/Nova3.sol\":10482:10559  require(usdcToken.balanceOf(address(this)) >= amount, \"Insufficient balance\") */\n    tag_332:\n        /* \"contracts/src/Nova3.sol\":10585:10594  usdcToken */\n      sload(0x03)\n        /* \"contracts/src/Nova3.sol\":10585:10622  usdcToken.transfer(recipient, amount) */\n      mload(0x40)\n      shl(0xe0, 0xa9059cbb)\n      dup2\n      mstore\n      sub(shl(0xa0, 0x01), 0x01)\n        /* \"#utility.yul\":17723:17755   */\n      dup6\n      dup2\n      and\n        /* \"contracts/src/Nova3.sol\":10585:10622  usdcToken.transfer(recipient, amount) */\n      0x04\n      dup4\n      add\n        /* \"#utility.yul\":17705:17756   */\n      mstore\n        /* \"#utility.yul\":17772:17790   */\n      0x24\n      dup3\n      add\n        /* \"#utility.yul\":17765:17799   */\n      dup6\n      swap1\n      mstore\n        /* \"contracts/src/Nova3.sol\":10570:10582  bool success */\n      0x00\n      swap3\n        /* \"contracts/src/Nova3.sol\":10585:10594  usdcToken */\n      and\n      swap1\n        /* \"contracts/src/Nova3.sol\":10585:10603  usdcToken.transfer */\n      0xa9059cbb\n      swap1\n        /* \"#utility.yul\":17678:17696   */\n      0x44\n      add\n        /* \"contracts/src/Nova3.sol\":10585:10622  usdcToken.transfer(recipient, amount) */\n      0x20\n      mload(0x40)\n      dup1\n      dup4\n      sub\n      dup2\n      0x00\n      dup8\n      gas\n      call\n      iszero\n      dup1\n      iszero\n      tag_338\n      jumpi\n      returndatasize\n      0x00\n      dup1\n      returndatacopy\n      revert(0x00, returndatasize)\n    tag_338:\n      pop\n      pop\n      pop\n      pop\n      mload(0x40)\n      returndatasize\n      not(0x1f)\n      0x1f\n      dup3\n      add\n      and\n      dup3\n      add\n      dup1\n      0x40\n      mstore\n      pop\n      dup2\n      add\n      swap1\n      tag_339\n      swap2\n      swap1\n      tag_178\n      jump\t// in\n    tag_339:\n        /* \"contracts/src/Nova3.sol\":10570:10622  bool success = usdcToken.transfer(recipient, amount) */\n      swap1\n      pop\n        /* \"contracts/src/Nova3.sol\":10641:10648  success */\n      dup1\n        /* \"contracts/src/Nova3.sol\":10633:10673  require(success, \"USDC transfer failed\") */\n      tag_340\n      jumpi\n      mload(0x40)\n      shl(0xe5, 0x461bcd)\n      dup2\n      mstore\n      0x04\n      add\n      tag_154\n      swap1\n      tag_181\n      jump\t// in\n    tag_340:\n        /* \"contracts/src/Nova3.sol\":10704:10713  recipient */\n      dup4\n      sub(shl(0xa0, 0x01), 0x01)\n        /* \"contracts/src/Nova3.sol\":10689:10722  FundsWithdrawn(recipient, amount) */\n      and\n      0xeaff4b37086828766ad3268786972c0cd24259d4c87a80f9d3963a3c3d999b0d\n        /* \"contracts/src/Nova3.sol\":10715:10721  amount */\n      dup5\n        /* \"contracts/src/Nova3.sol\":10689:10722  FundsWithdrawn(recipient, amount) */\n      mload(0x40)\n      tag_342\n      swap2\n        /* \"#utility.yul\":1603:1628   */\n      dup2\n      mstore\n        /* \"#utility.yul\":1591:1593   */\n      0x20\n        /* \"#utility.yul\":1576:1594   */\n      add\n      swap1\n        /* \"#utility.yul\":1457:1634   */\n      jump\n        /* \"contracts/src/Nova3.sol\":10689:10722  FundsWithdrawn(recipient, amount) */\n    tag_342:\n      mload(0x40)\n      dup1\n      swap2\n      sub\n      swap1\n      log2\n        /* \"contracts/src/Nova3.sol\":10336:10730  {... */\n      pop\n        /* \"@openzeppelin/contracts/security/ReentrancyGuard.sol\":2303:2323  _nonReentrantAfter() */\n      tag_214\n        /* \"@openzeppelin/contracts/security/ReentrancyGuard.sol\":1716:1717  1 */\n      0x01\n        /* \"@openzeppelin/contracts/security/ReentrancyGuard.sol\":2809:2816  _status */\n      0x02\n        /* \"@openzeppelin/contracts/security/ReentrancyGuard.sol\":2809:2831  _status = _NOT_ENTERED */\n      sstore\n        /* \"@openzeppelin/contracts/security/ReentrancyGuard.sol\":2629:2838  function _nonReentrantAfter() private {... */\n      jump\n        /* \"contracts/src/Nova3.sol\":8231:9040  function addPlan(... */\n    tag_123:\n      0x00\n      dup1\n      mload\n      0x20\n      data_cb864c43dd5d441bb6271f424f11befa622c032dfd374d226e26fbbdb782b8f8\n      dup4\n      codecopy\n      dup2\n      mload\n      swap2\n      mstore\n        /* \"@openzeppelin/contracts/access/AccessControl.sol\":2464:2480  _checkRole(role) */\n      tag_345\n        /* \"@openzeppelin/contracts/access/AccessControl.sol\":2475:2479  role */\n      dup2\n        /* \"@openzeppelin/contracts/access/AccessControl.sol\":2464:2474  _checkRole */\n      tag_206\n        /* \"@openzeppelin/contracts/access/AccessControl.sol\":2464:2480  _checkRole(role) */\n      jump\t// in\n    tag_345:\n        /* \"contracts/src/Nova3.sol\":8430:8431  0 */\n      0x00\n        /* \"contracts/src/Nova3.sol\":8422:8427  price */\n      dup7\n        /* \"contracts/src/Nova3.sol\":8422:8431  price > 0 */\n      gt\n        /* \"contracts/src/Nova3.sol\":8422:8452  price > 0 || trialDuration > 0 */\n      dup1\n      tag_347\n      jumpi\n      pop\n        /* \"contracts/src/Nova3.sol\":8451:8452  0 */\n      0x00\n        /* \"contracts/src/Nova3.sol\":8435:8448  trialDuration */\n      dup5\n        /* \"contracts/src/Nova3.sol\":8435:8452  trialDuration > 0 */\n      gt\n        /* \"contracts/src/Nova3.sol\":8422:8452  price > 0 || trialDuration > 0 */\n    tag_347:\n        /* \"contracts/src/Nova3.sol\":8414:8480  require(price > 0 || trialDuration > 0, \"Price or trial required\") */\n      tag_348\n      jumpi\n      mload(0x40)\n      shl(0xe5, 0x461bcd)\n      dup2\n      mstore\n        /* \"#utility.yul\":12002:12004   */\n      0x20\n        /* \"contracts/src/Nova3.sol\":8414:8480  require(price > 0 || trialDuration > 0, \"Price or trial required\") */\n      0x04\n      dup3\n      add\n        /* \"#utility.yul\":11984:12005   */\n      mstore\n        /* \"#utility.yul\":12041:12043   */\n      0x17\n        /* \"#utility.yul\":12021:12039   */\n      0x24\n      dup3\n      add\n        /* \"#utility.yul\":12014:12044   */\n      mstore\n      shl(0x4a, 0x141c9a58d9481bdc881d1c9a585b081c995c5d5a5c9959)\n        /* \"#utility.yul\":12060:12078   */\n      0x44\n      dup3\n      add\n        /* \"#utility.yul\":12053:12106   */\n      mstore\n        /* \"#utility.yul\":12123:12141   */\n      0x64\n      add\n        /* \"contracts/src/Nova3.sol\":8414:8480  require(price > 0 || trialDuration > 0, \"Price or trial required\") */\n      tag_154\n        /* \"#utility.yul\":11800:12147   */\n      jump\n        /* \"contracts/src/Nova3.sol\":8414:8480  require(price > 0 || trialDuration > 0, \"Price or trial required\") */\n    tag_348:\n        /* \"contracts/src/Nova3.sol\":8510:8511  0 */\n      0x00\n        /* \"contracts/src/Nova3.sol\":8499:8507  duration */\n      dup6\n        /* \"contracts/src/Nova3.sol\":8499:8511  duration > 0 */\n      gt\n        /* \"contracts/src/Nova3.sol\":8499:8539  duration > 0 && duration <= MAX_DURATION */\n      dup1\n      iszero\n      tag_350\n      jumpi\n      pop\n        /* \"contracts/src/Nova3.sol\":591:599  365 days */\n      0x01e13380\n        /* \"contracts/src/Nova3.sol\":8515:8523  duration */\n      dup6\n        /* \"contracts/src/Nova3.sol\":8515:8539  duration <= MAX_DURATION */\n      gt\n      iszero\n        /* \"contracts/src/Nova3.sol\":8499:8539  duration > 0 && duration <= MAX_DURATION */\n    tag_350:\n        /* \"contracts/src/Nova3.sol\":8491:8566  require(duration > 0 && duration <= MAX_DURATION, \"Duration out of bounds\") */\n      tag_351\n      jumpi\n      mload(0x40)\n      shl(0xe5, 0x461bcd)\n      dup2\n      mstore\n        /* \"#utility.yul\":12354:12356   */\n      0x20\n        /* \"contracts/src/Nova3.sol\":8491:8566  require(duration > 0 && duration <= MAX_DURATION, \"Duration out of bounds\") */\n      0x04\n      dup3\n      add\n        /* \"#utility.yul\":12336:12357   */\n      mstore\n        /* \"#utility.yul\":12393:12395   */\n      0x16\n        /* \"#utility.yul\":12373:12391   */\n      0x24\n      dup3\n      add\n        /* \"#utility.yul\":12366:12396   */\n      mstore\n      shl(0x50, 0x4475726174696f6e206f7574206f6620626f756e6473)\n        /* \"#utility.yul\":12412:12430   */\n      0x44\n      dup3\n      add\n        /* \"#utility.yul\":12405:12457   */\n      mstore\n        /* \"#utility.yul\":12474:12492   */\n      0x64\n      add\n        /* \"contracts/src/Nova3.sol\":8491:8566  require(duration > 0 && duration <= MAX_DURATION, \"Duration out of bounds\") */\n      tag_154\n        /* \"#utility.yul\":12152:12498   */\n      jump\n        /* \"contracts/src/Nova3.sol\":8491:8566  require(duration > 0 && duration <= MAX_DURATION, \"Duration out of bounds\") */\n    tag_351:\n        /* \"contracts/src/Nova3.sol\":8602:8610  duration */\n      dup5\n        /* \"contracts/src/Nova3.sol\":8585:8598  trialDuration */\n      dup5\n        /* \"contracts/src/Nova3.sol\":8585:8610  trialDuration <= duration */\n      gt\n      iszero\n        /* \"contracts/src/Nova3.sol\":8577:8637  require(trialDuration <= duration, \"Trial exceeds duration\") */\n      tag_353\n      jumpi\n      mload(0x40)\n      shl(0xe5, 0x461bcd)\n      dup2\n      mstore\n        /* \"#utility.yul\":12705:12707   */\n      0x20\n        /* \"contracts/src/Nova3.sol\":8577:8637  require(trialDuration <= duration, \"Trial exceeds duration\") */\n      0x04\n      dup3\n      add\n        /* \"#utility.yul\":12687:12708   */\n      mstore\n        /* \"#utility.yul\":12744:12746   */\n      0x16\n        /* \"#utility.yul\":12724:12742   */\n      0x24\n      dup3\n      add\n        /* \"#utility.yul\":12717:12747   */\n      mstore\n      shl(0x51, 0x2a3934b0b61032bc31b2b2b23990323ab930ba34b7b7)\n        /* \"#utility.yul\":12763:12781   */\n      0x44\n      dup3\n      add\n        /* \"#utility.yul\":12756:12808   */\n      mstore\n        /* \"#utility.yul\":12825:12843   */\n      0x64\n      add\n        /* \"contracts/src/Nova3.sol\":8577:8637  require(trialDuration <= duration, \"Trial exceeds duration\") */\n      tag_154\n        /* \"#utility.yul\":12503:12849   */\n      jump\n        /* \"contracts/src/Nova3.sol\":8577:8637  require(trialDuration <= duration, \"Trial exceeds duration\") */\n    tag_353:\n        /* \"contracts/src/Nova3.sol\":8682:8685  100 */\n      0x64\n        /* \"contracts/src/Nova3.sol\":8656:8685  bytes(benefits).length <= 100 */\n      dup3\n      gt\n      iszero\n        /* \"contracts/src/Nova3.sol\":8648:8707  require(bytes(benefits).length <= 100, \"Benefits too long\") */\n      tag_355\n      jumpi\n      mload(0x40)\n      shl(0xe5, 0x461bcd)\n      dup2\n      mstore\n        /* \"#utility.yul\":13056:13058   */\n      0x20\n        /* \"contracts/src/Nova3.sol\":8648:8707  require(bytes(benefits).length <= 100, \"Benefits too long\") */\n      0x04\n      dup3\n      add\n        /* \"#utility.yul\":13038:13059   */\n      mstore\n        /* \"#utility.yul\":13095:13097   */\n      0x11\n        /* \"#utility.yul\":13075:13093   */\n      0x24\n      dup3\n      add\n        /* \"#utility.yul\":13068:13098   */\n      mstore\n      shl(0x78, 0x42656e656669747320746f6f206c6f6e67)\n        /* \"#utility.yul\":13114:13132   */\n      0x44\n      dup3\n      add\n        /* \"#utility.yul\":13107:13154   */\n      mstore\n        /* \"#utility.yul\":13171:13189   */\n      0x64\n      add\n        /* \"contracts/src/Nova3.sol\":8648:8707  require(bytes(benefits).length <= 100, \"Benefits too long\") */\n      tag_154\n        /* \"#utility.yul\":12854:13195   */\n      jump\n        /* \"contracts/src/Nova3.sol\":8648:8707  require(bytes(benefits).length <= 100, \"Benefits too long\") */\n    tag_355:\n        /* \"contracts/src/Nova3.sol\":8718:8727  planCount */\n      0x06\n        /* \"contracts/src/Nova3.sol\":8718:8729  planCount++ */\n      dup1\n      sload\n      swap1\n        /* \"contracts/src/Nova3.sol\":8718:8727  planCount */\n      0x00\n        /* \"contracts/src/Nova3.sol\":8718:8729  planCount++ */\n      tag_357\n      dup4\n      tag_358\n      jump\t// in\n    tag_357:\n      swap2\n      swap1\n      pop\n      sstore\n      pop\n        /* \"contracts/src/Nova3.sol\":8759:8966  Plan({... */\n      mload(0x40)\n      dup1\n      0xc0\n      add\n      0x40\n      mstore\n      dup1\n        /* \"contracts/src/Nova3.sol\":8786:8791  price */\n      dup8\n        /* \"contracts/src/Nova3.sol\":8759:8966  Plan({... */\n      dup2\n      mstore\n      0x20\n      add\n        /* \"contracts/src/Nova3.sol\":8816:8824  duration */\n      dup7\n        /* \"contracts/src/Nova3.sol\":8759:8966  Plan({... */\n      dup2\n      mstore\n      0x20\n      add\n        /* \"contracts/src/Nova3.sol\":8854:8867  trialDuration */\n      dup6\n        /* \"contracts/src/Nova3.sol\":8759:8966  Plan({... */\n      dup2\n      mstore\n      0x20\n      add\n        /* \"contracts/src/Nova3.sol\":8892:8896  true */\n      0x01\n        /* \"contracts/src/Nova3.sol\":8759:8966  Plan({... */\n      iszero\n      iszero\n      dup2\n      mstore\n      0x20\n      add\n        /* \"contracts/src/Nova3.sol\":8921:8929  benefits */\n      dup5\n      dup5\n        /* \"contracts/src/Nova3.sol\":8759:8966  Plan({... */\n      dup1\n      dup1\n      0x1f\n      add\n      0x20\n      dup1\n      swap2\n      div\n      mul\n      0x20\n      add\n      mload(0x40)\n      swap1\n      dup2\n      add\n      0x40\n      mstore\n      dup1\n      swap4\n      swap3\n      swap2\n      swap1\n      dup2\n      dup2\n      mstore\n      0x20\n      add\n      dup4\n      dup4\n      dup1\n      dup3\n      dup5\n      calldatacopy\n      0x00\n      swap3\n      add\n      dup3\n      swap1\n      mstore\n      pop\n      swap4\n      dup6\n      mstore\n      pop\n      pop\n        /* \"contracts/src/Nova3.sol\":8953:8954  1 */\n      0x01\n        /* \"contracts/src/Nova3.sol\":8759:8966  Plan({... */\n      0x20\n      swap4\n      dup5\n      add\n      dup2\n      swap1\n      mstore\n        /* \"contracts/src/Nova3.sol\":8746:8755  planCount */\n      sload(0x06)\n        /* \"contracts/src/Nova3.sol\":8740:8756  plans[planCount] */\n      dup4\n      mstore\n        /* \"contracts/src/Nova3.sol\":8740:8745  plans */\n      0x05\n        /* \"contracts/src/Nova3.sol\":8740:8756  plans[planCount] */\n      dup5\n      mstore\n      0x40\n      swap3\n      dup4\n      swap1\n      keccak256\n        /* \"contracts/src/Nova3.sol\":8740:8966  plans[planCount] = Plan({... */\n      dup6\n      mload\n      dup2\n      sstore\n      swap4\n      dup6\n      add\n      mload\n      swap1\n      dup5\n      add\n      sstore\n      pop\n      dup3\n      add\n      mload\n      0x02\n      dup3\n      add\n      sstore\n      0x60\n      dup3\n      add\n      mload\n      0x03\n      dup3\n      add\n      dup1\n      sload\n      not(0xff)\n      and\n      swap2\n      iszero\n      iszero\n      swap2\n      swap1\n      swap2\n      or\n      swap1\n      sstore\n      0x80\n      dup3\n      add\n      mload\n      0x04\n      dup3\n      add\n      swap1\n      tag_359\n      swap1\n      dup3\n      tag_360\n      jump\t// in\n    tag_359:\n      pop\n      0xa0\n      dup3\n      add\n      mload\n      dup2\n      0x05\n      add\n      sstore\n      swap1\n      pop\n      pop\n        /* \"contracts/src/Nova3.sol\":8992:9001  planCount */\n      sload(0x06)\n        /* \"contracts/src/Nova3.sol\":8982:9032  PlanAdded(planCount, price, duration, benefits, 1) */\n      0xc892ce8cee1ecf3c64aa4c2c73d198b5ddd43c7b487f74db6832f25241c9b122\n        /* \"contracts/src/Nova3.sol\":9003:9008  price */\n      dup8\n        /* \"contracts/src/Nova3.sol\":9010:9018  duration */\n      dup8\n        /* \"contracts/src/Nova3.sol\":9020:9028  benefits */\n      dup7\n      dup7\n        /* \"contracts/src/Nova3.sol\":9030:9031  1 */\n      0x01\n        /* \"contracts/src/Nova3.sol\":8982:9032  PlanAdded(planCount, price, duration, benefits, 1) */\n      mload(0x40)\n      tag_361\n      swap6\n      swap5\n      swap4\n      swap3\n      swap2\n      swap1\n      tag_267\n      jump\t// in\n    tag_361:\n      mload(0x40)\n      dup1\n      swap2\n      sub\n      swap1\n      log2\n        /* \"contracts/src/Nova3.sol\":8231:9040  function addPlan(... */\n      pop\n      pop\n      pop\n      pop\n      pop\n      pop\n      jump\t// out\n        /* \"contracts/src/Nova3.sol\":5747:6522  function refundSubscription() external nonReentrant {... */\n    tag_125:\n        /* \"@openzeppelin/contracts/security/ReentrancyGuard.sol\":2261:2282  _nonReentrantBefore() */\n      tag_364\n        /* \"@openzeppelin/contracts/security/ReentrancyGuard.sol\":2261:2280  _nonReentrantBefore */\n      tag_147\n        /* \"@openzeppelin/contracts/security/ReentrancyGuard.sol\":2261:2282  _nonReentrantBefore() */\n      jump\t// in\n    tag_364:\n        /* \"contracts/src/Nova3.sol\":5855:5865  msg.sender */\n      caller\n        /* \"contracts/src/Nova3.sol\":5810:5838  Subscription storage userSub */\n      0x00\n        /* \"contracts/src/Nova3.sol\":5841:5866  subscriptions[msg.sender] */\n      swap1\n      dup2\n      mstore\n        /* \"contracts/src/Nova3.sol\":5841:5854  subscriptions */\n      0x04\n        /* \"contracts/src/Nova3.sol\":5841:5866  subscriptions[msg.sender] */\n      0x20\n      mstore\n      0x40\n      swap1\n      keccak256\n        /* \"contracts/src/Nova3.sol\":5885:5901  userSub.isActive */\n      dup1\n      sload\n      0xff\n      and\n        /* \"contracts/src/Nova3.sol\":5877:5928  require(userSub.isActive, \"No active subscription\") */\n      tag_366\n      jumpi\n      mload(0x40)\n      shl(0xe5, 0x461bcd)\n      dup2\n      mstore\n      0x04\n      add\n      tag_154\n      swap1\n      tag_155\n      jump\t// in\n    tag_366:\n        /* \"contracts/src/Nova3.sol\":646:652  1 days */\n      0x015180\n        /* \"contracts/src/Nova3.sol\":5966:5973  userSub */\n      dup2\n        /* \"contracts/src/Nova3.sol\":5966:5983  userSub.startTime */\n      0x04\n      add\n      sload\n        /* \"contracts/src/Nova3.sol\":5966:5999  userSub.startTime + REFUND_WINDOW */\n      tag_368\n      swap2\n      swap1\n      tag_192\n      jump\t// in\n    tag_368:\n        /* \"contracts/src/Nova3.sol\":5947:5962  block.timestamp */\n      timestamp\n        /* \"contracts/src/Nova3.sol\":5947:5999  block.timestamp <= userSub.startTime + REFUND_WINDOW */\n      gt\n      iszero\n        /* \"contracts/src/Nova3.sol\":5939:6025  require(block.timestamp <= userSub.startTime + REFUND_WINDOW, \"Refund window expired\") */\n      tag_369\n      jumpi\n      mload(0x40)\n      shl(0xe5, 0x461bcd)\n      dup2\n      mstore\n        /* \"#utility.yul\":19984:19986   */\n      0x20\n        /* \"contracts/src/Nova3.sol\":5939:6025  require(block.timestamp <= userSub.startTime + REFUND_WINDOW, \"Refund window expired\") */\n      0x04\n      dup3\n      add\n        /* \"#utility.yul\":19966:19987   */\n      mstore\n        /* \"#utility.yul\":20023:20025   */\n      0x15\n        /* \"#utility.yul\":20003:20021   */\n      0x24\n      dup3\n      add\n        /* \"#utility.yul\":19996:20026   */\n      mstore\n      shl(0x5a, 0x1499599d5b99081dda5b991bddc8195e1c1a5c9959)\n        /* \"#utility.yul\":20042:20060   */\n      0x44\n      dup3\n      add\n        /* \"#utility.yul\":20035:20086   */\n      mstore\n        /* \"#utility.yul\":20103:20121   */\n      0x64\n      add\n        /* \"contracts/src/Nova3.sol\":5939:6025  require(block.timestamp <= userSub.startTime + REFUND_WINDOW, \"Refund window expired\") */\n      tag_154\n        /* \"#utility.yul\":19782:20127   */\n      jump\n        /* \"contracts/src/Nova3.sol\":5939:6025  require(block.timestamp <= userSub.startTime + REFUND_WINDOW, \"Refund window expired\") */\n    tag_369:\n        /* \"contracts/src/Nova3.sol\":6061:6075  userSub.planId */\n      0x02\n      dup1\n      dup3\n      add\n      sload\n        /* \"contracts/src/Nova3.sol\":6036:6052  Plan memory plan */\n      0x00\n        /* \"contracts/src/Nova3.sol\":6055:6076  plans[userSub.planId] */\n      swap1\n      dup2\n      mstore\n        /* \"contracts/src/Nova3.sol\":6055:6060  plans */\n      0x05\n        /* \"contracts/src/Nova3.sol\":6055:6076  plans[userSub.planId] */\n      0x20\n      swap1\n      dup2\n      mstore\n      0x40\n      dup1\n      dup4\n      keccak256\n        /* \"contracts/src/Nova3.sol\":6036:6076  Plan memory plan = plans[userSub.planId] */\n      dup2\n      mload\n      0xc0\n      dup2\n      add\n      dup4\n      mstore\n      dup2\n      sload\n      dup2\n      mstore\n      0x01\n      dup3\n      add\n      sload\n      swap4\n      dup2\n      add\n      swap4\n      swap1\n      swap4\n      mstore\n      swap4\n      dup5\n      add\n      sload\n      swap1\n      dup3\n      add\n      mstore\n      0x03\n      dup4\n      add\n      sload\n      0xff\n      and\n      iszero\n      iszero\n      0x60\n      dup3\n      add\n      mstore\n      0x04\n      dup4\n      add\n      dup1\n      sload\n        /* \"contracts/src/Nova3.sol\":6036:6052  Plan memory plan */\n      swap3\n      swap4\n        /* \"contracts/src/Nova3.sol\":6036:6076  Plan memory plan = plans[userSub.planId] */\n      swap2\n      swap3\n      0x80\n      dup5\n      add\n      swap2\n      swap1\n      tag_372\n      swap1\n      tag_157\n      jump\t// in\n    tag_372:\n      dup1\n      0x1f\n      add\n      0x20\n      dup1\n      swap2\n      div\n      mul\n      0x20\n      add\n      mload(0x40)\n      swap1\n      dup2\n      add\n      0x40\n      mstore\n      dup1\n      swap3\n      swap2\n      swap1\n      dup2\n      dup2\n      mstore\n      0x20\n      add\n      dup3\n      dup1\n      sload\n      tag_373\n      swap1\n      tag_157\n      jump\t// in\n    tag_373:\n      dup1\n      iszero\n      tag_374\n      jumpi\n      dup1\n      0x1f\n      lt\n      tag_375\n      jumpi\n      0x0100\n      dup1\n      dup4\n      sload\n      div\n      mul\n      dup4\n      mstore\n      swap2\n      0x20\n      add\n      swap2\n      jump(tag_374)\n    tag_375:\n      dup3\n      add\n      swap2\n      swap1\n      0x00\n      mstore\n      keccak256(0x00, 0x20)\n      swap1\n    tag_376:\n      dup2\n      sload\n      dup2\n      mstore\n      swap1\n      0x01\n      add\n      swap1\n      0x20\n      add\n      dup1\n      dup4\n      gt\n      tag_376\n      jumpi\n      dup3\n      swap1\n      sub\n      0x1f\n      and\n      dup3\n      add\n      swap2\n    tag_374:\n      pop\n      pop\n      pop\n      pop\n      pop\n      dup2\n      mstore\n      0x20\n      add\n      0x05\n      dup3\n      add\n      sload\n      dup2\n      mstore\n      pop\n      pop\n      swap1\n      pop\n        /* \"contracts/src/Nova3.sol\":6108:6109  0 */\n      0x00\n        /* \"contracts/src/Nova3.sol\":6095:6099  plan */\n      dup2\n        /* \"contracts/src/Nova3.sol\":6095:6105  plan.price */\n      0x00\n      add\n      mload\n        /* \"contracts/src/Nova3.sol\":6095:6109  plan.price > 0 */\n      gt\n        /* \"contracts/src/Nova3.sol\":6087:6134  require(plan.price > 0, \"No payment to refund\") */\n      tag_377\n      jumpi\n      mload(0x40)\n      shl(0xe5, 0x461bcd)\n      dup2\n      mstore\n        /* \"#utility.yul\":20334:20336   */\n      0x20\n        /* \"contracts/src/Nova3.sol\":6087:6134  require(plan.price > 0, \"No payment to refund\") */\n      0x04\n      dup3\n      add\n        /* \"#utility.yul\":20316:20337   */\n      mstore\n        /* \"#utility.yul\":20373:20375   */\n      0x14\n        /* \"#utility.yul\":20353:20371   */\n      0x24\n      dup3\n      add\n        /* \"#utility.yul\":20346:20376   */\n      mstore\n      shl(0x62, 0x139bc81c185e5b595b9d081d1bc81c99599d5b99)\n        /* \"#utility.yul\":20392:20410   */\n      0x44\n      dup3\n      add\n        /* \"#utility.yul\":20385:20435   */\n      mstore\n        /* \"#utility.yul\":20452:20470   */\n      0x64\n      add\n        /* \"contracts/src/Nova3.sol\":6087:6134  require(plan.price > 0, \"No payment to refund\") */\n      tag_154\n        /* \"#utility.yul\":20132:20476   */\n      jump\n        /* \"contracts/src/Nova3.sol\":6087:6134  require(plan.price > 0, \"No payment to refund\") */\n    tag_377:\n        /* \"contracts/src/Nova3.sol\":6145:6169  userSub.isActive = false */\n      dup2\n      sload\n      not(0xff)\n      swap1\n      dup2\n      and\n      dup4\n      sstore\n      0x00\n      0x01\n        /* \"contracts/src/Nova3.sol\":6180:6198  userSub.expiryTime */\n      dup5\n      add\n        /* \"contracts/src/Nova3.sol\":6180:6202  userSub.expiryTime = 0 */\n      dup2\n      swap1\n      sstore\n        /* \"contracts/src/Nova3.sol\":6213:6227  userSub.planId */\n      0x02\n      dup5\n      add\n        /* \"contracts/src/Nova3.sol\":6213:6231  userSub.planId = 0 */\n      dup2\n      swap1\n      sstore\n        /* \"contracts/src/Nova3.sol\":6242:6261  userSub.planVersion */\n      0x03\n      dup1\n      dup6\n      add\n        /* \"contracts/src/Nova3.sol\":6242:6265  userSub.planVersion = 0 */\n      dup3\n      swap1\n      sstore\n        /* \"contracts/src/Nova3.sol\":6276:6293  userSub.startTime */\n      0x04\n      dup1\n      dup7\n      add\n        /* \"contracts/src/Nova3.sol\":6276:6297  userSub.startTime = 0 */\n      dup4\n      swap1\n      sstore\n        /* \"contracts/src/Nova3.sol\":6308:6325  userSub.autoRenew */\n      0x05\n      dup7\n      add\n        /* \"contracts/src/Nova3.sol\":6308:6333  userSub.autoRenew = false */\n      dup1\n      sload\n      swap1\n      swap5\n      and\n      swap1\n      swap4\n      sstore\n        /* \"contracts/src/Nova3.sol\":6359:6368  usdcToken */\n      sload\n        /* \"contracts/src/Nova3.sol\":6390:6400  plan.price */\n      dup4\n      mload\n        /* \"contracts/src/Nova3.sol\":6359:6401  usdcToken.transfer(msg.sender, plan.price) */\n      mload(0x40)\n      shl(0xe0, 0xa9059cbb)\n      dup2\n      mstore\n        /* \"contracts/src/Nova3.sol\":6378:6388  msg.sender */\n      caller\n        /* \"contracts/src/Nova3.sol\":6359:6401  usdcToken.transfer(msg.sender, plan.price) */\n      swap5\n      dup2\n      add\n        /* \"#utility.yul\":17705:17756   */\n      swap5\n      swap1\n      swap5\n      mstore\n        /* \"#utility.yul\":17772:17790   */\n      0x24\n      dup5\n      add\n        /* \"#utility.yul\":17765:17799   */\n      mstore\n      swap1\n      swap2\n      sub(shl(0xa0, 0x01), 0x01)\n        /* \"contracts/src/Nova3.sol\":6359:6368  usdcToken */\n      swap1\n      swap2\n      and\n      swap1\n        /* \"contracts/src/Nova3.sol\":6359:6377  usdcToken.transfer */\n      0xa9059cbb\n      swap1\n        /* \"#utility.yul\":17678:17696   */\n      0x44\n      add\n        /* \"contracts/src/Nova3.sol\":6359:6401  usdcToken.transfer(msg.sender, plan.price) */\n      0x20\n      mload(0x40)\n      dup1\n      dup4\n      sub\n      dup2\n      0x00\n      dup8\n      gas\n      call\n      iszero\n      dup1\n      iszero\n      tag_382\n      jumpi\n      returndatasize\n      0x00\n      dup1\n      returndatacopy\n      revert(0x00, returndatasize)\n    tag_382:\n      pop\n      pop\n      pop\n      pop\n      mload(0x40)\n      returndatasize\n      not(0x1f)\n      0x1f\n      dup3\n      add\n      and\n      dup3\n      add\n      dup1\n      0x40\n      mstore\n      pop\n      dup2\n      add\n      swap1\n      tag_383\n      swap2\n      swap1\n      tag_178\n      jump\t// in\n    tag_383:\n        /* \"contracts/src/Nova3.sol\":6344:6401  bool success = usdcToken.transfer(msg.sender, plan.price) */\n      swap1\n      pop\n        /* \"contracts/src/Nova3.sol\":6420:6427  success */\n      dup1\n        /* \"contracts/src/Nova3.sol\":6412:6454  require(success, \"Refund transfer failed\") */\n      tag_384\n      jumpi\n      mload(0x40)\n      shl(0xe5, 0x461bcd)\n      dup2\n      mstore\n        /* \"#utility.yul\":20683:20685   */\n      0x20\n        /* \"contracts/src/Nova3.sol\":6412:6454  require(success, \"Refund transfer failed\") */\n      0x04\n      dup3\n      add\n        /* \"#utility.yul\":20665:20686   */\n      mstore\n        /* \"#utility.yul\":20722:20724   */\n      0x16\n        /* \"#utility.yul\":20702:20720   */\n      0x24\n      dup3\n      add\n        /* \"#utility.yul\":20695:20725   */\n      mstore\n      shl(0x52, 0x1499599d5b99081d1c985b9cd9995c8819985a5b1959)\n        /* \"#utility.yul\":20741:20759   */\n      0x44\n      dup3\n      add\n        /* \"#utility.yul\":20734:20786   */\n      mstore\n        /* \"#utility.yul\":20803:20821   */\n      0x64\n      add\n        /* \"contracts/src/Nova3.sol\":6412:6454  require(success, \"Refund transfer failed\") */\n      tag_154\n        /* \"#utility.yul\":20481:20827   */\n      jump\n        /* \"contracts/src/Nova3.sol\":6412:6454  require(success, \"Refund transfer failed\") */\n    tag_384:\n        /* \"contracts/src/Nova3.sol\":6503:6513  plan.price */\n      dup2\n      mload\n        /* \"contracts/src/Nova3.sol\":6470:6514  SubscriptionRefunded(msg.sender, plan.price) */\n      mload(0x40)\n        /* \"#utility.yul\":1603:1628   */\n      swap1\n      dup2\n      mstore\n        /* \"contracts/src/Nova3.sol\":6491:6501  msg.sender */\n      caller\n      swap1\n        /* \"contracts/src/Nova3.sol\":6470:6514  SubscriptionRefunded(msg.sender, plan.price) */\n      0xb5aea4689fc1529924a9ba4572cd5d88d4f4c2778f9e40d15641f09b69e00d33\n      swap1\n        /* \"#utility.yul\":1591:1593   */\n      0x20\n        /* \"#utility.yul\":1576:1594   */\n      add\n        /* \"contracts/src/Nova3.sol\":6470:6514  SubscriptionRefunded(msg.sender, plan.price) */\n      mload(0x40)\n      dup1\n      swap2\n      sub\n      swap1\n      log2\n        /* \"contracts/src/Nova3.sol\":5799:6522  {... */\n      pop\n      pop\n      pop\n        /* \"@openzeppelin/contracts/security/ReentrancyGuard.sol\":2303:2323  _nonReentrantAfter() */\n      tag_388\n        /* \"@openzeppelin/contracts/security/ReentrancyGuard.sol\":1716:1717  1 */\n      0x01\n        /* \"@openzeppelin/contracts/security/ReentrancyGuard.sol\":2809:2816  _status */\n      0x02\n        /* \"@openzeppelin/contracts/security/ReentrancyGuard.sol\":2809:2831  _status = _NOT_ENTERED */\n      sstore\n        /* \"@openzeppelin/contracts/security/ReentrancyGuard.sol\":2629:2838  function _nonReentrantAfter() private {... */\n      jump\n        /* \"@openzeppelin/contracts/security/ReentrancyGuard.sol\":2303:2323  _nonReentrantAfter() */\n    tag_388:\n        /* \"contracts/src/Nova3.sol\":5747:6522  function refundSubscription() external nonReentrant {... */\n      jump\t// out\n        /* \"@openzeppelin/contracts/access/AccessControl.sol\":4642:4780  function revokeRole(bytes32 role, address account) public virtual onlyRole(getRoleAdmin(role)) {... */\n    tag_131:\n        /* \"@openzeppelin/contracts/access/AccessControl.sol\":3875:3882  bytes32 */\n      0x00\n        /* \"@openzeppelin/contracts/access/AccessControl.sol\":3901:3913  _roles[role] */\n      dup3\n      dup2\n      mstore\n      0x20\n      dup2\n      swap1\n      mstore\n      0x40\n      swap1\n      keccak256\n        /* \"@openzeppelin/contracts/access/AccessControl.sol\":3901:3923  _roles[role].adminRole */\n      0x01\n      add\n      sload\n        /* \"@openzeppelin/contracts/access/AccessControl.sol\":2464:2480  _checkRole(role) */\n      tag_391\n        /* \"@openzeppelin/contracts/access/AccessControl.sol\":2475:2479  role */\n      dup2\n        /* \"@openzeppelin/contracts/access/AccessControl.sol\":2464:2474  _checkRole */\n      tag_206\n        /* \"@openzeppelin/contracts/access/AccessControl.sol\":2464:2480  _checkRole(role) */\n      jump\t// in\n    tag_391:\n        /* \"@openzeppelin/contracts/access/AccessControl.sol\":4747:4773  _revokeRole(role, account) */\n      tag_208\n        /* \"@openzeppelin/contracts/access/AccessControl.sol\":4759:4763  role */\n      dup4\n        /* \"@openzeppelin/contracts/access/AccessControl.sol\":4765:4772  account */\n      dup4\n        /* \"@openzeppelin/contracts/access/AccessControl.sol\":4747:4758  _revokeRole */\n      tag_215\n        /* \"@openzeppelin/contracts/access/AccessControl.sol\":4747:4773  _revokeRole(role, account) */\n      jump\t// in\n        /* \"contracts/src/Nova3.sol\":6761:7817  function batchProcessRenewals(address[] calldata users) external {... */\n    tag_135:\n        /* \"contracts/src/Nova3.sol\":6842:6851  uint256 i */\n      0x00\n        /* \"contracts/src/Nova3.sol\":6837:7810  for (uint256 i = 0; i < users.length; i++) {... */\n    tag_395:\n        /* \"contracts/src/Nova3.sol\":6857:6873  i < users.length */\n      dup2\n      dup2\n      lt\n        /* \"contracts/src/Nova3.sol\":6837:7810  for (uint256 i = 0; i < users.length; i++) {... */\n      iszero\n      tag_214\n      jumpi\n        /* \"contracts/src/Nova3.sol\":6895:6923  Subscription storage userSub */\n      0x00\n        /* \"contracts/src/Nova3.sol\":6926:6939  subscriptions */\n      0x04\n        /* \"contracts/src/Nova3.sol\":6926:6949  subscriptions[users[i]] */\n      0x00\n        /* \"contracts/src/Nova3.sol\":6940:6945  users */\n      dup6\n      dup6\n        /* \"contracts/src/Nova3.sol\":6946:6947  i */\n      dup6\n        /* \"contracts/src/Nova3.sol\":6940:6948  users[i] */\n      dup2\n      dup2\n      lt\n      tag_399\n      jumpi\n      tag_399\n      tag_400\n      jump\t// in\n    tag_399:\n      swap1\n      pop\n      0x20\n      mul\n      add\n      0x20\n      dup2\n      add\n      swap1\n      tag_401\n      swap2\n      swap1\n      tag_50\n      jump\t// in\n    tag_401:\n      sub(shl(0xa0, 0x01), 0x01)\n        /* \"contracts/src/Nova3.sol\":6926:6949  subscriptions[users[i]] */\n      and\n      dup2\n      mstore\n      0x20\n      dup2\n      add\n      swap2\n      swap1\n      swap2\n      mstore\n      0x40\n      add\n      0x00\n      keccak256\n        /* \"contracts/src/Nova3.sol\":6986:7002  userSub.isActive */\n      dup1\n      sload\n        /* \"contracts/src/Nova3.sol\":6926:6949  subscriptions[users[i]] */\n      swap1\n      swap2\n      pop\n        /* \"contracts/src/Nova3.sol\":6986:7002  userSub.isActive */\n      0xff\n      and\n        /* \"contracts/src/Nova3.sol\":6986:7040  userSub.isActive &&... */\n      dup1\n      iszero\n      tag_402\n      jumpi\n      pop\n        /* \"contracts/src/Nova3.sol\":7023:7040  userSub.autoRenew */\n      0x05\n      dup2\n      add\n      sload\n      0xff\n      and\n        /* \"contracts/src/Nova3.sol\":6986:7040  userSub.isActive &&... */\n    tag_402:\n        /* \"contracts/src/Nova3.sol\":6986:7098  userSub.isActive &&... */\n      dup1\n      iszero\n      tag_403\n      jumpi\n      pop\n        /* \"contracts/src/Nova3.sol\":7080:7087  userSub */\n      dup1\n        /* \"contracts/src/Nova3.sol\":7080:7098  userSub.expiryTime */\n      0x01\n      add\n      sload\n        /* \"contracts/src/Nova3.sol\":7061:7076  block.timestamp */\n      timestamp\n        /* \"contracts/src/Nova3.sol\":7061:7098  block.timestamp >= userSub.expiryTime */\n      lt\n      iszero\n        /* \"contracts/src/Nova3.sol\":6986:7098  userSub.isActive &&... */\n    tag_403:\n        /* \"contracts/src/Nova3.sol\":6986:7149  userSub.isActive &&... */\n      dup1\n      iszero\n      tag_404\n      jumpi\n      pop\n        /* \"contracts/src/Nova3.sol\":7125:7139  userSub.planId */\n      0x02\n      dup2\n      add\n      sload\n        /* \"contracts/src/Nova3.sol\":7119:7140  plans[userSub.planId] */\n      0x00\n      swap1\n      dup2\n      mstore\n        /* \"contracts/src/Nova3.sol\":7119:7124  plans */\n      0x05\n        /* \"contracts/src/Nova3.sol\":7119:7140  plans[userSub.planId] */\n      0x20\n      mstore\n      0x40\n      swap1\n      keccak256\n        /* \"contracts/src/Nova3.sol\":7119:7149  plans[userSub.planId].isActive */\n      0x03\n      add\n      sload\n      0xff\n      and\n        /* \"contracts/src/Nova3.sol\":6986:7149  userSub.isActive &&... */\n    tag_404:\n        /* \"contracts/src/Nova3.sol\":6964:7799  if (... */\n      iszero\n      tag_405\n      jumpi\n        /* \"contracts/src/Nova3.sol\":7209:7223  userSub.planId */\n      0x02\n      dup1\n      dup3\n      add\n      sload\n        /* \"contracts/src/Nova3.sol\":7184:7200  Plan memory plan */\n      0x00\n        /* \"contracts/src/Nova3.sol\":7203:7224  plans[userSub.planId] */\n      swap1\n      dup2\n      mstore\n        /* \"contracts/src/Nova3.sol\":7203:7208  plans */\n      0x05\n        /* \"contracts/src/Nova3.sol\":7203:7224  plans[userSub.planId] */\n      0x20\n      swap1\n      dup2\n      mstore\n      0x40\n      dup1\n      dup4\n      keccak256\n        /* \"contracts/src/Nova3.sol\":7184:7224  Plan memory plan = plans[userSub.planId] */\n      dup2\n      mload\n      0xc0\n      dup2\n      add\n      dup4\n      mstore\n      dup2\n      sload\n      dup2\n      mstore\n      0x01\n      dup3\n      add\n      sload\n      swap4\n      dup2\n      add\n      swap4\n      swap1\n      swap4\n      mstore\n      swap4\n      dup5\n      add\n      sload\n      swap1\n      dup3\n      add\n      mstore\n      0x03\n      dup4\n      add\n      sload\n      0xff\n      and\n      iszero\n      iszero\n      0x60\n      dup3\n      add\n      mstore\n      0x04\n      dup4\n      add\n      dup1\n      sload\n        /* \"contracts/src/Nova3.sol\":7184:7200  Plan memory plan */\n      swap3\n      swap4\n        /* \"contracts/src/Nova3.sol\":7184:7224  Plan memory plan = plans[userSub.planId] */\n      swap2\n      swap3\n      0x80\n      dup5\n      add\n      swap2\n      swap1\n      tag_406\n      swap1\n      tag_157\n      jump\t// in\n    tag_406:\n      dup1\n      0x1f\n      add\n      0x20\n      dup1\n      swap2\n      div\n      mul\n      0x20\n      add\n      mload(0x40)\n      swap1\n      dup2\n      add\n      0x40\n      mstore\n      dup1\n      swap3\n      swap2\n      swap1\n      dup2\n      dup2\n      mstore\n      0x20\n      add\n      dup3\n      dup1\n      sload\n      tag_407\n      swap1\n      tag_157\n      jump\t// in\n    tag_407:\n      dup1\n      iszero\n      tag_408\n      jumpi\n      dup1\n      0x1f\n      lt\n      tag_409\n      jumpi\n      0x0100\n      dup1\n      dup4\n      sload\n      div\n      mul\n      dup4\n      mstore\n      swap2\n      0x20\n      add\n      swap2\n      jump(tag_408)\n    tag_409:\n      dup3\n      add\n      swap2\n      swap1\n      0x00\n      mstore\n      keccak256(0x00, 0x20)\n      swap1\n    tag_410:\n      dup2\n      sload\n      dup2\n      mstore\n      swap1\n      0x01\n      add\n      swap1\n      0x20\n      add\n      dup1\n      dup4\n      gt\n      tag_410\n      jumpi\n      dup3\n      swap1\n      sub\n      0x1f\n      and\n      dup3\n      add\n      swap2\n    tag_408:\n      pop\n      pop\n      pop\n      swap2\n      dup4\n      mstore\n      pop\n      pop\n      0x05\n      swap2\n      swap1\n      swap2\n      add\n      sload\n      0x20\n      swap1\n      swap2\n      add\n      mstore\n        /* \"contracts/src/Nova3.sol\":7267:7276  usdcToken */\n      sload(0x03)\n        /* \"contracts/src/Nova3.sol\":7267:7301  usdcToken.balanceOf(address(this)) */\n      mload(0x40)\n      shl(0xe0, 0x70a08231)\n      dup2\n      mstore\n        /* \"contracts/src/Nova3.sol\":7295:7299  this */\n      address\n        /* \"contracts/src/Nova3.sol\":7267:7301  usdcToken.balanceOf(address(this)) */\n      0x04\n      dup3\n      add\n        /* \"#utility.yul\":1799:1850   */\n      mstore\n        /* \"contracts/src/Nova3.sol\":7184:7224  Plan memory plan = plans[userSub.planId] */\n      swap2\n      swap3\n      pop\n      0x00\n      swap2\n      sub(shl(0xa0, 0x01), 0x01)\n        /* \"contracts/src/Nova3.sol\":7267:7276  usdcToken */\n      swap1\n      swap2\n      and\n      swap1\n        /* \"contracts/src/Nova3.sol\":7267:7286  usdcToken.balanceOf */\n      0x70a08231\n      swap1\n        /* \"#utility.yul\":1772:1790   */\n      0x24\n      add\n        /* \"contracts/src/Nova3.sol\":7267:7301  usdcToken.balanceOf(address(this)) */\n      0x20\n      mload(0x40)\n      dup1\n      dup4\n      sub\n      dup2\n      dup7\n      gas\n      staticcall\n      iszero\n      dup1\n      iszero\n      tag_413\n      jumpi\n      returndatasize\n      0x00\n      dup1\n      returndatacopy\n      revert(0x00, returndatasize)\n    tag_413:\n      pop\n      pop\n      pop\n      pop\n      mload(0x40)\n      returndatasize\n      not(0x1f)\n      0x1f\n      dup3\n      add\n      and\n      dup3\n      add\n      dup1\n      0x40\n      mstore\n      pop\n      dup2\n      add\n      swap1\n      tag_414\n      swap2\n      swap1\n      tag_172\n      jump\t// in\n    tag_414:\n        /* \"contracts/src/Nova3.sol\":7335:7344  usdcToken */\n      sload(0x03)\n        /* \"contracts/src/Nova3.sol\":7243:7301  uint256 balanceBefore = usdcToken.balanceOf(address(this)) */\n      swap1\n      swap2\n      pop\n        /* \"contracts/src/Nova3.sol\":7320:7332  bool success */\n      0x00\n      swap1\n      sub(shl(0xa0, 0x01), 0x01)\n        /* \"contracts/src/Nova3.sol\":7335:7344  usdcToken */\n      and\n        /* \"contracts/src/Nova3.sol\":7335:7357  usdcToken.transferFrom */\n      0x23b872dd\n        /* \"contracts/src/Nova3.sol\":7358:7363  users */\n      dup9\n      dup9\n        /* \"contracts/src/Nova3.sol\":7364:7365  i */\n      dup9\n        /* \"contracts/src/Nova3.sol\":7358:7366  users[i] */\n      dup2\n      dup2\n      lt\n      tag_416\n      jumpi\n      tag_416\n      tag_400\n      jump\t// in\n    tag_416:\n      swap1\n      pop\n      0x20\n      mul\n      add\n      0x20\n      dup2\n      add\n      swap1\n      tag_417\n      swap2\n      swap1\n      tag_50\n      jump\t// in\n    tag_417:\n        /* \"contracts/src/Nova3.sol\":7383:7393  plan.price */\n      dup6\n      mload\n        /* \"contracts/src/Nova3.sol\":7335:7394  usdcToken.transferFrom(users[i], address(this), plan.price) */\n      mload(0x40)\n      0xe0\n      dup5\n      swap1\n      shl\n      not(sub(shl(0xe0, 0x01), 0x01))\n      and\n      dup2\n      mstore\n      sub(shl(0xa0, 0x01), 0x01)\n        /* \"#utility.yul\":8251:8266   */\n      swap1\n      swap3\n      and\n        /* \"contracts/src/Nova3.sol\":7335:7394  usdcToken.transferFrom(users[i], address(this), plan.price) */\n      0x04\n      dup4\n      add\n        /* \"#utility.yul\":8233:8267   */\n      mstore\n        /* \"contracts/src/Nova3.sol\":7376:7380  this */\n      address\n        /* \"#utility.yul\":8283:8301   */\n      0x24\n      dup4\n      add\n        /* \"#utility.yul\":8276:8319   */\n      mstore\n        /* \"#utility.yul\":8335:8353   */\n      0x44\n      dup3\n      add\n        /* \"#utility.yul\":8328:8362   */\n      mstore\n        /* \"#utility.yul\":8168:8186   */\n      0x64\n      add\n        /* \"contracts/src/Nova3.sol\":7335:7394  usdcToken.transferFrom(users[i], address(this), plan.price) */\n      0x20\n      mload(0x40)\n      dup1\n      dup4\n      sub\n      dup2\n      0x00\n      dup8\n      gas\n      call\n      iszero\n      dup1\n      iszero\n      tag_420\n      jumpi\n      returndatasize\n      0x00\n      dup1\n      returndatacopy\n      revert(0x00, returndatasize)\n    tag_420:\n      pop\n      pop\n      pop\n      pop\n      mload(0x40)\n      returndatasize\n      not(0x1f)\n      0x1f\n      dup3\n      add\n      and\n      dup3\n      add\n      dup1\n      0x40\n      mstore\n      pop\n      dup2\n      add\n      swap1\n      tag_421\n      swap2\n      swap1\n      tag_178\n      jump\t// in\n    tag_421:\n        /* \"contracts/src/Nova3.sol\":7320:7394  bool success = usdcToken.transferFrom(users[i], address(this), plan.price) */\n      swap1\n      pop\n        /* \"contracts/src/Nova3.sol\":7439:7446  success */\n      dup1\n        /* \"contracts/src/Nova3.sol\":7439:7535  success &&... */\n      dup1\n      iszero\n      tag_422\n      jumpi\n      pop\n        /* \"contracts/src/Nova3.sol\":7525:7535  plan.price */\n      dup3\n      mload\n        /* \"contracts/src/Nova3.sol\":7471:7480  usdcToken */\n      sload(0x03)\n        /* \"contracts/src/Nova3.sol\":7471:7505  usdcToken.balanceOf(address(this)) */\n      mload(0x40)\n      shl(0xe0, 0x70a08231)\n      dup2\n      mstore\n        /* \"contracts/src/Nova3.sol\":7499:7503  this */\n      address\n        /* \"contracts/src/Nova3.sol\":7471:7505  usdcToken.balanceOf(address(this)) */\n      0x04\n      dup3\n      add\n        /* \"#utility.yul\":1799:1850   */\n      mstore\n        /* \"contracts/src/Nova3.sol\":7508:7521  balanceBefore */\n      dup5\n      swap2\n      sub(shl(0xa0, 0x01), 0x01)\n        /* \"contracts/src/Nova3.sol\":7471:7480  usdcToken */\n      and\n      swap1\n        /* \"contracts/src/Nova3.sol\":7471:7490  usdcToken.balanceOf */\n      0x70a08231\n      swap1\n        /* \"#utility.yul\":1772:1790   */\n      0x24\n      add\n        /* \"contracts/src/Nova3.sol\":7471:7505  usdcToken.balanceOf(address(this)) */\n      0x20\n      mload(0x40)\n      dup1\n      dup4\n      sub\n      dup2\n      dup7\n      gas\n      staticcall\n      iszero\n      dup1\n      iszero\n      tag_425\n      jumpi\n      returndatasize\n      0x00\n      dup1\n      returndatacopy\n      revert(0x00, returndatasize)\n    tag_425:\n      pop\n      pop\n      pop\n      pop\n      mload(0x40)\n      returndatasize\n      not(0x1f)\n      0x1f\n      dup3\n      add\n      and\n      dup3\n      add\n      dup1\n      0x40\n      mstore\n      pop\n      dup2\n      add\n      swap1\n      tag_426\n      swap2\n      swap1\n      tag_172\n      jump\t// in\n    tag_426:\n        /* \"contracts/src/Nova3.sol\":7471:7521  usdcToken.balanceOf(address(this)) - balanceBefore */\n      tag_427\n      swap2\n      swap1\n      tag_187\n      jump\t// in\n    tag_427:\n        /* \"contracts/src/Nova3.sol\":7471:7535  usdcToken.balanceOf(address(this)) - balanceBefore >= plan.price */\n      lt\n      iszero\n        /* \"contracts/src/Nova3.sol\":7439:7535  success &&... */\n    tag_422:\n        /* \"contracts/src/Nova3.sol\":7413:7784  if (... */\n      iszero\n      tag_428\n      jumpi\n        /* \"contracts/src/Nova3.sol\":7600:7604  plan */\n      dup3\n        /* \"contracts/src/Nova3.sol\":7600:7613  plan.duration */\n      0x20\n      add\n      mload\n        /* \"contracts/src/Nova3.sol\":7578:7585  userSub */\n      dup5\n        /* \"contracts/src/Nova3.sol\":7578:7596  userSub.expiryTime */\n      0x01\n      add\n      0x00\n        /* \"contracts/src/Nova3.sol\":7578:7613  userSub.expiryTime += plan.duration */\n      dup3\n      dup3\n      sload\n      tag_429\n      swap2\n      swap1\n      tag_192\n      jump\t// in\n    tag_429:\n      swap1\n      swap2\n      sstore\n      pop\n      pop\n        /* \"contracts/src/Nova3.sol\":7656:7671  block.timestamp */\n      timestamp\n        /* \"contracts/src/Nova3.sol\":7636:7653  userSub.startTime */\n      0x04\n      dup6\n      add\n        /* \"contracts/src/Nova3.sol\":7636:7671  userSub.startTime = block.timestamp */\n      sstore\n        /* \"contracts/src/Nova3.sol\":7719:7724  users */\n      dup7\n      dup7\n        /* \"contracts/src/Nova3.sol\":7725:7726  i */\n      dup7\n        /* \"contracts/src/Nova3.sol\":7719:7727  users[i] */\n      dup2\n      dup2\n      lt\n      tag_431\n      jumpi\n      tag_431\n      tag_400\n      jump\t// in\n    tag_431:\n      swap1\n      pop\n      0x20\n      mul\n      add\n      0x20\n      dup2\n      add\n      swap1\n      tag_432\n      swap2\n      swap1\n      tag_50\n      jump\t// in\n    tag_432:\n      sub(shl(0xa0, 0x01), 0x01)\n        /* \"contracts/src/Nova3.sol\":7699:7764  SubscriptionRenewed(users[i], userSub.planId, userSub.expiryTime) */\n      and\n      0x0844521bd3c7295df35ca72576b1c04b6061d23891276d5c077cd73cbb3d31fc\n        /* \"contracts/src/Nova3.sol\":7729:7736  userSub */\n      dup6\n        /* \"contracts/src/Nova3.sol\":7729:7743  userSub.planId */\n      0x02\n      add\n      sload\n        /* \"contracts/src/Nova3.sol\":7745:7752  userSub */\n      dup7\n        /* \"contracts/src/Nova3.sol\":7745:7763  userSub.expiryTime */\n      0x01\n      add\n      sload\n        /* \"contracts/src/Nova3.sol\":7699:7764  SubscriptionRenewed(users[i], userSub.planId, userSub.expiryTime) */\n      mload(0x40)\n      tag_433\n      swap3\n      swap2\n      swap1\n        /* \"#utility.yul\":21138:21163   */\n      swap2\n      dup3\n      mstore\n        /* \"#utility.yul\":21194:21196   */\n      0x20\n        /* \"#utility.yul\":21179:21197   */\n      dup3\n      add\n        /* \"#utility.yul\":21172:21206   */\n      mstore\n        /* \"#utility.yul\":21126:21128   */\n      0x40\n        /* \"#utility.yul\":21111:21129   */\n      add\n      swap1\n        /* \"#utility.yul\":20964:21212   */\n      jump\n        /* \"contracts/src/Nova3.sol\":7699:7764  SubscriptionRenewed(users[i], userSub.planId, userSub.expiryTime) */\n    tag_433:\n      mload(0x40)\n      dup1\n      swap2\n      sub\n      swap1\n      log2\n        /* \"contracts/src/Nova3.sol\":7413:7784  if (... */\n    tag_428:\n        /* \"contracts/src/Nova3.sol\":7165:7799  {... */\n      pop\n      pop\n      pop\n        /* \"contracts/src/Nova3.sol\":6964:7799  if (... */\n    tag_405:\n      pop\n        /* \"contracts/src/Nova3.sol\":6875:6878  i++ */\n      dup1\n      tag_435\n      dup2\n      tag_358\n      jump\t// in\n    tag_435:\n      swap2\n      pop\n      pop\n        /* \"contracts/src/Nova3.sol\":6837:7810  for (uint256 i = 0; i < users.length; i++) {... */\n      jump(tag_395)\n        /* \"@openzeppelin/contracts/security/ReentrancyGuard.sol\":2336:2623  function _nonReentrantBefore() private {... */\n    tag_147:\n        /* \"@openzeppelin/contracts/security/ReentrancyGuard.sol\":1759:1760  2 */\n      0x02\n        /* \"@openzeppelin/contracts/security/ReentrancyGuard.sol\":2468:2475  _status */\n      dup1\n      sload\n        /* \"@openzeppelin/contracts/security/ReentrancyGuard.sol\":2468:2487  _status != _ENTERED */\n      sub\n        /* \"@openzeppelin/contracts/security/ReentrancyGuard.sol\":2460:2523  require(_status != _ENTERED, \"ReentrancyGuard: reentrant call\") */\n      tag_438\n      jumpi\n      mload(0x40)\n      shl(0xe5, 0x461bcd)\n      dup2\n      mstore\n        /* \"#utility.yul\":21419:21421   */\n      0x20\n        /* \"@openzeppelin/contracts/security/ReentrancyGuard.sol\":2460:2523  require(_status != _ENTERED, \"ReentrancyGuard: reentrant call\") */\n      0x04\n      dup3\n      add\n        /* \"#utility.yul\":21401:21422   */\n      mstore\n        /* \"#utility.yul\":21458:21460   */\n      0x1f\n        /* \"#utility.yul\":21438:21456   */\n      0x24\n      dup3\n      add\n        /* \"#utility.yul\":21431:21461   */\n      mstore\n        /* \"#utility.yul\":21497:21530   */\n      0x5265656e7472616e637947756172643a207265656e7472616e742063616c6c00\n        /* \"#utility.yul\":21477:21495   */\n      0x44\n      dup3\n      add\n        /* \"#utility.yul\":21470:21531   */\n      mstore\n        /* \"#utility.yul\":21548:21566   */\n      0x64\n      add\n        /* \"@openzeppelin/contracts/security/ReentrancyGuard.sol\":2460:2523  require(_status != _ENTERED, \"ReentrancyGuard: reentrant call\") */\n      tag_154\n        /* \"#utility.yul\":21217:21572   */\n      jump\n        /* \"@openzeppelin/contracts/security/ReentrancyGuard.sol\":2460:2523  require(_status != _ENTERED, \"ReentrancyGuard: reentrant call\") */\n    tag_438:\n        /* \"@openzeppelin/contracts/security/ReentrancyGuard.sol\":1759:1760  2 */\n      0x02\n        /* \"@openzeppelin/contracts/security/ReentrancyGuard.sol\":2598:2616  _status = _ENTERED */\n      dup1\n      sstore\n        /* \"@openzeppelin/contracts/security/ReentrancyGuard.sol\":2336:2623  function _nonReentrantBefore() private {... */\n      jump\t// out\n        /* \"@openzeppelin/contracts/security/Pausable.sol\":1767:1873  function _requireNotPaused() internal view virtual {... */\n    tag_150:\n        /* \"@openzeppelin/contracts/security/Pausable.sol\":1685:1692  _paused */\n      and(0xff, sload(0x01))\n        /* \"@openzeppelin/contracts/security/Pausable.sol\":1836:1845  !paused() */\n      iszero\n        /* \"@openzeppelin/contracts/security/Pausable.sol\":1828:1866  require(!paused(), \"Pausable: paused\") */\n      tag_388\n      jumpi\n      mload(0x40)\n      shl(0xe5, 0x461bcd)\n      dup2\n      mstore\n        /* \"#utility.yul\":21779:21781   */\n      0x20\n        /* \"@openzeppelin/contracts/security/Pausable.sol\":1828:1866  require(!paused(), \"Pausable: paused\") */\n      0x04\n      dup3\n      add\n        /* \"#utility.yul\":21761:21782   */\n      mstore\n        /* \"#utility.yul\":21818:21820   */\n      0x10\n        /* \"#utility.yul\":21798:21816   */\n      0x24\n      dup3\n      add\n        /* \"#utility.yul\":21791:21821   */\n      mstore\n      shl(0x82, 0x14185d5cd8589b194e881c185d5cd959)\n        /* \"#utility.yul\":21837:21855   */\n      0x44\n      dup3\n      add\n        /* \"#utility.yul\":21830:21876   */\n      mstore\n        /* \"#utility.yul\":21893:21911   */\n      0x64\n      add\n        /* \"@openzeppelin/contracts/security/Pausable.sol\":1828:1866  require(!paused(), \"Pausable: paused\") */\n      tag_154\n        /* \"#utility.yul\":21577:21917   */\n      jump\n        /* \"@openzeppelin/contracts/access/AccessControl.sol\":3199:3302  function _checkRole(bytes32 role) internal view virtual {... */\n    tag_206:\n        /* \"@openzeppelin/contracts/access/AccessControl.sol\":3265:3295  _checkRole(role, _msgSender()) */\n      tag_195\n        /* \"@openzeppelin/contracts/access/AccessControl.sol\":3276:3280  role */\n      dup2\n        /* \"@openzeppelin/contracts/utils/Context.sol\":735:745  msg.sender */\n      caller\n        /* \"@openzeppelin/contracts/access/AccessControl.sol\":3265:3275  _checkRole */\n      tag_450\n        /* \"@openzeppelin/contracts/access/AccessControl.sol\":3265:3295  _checkRole(role, _msgSender()) */\n      jump\t// in\n        /* \"@openzeppelin/contracts/access/AccessControl.sol\":6179:6495  function _grantRole(bytes32 role, address account) internal virtual returns (bool) {... */\n    tag_209:\n        /* \"@openzeppelin/contracts/access/AccessControl.sol\":6256:6260  bool */\n      0x00\n        /* \"@openzeppelin/contracts/access/AccessControl.sol\":6277:6299  hasRole(role, account) */\n      tag_452\n        /* \"@openzeppelin/contracts/access/AccessControl.sol\":6285:6289  role */\n      dup4\n        /* \"@openzeppelin/contracts/access/AccessControl.sol\":6291:6298  account */\n      dup4\n        /* \"@openzeppelin/contracts/access/AccessControl.sol\":6277:6284  hasRole */\n      tag_103\n        /* \"@openzeppelin/contracts/access/AccessControl.sol\":6277:6299  hasRole(role, account) */\n      jump\t// in\n    tag_452:\n        /* \"@openzeppelin/contracts/access/AccessControl.sol\":6272:6489  if (!hasRole(role, account)) {... */\n      tag_453\n      jumpi\n        /* \"@openzeppelin/contracts/access/AccessControl.sol\":6315:6321  _roles */\n      0x00\n        /* \"@openzeppelin/contracts/access/AccessControl.sol\":6315:6327  _roles[role] */\n      dup4\n      dup2\n      mstore\n      0x20\n      dup2\n      dup2\n      mstore\n      0x40\n      dup1\n      dup4\n      keccak256\n      sub(shl(0xa0, 0x01), 0x01)\n        /* \"@openzeppelin/contracts/access/AccessControl.sol\":6315:6344  _roles[role].hasRole[account] */\n      dup7\n      and\n      dup5\n      mstore\n      swap1\n      swap2\n      mstore\n      swap1\n      keccak256\n        /* \"@openzeppelin/contracts/access/AccessControl.sol\":6315:6351  _roles[role].hasRole[account] = true */\n      dup1\n      sload\n      not(0xff)\n      and\n        /* \"@openzeppelin/contracts/access/AccessControl.sol\":6347:6351  true */\n      0x01\n        /* \"@openzeppelin/contracts/access/AccessControl.sol\":6315:6351  _roles[role].hasRole[account] = true */\n      or\n      swap1\n      sstore\n        /* \"@openzeppelin/contracts/access/AccessControl.sol\":6397:6409  _msgSender() */\n      tag_454\n        /* \"@openzeppelin/contracts/utils/Context.sol\":735:745  msg.sender */\n      caller\n      swap1\n        /* \"@openzeppelin/contracts/utils/Context.sol\":656:752  function _msgSender() internal view virtual returns (address) {... */\n      jump\n        /* \"@openzeppelin/contracts/access/AccessControl.sol\":6397:6409  _msgSender() */\n    tag_454:\n      sub(shl(0xa0, 0x01), 0x01)\n        /* \"@openzeppelin/contracts/access/AccessControl.sol\":6370:6410  RoleGranted(role, account, _msgSender()) */\n      and\n        /* \"@openzeppelin/contracts/access/AccessControl.sol\":6388:6395  account */\n      dup3\n      sub(shl(0xa0, 0x01), 0x01)\n        /* \"@openzeppelin/contracts/access/AccessControl.sol\":6370:6410  RoleGranted(role, account, _msgSender()) */\n      and\n        /* \"@openzeppelin/contracts/access/AccessControl.sol\":6382:6386  role */\n      dup5\n        /* \"@openzeppelin/contracts/access/AccessControl.sol\":6370:6410  RoleGranted(role, account, _msgSender()) */\n      0x2f8788117e7eff1d82e926ec794901d17c78024a50270940304540a733656f0d\n      mload(0x40)\n      mload(0x40)\n      dup1\n      swap2\n      sub\n      swap1\n      log4\n      pop\n        /* \"@openzeppelin/contracts/access/AccessControl.sol\":6431:6435  true */\n      0x01\n        /* \"@openzeppelin/contracts/access/AccessControl.sol\":6424:6435  return true */\n      jump(tag_143)\n        /* \"@openzeppelin/contracts/access/AccessControl.sol\":6272:6489  if (!hasRole(role, account)) {... */\n    tag_453:\n      pop\n        /* \"@openzeppelin/contracts/access/AccessControl.sol\":6473:6478  false */\n      0x00\n        /* \"@openzeppelin/contracts/access/AccessControl.sol\":6466:6478  return false */\n      jump(tag_143)\n        /* \"@openzeppelin/contracts/access/AccessControl.sol\":6732:7049  function _revokeRole(bytes32 role, address account) internal virtual returns (bool) {... */\n    tag_215:\n        /* \"@openzeppelin/contracts/access/AccessControl.sol\":6810:6814  bool */\n      0x00\n        /* \"@openzeppelin/contracts/access/AccessControl.sol\":6830:6852  hasRole(role, account) */\n      tag_458\n        /* \"@openzeppelin/contracts/access/AccessControl.sol\":6838:6842  role */\n      dup4\n        /* \"@openzeppelin/contracts/access/AccessControl.sol\":6844:6851  account */\n      dup4\n        /* \"@openzeppelin/contracts/access/AccessControl.sol\":6830:6837  hasRole */\n      tag_103\n        /* \"@openzeppelin/contracts/access/AccessControl.sol\":6830:6852  hasRole(role, account) */\n      jump\t// in\n    tag_458:\n        /* \"@openzeppelin/contracts/access/AccessControl.sol\":6826:7043  if (hasRole(role, account)) {... */\n      iszero\n      tag_453\n      jumpi\n        /* \"@openzeppelin/contracts/access/AccessControl.sol\":6900:6905  false */\n      0x00\n        /* \"@openzeppelin/contracts/access/AccessControl.sol\":6868:6880  _roles[role] */\n      dup4\n      dup2\n      mstore\n      0x20\n      dup2\n      dup2\n      mstore\n      0x40\n      dup1\n      dup4\n      keccak256\n      sub(shl(0xa0, 0x01), 0x01)\n        /* \"@openzeppelin/contracts/access/AccessControl.sol\":6868:6897  _roles[role].hasRole[account] */\n      dup7\n      and\n      dup1\n      dup6\n      mstore\n      swap3\n      mstore\n      dup1\n      dup4\n      keccak256\n        /* \"@openzeppelin/contracts/access/AccessControl.sol\":6868:6905  _roles[role].hasRole[account] = false */\n      dup1\n      sload\n      not(0xff)\n      and\n      swap1\n      sstore\n        /* \"@openzeppelin/contracts/access/AccessControl.sol\":6924:6964  RoleRevoked(role, account, _msgSender()) */\n      mload\n        /* \"@openzeppelin/contracts/utils/Context.sol\":735:745  msg.sender */\n      caller\n      swap3\n        /* \"@openzeppelin/contracts/access/AccessControl.sol\":6868:6880  _roles[role] */\n      dup7\n      swap2\n        /* \"@openzeppelin/contracts/access/AccessControl.sol\":6924:6964  RoleRevoked(role, account, _msgSender()) */\n      0xf6391f5c32d9c69d2a47ea670b442974b53935d1edc7fd64eb21e047a839171b\n      swap2\n        /* \"@openzeppelin/contracts/access/AccessControl.sol\":6900:6905  false */\n      swap1\n        /* \"@openzeppelin/contracts/access/AccessControl.sol\":6924:6964  RoleRevoked(role, account, _msgSender()) */\n      log4\n      pop\n        /* \"@openzeppelin/contracts/access/AccessControl.sol\":6985:6989  true */\n      0x01\n        /* \"@openzeppelin/contracts/access/AccessControl.sol\":6978:6989  return true */\n      jump(tag_143)\n        /* \"@openzeppelin/contracts/access/AccessControl.sol\":3432:3629  function _checkRole(bytes32 role, address account) internal view virtual {... */\n    tag_450:\n        /* \"@openzeppelin/contracts/access/AccessControl.sol\":3520:3542  hasRole(role, account) */\n      tag_463\n        /* \"@openzeppelin/contracts/access/AccessControl.sol\":3528:3532  role */\n      dup3\n        /* \"@openzeppelin/contracts/access/AccessControl.sol\":3534:3541  account */\n      dup3\n        /* \"@openzeppelin/contracts/access/AccessControl.sol\":3520:3527  hasRole */\n      tag_103\n        /* \"@openzeppelin/contracts/access/AccessControl.sol\":3520:3542  hasRole(role, account) */\n      jump\t// in\n    tag_463:\n        /* \"@openzeppelin/contracts/access/AccessControl.sol\":3515:3623  if (!hasRole(role, account)) {... */\n      tag_464\n      jumpi\n        /* \"@openzeppelin/contracts/access/AccessControl.sol\":3565:3612  AccessControlUnauthorizedAccount(account, role) */\n      mload(0x40)\n      shl(0xe0, 0xe2517d3f)\n      dup2\n      mstore\n      sub(shl(0xa0, 0x01), 0x01)\n        /* \"#utility.yul\":17723:17755   */\n      dup3\n      and\n        /* \"@openzeppelin/contracts/access/AccessControl.sol\":3565:3612  AccessControlUnauthorizedAccount(account, role) */\n      0x04\n      dup3\n      add\n        /* \"#utility.yul\":17705:17756   */\n      mstore\n        /* \"#utility.yul\":17772:17790   */\n      0x24\n      dup2\n      add\n        /* \"#utility.yul\":17765:17799   */\n      dup4\n      swap1\n      mstore\n        /* \"#utility.yul\":17678:17696   */\n      0x44\n      add\n        /* \"@openzeppelin/contracts/access/AccessControl.sol\":3565:3612  AccessControlUnauthorizedAccount(account, role) */\n      tag_154\n        /* \"#utility.yul\":17531:17805   */\n      jump\n        /* \"@openzeppelin/contracts/access/AccessControl.sol\":3515:3623  if (!hasRole(role, account)) {... */\n    tag_464:\n        /* \"@openzeppelin/contracts/access/AccessControl.sol\":3432:3629  function _checkRole(bytes32 role, address account) internal view virtual {... */\n      pop\n      pop\n      jump\t// out\n        /* \"#utility.yul\":14:300   */\n    tag_40:\n        /* \"#utility.yul\":72:78   */\n      0x00\n        /* \"#utility.yul\":125:127   */\n      0x20\n        /* \"#utility.yul\":113:122   */\n      dup3\n        /* \"#utility.yul\":104:111   */\n      dup5\n        /* \"#utility.yul\":100:123   */\n      sub\n        /* \"#utility.yul\":96:128   */\n      slt\n        /* \"#utility.yul\":93:145   */\n      iszero\n      tag_477\n      jumpi\n        /* \"#utility.yul\":141:142   */\n      0x00\n        /* \"#utility.yul\":138:139   */\n      dup1\n        /* \"#utility.yul\":131:143   */\n      revert\n        /* \"#utility.yul\":93:145   */\n    tag_477:\n        /* \"#utility.yul\":167:190   */\n      dup2\n      calldataload\n      not(sub(shl(0xe0, 0x01), 0x01))\n        /* \"#utility.yul\":219:251   */\n      dup2\n      and\n        /* \"#utility.yul\":209:252   */\n      dup2\n      eq\n        /* \"#utility.yul\":199:270   */\n      tag_478\n      jumpi\n        /* \"#utility.yul\":266:267   */\n      0x00\n        /* \"#utility.yul\":263:264   */\n      dup1\n        /* \"#utility.yul\":256:268   */\n      revert\n        /* \"#utility.yul\":199:270   */\n    tag_478:\n        /* \"#utility.yul\":289:294   */\n      swap4\n        /* \"#utility.yul\":14:300   */\n      swap3\n      pop\n      pop\n      pop\n      jump\t// out\n        /* \"#utility.yul\":497:677   */\n    tag_46:\n        /* \"#utility.yul\":556:562   */\n      0x00\n        /* \"#utility.yul\":609:611   */\n      0x20\n        /* \"#utility.yul\":597:606   */\n      dup3\n        /* \"#utility.yul\":588:595   */\n      dup5\n        /* \"#utility.yul\":584:607   */\n      sub\n        /* \"#utility.yul\":580:612   */\n      slt\n        /* \"#utility.yul\":577:629   */\n      iszero\n      tag_481\n      jumpi\n        /* \"#utility.yul\":625:626   */\n      0x00\n        /* \"#utility.yul\":622:623   */\n      dup1\n        /* \"#utility.yul\":615:627   */\n      revert\n        /* \"#utility.yul\":577:629   */\n    tag_481:\n      pop\n        /* \"#utility.yul\":648:671   */\n      calldataload\n      swap2\n        /* \"#utility.yul\":497:677   */\n      swap1\n      pop\n      jump\t// out\n        /* \"#utility.yul\":682:855   */\n    tag_467:\n        /* \"#utility.yul\":750:770   */\n      dup1\n      calldataload\n      sub(shl(0xa0, 0x01), 0x01)\n        /* \"#utility.yul\":799:830   */\n      dup2\n      and\n        /* \"#utility.yul\":789:831   */\n      dup2\n      eq\n        /* \"#utility.yul\":779:849   */\n      tag_483\n      jumpi\n        /* \"#utility.yul\":845:846   */\n      0x00\n        /* \"#utility.yul\":842:843   */\n      dup1\n        /* \"#utility.yul\":835:847   */\n      revert\n        /* \"#utility.yul\":779:849   */\n    tag_483:\n        /* \"#utility.yul\":682:855   */\n      swap2\n      swap1\n      pop\n      jump\t// out\n        /* \"#utility.yul\":860:1046   */\n    tag_50:\n        /* \"#utility.yul\":919:925   */\n      0x00\n        /* \"#utility.yul\":972:974   */\n      0x20\n        /* \"#utility.yul\":960:969   */\n      dup3\n        /* \"#utility.yul\":951:958   */\n      dup5\n        /* \"#utility.yul\":947:970   */\n      sub\n        /* \"#utility.yul\":943:975   */\n      slt\n        /* \"#utility.yul\":940:992   */\n      iszero\n      tag_485\n      jumpi\n        /* \"#utility.yul\":988:989   */\n      0x00\n        /* \"#utility.yul\":985:986   */\n      dup1\n        /* \"#utility.yul\":978:990   */\n      revert\n        /* \"#utility.yul\":940:992   */\n    tag_485:\n        /* \"#utility.yul\":1011:1040   */\n      tag_478\n        /* \"#utility.yul\":1030:1039   */\n      dup3\n        /* \"#utility.yul\":1011:1040   */\n      tag_467\n      jump\t// in\n        /* \"#utility.yul\":2228:2482   */\n    tag_72:\n        /* \"#utility.yul\":2296:2302   */\n      0x00\n        /* \"#utility.yul\":2304:2310   */\n      dup1\n        /* \"#utility.yul\":2357:2359   */\n      0x40\n        /* \"#utility.yul\":2345:2354   */\n      dup4\n        /* \"#utility.yul\":2336:2343   */\n      dup6\n        /* \"#utility.yul\":2332:2355   */\n      sub\n        /* \"#utility.yul\":2328:2360   */\n      slt\n        /* \"#utility.yul\":2325:2377   */\n      iszero\n      tag_494\n      jumpi\n        /* \"#utility.yul\":2373:2374   */\n      0x00\n        /* \"#utility.yul\":2370:2371   */\n      dup1\n        /* \"#utility.yul\":2363:2375   */\n      revert\n        /* \"#utility.yul\":2325:2377   */\n    tag_494:\n        /* \"#utility.yul\":2409:2418   */\n      dup3\n        /* \"#utility.yul\":2396:2419   */\n      calldataload\n        /* \"#utility.yul\":2386:2419   */\n      swap2\n      pop\n        /* \"#utility.yul\":2438:2476   */\n      tag_495\n        /* \"#utility.yul\":2472:2474   */\n      0x20\n        /* \"#utility.yul\":2461:2470   */\n      dup5\n        /* \"#utility.yul\":2457:2475   */\n      add\n        /* \"#utility.yul\":2438:2476   */\n      tag_467\n      jump\t// in\n    tag_495:\n        /* \"#utility.yul\":2428:2476   */\n      swap1\n      pop\n        /* \"#utility.yul\":2228:2482   */\n      swap3\n      pop\n      swap3\n      swap1\n      pop\n      jump\t// out\n        /* \"#utility.yul\":2487:2835   */\n    tag_468:\n        /* \"#utility.yul\":2539:2547   */\n      0x00\n        /* \"#utility.yul\":2549:2555   */\n      dup1\n        /* \"#utility.yul\":2603:2606   */\n      dup4\n        /* \"#utility.yul\":2596:2600   */\n      0x1f\n        /* \"#utility.yul\":2588:2594   */\n      dup5\n        /* \"#utility.yul\":2584:2601   */\n      add\n        /* \"#utility.yul\":2580:2607   */\n      slt\n        /* \"#utility.yul\":2570:2625   */\n      tag_497\n      jumpi\n        /* \"#utility.yul\":2621:2622   */\n      0x00\n        /* \"#utility.yul\":2618:2619   */\n      dup1\n        /* \"#utility.yul\":2611:2623   */\n      revert\n        /* \"#utility.yul\":2570:2625   */\n    tag_497:\n      pop\n        /* \"#utility.yul\":2644:2664   */\n      dup2\n      calldataload\n        /* \"#utility.yul\":2687:2705   */\n      0xffffffffffffffff\n        /* \"#utility.yul\":2676:2706   */\n      dup2\n      gt\n        /* \"#utility.yul\":2673:2723   */\n      iszero\n      tag_498\n      jumpi\n        /* \"#utility.yul\":2719:2720   */\n      0x00\n        /* \"#utility.yul\":2716:2717   */\n      dup1\n        /* \"#utility.yul\":2709:2721   */\n      revert\n        /* \"#utility.yul\":2673:2723   */\n    tag_498:\n        /* \"#utility.yul\":2756:2760   */\n      0x20\n        /* \"#utility.yul\":2748:2754   */\n      dup4\n        /* \"#utility.yul\":2744:2761   */\n      add\n        /* \"#utility.yul\":2732:2761   */\n      swap2\n      pop\n        /* \"#utility.yul\":2808:2811   */\n      dup4\n        /* \"#utility.yul\":2801:2805   */\n      0x20\n        /* \"#utility.yul\":2792:2798   */\n      dup3\n        /* \"#utility.yul\":2784:2790   */\n      dup6\n        /* \"#utility.yul\":2780:2799   */\n      add\n        /* \"#utility.yul\":2776:2806   */\n      add\n        /* \"#utility.yul\":2773:2812   */\n      gt\n        /* \"#utility.yul\":2770:2829   */\n      iszero\n      tag_499\n      jumpi\n        /* \"#utility.yul\":2825:2826   */\n      0x00\n        /* \"#utility.yul\":2822:2823   */\n      dup1\n        /* \"#utility.yul\":2815:2827   */\n      revert\n        /* \"#utility.yul\":2770:2829   */\n    tag_499:\n        /* \"#utility.yul\":2487:2835   */\n      swap3\n      pop\n      swap3\n      swap1\n      pop\n      jump\t// out\n        /* \"#utility.yul\":2840:3525   */\n    tag_94:\n        /* \"#utility.yul\":2947:2953   */\n      0x00\n        /* \"#utility.yul\":2955:2961   */\n      dup1\n        /* \"#utility.yul\":2963:2969   */\n      0x00\n        /* \"#utility.yul\":2971:2977   */\n      dup1\n        /* \"#utility.yul\":2979:2985   */\n      0x00\n        /* \"#utility.yul\":2987:2993   */\n      dup1\n        /* \"#utility.yul\":3040:3043   */\n      0xa0\n        /* \"#utility.yul\":3028:3037   */\n      dup8\n        /* \"#utility.yul\":3019:3026   */\n      dup10\n        /* \"#utility.yul\":3015:3038   */\n      sub\n        /* \"#utility.yul\":3011:3044   */\n      slt\n        /* \"#utility.yul\":3008:3061   */\n      iszero\n      tag_501\n      jumpi\n        /* \"#utility.yul\":3057:3058   */\n      0x00\n        /* \"#utility.yul\":3054:3055   */\n      dup1\n        /* \"#utility.yul\":3047:3059   */\n      revert\n        /* \"#utility.yul\":3008:3061   */\n    tag_501:\n        /* \"#utility.yul\":3093:3102   */\n      dup7\n        /* \"#utility.yul\":3080:3103   */\n      calldataload\n        /* \"#utility.yul\":3070:3103   */\n      swap6\n      pop\n        /* \"#utility.yul\":3150:3152   */\n      0x20\n        /* \"#utility.yul\":3139:3148   */\n      dup8\n        /* \"#utility.yul\":3135:3153   */\n      add\n        /* \"#utility.yul\":3122:3154   */\n      calldataload\n        /* \"#utility.yul\":3112:3154   */\n      swap5\n      pop\n        /* \"#utility.yul\":3201:3203   */\n      0x40\n        /* \"#utility.yul\":3190:3199   */\n      dup8\n        /* \"#utility.yul\":3186:3204   */\n      add\n        /* \"#utility.yul\":3173:3205   */\n      calldataload\n        /* \"#utility.yul\":3163:3205   */\n      swap4\n      pop\n        /* \"#utility.yul\":3252:3254   */\n      0x60\n        /* \"#utility.yul\":3241:3250   */\n      dup8\n        /* \"#utility.yul\":3237:3255   */\n      add\n        /* \"#utility.yul\":3224:3256   */\n      calldataload\n        /* \"#utility.yul\":3214:3256   */\n      swap3\n      pop\n        /* \"#utility.yul\":3307:3310   */\n      0x80\n        /* \"#utility.yul\":3296:3305   */\n      dup8\n        /* \"#utility.yul\":3292:3311   */\n      add\n        /* \"#utility.yul\":3279:3312   */\n      calldataload\n        /* \"#utility.yul\":3335:3353   */\n      0xffffffffffffffff\n        /* \"#utility.yul\":3327:3333   */\n      dup2\n        /* \"#utility.yul\":3324:3354   */\n      gt\n        /* \"#utility.yul\":3321:3371   */\n      iszero\n      tag_502\n      jumpi\n        /* \"#utility.yul\":3367:3368   */\n      0x00\n        /* \"#utility.yul\":3364:3365   */\n      dup1\n        /* \"#utility.yul\":3357:3369   */\n      revert\n        /* \"#utility.yul\":3321:3371   */\n    tag_502:\n        /* \"#utility.yul\":3406:3465   */\n      tag_503\n        /* \"#utility.yul\":3457:3464   */\n      dup10\n        /* \"#utility.yul\":3448:3454   */\n      dup3\n        /* \"#utility.yul\":3437:3446   */\n      dup11\n        /* \"#utility.yul\":3433:3455   */\n      add\n        /* \"#utility.yul\":3406:3465   */\n      tag_468\n      jump\t// in\n    tag_503:\n        /* \"#utility.yul\":2840:3525   */\n      swap8\n      swap11\n      swap7\n      swap10\n      pop\n      swap5\n      swap8\n      pop\n      swap3\n      swap6\n        /* \"#utility.yul\":3484:3492   */\n      swap4\n      swap5\n        /* \"#utility.yul\":2840:3525   */\n      swap3\n      pop\n      pop\n      pop\n      jump\t// out\n        /* \"#utility.yul\":3530:4450   */\n    tag_112:\n        /* \"#utility.yul\":3813:3819   */\n      dup7\n        /* \"#utility.yul\":3802:3811   */\n      dup2\n        /* \"#utility.yul\":3795:3820   */\n      mstore\n        /* \"#utility.yul\":3776:3780   */\n      0x00\n        /* \"#utility.yul\":3839:3841   */\n      0x20\n        /* \"#utility.yul\":3877:3883   */\n      dup8\n        /* \"#utility.yul\":3872:3874   */\n      dup2\n        /* \"#utility.yul\":3861:3870   */\n      dup5\n        /* \"#utility.yul\":3857:3875   */\n      add\n        /* \"#utility.yul\":3850:3884   */\n      mstore\n        /* \"#utility.yul\":3920:3926   */\n      dup7\n        /* \"#utility.yul\":3915:3917   */\n      0x40\n        /* \"#utility.yul\":3904:3913   */\n      dup5\n        /* \"#utility.yul\":3900:3918   */\n      add\n        /* \"#utility.yul\":3893:3927   */\n      mstore\n        /* \"#utility.yul\":3977:3983   */\n      dup6\n        /* \"#utility.yul\":3970:3984   */\n      iszero\n        /* \"#utility.yul\":3963:3985   */\n      iszero\n        /* \"#utility.yul\":3958:3960   */\n      0x60\n        /* \"#utility.yul\":3947:3956   */\n      dup5\n        /* \"#utility.yul\":3943:3961   */\n      add\n        /* \"#utility.yul\":3936:3986   */\n      mstore\n        /* \"#utility.yul\":4023:4026   */\n      0xc0\n        /* \"#utility.yul\":4017:4020   */\n      0x80\n        /* \"#utility.yul\":4006:4015   */\n      dup5\n        /* \"#utility.yul\":4002:4021   */\n      add\n        /* \"#utility.yul\":3995:4027   */\n      mstore\n        /* \"#utility.yul\":4056:4062   */\n      dup5\n        /* \"#utility.yul\":4050:4063   */\n      mload\n        /* \"#utility.yul\":4100:4106   */\n      dup1\n        /* \"#utility.yul\":4094:4097   */\n      0xc0\n        /* \"#utility.yul\":4083:4092   */\n      dup6\n        /* \"#utility.yul\":4079:4098   */\n      add\n        /* \"#utility.yul\":4072:4107   */\n      mstore\n        /* \"#utility.yul\":4125:4126   */\n      0x00\n        /* \"#utility.yul\":4135:4276   */\n    tag_505:\n        /* \"#utility.yul\":4149:4155   */\n      dup2\n        /* \"#utility.yul\":4146:4147   */\n      dup2\n        /* \"#utility.yul\":4143:4156   */\n      lt\n        /* \"#utility.yul\":4135:4276   */\n      iszero\n      tag_507\n      jumpi\n        /* \"#utility.yul\":4245:4259   */\n      dup7\n      dup2\n      add\n        /* \"#utility.yul\":4241:4264   */\n      dup4\n      add\n        /* \"#utility.yul\":4235:4265   */\n      mload\n        /* \"#utility.yul\":4210:4227   */\n      dup6\n      dup3\n      add\n        /* \"#utility.yul\":4229:4232   */\n      0xe0\n        /* \"#utility.yul\":4206:4233   */\n      add\n        /* \"#utility.yul\":4199:4266   */\n      mstore\n        /* \"#utility.yul\":4164:4174   */\n      dup3\n      add\n        /* \"#utility.yul\":4135:4276   */\n      jump(tag_505)\n    tag_507:\n        /* \"#utility.yul\":4139:4142   */\n      pop\n        /* \"#utility.yul\":4326:4327   */\n      0x00\n        /* \"#utility.yul\":4320:4323   */\n      0xe0\n        /* \"#utility.yul\":4311:4317   */\n      dup3\n        /* \"#utility.yul\":4300:4309   */\n      dup7\n        /* \"#utility.yul\":4296:4318   */\n      add\n        /* \"#utility.yul\":4292:4324   */\n      add\n        /* \"#utility.yul\":4285:4328   */\n      mstore\n        /* \"#utility.yul\":4396:4399   */\n      0xe0\n        /* \"#utility.yul\":4389:4391   */\n      0x1f\n        /* \"#utility.yul\":4385:4392   */\n      not\n        /* \"#utility.yul\":4380:4382   */\n      0x1f\n        /* \"#utility.yul\":4372:4378   */\n      dup4\n        /* \"#utility.yul\":4368:4383   */\n      add\n        /* \"#utility.yul\":4364:4393   */\n      and\n        /* \"#utility.yul\":4353:4362   */\n      dup6\n        /* \"#utility.yul\":4349:4394   */\n      add\n        /* \"#utility.yul\":4345:4400   */\n      add\n        /* \"#utility.yul\":4337:4400   */\n      swap3\n      pop\n      pop\n      pop\n        /* \"#utility.yul\":4437:4443   */\n      dup3\n        /* \"#utility.yul\":4431:4434   */\n      0xa0\n        /* \"#utility.yul\":4420:4429   */\n      dup4\n        /* \"#utility.yul\":4416:4435   */\n      add\n        /* \"#utility.yul\":4409:4444   */\n      mstore\n        /* \"#utility.yul\":3530:4450   */\n      swap8\n      swap7\n      pop\n      pop\n      pop\n      pop\n      pop\n      pop\n      pop\n      jump\t// out\n        /* \"#utility.yul\":4455:4709   */\n    tag_118:\n        /* \"#utility.yul\":4523:4529   */\n      0x00\n        /* \"#utility.yul\":4531:4537   */\n      dup1\n        /* \"#utility.yul\":4584:4586   */\n      0x40\n        /* \"#utility.yul\":4572:4581   */\n      dup4\n        /* \"#utility.yul\":4563:4570   */\n      dup6\n        /* \"#utility.yul\":4559:4582   */\n      sub\n        /* \"#utility.yul\":4555:4587   */\n      slt\n        /* \"#utility.yul\":4552:4604   */\n      iszero\n      tag_509\n      jumpi\n        /* \"#utility.yul\":4600:4601   */\n      0x00\n        /* \"#utility.yul\":4597:4598   */\n      dup1\n        /* \"#utility.yul\":4590:4602   */\n      revert\n        /* \"#utility.yul\":4552:4604   */\n    tag_509:\n        /* \"#utility.yul\":4623:4652   */\n      tag_510\n        /* \"#utility.yul\":4642:4651   */\n      dup4\n        /* \"#utility.yul\":4623:4652   */\n      tag_467\n      jump\t// in\n    tag_510:\n        /* \"#utility.yul\":4613:4652   */\n      swap5\n        /* \"#utility.yul\":4699:4701   */\n      0x20\n        /* \"#utility.yul\":4684:4702   */\n      swap4\n      swap1\n      swap4\n      add\n        /* \"#utility.yul\":4671:4703   */\n      calldataload\n      swap4\n      pop\n      pop\n      pop\n        /* \"#utility.yul\":4455:4709   */\n      jump\t// out\n        /* \"#utility.yul\":4714:5330   */\n    tag_122:\n        /* \"#utility.yul\":4812:4818   */\n      0x00\n        /* \"#utility.yul\":4820:4826   */\n      dup1\n        /* \"#utility.yul\":4828:4834   */\n      0x00\n        /* \"#utility.yul\":4836:4842   */\n      dup1\n        /* \"#utility.yul\":4844:4850   */\n      0x00\n        /* \"#utility.yul\":4897:4900   */\n      0x80\n        /* \"#utility.yul\":4885:4894   */\n      dup7\n        /* \"#utility.yul\":4876:4883   */\n      dup9\n        /* \"#utility.yul\":4872:4895   */\n      sub\n        /* \"#utility.yul\":4868:4901   */\n      slt\n        /* \"#utility.yul\":4865:4918   */\n      iszero\n      tag_512\n      jumpi\n        /* \"#utility.yul\":4914:4915   */\n      0x00\n        /* \"#utility.yul\":4911:4912   */\n      dup1\n        /* \"#utility.yul\":4904:4916   */\n      revert\n        /* \"#utility.yul\":4865:4918   */\n    tag_512:\n        /* \"#utility.yul\":4950:4959   */\n      dup6\n        /* \"#utility.yul\":4937:4960   */\n      calldataload\n        /* \"#utility.yul\":4927:4960   */\n      swap5\n      pop\n        /* \"#utility.yul\":5007:5009   */\n      0x20\n        /* \"#utility.yul\":4996:5005   */\n      dup7\n        /* \"#utility.yul\":4992:5010   */\n      add\n        /* \"#utility.yul\":4979:5011   */\n      calldataload\n        /* \"#utility.yul\":4969:5011   */\n      swap4\n      pop\n        /* \"#utility.yul\":5058:5060   */\n      0x40\n        /* \"#utility.yul\":5047:5056   */\n      dup7\n        /* \"#utility.yul\":5043:5061   */\n      add\n        /* \"#utility.yul\":5030:5062   */\n      calldataload\n        /* \"#utility.yul\":5020:5062   */\n      swap3\n      pop\n        /* \"#utility.yul\":5113:5115   */\n      0x60\n        /* \"#utility.yul\":5102:5111   */\n      dup7\n        /* \"#utility.yul\":5098:5116   */\n      add\n        /* \"#utility.yul\":5085:5117   */\n      calldataload\n        /* \"#utility.yul\":5140:5158   */\n      0xffffffffffffffff\n        /* \"#utility.yul\":5132:5138   */\n      dup2\n        /* \"#utility.yul\":5129:5159   */\n      gt\n        /* \"#utility.yul\":5126:5176   */\n      iszero\n      tag_513\n      jumpi\n        /* \"#utility.yul\":5172:5173   */\n      0x00\n        /* \"#utility.yul\":5169:5170   */\n      dup1\n        /* \"#utility.yul\":5162:5174   */\n      revert\n        /* \"#utility.yul\":5126:5176   */\n    tag_513:\n        /* \"#utility.yul\":5211:5270   */\n      tag_514\n        /* \"#utility.yul\":5262:5269   */\n      dup9\n        /* \"#utility.yul\":5253:5259   */\n      dup3\n        /* \"#utility.yul\":5242:5251   */\n      dup10\n        /* \"#utility.yul\":5238:5260   */\n      add\n        /* \"#utility.yul\":5211:5270   */\n      tag_468\n      jump\t// in\n    tag_514:\n        /* \"#utility.yul\":4714:5330   */\n      swap7\n      swap10\n      swap6\n      swap9\n      pop\n      swap4\n      swap7\n      pop\n        /* \"#utility.yul\":5289:5297   */\n      swap3\n      swap5\n        /* \"#utility.yul\":5185:5270   */\n      swap4\n        /* \"#utility.yul\":4714:5330   */\n      swap3\n      pop\n      pop\n      pop\n      jump\t// out\n        /* \"#utility.yul\":5335:5950   */\n    tag_134:\n        /* \"#utility.yul\":5421:5427   */\n      0x00\n        /* \"#utility.yul\":5429:5435   */\n      dup1\n        /* \"#utility.yul\":5482:5484   */\n      0x20\n        /* \"#utility.yul\":5470:5479   */\n      dup4\n        /* \"#utility.yul\":5461:5468   */\n      dup6\n        /* \"#utility.yul\":5457:5480   */\n      sub\n        /* \"#utility.yul\":5453:5485   */\n      slt\n        /* \"#utility.yul\":5450:5502   */\n      iszero\n      tag_516\n      jumpi\n        /* \"#utility.yul\":5498:5499   */\n      0x00\n        /* \"#utility.yul\":5495:5496   */\n      dup1\n        /* \"#utility.yul\":5488:5500   */\n      revert\n        /* \"#utility.yul\":5450:5502   */\n    tag_516:\n        /* \"#utility.yul\":5538:5547   */\n      dup3\n        /* \"#utility.yul\":5525:5548   */\n      calldataload\n        /* \"#utility.yul\":5567:5585   */\n      0xffffffffffffffff\n        /* \"#utility.yul\":5608:5610   */\n      dup1\n        /* \"#utility.yul\":5600:5606   */\n      dup3\n        /* \"#utility.yul\":5597:5611   */\n      gt\n        /* \"#utility.yul\":5594:5628   */\n      iszero\n      tag_517\n      jumpi\n        /* \"#utility.yul\":5624:5625   */\n      0x00\n        /* \"#utility.yul\":5621:5622   */\n      dup1\n        /* \"#utility.yul\":5614:5626   */\n      revert\n        /* \"#utility.yul\":5594:5628   */\n    tag_517:\n        /* \"#utility.yul\":5662:5668   */\n      dup2\n        /* \"#utility.yul\":5651:5660   */\n      dup6\n        /* \"#utility.yul\":5647:5669   */\n      add\n        /* \"#utility.yul\":5637:5669   */\n      swap2\n      pop\n        /* \"#utility.yul\":5707:5714   */\n      dup6\n        /* \"#utility.yul\":5700:5704   */\n      0x1f\n        /* \"#utility.yul\":5696:5698   */\n      dup4\n        /* \"#utility.yul\":5692:5705   */\n      add\n        /* \"#utility.yul\":5688:5715   */\n      slt\n        /* \"#utility.yul\":5678:5733   */\n      tag_518\n      jumpi\n        /* \"#utility.yul\":5729:5730   */\n      0x00\n        /* \"#utility.yul\":5726:5727   */\n      dup1\n        /* \"#utility.yul\":5719:5731   */\n      revert\n        /* \"#utility.yul\":5678:5733   */\n    tag_518:\n        /* \"#utility.yul\":5769:5771   */\n      dup2\n        /* \"#utility.yul\":5756:5772   */\n      calldataload\n        /* \"#utility.yul\":5795:5797   */\n      dup2\n        /* \"#utility.yul\":5787:5793   */\n      dup2\n        /* \"#utility.yul\":5784:5798   */\n      gt\n        /* \"#utility.yul\":5781:5815   */\n      iszero\n      tag_519\n      jumpi\n        /* \"#utility.yul\":5811:5812   */\n      0x00\n        /* \"#utility.yul\":5808:5809   */\n      dup1\n        /* \"#utility.yul\":5801:5813   */\n      revert\n        /* \"#utility.yul\":5781:5815   */\n    tag_519:\n        /* \"#utility.yul\":5864:5871   */\n      dup7\n        /* \"#utility.yul\":5859:5861   */\n      0x20\n        /* \"#utility.yul\":5849:5855   */\n      dup3\n        /* \"#utility.yul\":5846:5847   */\n      0x05\n        /* \"#utility.yul\":5842:5856   */\n      shl\n        /* \"#utility.yul\":5838:5840   */\n      dup6\n        /* \"#utility.yul\":5834:5857   */\n      add\n        /* \"#utility.yul\":5830:5862   */\n      add\n        /* \"#utility.yul\":5827:5872   */\n      gt\n        /* \"#utility.yul\":5824:5889   */\n      iszero\n      tag_520\n      jumpi\n        /* \"#utility.yul\":5885:5886   */\n      0x00\n        /* \"#utility.yul\":5882:5883   */\n      dup1\n        /* \"#utility.yul\":5875:5887   */\n      revert\n        /* \"#utility.yul\":5824:5889   */\n    tag_520:\n        /* \"#utility.yul\":5916:5918   */\n      0x20\n        /* \"#utility.yul\":5908:5919   */\n      swap3\n      swap1\n      swap3\n      add\n      swap7\n        /* \"#utility.yul\":5938:5944   */\n      swap2\n      swap6\n      pop\n        /* \"#utility.yul\":5335:5950   */\n      swap1\n      swap4\n      pop\n      pop\n      pop\n      pop\n      jump\t// out\n        /* \"#utility.yul\":6515:6861   */\n    tag_155:\n        /* \"#utility.yul\":6717:6719   */\n      0x20\n        /* \"#utility.yul\":6699:6720   */\n      dup1\n      dup3\n      mstore\n        /* \"#utility.yul\":6756:6758   */\n      0x16\n        /* \"#utility.yul\":6736:6754   */\n      swap1\n      dup3\n      add\n        /* \"#utility.yul\":6729:6759   */\n      mstore\n      shl(0x51, 0x27379030b1ba34bb329039bab139b1b934b83a34b7b7)\n        /* \"#utility.yul\":6790:6792   */\n      0x40\n        /* \"#utility.yul\":6775:6793   */\n      dup3\n      add\n        /* \"#utility.yul\":6768:6820   */\n      mstore\n        /* \"#utility.yul\":6852:6854   */\n      0x60\n        /* \"#utility.yul\":6837:6855   */\n      add\n      swap1\n        /* \"#utility.yul\":6515:6861   */\n      jump\t// out\n        /* \"#utility.yul\":6866:7246   */\n    tag_157:\n        /* \"#utility.yul\":6945:6946   */\n      0x01\n        /* \"#utility.yul\":6941:6953   */\n      dup2\n      dup2\n      shr\n      swap1\n        /* \"#utility.yul\":6988:7000   */\n      dup3\n      and\n      dup1\n        /* \"#utility.yul\":7009:7070   */\n      tag_524\n      jumpi\n        /* \"#utility.yul\":7063:7067   */\n      0x7f\n        /* \"#utility.yul\":7055:7061   */\n      dup3\n        /* \"#utility.yul\":7051:7068   */\n      and\n        /* \"#utility.yul\":7041:7068   */\n      swap2\n      pop\n        /* \"#utility.yul\":7009:7070   */\n    tag_524:\n        /* \"#utility.yul\":7116:7118   */\n      0x20\n        /* \"#utility.yul\":7108:7114   */\n      dup3\n        /* \"#utility.yul\":7105:7119   */\n      lt\n        /* \"#utility.yul\":7085:7103   */\n      dup2\n        /* \"#utility.yul\":7082:7120   */\n      sub\n        /* \"#utility.yul\":7079:7240   */\n      tag_525\n      jumpi\n        /* \"#utility.yul\":7162:7172   */\n      0x4e487b71\n        /* \"#utility.yul\":7157:7160   */\n      0xe0\n        /* \"#utility.yul\":7153:7173   */\n      shl\n        /* \"#utility.yul\":7150:7151   */\n      0x00\n        /* \"#utility.yul\":7143:7174   */\n      mstore\n        /* \"#utility.yul\":7197:7201   */\n      0x22\n        /* \"#utility.yul\":7194:7195   */\n      0x04\n        /* \"#utility.yul\":7187:7202   */\n      mstore\n        /* \"#utility.yul\":7225:7229   */\n      0x24\n        /* \"#utility.yul\":7222:7223   */\n      0x00\n        /* \"#utility.yul\":7215:7230   */\n      revert\n        /* \"#utility.yul\":7079:7240   */\n    tag_525:\n      pop\n        /* \"#utility.yul\":6866:7246   */\n      swap2\n      swap1\n      pop\n      jump\t// out\n        /* \"#utility.yul\":7804:7988   */\n    tag_172:\n        /* \"#utility.yul\":7874:7880   */\n      0x00\n        /* \"#utility.yul\":7927:7929   */\n      0x20\n        /* \"#utility.yul\":7915:7924   */\n      dup3\n        /* \"#utility.yul\":7906:7913   */\n      dup5\n        /* \"#utility.yul\":7902:7925   */\n      sub\n        /* \"#utility.yul\":7898:7930   */\n      slt\n        /* \"#utility.yul\":7895:7947   */\n      iszero\n      tag_529\n      jumpi\n        /* \"#utility.yul\":7943:7944   */\n      0x00\n        /* \"#utility.yul\":7940:7941   */\n      dup1\n        /* \"#utility.yul\":7933:7945   */\n      revert\n        /* \"#utility.yul\":7895:7947   */\n    tag_529:\n      pop\n        /* \"#utility.yul\":7966:7982   */\n      mload\n      swap2\n        /* \"#utility.yul\":7804:7988   */\n      swap1\n      pop\n      jump\t// out\n        /* \"#utility.yul\":8373:8650   */\n    tag_178:\n        /* \"#utility.yul\":8440:8446   */\n      0x00\n        /* \"#utility.yul\":8493:8495   */\n      0x20\n        /* \"#utility.yul\":8481:8490   */\n      dup3\n        /* \"#utility.yul\":8472:8479   */\n      dup5\n        /* \"#utility.yul\":8468:8491   */\n      sub\n        /* \"#utility.yul\":8464:8496   */\n      slt\n        /* \"#utility.yul\":8461:8513   */\n      iszero\n      tag_532\n      jumpi\n        /* \"#utility.yul\":8509:8510   */\n      0x00\n        /* \"#utility.yul\":8506:8507   */\n      dup1\n        /* \"#utility.yul\":8499:8511   */\n      revert\n        /* \"#utility.yul\":8461:8513   */\n    tag_532:\n        /* \"#utility.yul\":8541:8550   */\n      dup2\n        /* \"#utility.yul\":8535:8551   */\n      mload\n        /* \"#utility.yul\":8594:8599   */\n      dup1\n        /* \"#utility.yul\":8587:8600   */\n      iszero\n        /* \"#utility.yul\":8580:8601   */\n      iszero\n        /* \"#utility.yul\":8573:8578   */\n      dup2\n        /* \"#utility.yul\":8570:8602   */\n      eq\n        /* \"#utility.yul\":8560:8620   */\n      tag_478\n      jumpi\n        /* \"#utility.yul\":8616:8617   */\n      0x00\n        /* \"#utility.yul\":8613:8614   */\n      dup1\n        /* \"#utility.yul\":8606:8618   */\n      revert\n        /* \"#utility.yul\":8655:8999   */\n    tag_181:\n        /* \"#utility.yul\":8857:8859   */\n      0x20\n        /* \"#utility.yul\":8839:8860   */\n      dup1\n      dup3\n      mstore\n        /* \"#utility.yul\":8896:8898   */\n      0x14\n        /* \"#utility.yul\":8876:8894   */\n      swap1\n      dup3\n      add\n        /* \"#utility.yul\":8869:8899   */\n      mstore\n      shl(0x62, 0x1554d110c81d1c985b9cd9995c8819985a5b1959)\n        /* \"#utility.yul\":8930:8932   */\n      0x40\n        /* \"#utility.yul\":8915:8933   */\n      dup3\n      add\n        /* \"#utility.yul\":8908:8958   */\n      mstore\n        /* \"#utility.yul\":8990:8992   */\n      0x60\n        /* \"#utility.yul\":8975:8993   */\n      add\n      swap1\n        /* \"#utility.yul\":8655:8999   */\n      jump\t// out\n        /* \"#utility.yul\":9004:9131   */\n    tag_469:\n        /* \"#utility.yul\":9065:9075   */\n      0x4e487b71\n        /* \"#utility.yul\":9060:9063   */\n      0xe0\n        /* \"#utility.yul\":9056:9076   */\n      shl\n        /* \"#utility.yul\":9053:9054   */\n      0x00\n        /* \"#utility.yul\":9046:9077   */\n      mstore\n        /* \"#utility.yul\":9096:9100   */\n      0x11\n        /* \"#utility.yul\":9093:9094   */\n      0x04\n        /* \"#utility.yul\":9086:9101   */\n      mstore\n        /* \"#utility.yul\":9120:9124   */\n      0x24\n        /* \"#utility.yul\":9117:9118   */\n      0x00\n        /* \"#utility.yul\":9110:9125   */\n      revert\n        /* \"#utility.yul\":9136:9264   */\n    tag_187:\n        /* \"#utility.yul\":9203:9212   */\n      dup2\n      dup2\n      sub\n        /* \"#utility.yul\":9224:9235   */\n      dup2\n      dup2\n      gt\n        /* \"#utility.yul\":9221:9258   */\n      iszero\n      tag_143\n      jumpi\n        /* \"#utility.yul\":9238:9256   */\n      tag_143\n      tag_469\n      jump\t// in\n        /* \"#utility.yul\":9629:9754   */\n    tag_192:\n        /* \"#utility.yul\":9694:9703   */\n      dup1\n      dup3\n      add\n        /* \"#utility.yul\":9715:9725   */\n      dup1\n      dup3\n      gt\n        /* \"#utility.yul\":9712:9748   */\n      iszero\n      tag_143\n      jumpi\n        /* \"#utility.yul\":9728:9746   */\n      tag_143\n      tag_469\n      jump\t// in\n        /* \"#utility.yul\":11397:11795   */\n    tag_243:\n        /* \"#utility.yul\":11599:11601   */\n      0x20\n        /* \"#utility.yul\":11581:11602   */\n      dup1\n      dup3\n      mstore\n        /* \"#utility.yul\":11638:11640   */\n      0x22\n        /* \"#utility.yul\":11618:11636   */\n      swap1\n      dup3\n      add\n        /* \"#utility.yul\":11611:11641   */\n      mstore\n        /* \"#utility.yul\":11677:11711   */\n      0x506c616e20646f6573206e6f74206578697374206f7220697320696e61637469\n        /* \"#utility.yul\":11672:11674   */\n      0x40\n        /* \"#utility.yul\":11657:11675   */\n      dup3\n      add\n        /* \"#utility.yul\":11650:11712   */\n      mstore\n      shl(0xf0, 0x7665)\n        /* \"#utility.yul\":11743:11745   */\n      0x60\n        /* \"#utility.yul\":11728:11746   */\n      dup3\n      add\n        /* \"#utility.yul\":11721:11753   */\n      mstore\n        /* \"#utility.yul\":11785:11788   */\n      0x80\n        /* \"#utility.yul\":11770:11789   */\n      add\n      swap1\n        /* \"#utility.yul\":11397:11795   */\n      jump\t// out\n        /* \"#utility.yul\":13200:13327   */\n    tag_470:\n        /* \"#utility.yul\":13261:13271   */\n      0x4e487b71\n        /* \"#utility.yul\":13256:13259   */\n      0xe0\n        /* \"#utility.yul\":13252:13272   */\n      shl\n        /* \"#utility.yul\":13249:13250   */\n      0x00\n        /* \"#utility.yul\":13242:13273   */\n      mstore\n        /* \"#utility.yul\":13292:13296   */\n      0x41\n        /* \"#utility.yul\":13289:13290   */\n      0x04\n        /* \"#utility.yul\":13282:13297   */\n      mstore\n        /* \"#utility.yul\":13316:13320   */\n      0x24\n        /* \"#utility.yul\":13313:13314   */\n      0x00\n        /* \"#utility.yul\":13306:13321   */\n      revert\n        /* \"#utility.yul\":13458:14003   */\n    tag_472:\n        /* \"#utility.yul\":13560:13562   */\n      0x1f\n        /* \"#utility.yul\":13555:13558   */\n      dup3\n        /* \"#utility.yul\":13552:13563   */\n      gt\n        /* \"#utility.yul\":13549:13997   */\n      iszero\n      tag_214\n      jumpi\n        /* \"#utility.yul\":13596:13597   */\n      0x00\n        /* \"#utility.yul\":13621:13626   */\n      dup2\n        /* \"#utility.yul\":13617:13619   */\n      dup2\n        /* \"#utility.yul\":13610:13627   */\n      mstore\n        /* \"#utility.yul\":13666:13670   */\n      0x20\n        /* \"#utility.yul\":13662:13664   */\n      dup2\n        /* \"#utility.yul\":13652:13671   */\n      keccak256\n        /* \"#utility.yul\":13736:13738   */\n      0x1f\n        /* \"#utility.yul\":13724:13734   */\n      dup6\n        /* \"#utility.yul\":13720:13739   */\n      add\n        /* \"#utility.yul\":13717:13718   */\n      0x05\n        /* \"#utility.yul\":13713:13740   */\n      shr\n        /* \"#utility.yul\":13707:13711   */\n      dup2\n        /* \"#utility.yul\":13703:13741   */\n      add\n        /* \"#utility.yul\":13772:13776   */\n      0x20\n        /* \"#utility.yul\":13760:13770   */\n      dup7\n        /* \"#utility.yul\":13757:13777   */\n      lt\n        /* \"#utility.yul\":13754:13801   */\n      iszero\n      tag_556\n      jumpi\n      pop\n        /* \"#utility.yul\":13795:13799   */\n      dup1\n        /* \"#utility.yul\":13754:13801   */\n    tag_556:\n        /* \"#utility.yul\":13850:13852   */\n      0x1f\n        /* \"#utility.yul\":13845:13848   */\n      dup6\n        /* \"#utility.yul\":13841:13853   */\n      add\n        /* \"#utility.yul\":13838:13839   */\n      0x05\n        /* \"#utility.yul\":13834:13854   */\n      shr\n        /* \"#utility.yul\":13828:13832   */\n      dup3\n        /* \"#utility.yul\":13824:13855   */\n      add\n        /* \"#utility.yul\":13814:13855   */\n      swap2\n      pop\n        /* \"#utility.yul\":13905:13987   */\n    tag_557:\n        /* \"#utility.yul\":13923:13925   */\n      dup2\n        /* \"#utility.yul\":13916:13921   */\n      dup2\n        /* \"#utility.yul\":13913:13926   */\n      lt\n        /* \"#utility.yul\":13905:13987   */\n      iszero\n      tag_559\n      jumpi\n        /* \"#utility.yul\":13968:13985   */\n      dup3\n      dup2\n      sstore\n        /* \"#utility.yul\":13949:13950   */\n      0x01\n        /* \"#utility.yul\":13938:13951   */\n      add\n        /* \"#utility.yul\":13905:13987   */\n      jump(tag_557)\n    tag_559:\n        /* \"#utility.yul\":13909:13912   */\n      pop\n      pop\n      pop\n        /* \"#utility.yul\":13458:14003   */\n      pop\n      pop\n      pop\n      jump\t// out\n        /* \"#utility.yul\":14179:15385   */\n    tag_264:\n        /* \"#utility.yul\":14303:14321   */\n      0xffffffffffffffff\n        /* \"#utility.yul\":14298:14301   */\n      dup4\n        /* \"#utility.yul\":14295:14322   */\n      gt\n        /* \"#utility.yul\":14292:14345   */\n      iszero\n      tag_563\n      jumpi\n        /* \"#utility.yul\":14325:14343   */\n      tag_563\n      tag_470\n      jump\t// in\n    tag_563:\n        /* \"#utility.yul\":14354:14448   */\n      tag_564\n        /* \"#utility.yul\":14444:14447   */\n      dup4\n        /* \"#utility.yul\":14404:14442   */\n      tag_565\n        /* \"#utility.yul\":14436:14440   */\n      dup4\n        /* \"#utility.yul\":14430:14441   */\n      sload\n        /* \"#utility.yul\":14404:14442   */\n      tag_157\n      jump\t// in\n    tag_565:\n        /* \"#utility.yul\":14398:14402   */\n      dup4\n        /* \"#utility.yul\":14354:14448   */\n      tag_472\n      jump\t// in\n    tag_564:\n        /* \"#utility.yul\":14474:14475   */\n      0x00\n        /* \"#utility.yul\":14499:14501   */\n      0x1f\n        /* \"#utility.yul\":14494:14497   */\n      dup5\n        /* \"#utility.yul\":14491:14502   */\n      gt\n        /* \"#utility.yul\":14516:14517   */\n      0x01\n        /* \"#utility.yul\":14511:15127   */\n      dup2\n      eq\n      tag_567\n      jumpi\n        /* \"#utility.yul\":15171:15172   */\n      0x00\n        /* \"#utility.yul\":15188:15191   */\n      dup6\n        /* \"#utility.yul\":15185:15278   */\n      iszero\n      tag_568\n      jumpi\n      pop\n        /* \"#utility.yul\":15244:15263   */\n      dup4\n      dup3\n      add\n        /* \"#utility.yul\":15231:15264   */\n      calldataload\n        /* \"#utility.yul\":15185:15278   */\n    tag_568:\n      not(0x00)\n        /* \"#utility.yul\":14136:14137   */\n      0x03\n        /* \"#utility.yul\":14132:14143   */\n      dup8\n      swap1\n      shl\n        /* \"#utility.yul\":14128:14152   */\n      shr\n        /* \"#utility.yul\":14124:14153   */\n      not\n        /* \"#utility.yul\":14114:14154   */\n      and\n        /* \"#utility.yul\":14160:14161   */\n      0x01\n        /* \"#utility.yul\":14156:14167   */\n      dup7\n      swap1\n      shl\n        /* \"#utility.yul\":14111:14168   */\n      or\n        /* \"#utility.yul\":15291:15369   */\n      dup4\n      sstore\n        /* \"#utility.yul\":14484:15379   */\n      jump(tag_566)\n        /* \"#utility.yul\":14511:15127   */\n    tag_567:\n        /* \"#utility.yul\":13405:13406   */\n      0x00\n        /* \"#utility.yul\":13398:13412   */\n      dup4\n      dup2\n      mstore\n        /* \"#utility.yul\":13442:13446   */\n      0x20\n        /* \"#utility.yul\":13429:13447   */\n      swap1\n      keccak256\n      not(0x1f)\n        /* \"#utility.yul\":14547:14564   */\n      dup7\n      and\n      swap1\n        /* \"#utility.yul\":14648:14657   */\n      dup4\n        /* \"#utility.yul\":14670:14899   */\n    tag_571:\n        /* \"#utility.yul\":14684:14691   */\n      dup3\n        /* \"#utility.yul\":14681:14682   */\n      dup2\n        /* \"#utility.yul\":14678:14692   */\n      lt\n        /* \"#utility.yul\":14670:14899   */\n      iszero\n      tag_573\n      jumpi\n        /* \"#utility.yul\":14773:14792   */\n      dup7\n      dup6\n      add\n        /* \"#utility.yul\":14760:14793   */\n      calldataload\n        /* \"#utility.yul\":14745:14794   */\n      dup3\n      sstore\n        /* \"#utility.yul\":14880:14884   */\n      0x20\n        /* \"#utility.yul\":14865:14885   */\n      swap5\n      dup6\n      add\n      swap5\n        /* \"#utility.yul\":14833:14834   */\n      0x01\n        /* \"#utility.yul\":14821:14835   */\n      swap1\n      swap3\n      add\n      swap2\n        /* \"#utility.yul\":14700:14712   */\n      add\n        /* \"#utility.yul\":14670:14899   */\n      jump(tag_571)\n    tag_573:\n        /* \"#utility.yul\":14674:14677   */\n      pop\n        /* \"#utility.yul\":14927:14930   */\n      dup7\n        /* \"#utility.yul\":14918:14925   */\n      dup3\n        /* \"#utility.yul\":14915:14931   */\n      lt\n        /* \"#utility.yul\":14912:15071   */\n      iszero\n      tag_574\n      jumpi\n        /* \"#utility.yul\":15051:15052   */\n      0x00\n        /* \"#utility.yul\":15047:15053   */\n      not\n        /* \"#utility.yul\":15041:15044   */\n      0xf8\n        /* \"#utility.yul\":15035:15038   */\n      dup9\n        /* \"#utility.yul\":15032:15033   */\n      0x03\n        /* \"#utility.yul\":15028:15039   */\n      shl\n        /* \"#utility.yul\":15024:15045   */\n      and\n        /* \"#utility.yul\":15020:15054   */\n      shr\n        /* \"#utility.yul\":15016:15055   */\n      not\n        /* \"#utility.yul\":15003:15012   */\n      dup5\n        /* \"#utility.yul\":14998:15001   */\n      dup8\n        /* \"#utility.yul\":14994:15013   */\n      add\n        /* \"#utility.yul\":14981:15014   */\n      calldataload\n        /* \"#utility.yul\":14977:15056   */\n      and\n        /* \"#utility.yul\":14969:14975   */\n      dup2\n        /* \"#utility.yul\":14962:15057   */\n      sstore\n        /* \"#utility.yul\":14912:15071   */\n    tag_574:\n      pop\n      pop\n        /* \"#utility.yul\":15114:15115   */\n      0x01\n        /* \"#utility.yul\":15108:15111   */\n      dup6\n        /* \"#utility.yul\":15105:15106   */\n      0x01\n        /* \"#utility.yul\":15101:15112   */\n      shl\n        /* \"#utility.yul\":15097:15116   */\n      add\n        /* \"#utility.yul\":15091:15095   */\n      dup4\n        /* \"#utility.yul\":15084:15117   */\n      sstore\n        /* \"#utility.yul\":14484:15379   */\n    tag_566:\n      pop\n      pop\n        /* \"#utility.yul\":14179:15385   */\n      pop\n      pop\n      pop\n      jump\t// out\n        /* \"#utility.yul\":15390:15657   */\n    tag_474:\n        /* \"#utility.yul\":15479:15485   */\n      dup2\n        /* \"#utility.yul\":15474:15477   */\n      dup4\n        /* \"#utility.yul\":15467:15486   */\n      mstore\n        /* \"#utility.yul\":15531:15537   */\n      dup2\n        /* \"#utility.yul\":15524:15529   */\n      dup2\n        /* \"#utility.yul\":15517:15521   */\n      0x20\n        /* \"#utility.yul\":15512:15515   */\n      dup6\n        /* \"#utility.yul\":15508:15522   */\n      add\n        /* \"#utility.yul\":15495:15538   */\n      calldatacopy\n      pop\n        /* \"#utility.yul\":15583:15584   */\n      0x00\n        /* \"#utility.yul\":15558:15574   */\n      dup3\n      dup3\n      add\n        /* \"#utility.yul\":15576:15580   */\n      0x20\n        /* \"#utility.yul\":15554:15581   */\n      swap1\n      dup2\n      add\n        /* \"#utility.yul\":15547:15585   */\n      swap2\n      swap1\n      swap2\n      mstore\n        /* \"#utility.yul\":15639:15641   */\n      0x1f\n        /* \"#utility.yul\":15618:15633   */\n      swap1\n      swap2\n      add\n      not(0x1f)\n        /* \"#utility.yul\":15614:15643   */\n      and\n        /* \"#utility.yul\":15605:15644   */\n      swap1\n      swap2\n      add\n        /* \"#utility.yul\":15601:15651   */\n      add\n      swap1\n        /* \"#utility.yul\":15390:15657   */\n      jump\t// out\n        /* \"#utility.yul\":15662:16124   */\n    tag_267:\n        /* \"#utility.yul\":15905:15911   */\n      dup6\n        /* \"#utility.yul\":15894:15903   */\n      dup2\n        /* \"#utility.yul\":15887:15912   */\n      mstore\n        /* \"#utility.yul\":15948:15954   */\n      dup5\n        /* \"#utility.yul\":15943:15945   */\n      0x20\n        /* \"#utility.yul\":15932:15941   */\n      dup3\n        /* \"#utility.yul\":15928:15946   */\n      add\n        /* \"#utility.yul\":15921:15955   */\n      mstore\n        /* \"#utility.yul\":15991:15994   */\n      0x80\n        /* \"#utility.yul\":15986:15988   */\n      0x40\n        /* \"#utility.yul\":15975:15984   */\n      dup3\n        /* \"#utility.yul\":15971:15989   */\n      add\n        /* \"#utility.yul\":15964:15995   */\n      mstore\n        /* \"#utility.yul\":15868:15872   */\n      0x00\n        /* \"#utility.yul\":16012:16075   */\n      tag_577\n        /* \"#utility.yul\":16070:16073   */\n      0x80\n        /* \"#utility.yul\":16059:16068   */\n      dup4\n        /* \"#utility.yul\":16055:16074   */\n      add\n        /* \"#utility.yul\":16047:16053   */\n      dup6\n        /* \"#utility.yul\":16039:16045   */\n      dup8\n        /* \"#utility.yul\":16012:16075   */\n      tag_474\n      jump\t// in\n    tag_577:\n        /* \"#utility.yul\":16004:16075   */\n      swap1\n      pop\n        /* \"#utility.yul\":16111:16117   */\n      dup3\n        /* \"#utility.yul\":16106:16108   */\n      0x60\n        /* \"#utility.yul\":16095:16104   */\n      dup4\n        /* \"#utility.yul\":16091:16109   */\n      add\n        /* \"#utility.yul\":16084:16118   */\n      mstore\n        /* \"#utility.yul\":15662:16124   */\n      swap7\n      swap6\n      pop\n      pop\n      pop\n      pop\n      pop\n      pop\n      jump\t// out\n        /* \"#utility.yul\":17810:17945   */\n    tag_358:\n        /* \"#utility.yul\":17849:17852   */\n      0x00\n        /* \"#utility.yul\":17870:17887   */\n      0x01\n      dup3\n      add\n        /* \"#utility.yul\":17867:17910   */\n      tag_585\n      jumpi\n        /* \"#utility.yul\":17890:17908   */\n      tag_585\n      tag_469\n      jump\t// in\n    tag_585:\n      pop\n        /* \"#utility.yul\":17937:17938   */\n      0x01\n        /* \"#utility.yul\":17926:17939   */\n      add\n      swap1\n        /* \"#utility.yul\":17810:17945   */\n      jump\t// out\n        /* \"#utility.yul\":17950:19302   */\n    tag_360:\n        /* \"#utility.yul\":18076:18079   */\n      dup2\n        /* \"#utility.yul\":18070:18080   */\n      mload\n        /* \"#utility.yul\":18103:18121   */\n      0xffffffffffffffff\n        /* \"#utility.yul\":18095:18101   */\n      dup2\n        /* \"#utility.yul\":18092:18122   */\n      gt\n        /* \"#utility.yul\":18089:18145   */\n      iszero\n      tag_588\n      jumpi\n        /* \"#utility.yul\":18125:18143   */\n      tag_588\n      tag_470\n      jump\t// in\n    tag_588:\n        /* \"#utility.yul\":18154:18251   */\n      tag_589\n        /* \"#utility.yul\":18244:18250   */\n      dup2\n        /* \"#utility.yul\":18204:18242   */\n      tag_590\n        /* \"#utility.yul\":18236:18240   */\n      dup5\n        /* \"#utility.yul\":18230:18241   */\n      sload\n        /* \"#utility.yul\":18204:18242   */\n      tag_157\n      jump\t// in\n    tag_590:\n        /* \"#utility.yul\":18198:18202   */\n      dup5\n        /* \"#utility.yul\":18154:18251   */\n      tag_472\n      jump\t// in\n    tag_589:\n        /* \"#utility.yul\":18306:18310   */\n      0x20\n      dup1\n        /* \"#utility.yul\":18370:18372   */\n      0x1f\n        /* \"#utility.yul\":18359:18373   */\n      dup4\n      gt\n        /* \"#utility.yul\":18387:18388   */\n      0x01\n        /* \"#utility.yul\":18382:19045   */\n      dup2\n      eq\n      tag_592\n      jumpi\n        /* \"#utility.yul\":19089:19090   */\n      0x00\n        /* \"#utility.yul\":19106:19112   */\n      dup5\n        /* \"#utility.yul\":19103:19192   */\n      iszero\n      tag_593\n      jumpi\n      pop\n        /* \"#utility.yul\":19158:19177   */\n      dup6\n      dup4\n      add\n        /* \"#utility.yul\":19152:19178   */\n      mload\n        /* \"#utility.yul\":19103:19192   */\n    tag_593:\n      not(0x00)\n        /* \"#utility.yul\":14136:14137   */\n      0x03\n        /* \"#utility.yul\":14132:14143   */\n      dup7\n      swap1\n      shl\n        /* \"#utility.yul\":14128:14152   */\n      shr\n        /* \"#utility.yul\":14124:14153   */\n      not\n        /* \"#utility.yul\":14114:14154   */\n      and\n        /* \"#utility.yul\":14160:14161   */\n      0x01\n        /* \"#utility.yul\":14156:14167   */\n      dup6\n      swap1\n      shl\n        /* \"#utility.yul\":14111:14168   */\n      or\n        /* \"#utility.yul\":19205:19286   */\n      dup6\n      sstore\n        /* \"#utility.yul\":18352:19296   */\n      jump(tag_559)\n        /* \"#utility.yul\":18382:19045   */\n    tag_592:\n        /* \"#utility.yul\":13405:13406   */\n      0x00\n        /* \"#utility.yul\":13398:13412   */\n      dup6\n      dup2\n      mstore\n        /* \"#utility.yul\":13442:13446   */\n      0x20\n        /* \"#utility.yul\":13429:13447   */\n      dup2\n      keccak256\n      not(0x1f)\n        /* \"#utility.yul\":18418:18438   */\n      dup7\n      and\n      swap2\n        /* \"#utility.yul\":18536:18772   */\n    tag_596:\n        /* \"#utility.yul\":18550:18557   */\n      dup3\n        /* \"#utility.yul\":18547:18548   */\n      dup2\n        /* \"#utility.yul\":18544:18558   */\n      lt\n        /* \"#utility.yul\":18536:18772   */\n      iszero\n      tag_598\n      jumpi\n        /* \"#utility.yul\":18639:18658   */\n      dup9\n      dup7\n      add\n        /* \"#utility.yul\":18633:18659   */\n      mload\n        /* \"#utility.yul\":18618:18660   */\n      dup3\n      sstore\n        /* \"#utility.yul\":18731:18758   */\n      swap5\n      dup5\n      add\n      swap5\n        /* \"#utility.yul\":18699:18700   */\n      0x01\n        /* \"#utility.yul\":18687:18701   */\n      swap1\n      swap2\n      add\n      swap1\n        /* \"#utility.yul\":18566:18585   */\n      dup5\n      add\n        /* \"#utility.yul\":18536:18772   */\n      jump(tag_596)\n    tag_598:\n        /* \"#utility.yul\":18540:18543   */\n      pop\n        /* \"#utility.yul\":18800:18806   */\n      dup6\n        /* \"#utility.yul\":18791:18798   */\n      dup3\n        /* \"#utility.yul\":18788:18807   */\n      lt\n        /* \"#utility.yul\":18785:18986   */\n      iszero\n      tag_599\n      jumpi\n        /* \"#utility.yul\":18861:18880   */\n      dup8\n      dup6\n      add\n        /* \"#utility.yul\":18855:18881   */\n      mload\n      not(0x00)\n        /* \"#utility.yul\":18944:18945   */\n      0x03\n        /* \"#utility.yul\":18940:18954   */\n      dup9\n      swap1\n      shl\n        /* \"#utility.yul\":18956:18959   */\n      0xf8\n        /* \"#utility.yul\":18936:18960   */\n      and\n        /* \"#utility.yul\":18932:18969   */\n      shr\n        /* \"#utility.yul\":18928:18970   */\n      not\n        /* \"#utility.yul\":18913:18971   */\n      and\n        /* \"#utility.yul\":18898:18972   */\n      dup2\n      sstore\n        /* \"#utility.yul\":18785:18986   */\n    tag_599:\n      pop\n      pop\n      pop\n      pop\n      pop\n        /* \"#utility.yul\":19032:19033   */\n      0x01\n        /* \"#utility.yul\":19016:19030   */\n      swap1\n      dup2\n      shl\n        /* \"#utility.yul\":19012:19034   */\n      add\n        /* \"#utility.yul\":18999:19035   */\n      swap1\n      sstore\n      pop\n        /* \"#utility.yul\":17950:19302   */\n      jump\t// out\n        /* \"#utility.yul\":20832:20959   */\n    tag_400:\n        /* \"#utility.yul\":20893:20903   */\n      0x4e487b71\n        /* \"#utility.yul\":20888:20891   */\n      0xe0\n        /* \"#utility.yul\":20884:20904   */\n      shl\n        /* \"#utility.yul\":20881:20882   */\n      0x00\n        /* \"#utility.yul\":20874:20905   */\n      mstore\n        /* \"#utility.yul\":20924:20928   */\n      0x32\n        /* \"#utility.yul\":20921:20922   */\n      0x04\n        /* \"#utility.yul\":20914:20929   */\n      mstore\n        /* \"#utility.yul\":20948:20952   */\n      0x24\n        /* \"#utility.yul\":20945:20946   */\n      0x00\n        /* \"#utility.yul\":20938:20953   */\n      revert\n    stop\n    data_cb864c43dd5d441bb6271f424f11befa622c032dfd374d226e26fbbdb782b8f8 a49807205ce4d355092ef5a8a18f56e8913cf4a201fbe287825b095693c21775\n\n    auxdata: 0xa264697066735822122082339dd2b5ece0fa53f5d4f45f6eec0d37accc064bd857e32eab82d3716e4c7164736f6c63430008140033\n}\n",
				"bytecode": {
					"linkReferences": {},
					"object": "60806040523480156200001157600080fd5b5060405162002bf938038062002bf983398101604081905262000034916200024c565b6001805460ff191681556002556001600160a01b0382166200009d5760405162461bcd60e51b815260206004820152601a60248201527f496e76616c6964205553444320746f6b656e206164647265737300000000000060448201526064015b60405180910390fd5b6001600160a01b038116620000f55760405162461bcd60e51b815260206004820152601560248201527f496e76616c69642061646d696e20616464726573730000000000000000000000604482015260640162000094565b600380546001600160a01b0319166001600160a01b0384161790556200011d60008262000180565b506200014a7fa49807205ce4d355092ef5a8a18f56e8913cf4a201fbe287825b095693c217758262000180565b50620001777fe1dcbdb91df27212a29bc27177c840cf2f819ecf2187432e1fac86c2dd5dfca98262000180565b50505062000284565b6000828152602081815260408083206001600160a01b038516845290915281205460ff1662000225576000838152602081815260408083206001600160a01b03861684529091529020805460ff19166001179055620001dc3390565b6001600160a01b0316826001600160a01b0316847f2f8788117e7eff1d82e926ec794901d17c78024a50270940304540a733656f0d60405160405180910390a450600162000229565b5060005b92915050565b80516001600160a01b03811681146200024757600080fd5b919050565b600080604083850312156200026057600080fd5b6200026b836200022f565b91506200027b602084016200022f565b90509250929050565b61296580620002946000396000f3fe608060405234801561001057600080fd5b50600436106101c45760003560e01c8063793cdd1a116100f9578063c107532911610097578063d11a57ec11610071578063d11a57ec146103c5578063d547741f146103ec578063e22ba7ad146103ff578063f046395a1461041257600080fd5b8063c107532914610397578063c3da1afe146103aa578063c5a7f77b146103bd57600080fd5b806391d14854116100d357806391d148541461034c578063a217fddf1461035f578063b162061614610367578063b1724b461461038c57600080fd5b8063793cdd1a1461031e57806388860e4e146103315780638edf72f51461033957600080fd5b80632f2ff15d1161016657806342912c9e1161014057806342912c9e146102d85780635c975abb146102eb5780636174bc63146102f657806375b238fc1461030957600080fd5b80632f2ff15d146102a957806336568abe146102bc578063382d39bb146102cf57600080fd5b80631153b5f3116101a25780631153b5f31461023b57806311eac85514610253578063248a9ca31461027e57806324e9edb0146102a157600080fd5b806301ffc9a7146101c957806305d567ca146101f15780630cbebc2414610206575b600080fd5b6101dc6101d736600461227b565b61048b565b60405190151581526020015b60405180910390f35b6102046101ff3660046122ac565b6104c2565b005b6102196102143660046122e1565b6108c9565b60408051941515855260208501939093529183015260608201526080016101e8565b6102456201518081565b6040519081526020016101e8565b600354610266906001600160a01b031681565b6040516001600160a01b0390911681526020016101e8565b61024561028c3660046122ac565b60009081526020819052604090206001015490565b61020461096b565b6102046102b73660046122fc565b6109fa565b6102046102ca3660046122fc565b610a25565b61024560065481565b6102046102e63660046122ac565b610a5d565b60015460ff166101dc565b6102046103043660046122ac565b610c9a565b61024560008051602061291083398151915281565b61020461032c366004612371565b610d27565b610204610f38565b6102046103473660046122ac565b610f9a565b6101dc61035a3660046122fc565b6113a2565b610245600081565b61037a6103753660046122ac565b6113cb565b6040516101e8969594939291906123db565b6102456301e1338081565b6102046103a536600461244f565b61148e565b6102046103b8366004612479565b611704565b61020461197d565b6102457fe1dcbdb91df27212a29bc27177c840cf2f819ecf2187432e1fac86c2dd5dfca981565b6102046103fa3660046122fc565b611c82565b61020461040d3660046124da565b611ca7565b61045a6104203660046122e1565b600460208190526000918252604090912080546001820154600283015460038401549484015460059094015460ff93841695929491931686565b60408051961515875260208701959095529385019290925260608401526080830152151560a082015260c0016101e8565b60006001600160e01b03198216637965db0b60e01b14806104bc57506301ffc9a760e01b6001600160e01b03198316145b92915050565b6104ca61209a565b6104d26120f1565b336000908152600460205260409020805460ff1680156104f55750428160010154115b61051a5760405162461bcd60e51b81526004016105119061254f565b60405180910390fd5b6000828152600560209081526040808320815160c08101835281548152600182015493810193909352600281015491830191909152600381015460ff16151560608301526004810180546080840191906105739061257f565b80601f016020809104026020016040519081016040528092919081815260200182805461059f9061257f565b80156105ec5780601f106105c1576101008083540402835291602001916105ec565b820191906000526020600020905b8154815290600101906020018083116105cf57829003601f168201915b505050505081526020016005820154815250509050806060015180156106125750805115155b8015610622575060008160200151115b6106615760405162461bcd60e51b815260206004820152601060248201526f24b73b30b634b2103732bb90383630b760811b6044820152606401610511565b6003546040516370a0823160e01b81523060048201526000916001600160a01b0316906370a0823190602401602060405180830381865afa1580156106aa573d6000803e3d6000fd5b505050506040513d601f19601f820116820180604052508101906106ce91906125b9565b60035483516040516323b872dd60e01b815233600482015230602482015260448101919091529192506001600160a01b0316906323b872dd906064016020604051808303816000875af1158015610729573d6000803e3d6000fd5b505050506040513d601f19601f8201168201806040525081019061074d91906125d2565b6107695760405162461bcd60e51b8152600401610511906125f4565b81516003546040516370a0823160e01b815230600482015283916001600160a01b0316906370a0823190602401602060405180830381865afa1580156107b3573d6000803e3d6000fd5b505050506040513d601f19601f820116820180604052508101906107d791906125b9565b6107e19190612638565b101561082f5760405162461bcd60e51b815260206004820152601f60248201527f526563656976656420616d6f756e74206c657373207468616e207072696365006044820152606401610511565b6002830184905560a08201516003840155602082015161084f904261264b565b60018401819055426004850155825160208085015160a080870151604080518b815294850196909652948301939093526060820152608081019290925233917f69c719af4ea46cca8c932184a3e30a956161742ed2332e6ebf6703327d799284910160405180910390a25050506108c66001600255565b50565b6001600160a01b0381166000908152600460208181526040808420815160c081018352815460ff90811615801580845260018501549684019690965260028401549483019490945260038301546060830152948201546080820152600590910154909316151560a084015283928392839283919061094a5750428260200151115b60208301516040840151606090940151919990985092965094509092505050565b336000908152600460205260409020805460ff1661099b5760405162461bcd60e51b81526004016105119061254f565b805460ff19908116825560006001830181905560028301819055600383018190556004830181905560058301805490921690915560405133917f71215198e3f86c24dc3af6d0d7f84d0095e5ee736aa56daf9927fae51935e95d91a250565b600082815260208190526040902060010154610a1581612137565b610a1f8383612141565b50505050565b6001600160a01b0381163314610a4e5760405163334bd91960e11b815260040160405180910390fd5b610a5882826121d3565b505050565b610a6561209a565b610a6d6120f1565b6000818152600560209081526040808320815160c08101835281548152600182015493810193909352600281015491830191909152600381015460ff1615156060830152600481018054608084019190610ac69061257f565b80601f0160208091040260200160405190810160405280929190818152602001828054610af29061257f565b8015610b3f5780601f10610b1457610100808354040283529160200191610b3f565b820191906000526020600020905b815481529060010190602001808311610b2257829003601f168201915b50505050508152602001600582015481525050905080606001518015610b69575060008160400151115b610baa5760405162461bcd60e51b81526020600482015260126024820152714e6f20747269616c20617661696c61626c6560701b6044820152606401610511565b336000908152600460205260409020805460ff1615610c005760405162461bcd60e51b8152602060048201526012602482015271105b1c9958591e481cdd589cd8dc9a58995960721b6044820152606401610511565b805460ff191660011781556040820151610c1a904261264b565b600182018190556002820184905560a08381015160038401819055426004850155604080860151815188815260208101959095526000918501919091526060840152608083015233917f69c719af4ea46cca8c932184a3e30a956161742ed2332e6ebf6703327d799284910160405180910390a250506108c66001600255565b600080516020612910833981519152610cb281612137565b60008281526005602052604090206003015460ff16610ce35760405162461bcd60e51b81526004016105119061265e565b600082815260056020526040808220600301805460ff191690555183917f9d249762cccbda1c5e13d7d903a7fd4d9787cebc8b34172efbf22b612e90c14c91a25050565b600080516020612910833981519152610d3f81612137565b6000878152600560205260409020600381015460ff16610d715760405162461bcd60e51b81526004016105119061265e565b6000871180610d805750600085115b610dc65760405162461bcd60e51b8152602060048201526017602482015276141c9a58d9481bdc881d1c9a585b081c995c5d5a5c9959604a1b6044820152606401610511565b600086118015610dda57506301e133808611155b610e1f5760405162461bcd60e51b81526020600482015260166024820152754475726174696f6e206f7574206f6620626f756e647360501b6044820152606401610511565b85851115610e685760405162461bcd60e51b81526020600482015260166024820152752a3934b0b61032bc31b2b2b23990323ab930ba34b7b760511b6044820152606401610511565b6064831115610ead5760405162461bcd60e51b815260206004820152601160248201527042656e656669747320746f6f206c6f6e6760781b6044820152606401610511565b868155600181018690556002810185905560048101610ecd848683612704565b506001816005016000828254610ee3919061264b565b92505081905550877f6c70fdafe6efdd158f0115013b98f9cc8071f9b91f26e100c3d2f68245c32673888887878660050154604051610f269594939291906127ee565b60405180910390a25050505050505050565b3360008181526004602090815260409182902060058101805460ff8082161560ff199092168217909255935193161515835292917f37ff880f3c2c6e3296bac1dfa534ac207e04dc7b8725592b2dca2d4da646dc59910160405180910390a250565b610fa261209a565b610faa6120f1565b6000818152600560209081526040808320815160c08101835281548152600182015493810193909352600281015491830191909152600381015460ff16151560608301526004810180546080840191906110039061257f565b80601f016020809104026020016040519081016040528092919081815260200182805461102f9061257f565b801561107c5780601f106110515761010080835404028352916020019161107c565b820191906000526020600020905b81548152906001019060200180831161105f57829003601f168201915b505050505081526020016005820154815250509050806060015180156110a25750805115155b80156110b2575060008160200151115b6110ed5760405162461bcd60e51b815260206004820152600c60248201526b24b73b30b634b210383630b760a11b6044820152606401610511565b6003546040516370a0823160e01b81523060048201526000916001600160a01b0316906370a0823190602401602060405180830381865afa158015611136573d6000803e3d6000fd5b505050506040513d601f19601f8201168201806040525081019061115a91906125b9565b60035483516040516323b872dd60e01b815233600482015230602482015260448101919091529192506001600160a01b0316906323b872dd906064016020604051808303816000875af11580156111b5573d6000803e3d6000fd5b505050506040513d601f19601f820116820180604052508101906111d991906125d2565b6111f55760405162461bcd60e51b8152600401610511906125f4565b81516003546040516370a0823160e01b815230600482015283916001600160a01b0316906370a0823190602401602060405180830381865afa15801561123f573d6000803e3d6000fd5b505050506040513d601f19601f8201168201806040525081019061126391906125b9565b61126d9190612638565b10156112bb5760405162461bcd60e51b815260206004820152601f60248201527f526563656976656420616d6f756e74206c657373207468616e207072696365006044820152606401610511565b336000908152600460205260408120805490919060ff1680156112e15750428260010154115b6112f95760208401516112f4904261264b565b61130d565b8360200151826001015461130d919061264b565b825460ff19166001908117845583018190556002830186905560a085810151600385018190554260048601558651602080890151604080518c81529283018790528201929092526060810191909152608081019190915291925033917f69c719af4ea46cca8c932184a3e30a956161742ed2332e6ebf6703327d799284910160405180910390a2505050506108c66001600255565b6000918252602082815260408084206001600160a01b0393909316845291905290205460ff1690565b6005602052600090815260409020805460018201546002830154600384015460048501805494959394929360ff909216926114059061257f565b80601f01602080910402602001604051908101604052809291908181526020018280546114319061257f565b801561147e5780601f106114535761010080835404028352916020019161147e565b820191906000526020600020905b81548152906001019060200180831161146157829003601f168201915b5050505050908060050154905086565b7fe1dcbdb91df27212a29bc27177c840cf2f819ecf2187432e1fac86c2dd5dfca96114b881612137565b6114c061209a565b6114c86120f1565b6001600160a01b03831661151e5760405162461bcd60e51b815260206004820152601960248201527f496e76616c696420726563697069656e742061646472657373000000000000006044820152606401610511565b6000821161156e5760405162461bcd60e51b815260206004820152601d60248201527f416d6f756e74206d7573742062652067726561746572207468616e20300000006044820152606401610511565b6003546040516370a0823160e01b815230600482015283916001600160a01b0316906370a0823190602401602060405180830381865afa1580156115b6573d6000803e3d6000fd5b505050506040513d601f19601f820116820180604052508101906115da91906125b9565b101561161f5760405162461bcd60e51b8152602060048201526014602482015273496e73756666696369656e742062616c616e636560601b6044820152606401610511565b60035460405163a9059cbb60e01b81526001600160a01b03858116600483015260248201859052600092169063a9059cbb906044016020604051808303816000875af1158015611673573d6000803e3d6000fd5b505050506040513d601f19601f8201168201806040525081019061169791906125d2565b9050806116b65760405162461bcd60e51b8152600401610511906125f4565b836001600160a01b03167feaff4b37086828766ad3268786972c0cd24259d4c87a80f9d3963a3c3d999b0d846040516116f191815260200190565b60405180910390a250610a586001600255565b60008051602061291083398151915261171c81612137565b600086118061172b5750600084115b6117715760405162461bcd60e51b8152602060048201526017602482015276141c9a58d9481bdc881d1c9a585b081c995c5d5a5c9959604a1b6044820152606401610511565b60008511801561178557506301e133808511155b6117ca5760405162461bcd60e51b81526020600482015260166024820152754475726174696f6e206f7574206f6620626f756e647360501b6044820152606401610511565b848411156118135760405162461bcd60e51b81526020600482015260166024820152752a3934b0b61032bc31b2b2b23990323ab930ba34b7b760511b6044820152606401610511565b60648211156118585760405162461bcd60e51b815260206004820152601160248201527042656e656669747320746f6f206c6f6e6760781b6044820152606401610511565b6006805490600061186883612820565b91905055506040518060c0016040528087815260200186815260200185815260200160011515815260200184848080601f0160208091040260200160405190810160405280939291908181526020018383808284376000920182905250938552505060016020938401819052600654835260058452604092839020855181559385015190840155508201516002820155606082015160038201805460ff1916911515919091179055608082015160048201906119249082612839565b5060a082015181600501559050506006547fc892ce8cee1ecf3c64aa4c2c73d198b5ddd43c7b487f74db6832f25241c9b12287878686600160405161196d9594939291906127ee565b60405180910390a2505050505050565b61198561209a565b336000908152600460205260409020805460ff166119b55760405162461bcd60e51b81526004016105119061254f565b6201518081600401546119c8919061264b565b421115611a0f5760405162461bcd60e51b81526020600482015260156024820152741499599d5b99081dda5b991bddc8195e1c1a5c9959605a1b6044820152606401610511565b6002808201546000908152600560209081526040808320815160c081018352815481526001820154938101939093529384015490820152600383015460ff161515606082015260048301805492939192608084019190611a6e9061257f565b80601f0160208091040260200160405190810160405280929190818152602001828054611a9a9061257f565b8015611ae75780601f10611abc57610100808354040283529160200191611ae7565b820191906000526020600020905b815481529060010190602001808311611aca57829003601f168201915b5050505050815260200160058201548152505090506000816000015111611b475760405162461bcd60e51b8152602060048201526014602482015273139bc81c185e5b595b9d081d1bc81c99599d5b9960621b6044820152606401610511565b815460ff199081168355600060018401819055600284018190556003808501829055600480860183905560058601805490941690935554835160405163a9059cbb60e01b81523394810194909452602484015290916001600160a01b039091169063a9059cbb906044016020604051808303816000875af1158015611bd0573d6000803e3d6000fd5b505050506040513d601f19601f82011682018060405250810190611bf491906125d2565b905080611c3c5760405162461bcd60e51b81526020600482015260166024820152751499599d5b99081d1c985b9cd9995c8819985a5b195960521b6044820152606401610511565b815160405190815233907fb5aea4689fc1529924a9ba4572cd5d88d4f4c2778f9e40d15641f09b69e00d339060200160405180910390a2505050611c806001600255565b565b600082815260208190526040902060010154611c9d81612137565b610a1f83836121d3565b60005b81811015610a5857600060046000858585818110611cca57611cca6128f9565b9050602002016020810190611cdf91906122e1565b6001600160a01b031681526020810191909152604001600020805490915060ff168015611d105750600581015460ff165b8015611d20575080600101544210155b8015611d425750600281015460009081526005602052604090206003015460ff165b15612087576002808201546000908152600560209081526040808320815160c081018352815481526001820154938101939093529384015490820152600383015460ff161515606082015260048301805492939192608084019190611da69061257f565b80601f0160208091040260200160405190810160405280929190818152602001828054611dd29061257f565b8015611e1f5780601f10611df457610100808354040283529160200191611e1f565b820191906000526020600020905b815481529060010190602001808311611e0257829003601f168201915b5050509183525050600591909101546020909101526003546040516370a0823160e01b81523060048201529192506000916001600160a01b03909116906370a0823190602401602060405180830381865afa158015611e82573d6000803e3d6000fd5b505050506040513d601f19601f82011682018060405250810190611ea691906125b9565b6003549091506000906001600160a01b03166323b872dd888888818110611ecf57611ecf6128f9565b9050602002016020810190611ee491906122e1565b855160405160e084901b6001600160e01b03191681526001600160a01b03909216600483015230602483015260448201526064016020604051808303816000875af1158015611f37573d6000803e3d6000fd5b505050506040513d601f19601f82011682018060405250810190611f5b91906125d2565b9050808015611fe0575082516003546040516370a0823160e01b815230600482015284916001600160a01b0316906370a0823190602401602060405180830381865afa158015611faf573d6000803e3d6000fd5b505050506040513d601f19601f82011682018060405250810190611fd391906125b9565b611fdd9190612638565b10155b15612083578260200151846001016000828254611ffd919061264b565b909155505042600485015586868681811061201a5761201a6128f9565b905060200201602081019061202f91906122e1565b6001600160a01b03167f0844521bd3c7295df35ca72576b1c04b6061d23891276d5c077cd73cbb3d31fc8560020154866001015460405161207a929190918252602082015260400190565b60405180910390a25b5050505b508061209281612820565b915050611caa565b60028054036120eb5760405162461bcd60e51b815260206004820152601f60248201527f5265656e7472616e637947756172643a207265656e7472616e742063616c6c006044820152606401610511565b60028055565b60015460ff1615611c805760405162461bcd60e51b815260206004820152601060248201526f14185d5cd8589b194e881c185d5cd95960821b6044820152606401610511565b6108c6813361223e565b600061214d83836113a2565b6121cb576000838152602081815260408083206001600160a01b03861684529091529020805460ff191660011790556121833390565b6001600160a01b0316826001600160a01b0316847f2f8788117e7eff1d82e926ec794901d17c78024a50270940304540a733656f0d60405160405180910390a45060016104bc565b5060006104bc565b60006121df83836113a2565b156121cb576000838152602081815260408083206001600160a01b0386168085529252808320805460ff1916905551339286917ff6391f5c32d9c69d2a47ea670b442974b53935d1edc7fd64eb21e047a839171b9190a45060016104bc565b61224882826113a2565b6122775760405163e2517d3f60e01b81526001600160a01b038216600482015260248101839052604401610511565b5050565b60006020828403121561228d57600080fd5b81356001600160e01b0319811681146122a557600080fd5b9392505050565b6000602082840312156122be57600080fd5b5035919050565b80356001600160a01b03811681146122dc57600080fd5b919050565b6000602082840312156122f357600080fd5b6122a5826122c5565b6000806040838503121561230f57600080fd5b8235915061231f602084016122c5565b90509250929050565b60008083601f84011261233a57600080fd5b50813567ffffffffffffffff81111561235257600080fd5b60208301915083602082850101111561236a57600080fd5b9250929050565b60008060008060008060a0878903121561238a57600080fd5b86359550602087013594506040870135935060608701359250608087013567ffffffffffffffff8111156123bd57600080fd5b6123c989828a01612328565b979a9699509497509295939492505050565b868152600060208781840152866040840152851515606084015260c0608084015284518060c085015260005b818110156124235786810183015185820160e001528201612407565b50600060e0828601015260e0601f19601f830116850101925050508260a0830152979650505050505050565b6000806040838503121561246257600080fd5b61246b836122c5565b946020939093013593505050565b60008060008060006080868803121561249157600080fd5b853594506020860135935060408601359250606086013567ffffffffffffffff8111156124bd57600080fd5b6124c988828901612328565b969995985093965092949392505050565b600080602083850312156124ed57600080fd5b823567ffffffffffffffff8082111561250557600080fd5b818501915085601f83011261251957600080fd5b81358181111561252857600080fd5b8660208260051b850101111561253d57600080fd5b60209290920196919550909350505050565b60208082526016908201527527379030b1ba34bb329039bab139b1b934b83a34b7b760511b604082015260600190565b600181811c9082168061259357607f821691505b6020821081036125b357634e487b7160e01b600052602260045260246000fd5b50919050565b6000602082840312156125cb57600080fd5b5051919050565b6000602082840312156125e457600080fd5b815180151581146122a557600080fd5b6020808252601490820152731554d110c81d1c985b9cd9995c8819985a5b195960621b604082015260600190565b634e487b7160e01b600052601160045260246000fd5b818103818111156104bc576104bc612622565b808201808211156104bc576104bc612622565b60208082526022908201527f506c616e20646f6573206e6f74206578697374206f7220697320696e61637469604082015261766560f01b606082015260800190565b634e487b7160e01b600052604160045260246000fd5b601f821115610a5857600081815260208120601f850160051c810160208610156126dd5750805b601f850160051c820191505b818110156126fc578281556001016126e9565b505050505050565b67ffffffffffffffff83111561271c5761271c6126a0565b6127308361272a835461257f565b836126b6565b6000601f841160018114612764576000851561274c5750838201355b600019600387901b1c1916600186901b1783556127be565b600083815260209020601f19861690835b828110156127955786850135825560209485019460019092019101612775565b50868210156127b25760001960f88860031b161c19848701351681555b505060018560011b0183555b5050505050565b81835281816020850137506000828201602090810191909152601f909101601f19169091010190565b85815284602082015260806040820152600061280e6080830185876127c5565b90508260608301529695505050505050565b60006001820161283257612832612622565b5060010190565b815167ffffffffffffffff811115612853576128536126a0565b61286781612861845461257f565b846126b6565b602080601f83116001811461289c57600084156128845750858301515b600019600386901b1c1916600185901b1785556126fc565b600085815260208120601f198616915b828110156128cb578886015182559484019460019091019084016128ac565b50858210156128e95787850151600019600388901b60f8161c191681555b5050505050600190811b01905550565b634e487b7160e01b600052603260045260246000fdfea49807205ce4d355092ef5a8a18f56e8913cf4a201fbe287825b095693c21775a264697066735822122082339dd2b5ece0fa53f5d4f45f6eec0d37accc064bd857e32eab82d3716e4c7164736f6c63430008140033",
					"opcodes": "PUSH1 0x80 PUSH1 0x40 MSTORE CALLVALUE DUP1 ISZERO PUSH3 0x11 JUMPI PUSH1 0x0 DUP1 REVERT JUMPDEST POP PUSH1 0x40 MLOAD PUSH3 0x2BF9 CODESIZE SUB DUP1 PUSH3 0x2BF9 DUP4 CODECOPY DUP2 ADD PUSH1 0x40 DUP2 SWAP1 MSTORE PUSH3 0x34 SWAP2 PUSH3 0x24C JUMP JUMPDEST PUSH1 0x1 DUP1 SLOAD PUSH1 0xFF NOT AND DUP2 SSTORE PUSH1 0x2 SSTORE PUSH1 0x1 PUSH1 0x1 PUSH1 0xA0 SHL SUB DUP3 AND PUSH3 0x9D JUMPI PUSH1 0x40 MLOAD PUSH3 0x461BCD PUSH1 0xE5 SHL DUP2 MSTORE PUSH1 0x20 PUSH1 0x4 DUP3 ADD MSTORE PUSH1 0x1A PUSH1 0x24 DUP3 ADD MSTORE PUSH32 0x496E76616C6964205553444320746F6B656E2061646472657373000000000000 PUSH1 0x44 DUP3 ADD MSTORE PUSH1 0x64 ADD JUMPDEST PUSH1 0x40 MLOAD DUP1 SWAP2 SUB SWAP1 REVERT JUMPDEST PUSH1 0x1 PUSH1 0x1 PUSH1 0xA0 SHL SUB DUP2 AND PUSH3 0xF5 JUMPI PUSH1 0x40 MLOAD PUSH3 0x461BCD PUSH1 0xE5 SHL DUP2 MSTORE PUSH1 0x20 PUSH1 0x4 DUP3 ADD MSTORE PUSH1 0x15 PUSH1 0x24 DUP3 ADD MSTORE PUSH32 0x496E76616C69642061646D696E20616464726573730000000000000000000000 PUSH1 0x44 DUP3 ADD MSTORE PUSH1 0x64 ADD PUSH3 0x94 JUMP JUMPDEST PUSH1 0x3 DUP1 SLOAD PUSH1 0x1 PUSH1 0x1 PUSH1 0xA0 SHL SUB NOT AND PUSH1 0x1 PUSH1 0x1 PUSH1 0xA0 SHL SUB DUP5 AND OR SWAP1 SSTORE PUSH3 0x11D PUSH1 0x0 DUP3 PUSH3 0x180 JUMP JUMPDEST POP PUSH3 0x14A PUSH32 0xA49807205CE4D355092EF5A8A18F56E8913CF4A201FBE287825B095693C21775 DUP3 PUSH3 0x180 JUMP JUMPDEST POP PUSH3 0x177 PUSH32 0xE1DCBDB91DF27212A29BC27177C840CF2F819ECF2187432E1FAC86C2DD5DFCA9 DUP3 PUSH3 0x180 JUMP JUMPDEST POP POP POP PUSH3 0x284 JUMP JUMPDEST PUSH1 0x0 DUP3 DUP2 MSTORE PUSH1 0x20 DUP2 DUP2 MSTORE PUSH1 0x40 DUP1 DUP4 KECCAK256 PUSH1 0x1 PUSH1 0x1 PUSH1 0xA0 SHL SUB DUP6 AND DUP5 MSTORE SWAP1 SWAP2 MSTORE DUP2 KECCAK256 SLOAD PUSH1 0xFF AND PUSH3 0x225 JUMPI PUSH1 0x0 DUP4 DUP2 MSTORE PUSH1 0x20 DUP2 DUP2 MSTORE PUSH1 0x40 DUP1 DUP4 KECCAK256 PUSH1 0x1 PUSH1 0x1 PUSH1 0xA0 SHL SUB DUP7 AND DUP5 MSTORE SWAP1 SWAP2 MSTORE SWAP1 KECCAK256 DUP1 SLOAD PUSH1 0xFF NOT AND PUSH1 0x1 OR SWAP1 SSTORE PUSH3 0x1DC CALLER SWAP1 JUMP JUMPDEST PUSH1 0x1 PUSH1 0x1 PUSH1 0xA0 SHL SUB AND DUP3 PUSH1 0x1 PUSH1 0x1 PUSH1 0xA0 SHL SUB AND DUP5 PUSH32 0x2F8788117E7EFF1D82E926EC794901D17C78024A50270940304540A733656F0D PUSH1 0x40 MLOAD PUSH1 0x40 MLOAD DUP1 SWAP2 SUB SWAP1 LOG4 POP PUSH1 0x1 PUSH3 0x229 JUMP JUMPDEST POP PUSH1 0x0 JUMPDEST SWAP3 SWAP2 POP POP JUMP JUMPDEST DUP1 MLOAD PUSH1 0x1 PUSH1 0x1 PUSH1 0xA0 SHL SUB DUP2 AND DUP2 EQ PUSH3 0x247 JUMPI PUSH1 0x0 DUP1 REVERT JUMPDEST SWAP2 SWAP1 POP JUMP JUMPDEST PUSH1 0x0 DUP1 PUSH1 0x40 DUP4 DUP6 SUB SLT ISZERO PUSH3 0x260 JUMPI PUSH1 0x0 DUP1 REVERT JUMPDEST PUSH3 0x26B DUP4 PUSH3 0x22F JUMP JUMPDEST SWAP2 POP PUSH3 0x27B PUSH1 0x20 DUP5 ADD PUSH3 0x22F JUMP JUMPDEST SWAP1 POP SWAP3 POP SWAP3 SWAP1 POP JUMP JUMPDEST PUSH2 0x2965 DUP1 PUSH3 0x294 PUSH1 0x0 CODECOPY PUSH1 0x0 RETURN INVALID PUSH1 0x80 PUSH1 0x40 MSTORE CALLVALUE DUP1 ISZERO PUSH2 0x10 JUMPI PUSH1 0x0 DUP1 REVERT JUMPDEST POP PUSH1 0x4 CALLDATASIZE LT PUSH2 0x1C4 JUMPI PUSH1 0x0 CALLDATALOAD PUSH1 0xE0 SHR DUP1 PUSH4 0x793CDD1A GT PUSH2 0xF9 JUMPI DUP1 PUSH4 0xC1075329 GT PUSH2 0x97 JUMPI DUP1 PUSH4 0xD11A57EC GT PUSH2 0x71 JUMPI DUP1 PUSH4 0xD11A57EC EQ PUSH2 0x3C5 JUMPI DUP1 PUSH4 0xD547741F EQ PUSH2 0x3EC JUMPI DUP1 PUSH4 0xE22BA7AD EQ PUSH2 0x3FF JUMPI DUP1 PUSH4 0xF046395A EQ PUSH2 0x412 JUMPI PUSH1 0x0 DUP1 REVERT JUMPDEST DUP1 PUSH4 0xC1075329 EQ PUSH2 0x397 JUMPI DUP1 PUSH4 0xC3DA1AFE EQ PUSH2 0x3AA JUMPI DUP1 PUSH4 0xC5A7F77B EQ PUSH2 0x3BD JUMPI PUSH1 0x0 DUP1 REVERT JUMPDEST DUP1 PUSH4 0x91D14854 GT PUSH2 0xD3 JUMPI DUP1 PUSH4 0x91D14854 EQ PUSH2 0x34C JUMPI DUP1 PUSH4 0xA217FDDF EQ PUSH2 0x35F JUMPI DUP1 PUSH4 0xB1620616 EQ PUSH2 0x367 JUMPI DUP1 PUSH4 0xB1724B46 EQ PUSH2 0x38C JUMPI PUSH1 0x0 DUP1 REVERT JUMPDEST DUP1 PUSH4 0x793CDD1A EQ PUSH2 0x31E JUMPI DUP1 PUSH4 0x88860E4E EQ PUSH2 0x331 JUMPI DUP1 PUSH4 0x8EDF72F5 EQ PUSH2 0x339 JUMPI PUSH1 0x0 DUP1 REVERT JUMPDEST DUP1 PUSH4 0x2F2FF15D GT PUSH2 0x166 JUMPI DUP1 PUSH4 0x42912C9E GT PUSH2 0x140 JUMPI DUP1 PUSH4 0x42912C9E EQ PUSH2 0x2D8 JUMPI DUP1 PUSH4 0x5C975ABB EQ PUSH2 0x2EB JUMPI DUP1 PUSH4 0x6174BC63 EQ PUSH2 0x2F6 JUMPI DUP1 PUSH4 0x75B238FC EQ PUSH2 0x309 JUMPI PUSH1 0x0 DUP1 REVERT JUMPDEST DUP1 PUSH4 0x2F2FF15D EQ PUSH2 0x2A9 JUMPI DUP1 PUSH4 0x36568ABE EQ PUSH2 0x2BC JUMPI DUP1 PUSH4 0x382D39BB EQ PUSH2 0x2CF JUMPI PUSH1 0x0 DUP1 REVERT JUMPDEST DUP1 PUSH4 0x1153B5F3 GT PUSH2 0x1A2 JUMPI DUP1 PUSH4 0x1153B5F3 EQ PUSH2 0x23B JUMPI DUP1 PUSH4 0x11EAC855 EQ PUSH2 0x253 JUMPI DUP1 PUSH4 0x248A9CA3 EQ PUSH2 0x27E JUMPI DUP1 PUSH4 0x24E9EDB0 EQ PUSH2 0x2A1 JUMPI PUSH1 0x0 DUP1 REVERT JUMPDEST DUP1 PUSH4 0x1FFC9A7 EQ PUSH2 0x1C9 JUMPI DUP1 PUSH4 0x5D567CA EQ PUSH2 0x1F1 JUMPI DUP1 PUSH4 0xCBEBC24 EQ PUSH2 0x206 JUMPI JUMPDEST PUSH1 0x0 DUP1 REVERT JUMPDEST PUSH2 0x1DC PUSH2 0x1D7 CALLDATASIZE PUSH1 0x4 PUSH2 0x227B JUMP JUMPDEST PUSH2 0x48B JUMP JUMPDEST PUSH1 0x40 MLOAD SWAP1 ISZERO ISZERO DUP2 MSTORE PUSH1 0x20 ADD JUMPDEST PUSH1 0x40 MLOAD DUP1 SWAP2 SUB SWAP1 RETURN JUMPDEST PUSH2 0x204 PUSH2 0x1FF CALLDATASIZE PUSH1 0x4 PUSH2 0x22AC JUMP JUMPDEST PUSH2 0x4C2 JUMP JUMPDEST STOP JUMPDEST PUSH2 0x219 PUSH2 0x214 CALLDATASIZE PUSH1 0x4 PUSH2 0x22E1 JUMP JUMPDEST PUSH2 0x8C9 JUMP JUMPDEST PUSH1 0x40 DUP1 MLOAD SWAP5 ISZERO ISZERO DUP6 MSTORE PUSH1 0x20 DUP6 ADD SWAP4 SWAP1 SWAP4 MSTORE SWAP2 DUP4 ADD MSTORE PUSH1 0x60 DUP3 ADD MSTORE PUSH1 0x80 ADD PUSH2 0x1E8 JUMP JUMPDEST PUSH2 0x245 PUSH3 0x15180 DUP2 JUMP JUMPDEST PUSH1 0x40 MLOAD SWAP1 DUP2 MSTORE PUSH1 0x20 ADD PUSH2 0x1E8 JUMP JUMPDEST PUSH1 0x3 SLOAD PUSH2 0x266 SWAP1 PUSH1 0x1 PUSH1 0x1 PUSH1 0xA0 SHL SUB AND DUP2 JUMP JUMPDEST PUSH1 0x40 MLOAD PUSH1 0x1 PUSH1 0x1 PUSH1 0xA0 SHL SUB SWAP1 SWAP2 AND DUP2 MSTORE PUSH1 0x20 ADD PUSH2 0x1E8 JUMP JUMPDEST PUSH2 0x245 PUSH2 0x28C CALLDATASIZE PUSH1 0x4 PUSH2 0x22AC JUMP JUMPDEST PUSH1 0x0 SWAP1 DUP2 MSTORE PUSH1 0x20 DUP2 SWAP1 MSTORE PUSH1 0x40 SWAP1 KECCAK256 PUSH1 0x1 ADD SLOAD SWAP1 JUMP JUMPDEST PUSH2 0x204 PUSH2 0x96B JUMP JUMPDEST PUSH2 0x204 PUSH2 0x2B7 CALLDATASIZE PUSH1 0x4 PUSH2 0x22FC JUMP JUMPDEST PUSH2 0x9FA JUMP JUMPDEST PUSH2 0x204 PUSH2 0x2CA CALLDATASIZE PUSH1 0x4 PUSH2 0x22FC JUMP JUMPDEST PUSH2 0xA25 JUMP JUMPDEST PUSH2 0x245 PUSH1 0x6 SLOAD DUP2 JUMP JUMPDEST PUSH2 0x204 PUSH2 0x2E6 CALLDATASIZE PUSH1 0x4 PUSH2 0x22AC JUMP JUMPDEST PUSH2 0xA5D JUMP JUMPDEST PUSH1 0x1 SLOAD PUSH1 0xFF AND PUSH2 0x1DC JUMP JUMPDEST PUSH2 0x204 PUSH2 0x304 CALLDATASIZE PUSH1 0x4 PUSH2 0x22AC JUMP JUMPDEST PUSH2 0xC9A JUMP JUMPDEST PUSH2 0x245 PUSH1 0x0 DUP1 MLOAD PUSH1 0x20 PUSH2 0x2910 DUP4 CODECOPY DUP2 MLOAD SWAP2 MSTORE DUP2 JUMP JUMPDEST PUSH2 0x204 PUSH2 0x32C CALLDATASIZE PUSH1 0x4 PUSH2 0x2371 JUMP JUMPDEST PUSH2 0xD27 JUMP JUMPDEST PUSH2 0x204 PUSH2 0xF38 JUMP JUMPDEST PUSH2 0x204 PUSH2 0x347 CALLDATASIZE PUSH1 0x4 PUSH2 0x22AC JUMP JUMPDEST PUSH2 0xF9A JUMP JUMPDEST PUSH2 0x1DC PUSH2 0x35A CALLDATASIZE PUSH1 0x4 PUSH2 0x22FC JUMP JUMPDEST PUSH2 0x13A2 JUMP JUMPDEST PUSH2 0x245 PUSH1 0x0 DUP2 JUMP JUMPDEST PUSH2 0x37A PUSH2 0x375 CALLDATASIZE PUSH1 0x4 PUSH2 0x22AC JUMP JUMPDEST PUSH2 0x13CB JUMP JUMPDEST PUSH1 0x40 MLOAD PUSH2 0x1E8 SWAP7 SWAP6 SWAP5 SWAP4 SWAP3 SWAP2 SWAP1 PUSH2 0x23DB JUMP JUMPDEST PUSH2 0x245 PUSH4 0x1E13380 DUP2 JUMP JUMPDEST PUSH2 0x204 PUSH2 0x3A5 CALLDATASIZE PUSH1 0x4 PUSH2 0x244F JUMP JUMPDEST PUSH2 0x148E JUMP JUMPDEST PUSH2 0x204 PUSH2 0x3B8 CALLDATASIZE PUSH1 0x4 PUSH2 0x2479 JUMP JUMPDEST PUSH2 0x1704 JUMP JUMPDEST PUSH2 0x204 PUSH2 0x197D JUMP JUMPDEST PUSH2 0x245 PUSH32 0xE1DCBDB91DF27212A29BC27177C840CF2F819ECF2187432E1FAC86C2DD5DFCA9 DUP2 JUMP JUMPDEST PUSH2 0x204 PUSH2 0x3FA CALLDATASIZE PUSH1 0x4 PUSH2 0x22FC JUMP JUMPDEST PUSH2 0x1C82 JUMP JUMPDEST PUSH2 0x204 PUSH2 0x40D CALLDATASIZE PUSH1 0x4 PUSH2 0x24DA JUMP JUMPDEST PUSH2 0x1CA7 JUMP JUMPDEST PUSH2 0x45A PUSH2 0x420 CALLDATASIZE PUSH1 0x4 PUSH2 0x22E1 JUMP JUMPDEST PUSH1 0x4 PUSH1 0x20 DUP2 SWAP1 MSTORE PUSH1 0x0 SWAP2 DUP3 MSTORE PUSH1 0x40 SWAP1 SWAP2 KECCAK256 DUP1 SLOAD PUSH1 0x1 DUP3 ADD SLOAD PUSH1 0x2 DUP4 ADD SLOAD PUSH1 0x3 DUP5 ADD SLOAD SWAP5 DUP5 ADD SLOAD PUSH1 0x5 SWAP1 SWAP5 ADD SLOAD PUSH1 0xFF SWAP4 DUP5 AND SWAP6 SWAP3 SWAP5 SWAP2 SWAP4 AND DUP7 JUMP JUMPDEST PUSH1 0x40 DUP1 MLOAD SWAP7 ISZERO ISZERO DUP8 MSTORE PUSH1 0x20 DUP8 ADD SWAP6 SWAP1 SWAP6 MSTORE SWAP4 DUP6 ADD SWAP3 SWAP1 SWAP3 MSTORE PUSH1 0x60 DUP5 ADD MSTORE PUSH1 0x80 DUP4 ADD MSTORE ISZERO ISZERO PUSH1 0xA0 DUP3 ADD MSTORE PUSH1 0xC0 ADD PUSH2 0x1E8 JUMP JUMPDEST PUSH1 0x0 PUSH1 0x1 PUSH1 0x1 PUSH1 0xE0 SHL SUB NOT DUP3 AND PUSH4 0x7965DB0B PUSH1 0xE0 SHL EQ DUP1 PUSH2 0x4BC JUMPI POP PUSH4 0x1FFC9A7 PUSH1 0xE0 SHL PUSH1 0x1 PUSH1 0x1 PUSH1 0xE0 SHL SUB NOT DUP4 AND EQ JUMPDEST SWAP3 SWAP2 POP POP JUMP JUMPDEST PUSH2 0x4CA PUSH2 0x209A JUMP JUMPDEST PUSH2 0x4D2 PUSH2 0x20F1 JUMP JUMPDEST CALLER PUSH1 0x0 SWAP1 DUP2 MSTORE PUSH1 0x4 PUSH1 0x20 MSTORE PUSH1 0x40 SWAP1 KECCAK256 DUP1 SLOAD PUSH1 0xFF AND DUP1 ISZERO PUSH2 0x4F5 JUMPI POP TIMESTAMP DUP2 PUSH1 0x1 ADD SLOAD GT JUMPDEST PUSH2 0x51A JUMPI PUSH1 0x40 MLOAD PUSH3 0x461BCD PUSH1 0xE5 SHL DUP2 MSTORE PUSH1 0x4 ADD PUSH2 0x511 SWAP1 PUSH2 0x254F JUMP JUMPDEST PUSH1 0x40 MLOAD DUP1 SWAP2 SUB SWAP1 REVERT JUMPDEST PUSH1 0x0 DUP3 DUP2 MSTORE PUSH1 0x5 PUSH1 0x20 SWAP1 DUP2 MSTORE PUSH1 0x40 DUP1 DUP4 KECCAK256 DUP2 MLOAD PUSH1 0xC0 DUP2 ADD DUP4 MSTORE DUP2 SLOAD DUP2 MSTORE PUSH1 0x1 DUP3 ADD SLOAD SWAP4 DUP2 ADD SWAP4 SWAP1 SWAP4 MSTORE PUSH1 0x2 DUP2 ADD SLOAD SWAP2 DUP4 ADD SWAP2 SWAP1 SWAP2 MSTORE PUSH1 0x3 DUP2 ADD SLOAD PUSH1 0xFF AND ISZERO ISZERO PUSH1 0x60 DUP4 ADD MSTORE PUSH1 0x4 DUP2 ADD DUP1 SLOAD PUSH1 0x80 DUP5 ADD SWAP2 SWAP1 PUSH2 0x573 SWAP1 PUSH2 0x257F JUMP JUMPDEST DUP1 PUSH1 0x1F ADD PUSH1 0x20 DUP1 SWAP2 DIV MUL PUSH1 0x20 ADD PUSH1 0x40 MLOAD SWAP1 DUP2 ADD PUSH1 0x40 MSTORE DUP1 SWAP3 SWAP2 SWAP1 DUP2 DUP2 MSTORE PUSH1 0x20 ADD DUP3 DUP1 SLOAD PUSH2 0x59F SWAP1 PUSH2 0x257F JUMP JUMPDEST DUP1 ISZERO PUSH2 0x5EC JUMPI DUP1 PUSH1 0x1F LT PUSH2 0x5C1 JUMPI PUSH2 0x100 DUP1 DUP4 SLOAD DIV MUL DUP4 MSTORE SWAP2 PUSH1 0x20 ADD SWAP2 PUSH2 0x5EC JUMP JUMPDEST DUP3 ADD SWAP2 SWAP1 PUSH1 0x0 MSTORE PUSH1 0x20 PUSH1 0x0 KECCAK256 SWAP1 JUMPDEST DUP2 SLOAD DUP2 MSTORE SWAP1 PUSH1 0x1 ADD SWAP1 PUSH1 0x20 ADD DUP1 DUP4 GT PUSH2 0x5CF JUMPI DUP3 SWAP1 SUB PUSH1 0x1F AND DUP3 ADD SWAP2 JUMPDEST POP POP POP POP POP DUP2 MSTORE PUSH1 0x20 ADD PUSH1 0x5 DUP3 ADD SLOAD DUP2 MSTORE POP POP SWAP1 POP DUP1 PUSH1 0x60 ADD MLOAD DUP1 ISZERO PUSH2 0x612 JUMPI POP DUP1 MLOAD ISZERO ISZERO JUMPDEST DUP1 ISZERO PUSH2 0x622 JUMPI POP PUSH1 0x0 DUP2 PUSH1 0x20 ADD MLOAD GT JUMPDEST PUSH2 0x661 JUMPI PUSH1 0x40 MLOAD PUSH3 0x461BCD PUSH1 0xE5 SHL DUP2 MSTORE PUSH1 0x20 PUSH1 0x4 DUP3 ADD MSTORE PUSH1 0x10 PUSH1 0x24 DUP3 ADD MSTORE PUSH16 0x24B73B30B634B2103732BB90383630B7 PUSH1 0x81 SHL PUSH1 0x44 DUP3 ADD MSTORE PUSH1 0x64 ADD PUSH2 0x511 JUMP JUMPDEST PUSH1 0x3 SLOAD PUSH1 0x40 MLOAD PUSH4 0x70A08231 PUSH1 0xE0 SHL DUP2 MSTORE ADDRESS PUSH1 0x4 DUP3 ADD MSTORE PUSH1 0x0 SWAP2 PUSH1 0x1 PUSH1 0x1 PUSH1 0xA0 SHL SUB AND SWAP1 PUSH4 0x70A08231 SWAP1 PUSH1 0x24 ADD PUSH1 0x20 PUSH1 0x40 MLOAD DUP1 DUP4 SUB DUP2 DUP7 GAS STATICCALL ISZERO DUP1 ISZERO PUSH2 0x6AA JUMPI RETURNDATASIZE PUSH1 0x0 DUP1 RETURNDATACOPY RETURNDATASIZE PUSH1 0x0 REVERT JUMPDEST POP POP POP POP PUSH1 0x40 MLOAD RETURNDATASIZE PUSH1 0x1F NOT PUSH1 0x1F DUP3 ADD AND DUP3 ADD DUP1 PUSH1 0x40 MSTORE POP DUP2 ADD SWAP1 PUSH2 0x6CE SWAP2 SWAP1 PUSH2 0x25B9 JUMP JUMPDEST PUSH1 0x3 SLOAD DUP4 MLOAD PUSH1 0x40 MLOAD PUSH4 0x23B872DD PUSH1 0xE0 SHL DUP2 MSTORE CALLER PUSH1 0x4 DUP3 ADD MSTORE ADDRESS PUSH1 0x24 DUP3 ADD MSTORE PUSH1 0x44 DUP2 ADD SWAP2 SWAP1 SWAP2 MSTORE SWAP2 SWAP3 POP PUSH1 0x1 PUSH1 0x1 PUSH1 0xA0 SHL SUB AND SWAP1 PUSH4 0x23B872DD SWAP1 PUSH1 0x64 ADD PUSH1 0x20 PUSH1 0x40 MLOAD DUP1 DUP4 SUB DUP2 PUSH1 0x0 DUP8 GAS CALL ISZERO DUP1 ISZERO PUSH2 0x729 JUMPI RETURNDATASIZE PUSH1 0x0 DUP1 RETURNDATACOPY RETURNDATASIZE PUSH1 0x0 REVERT JUMPDEST POP POP POP POP PUSH1 0x40 MLOAD RETURNDATASIZE PUSH1 0x1F NOT PUSH1 0x1F DUP3 ADD AND DUP3 ADD DUP1 PUSH1 0x40 MSTORE POP DUP2 ADD SWAP1 PUSH2 0x74D SWAP2 SWAP1 PUSH2 0x25D2 JUMP JUMPDEST PUSH2 0x769 JUMPI PUSH1 0x40 MLOAD PUSH3 0x461BCD PUSH1 0xE5 SHL DUP2 MSTORE PUSH1 0x4 ADD PUSH2 0x511 SWAP1 PUSH2 0x25F4 JUMP JUMPDEST DUP2 MLOAD PUSH1 0x3 SLOAD PUSH1 0x40 MLOAD PUSH4 0x70A08231 PUSH1 0xE0 SHL DUP2 MSTORE ADDRESS PUSH1 0x4 DUP3 ADD MSTORE DUP4 SWAP2 PUSH1 0x1 PUSH1 0x1 PUSH1 0xA0 SHL SUB AND SWAP1 PUSH4 0x70A08231 SWAP1 PUSH1 0x24 ADD PUSH1 0x20 PUSH1 0x40 MLOAD DUP1 DUP4 SUB DUP2 DUP7 GAS STATICCALL ISZERO DUP1 ISZERO PUSH2 0x7B3 JUMPI RETURNDATASIZE PUSH1 0x0 DUP1 RETURNDATACOPY RETURNDATASIZE PUSH1 0x0 REVERT JUMPDEST POP POP POP POP PUSH1 0x40 MLOAD RETURNDATASIZE PUSH1 0x1F NOT PUSH1 0x1F DUP3 ADD AND DUP3 ADD DUP1 PUSH1 0x40 MSTORE POP DUP2 ADD SWAP1 PUSH2 0x7D7 SWAP2 SWAP1 PUSH2 0x25B9 JUMP JUMPDEST PUSH2 0x7E1 SWAP2 SWAP1 PUSH2 0x2638 JUMP JUMPDEST LT ISZERO PUSH2 0x82F JUMPI PUSH1 0x40 MLOAD PUSH3 0x461BCD PUSH1 0xE5 SHL DUP2 MSTORE PUSH1 0x20 PUSH1 0x4 DUP3 ADD MSTORE PUSH1 0x1F PUSH1 0x24 DUP3 ADD MSTORE PUSH32 0x526563656976656420616D6F756E74206C657373207468616E20707269636500 PUSH1 0x44 DUP3 ADD MSTORE PUSH1 0x64 ADD PUSH2 0x511 JUMP JUMPDEST PUSH1 0x2 DUP4 ADD DUP5 SWAP1 SSTORE PUSH1 0xA0 DUP3 ADD MLOAD PUSH1 0x3 DUP5 ADD SSTORE PUSH1 0x20 DUP3 ADD MLOAD PUSH2 0x84F SWAP1 TIMESTAMP PUSH2 0x264B JUMP JUMPDEST PUSH1 0x1 DUP5 ADD DUP2 SWAP1 SSTORE TIMESTAMP PUSH1 0x4 DUP6 ADD SSTORE DUP3 MLOAD PUSH1 0x20 DUP1 DUP6 ADD MLOAD PUSH1 0xA0 DUP1 DUP8 ADD MLOAD PUSH1 0x40 DUP1 MLOAD DUP12 DUP2 MSTORE SWAP5 DUP6 ADD SWAP7 SWAP1 SWAP7 MSTORE SWAP5 DUP4 ADD SWAP4 SWAP1 SWAP4 MSTORE PUSH1 0x60 DUP3 ADD MSTORE PUSH1 0x80 DUP2 ADD SWAP3 SWAP1 SWAP3 MSTORE CALLER SWAP2 PUSH32 0x69C719AF4EA46CCA8C932184A3E30A956161742ED2332E6EBF6703327D799284 SWAP2 ADD PUSH1 0x40 MLOAD DUP1 SWAP2 SUB SWAP1 LOG2 POP POP POP PUSH2 0x8C6 PUSH1 0x1 PUSH1 0x2 SSTORE JUMP JUMPDEST POP JUMP JUMPDEST PUSH1 0x1 PUSH1 0x1 PUSH1 0xA0 SHL SUB DUP2 AND PUSH1 0x0 SWAP1 DUP2 MSTORE PUSH1 0x4 PUSH1 0x20 DUP2 DUP2 MSTORE PUSH1 0x40 DUP1 DUP5 KECCAK256 DUP2 MLOAD PUSH1 0xC0 DUP2 ADD DUP4 MSTORE DUP2 SLOAD PUSH1 0xFF SWAP1 DUP2 AND ISZERO DUP1 ISZERO DUP1 DUP5 MSTORE PUSH1 0x1 DUP6 ADD SLOAD SWAP7 DUP5 ADD SWAP7 SWAP1 SWAP7 MSTORE PUSH1 0x2 DUP5 ADD SLOAD SWAP5 DUP4 ADD SWAP5 SWAP1 SWAP5 MSTORE PUSH1 0x3 DUP4 ADD SLOAD PUSH1 0x60 DUP4 ADD MSTORE SWAP5 DUP3 ADD SLOAD PUSH1 0x80 DUP3 ADD MSTORE PUSH1 0x5 SWAP1 SWAP2 ADD SLOAD SWAP1 SWAP4 AND ISZERO ISZERO PUSH1 0xA0 DUP5 ADD MSTORE DUP4 SWAP3 DUP4 SWAP3 DUP4 SWAP3 DUP4 SWAP2 SWAP1 PUSH2 0x94A JUMPI POP TIMESTAMP DUP3 PUSH1 0x20 ADD MLOAD GT JUMPDEST PUSH1 0x20 DUP4 ADD MLOAD PUSH1 0x40 DUP5 ADD MLOAD PUSH1 0x60 SWAP1 SWAP5 ADD MLOAD SWAP2 SWAP10 SWAP1 SWAP9 POP SWAP3 SWAP7 POP SWAP5 POP SWAP1 SWAP3 POP POP POP JUMP JUMPDEST CALLER PUSH1 0x0 SWAP1 DUP2 MSTORE PUSH1 0x4 PUSH1 0x20 MSTORE PUSH1 0x40 SWAP1 KECCAK256 DUP1 SLOAD PUSH1 0xFF AND PUSH2 0x99B JUMPI PUSH1 0x40 MLOAD PUSH3 0x461BCD PUSH1 0xE5 SHL DUP2 MSTORE PUSH1 0x4 ADD PUSH2 0x511 SWAP1 PUSH2 0x254F JUMP JUMPDEST DUP1 SLOAD PUSH1 0xFF NOT SWAP1 DUP2 AND DUP3 SSTORE PUSH1 0x0 PUSH1 0x1 DUP4 ADD DUP2 SWAP1 SSTORE PUSH1 0x2 DUP4 ADD DUP2 SWAP1 SSTORE PUSH1 0x3 DUP4 ADD DUP2 SWAP1 SSTORE PUSH1 0x4 DUP4 ADD DUP2 SWAP1 SSTORE PUSH1 0x5 DUP4 ADD DUP1 SLOAD SWAP1 SWAP3 AND SWAP1 SWAP2 SSTORE PUSH1 0x40 MLOAD CALLER SWAP2 PUSH32 0x71215198E3F86C24DC3AF6D0D7F84D0095E5EE736AA56DAF9927FAE51935E95D SWAP2 LOG2 POP JUMP JUMPDEST PUSH1 0x0 DUP3 DUP2 MSTORE PUSH1 0x20 DUP2 SWAP1 MSTORE PUSH1 0x40 SWAP1 KECCAK256 PUSH1 0x1 ADD SLOAD PUSH2 0xA15 DUP2 PUSH2 0x2137 JUMP JUMPDEST PUSH2 0xA1F DUP4 DUP4 PUSH2 0x2141 JUMP JUMPDEST POP POP POP POP JUMP JUMPDEST PUSH1 0x1 PUSH1 0x1 PUSH1 0xA0 SHL SUB DUP2 AND CALLER EQ PUSH2 0xA4E JUMPI PUSH1 0x40 MLOAD PUSH4 0x334BD919 PUSH1 0xE1 SHL DUP2 MSTORE PUSH1 0x4 ADD PUSH1 0x40 MLOAD DUP1 SWAP2 SUB SWAP1 REVERT JUMPDEST PUSH2 0xA58 DUP3 DUP3 PUSH2 0x21D3 JUMP JUMPDEST POP POP POP JUMP JUMPDEST PUSH2 0xA65 PUSH2 0x209A JUMP JUMPDEST PUSH2 0xA6D PUSH2 0x20F1 JUMP JUMPDEST PUSH1 0x0 DUP2 DUP2 MSTORE PUSH1 0x5 PUSH1 0x20 SWAP1 DUP2 MSTORE PUSH1 0x40 DUP1 DUP4 KECCAK256 DUP2 MLOAD PUSH1 0xC0 DUP2 ADD DUP4 MSTORE DUP2 SLOAD DUP2 MSTORE PUSH1 0x1 DUP3 ADD SLOAD SWAP4 DUP2 ADD SWAP4 SWAP1 SWAP4 MSTORE PUSH1 0x2 DUP2 ADD SLOAD SWAP2 DUP4 ADD SWAP2 SWAP1 SWAP2 MSTORE PUSH1 0x3 DUP2 ADD SLOAD PUSH1 0xFF AND ISZERO ISZERO PUSH1 0x60 DUP4 ADD MSTORE PUSH1 0x4 DUP2 ADD DUP1 SLOAD PUSH1 0x80 DUP5 ADD SWAP2 SWAP1 PUSH2 0xAC6 SWAP1 PUSH2 0x257F JUMP JUMPDEST DUP1 PUSH1 0x1F ADD PUSH1 0x20 DUP1 SWAP2 DIV MUL PUSH1 0x20 ADD PUSH1 0x40 MLOAD SWAP1 DUP2 ADD PUSH1 0x40 MSTORE DUP1 SWAP3 SWAP2 SWAP1 DUP2 DUP2 MSTORE PUSH1 0x20 ADD DUP3 DUP1 SLOAD PUSH2 0xAF2 SWAP1 PUSH2 0x257F JUMP JUMPDEST DUP1 ISZERO PUSH2 0xB3F JUMPI DUP1 PUSH1 0x1F LT PUSH2 0xB14 JUMPI PUSH2 0x100 DUP1 DUP4 SLOAD DIV MUL DUP4 MSTORE SWAP2 PUSH1 0x20 ADD SWAP2 PUSH2 0xB3F JUMP JUMPDEST DUP3 ADD SWAP2 SWAP1 PUSH1 0x0 MSTORE PUSH1 0x20 PUSH1 0x0 KECCAK256 SWAP1 JUMPDEST DUP2 SLOAD DUP2 MSTORE SWAP1 PUSH1 0x1 ADD SWAP1 PUSH1 0x20 ADD DUP1 DUP4 GT PUSH2 0xB22 JUMPI DUP3 SWAP1 SUB PUSH1 0x1F AND DUP3 ADD SWAP2 JUMPDEST POP POP POP POP POP DUP2 MSTORE PUSH1 0x20 ADD PUSH1 0x5 DUP3 ADD SLOAD DUP2 MSTORE POP POP SWAP1 POP DUP1 PUSH1 0x60 ADD MLOAD DUP1 ISZERO PUSH2 0xB69 JUMPI POP PUSH1 0x0 DUP2 PUSH1 0x40 ADD MLOAD GT JUMPDEST PUSH2 0xBAA JUMPI PUSH1 0x40 MLOAD PUSH3 0x461BCD PUSH1 0xE5 SHL DUP2 MSTORE PUSH1 0x20 PUSH1 0x4 DUP3 ADD MSTORE PUSH1 0x12 PUSH1 0x24 DUP3 ADD MSTORE PUSH18 0x4E6F20747269616C20617661696C61626C65 PUSH1 0x70 SHL PUSH1 0x44 DUP3 ADD MSTORE PUSH1 0x64 ADD PUSH2 0x511 JUMP JUMPDEST CALLER PUSH1 0x0 SWAP1 DUP2 MSTORE PUSH1 0x4 PUSH1 0x20 MSTORE PUSH1 0x40 SWAP1 KECCAK256 DUP1 SLOAD PUSH1 0xFF AND ISZERO PUSH2 0xC00 JUMPI PUSH1 0x40 MLOAD PUSH3 0x461BCD PUSH1 0xE5 SHL DUP2 MSTORE PUSH1 0x20 PUSH1 0x4 DUP3 ADD MSTORE PUSH1 0x12 PUSH1 0x24 DUP3 ADD MSTORE PUSH18 0x105B1C9958591E481CDD589CD8DC9A589959 PUSH1 0x72 SHL PUSH1 0x44 DUP3 ADD MSTORE PUSH1 0x64 ADD PUSH2 0x511 JUMP JUMPDEST DUP1 SLOAD PUSH1 0xFF NOT AND PUSH1 0x1 OR DUP2 SSTORE PUSH1 0x40 DUP3 ADD MLOAD PUSH2 0xC1A SWAP1 TIMESTAMP PUSH2 0x264B JUMP JUMPDEST PUSH1 0x1 DUP3 ADD DUP2 SWAP1 SSTORE PUSH1 0x2 DUP3 ADD DUP5 SWAP1 SSTORE PUSH1 0xA0 DUP4 DUP2 ADD MLOAD PUSH1 0x3 DUP5 ADD DUP2 SWAP1 SSTORE TIMESTAMP PUSH1 0x4 DUP6 ADD SSTORE PUSH1 0x40 DUP1 DUP7 ADD MLOAD DUP2 MLOAD DUP9 DUP2 MSTORE PUSH1 0x20 DUP2 ADD SWAP6 SWAP1 SWAP6 MSTORE PUSH1 0x0 SWAP2 DUP6 ADD SWAP2 SWAP1 SWAP2 MSTORE PUSH1 0x60 DUP5 ADD MSTORE PUSH1 0x80 DUP4 ADD MSTORE CALLER SWAP2 PUSH32 0x69C719AF4EA46CCA8C932184A3E30A956161742ED2332E6EBF6703327D799284 SWAP2 ADD PUSH1 0x40 MLOAD DUP1 SWAP2 SUB SWAP1 LOG2 POP POP PUSH2 0x8C6 PUSH1 0x1 PUSH1 0x2 SSTORE JUMP JUMPDEST PUSH1 0x0 DUP1 MLOAD PUSH1 0x20 PUSH2 0x2910 DUP4 CODECOPY DUP2 MLOAD SWAP2 MSTORE PUSH2 0xCB2 DUP2 PUSH2 0x2137 JUMP JUMPDEST PUSH1 0x0 DUP3 DUP2 MSTORE PUSH1 0x5 PUSH1 0x20 MSTORE PUSH1 0x40 SWAP1 KECCAK256 PUSH1 0x3 ADD SLOAD PUSH1 0xFF AND PUSH2 0xCE3 JUMPI PUSH1 0x40 MLOAD PUSH3 0x461BCD PUSH1 0xE5 SHL DUP2 MSTORE PUSH1 0x4 ADD PUSH2 0x511 SWAP1 PUSH2 0x265E JUMP JUMPDEST PUSH1 0x0 DUP3 DUP2 MSTORE PUSH1 0x5 PUSH1 0x20 MSTORE PUSH1 0x40 DUP1 DUP3 KECCAK256 PUSH1 0x3 ADD DUP1 SLOAD PUSH1 0xFF NOT AND SWAP1 SSTORE MLOAD DUP4 SWAP2 PUSH32 0x9D249762CCCBDA1C5E13D7D903A7FD4D9787CEBC8B34172EFBF22B612E90C14C SWAP2 LOG2 POP POP JUMP JUMPDEST PUSH1 0x0 DUP1 MLOAD PUSH1 0x20 PUSH2 0x2910 DUP4 CODECOPY DUP2 MLOAD SWAP2 MSTORE PUSH2 0xD3F DUP2 PUSH2 0x2137 JUMP JUMPDEST PUSH1 0x0 DUP8 DUP2 MSTORE PUSH1 0x5 PUSH1 0x20 MSTORE PUSH1 0x40 SWAP1 KECCAK256 PUSH1 0x3 DUP2 ADD SLOAD PUSH1 0xFF AND PUSH2 0xD71 JUMPI PUSH1 0x40 MLOAD PUSH3 0x461BCD PUSH1 0xE5 SHL DUP2 MSTORE PUSH1 0x4 ADD PUSH2 0x511 SWAP1 PUSH2 0x265E JUMP JUMPDEST PUSH1 0x0 DUP8 GT DUP1 PUSH2 0xD80 JUMPI POP PUSH1 0x0 DUP6 GT JUMPDEST PUSH2 0xDC6 JUMPI PUSH1 0x40 MLOAD PUSH3 0x461BCD PUSH1 0xE5 SHL DUP2 MSTORE PUSH1 0x20 PUSH1 0x4 DUP3 ADD MSTORE PUSH1 0x17 PUSH1 0x24 DUP3 ADD MSTORE PUSH23 0x141C9A58D9481BDC881D1C9A585B081C995C5D5A5C9959 PUSH1 0x4A SHL PUSH1 0x44 DUP3 ADD MSTORE PUSH1 0x64 ADD PUSH2 0x511 JUMP JUMPDEST PUSH1 0x0 DUP7 GT DUP1 ISZERO PUSH2 0xDDA JUMPI POP PUSH4 0x1E13380 DUP7 GT ISZERO JUMPDEST PUSH2 0xE1F JUMPI PUSH1 0x40 MLOAD PUSH3 0x461BCD PUSH1 0xE5 SHL DUP2 MSTORE PUSH1 0x20 PUSH1 0x4 DUP3 ADD MSTORE PUSH1 0x16 PUSH1 0x24 DUP3 ADD MSTORE PUSH22 0x4475726174696F6E206F7574206F6620626F756E6473 PUSH1 0x50 SHL PUSH1 0x44 DUP3 ADD MSTORE PUSH1 0x64 ADD PUSH2 0x511 JUMP JUMPDEST DUP6 DUP6 GT ISZERO PUSH2 0xE68 JUMPI PUSH1 0x40 MLOAD PUSH3 0x461BCD PUSH1 0xE5 SHL DUP2 MSTORE PUSH1 0x20 PUSH1 0x4 DUP3 ADD MSTORE PUSH1 0x16 PUSH1 0x24 DUP3 ADD MSTORE PUSH22 0x2A3934B0B61032BC31B2B2B23990323AB930BA34B7B7 PUSH1 0x51 SHL PUSH1 0x44 DUP3 ADD MSTORE PUSH1 0x64 ADD PUSH2 0x511 JUMP JUMPDEST PUSH1 0x64 DUP4 GT ISZERO PUSH2 0xEAD JUMPI PUSH1 0x40 MLOAD PUSH3 0x461BCD PUSH1 0xE5 SHL DUP2 MSTORE PUSH1 0x20 PUSH1 0x4 DUP3 ADD MSTORE PUSH1 0x11 PUSH1 0x24 DUP3 ADD MSTORE PUSH17 0x42656E656669747320746F6F206C6F6E67 PUSH1 0x78 SHL PUSH1 0x44 DUP3 ADD MSTORE PUSH1 0x64 ADD PUSH2 0x511 JUMP JUMPDEST DUP7 DUP2 SSTORE PUSH1 0x1 DUP2 ADD DUP7 SWAP1 SSTORE PUSH1 0x2 DUP2 ADD DUP6 SWAP1 SSTORE PUSH1 0x4 DUP2 ADD PUSH2 0xECD DUP5 DUP7 DUP4 PUSH2 0x2704 JUMP JUMPDEST POP PUSH1 0x1 DUP2 PUSH1 0x5 ADD PUSH1 0x0 DUP3 DUP3 SLOAD PUSH2 0xEE3 SWAP2 SWAP1 PUSH2 0x264B JUMP JUMPDEST SWAP3 POP POP DUP2 SWAP1 SSTORE POP DUP8 PUSH32 0x6C70FDAFE6EFDD158F0115013B98F9CC8071F9B91F26E100C3D2F68245C32673 DUP9 DUP9 DUP8 DUP8 DUP7 PUSH1 0x5 ADD SLOAD PUSH1 0x40 MLOAD PUSH2 0xF26 SWAP6 SWAP5 SWAP4 SWAP3 SWAP2 SWAP1 PUSH2 0x27EE JUMP JUMPDEST PUSH1 0x40 MLOAD DUP1 SWAP2 SUB SWAP1 LOG2 POP POP POP POP POP POP POP POP JUMP JUMPDEST CALLER PUSH1 0x0 DUP2 DUP2 MSTORE PUSH1 0x4 PUSH1 0x20 SWAP1 DUP2 MSTORE PUSH1 0x40 SWAP2 DUP3 SWAP1 KECCAK256 PUSH1 0x5 DUP2 ADD DUP1 SLOAD PUSH1 0xFF DUP1 DUP3 AND ISZERO PUSH1 0xFF NOT SWAP1 SWAP3 AND DUP3 OR SWAP1 SWAP3 SSTORE SWAP4 MLOAD SWAP4 AND ISZERO ISZERO DUP4 MSTORE SWAP3 SWAP2 PUSH32 0x37FF880F3C2C6E3296BAC1DFA534AC207E04DC7B8725592B2DCA2D4DA646DC59 SWAP2 ADD PUSH1 0x40 MLOAD DUP1 SWAP2 SUB SWAP1 LOG2 POP JUMP JUMPDEST PUSH2 0xFA2 PUSH2 0x209A JUMP JUMPDEST PUSH2 0xFAA PUSH2 0x20F1 JUMP JUMPDEST PUSH1 0x0 DUP2 DUP2 MSTORE PUSH1 0x5 PUSH1 0x20 SWAP1 DUP2 MSTORE PUSH1 0x40 DUP1 DUP4 KECCAK256 DUP2 MLOAD PUSH1 0xC0 DUP2 ADD DUP4 MSTORE DUP2 SLOAD DUP2 MSTORE PUSH1 0x1 DUP3 ADD SLOAD SWAP4 DUP2 ADD SWAP4 SWAP1 SWAP4 MSTORE PUSH1 0x2 DUP2 ADD SLOAD SWAP2 DUP4 ADD SWAP2 SWAP1 SWAP2 MSTORE PUSH1 0x3 DUP2 ADD SLOAD PUSH1 0xFF AND ISZERO ISZERO PUSH1 0x60 DUP4 ADD MSTORE PUSH1 0x4 DUP2 ADD DUP1 SLOAD PUSH1 0x80 DUP5 ADD SWAP2 SWAP1 PUSH2 0x1003 SWAP1 PUSH2 0x257F JUMP JUMPDEST DUP1 PUSH1 0x1F ADD PUSH1 0x20 DUP1 SWAP2 DIV MUL PUSH1 0x20 ADD PUSH1 0x40 MLOAD SWAP1 DUP2 ADD PUSH1 0x40 MSTORE DUP1 SWAP3 SWAP2 SWAP1 DUP2 DUP2 MSTORE PUSH1 0x20 ADD DUP3 DUP1 SLOAD PUSH2 0x102F SWAP1 PUSH2 0x257F JUMP JUMPDEST DUP1 ISZERO PUSH2 0x107C JUMPI DUP1 PUSH1 0x1F LT PUSH2 0x1051 JUMPI PUSH2 0x100 DUP1 DUP4 SLOAD DIV MUL DUP4 MSTORE SWAP2 PUSH1 0x20 ADD SWAP2 PUSH2 0x107C JUMP JUMPDEST DUP3 ADD SWAP2 SWAP1 PUSH1 0x0 MSTORE PUSH1 0x20 PUSH1 0x0 KECCAK256 SWAP1 JUMPDEST DUP2 SLOAD DUP2 MSTORE SWAP1 PUSH1 0x1 ADD SWAP1 PUSH1 0x20 ADD DUP1 DUP4 GT PUSH2 0x105F JUMPI DUP3 SWAP1 SUB PUSH1 0x1F AND DUP3 ADD SWAP2 JUMPDEST POP POP POP POP POP DUP2 MSTORE PUSH1 0x20 ADD PUSH1 0x5 DUP3 ADD SLOAD DUP2 MSTORE POP POP SWAP1 POP DUP1 PUSH1 0x60 ADD MLOAD DUP1 ISZERO PUSH2 0x10A2 JUMPI POP DUP1 MLOAD ISZERO ISZERO JUMPDEST DUP1 ISZERO PUSH2 0x10B2 JUMPI POP PUSH1 0x0 DUP2 PUSH1 0x20 ADD MLOAD GT JUMPDEST PUSH2 0x10ED JUMPI PUSH1 0x40 MLOAD PUSH3 0x461BCD PUSH1 0xE5 SHL DUP2 MSTORE PUSH1 0x20 PUSH1 0x4 DUP3 ADD MSTORE PUSH1 0xC PUSH1 0x24 DUP3 ADD MSTORE PUSH12 0x24B73B30B634B210383630B7 PUSH1 0xA1 SHL PUSH1 0x44 DUP3 ADD MSTORE PUSH1 0x64 ADD PUSH2 0x511 JUMP JUMPDEST PUSH1 0x3 SLOAD PUSH1 0x40 MLOAD PUSH4 0x70A08231 PUSH1 0xE0 SHL DUP2 MSTORE ADDRESS PUSH1 0x4 DUP3 ADD MSTORE PUSH1 0x0 SWAP2 PUSH1 0x1 PUSH1 0x1 PUSH1 0xA0 SHL SUB AND SWAP1 PUSH4 0x70A08231 SWAP1 PUSH1 0x24 ADD PUSH1 0x20 PUSH1 0x40 MLOAD DUP1 DUP4 SUB DUP2 DUP7 GAS STATICCALL ISZERO DUP1 ISZERO PUSH2 0x1136 JUMPI RETURNDATASIZE PUSH1 0x0 DUP1 RETURNDATACOPY RETURNDATASIZE PUSH1 0x0 REVERT JUMPDEST POP POP POP POP PUSH1 0x40 MLOAD RETURNDATASIZE PUSH1 0x1F NOT PUSH1 0x1F DUP3 ADD AND DUP3 ADD DUP1 PUSH1 0x40 MSTORE POP DUP2 ADD SWAP1 PUSH2 0x115A SWAP2 SWAP1 PUSH2 0x25B9 JUMP JUMPDEST PUSH1 0x3 SLOAD DUP4 MLOAD PUSH1 0x40 MLOAD PUSH4 0x23B872DD PUSH1 0xE0 SHL DUP2 MSTORE CALLER PUSH1 0x4 DUP3 ADD MSTORE ADDRESS PUSH1 0x24 DUP3 ADD MSTORE PUSH1 0x44 DUP2 ADD SWAP2 SWAP1 SWAP2 MSTORE SWAP2 SWAP3 POP PUSH1 0x1 PUSH1 0x1 PUSH1 0xA0 SHL SUB AND SWAP1 PUSH4 0x23B872DD SWAP1 PUSH1 0x64 ADD PUSH1 0x20 PUSH1 0x40 MLOAD DUP1 DUP4 SUB DUP2 PUSH1 0x0 DUP8 GAS CALL ISZERO DUP1 ISZERO PUSH2 0x11B5 JUMPI RETURNDATASIZE PUSH1 0x0 DUP1 RETURNDATACOPY RETURNDATASIZE PUSH1 0x0 REVERT JUMPDEST POP POP POP POP PUSH1 0x40 MLOAD RETURNDATASIZE PUSH1 0x1F NOT PUSH1 0x1F DUP3 ADD AND DUP3 ADD DUP1 PUSH1 0x40 MSTORE POP DUP2 ADD SWAP1 PUSH2 0x11D9 SWAP2 SWAP1 PUSH2 0x25D2 JUMP JUMPDEST PUSH2 0x11F5 JUMPI PUSH1 0x40 MLOAD PUSH3 0x461BCD PUSH1 0xE5 SHL DUP2 MSTORE PUSH1 0x4 ADD PUSH2 0x511 SWAP1 PUSH2 0x25F4 JUMP JUMPDEST DUP2 MLOAD PUSH1 0x3 SLOAD PUSH1 0x40 MLOAD PUSH4 0x70A08231 PUSH1 0xE0 SHL DUP2 MSTORE ADDRESS PUSH1 0x4 DUP3 ADD MSTORE DUP4 SWAP2 PUSH1 0x1 PUSH1 0x1 PUSH1 0xA0 SHL SUB AND SWAP1 PUSH4 0x70A08231 SWAP1 PUSH1 0x24 ADD PUSH1 0x20 PUSH1 0x40 MLOAD DUP1 DUP4 SUB DUP2 DUP7 GAS STATICCALL ISZERO DUP1 ISZERO PUSH2 0x123F JUMPI RETURNDATASIZE PUSH1 0x0 DUP1 RETURNDATACOPY RETURNDATASIZE PUSH1 0x0 REVERT JUMPDEST POP POP POP POP PUSH1 0x40 MLOAD RETURNDATASIZE PUSH1 0x1F NOT PUSH1 0x1F DUP3 ADD AND DUP3 ADD DUP1 PUSH1 0x40 MSTORE POP DUP2 ADD SWAP1 PUSH2 0x1263 SWAP2 SWAP1 PUSH2 0x25B9 JUMP JUMPDEST PUSH2 0x126D SWAP2 SWAP1 PUSH2 0x2638 JUMP JUMPDEST LT ISZERO PUSH2 0x12BB JUMPI PUSH1 0x40 MLOAD PUSH3 0x461BCD PUSH1 0xE5 SHL DUP2 MSTORE PUSH1 0x20 PUSH1 0x4 DUP3 ADD MSTORE PUSH1 0x1F PUSH1 0x24 DUP3 ADD MSTORE PUSH32 0x526563656976656420616D6F756E74206C657373207468616E20707269636500 PUSH1 0x44 DUP3 ADD MSTORE PUSH1 0x64 ADD PUSH2 0x511 JUMP JUMPDEST CALLER PUSH1 0x0 SWAP1 DUP2 MSTORE PUSH1 0x4 PUSH1 0x20 MSTORE PUSH1 0x40 DUP2 KECCAK256 DUP1 SLOAD SWAP1 SWAP2 SWAP1 PUSH1 0xFF AND DUP1 ISZERO PUSH2 0x12E1 JUMPI POP TIMESTAMP DUP3 PUSH1 0x1 ADD SLOAD GT JUMPDEST PUSH2 0x12F9 JUMPI PUSH1 0x20 DUP5 ADD MLOAD PUSH2 0x12F4 SWAP1 TIMESTAMP PUSH2 0x264B JUMP JUMPDEST PUSH2 0x130D JUMP JUMPDEST DUP4 PUSH1 0x20 ADD MLOAD DUP3 PUSH1 0x1 ADD SLOAD PUSH2 0x130D SWAP2 SWAP1 PUSH2 0x264B JUMP JUMPDEST DUP3 SLOAD PUSH1 0xFF NOT AND PUSH1 0x1 SWAP1 DUP2 OR DUP5 SSTORE DUP4 ADD DUP2 SWAP1 SSTORE PUSH1 0x2 DUP4 ADD DUP7 SWAP1 SSTORE PUSH1 0xA0 DUP6 DUP2 ADD MLOAD PUSH1 0x3 DUP6 ADD DUP2 SWAP1 SSTORE TIMESTAMP PUSH1 0x4 DUP7 ADD SSTORE DUP7 MLOAD PUSH1 0x20 DUP1 DUP10 ADD MLOAD PUSH1 0x40 DUP1 MLOAD DUP13 DUP2 MSTORE SWAP3 DUP4 ADD DUP8 SWAP1 MSTORE DUP3 ADD SWAP3 SWAP1 SWAP3 MSTORE PUSH1 0x60 DUP2 ADD SWAP2 SWAP1 SWAP2 MSTORE PUSH1 0x80 DUP2 ADD SWAP2 SWAP1 SWAP2 MSTORE SWAP2 SWAP3 POP CALLER SWAP2 PUSH32 0x69C719AF4EA46CCA8C932184A3E30A956161742ED2332E6EBF6703327D799284 SWAP2 ADD PUSH1 0x40 MLOAD DUP1 SWAP2 SUB SWAP1 LOG2 POP POP POP POP PUSH2 0x8C6 PUSH1 0x1 PUSH1 0x2 SSTORE JUMP JUMPDEST PUSH1 0x0 SWAP2 DUP3 MSTORE PUSH1 0x20 DUP3 DUP2 MSTORE PUSH1 0x40 DUP1 DUP5 KECCAK256 PUSH1 0x1 PUSH1 0x1 PUSH1 0xA0 SHL SUB SWAP4 SWAP1 SWAP4 AND DUP5 MSTORE SWAP2 SWAP1 MSTORE SWAP1 KECCAK256 SLOAD PUSH1 0xFF AND SWAP1 JUMP JUMPDEST PUSH1 0x5 PUSH1 0x20 MSTORE PUSH1 0x0 SWAP1 DUP2 MSTORE PUSH1 0x40 SWAP1 KECCAK256 DUP1 SLOAD PUSH1 0x1 DUP3 ADD SLOAD PUSH1 0x2 DUP4 ADD SLOAD PUSH1 0x3 DUP5 ADD SLOAD PUSH1 0x4 DUP6 ADD DUP1 SLOAD SWAP5 SWAP6 SWAP4 SWAP5 SWAP3 SWAP4 PUSH1 0xFF SWAP1 SWAP3 AND SWAP3 PUSH2 0x1405 SWAP1 PUSH2 0x257F JUMP JUMPDEST DUP1 PUSH1 0x1F ADD PUSH1 0x20 DUP1 SWAP2 DIV MUL PUSH1 0x20 ADD PUSH1 0x40 MLOAD SWAP1 DUP2 ADD PUSH1 0x40 MSTORE DUP1 SWAP3 SWAP2 SWAP1 DUP2 DUP2 MSTORE PUSH1 0x20 ADD DUP3 DUP1 SLOAD PUSH2 0x1431 SWAP1 PUSH2 0x257F JUMP JUMPDEST DUP1 ISZERO PUSH2 0x147E JUMPI DUP1 PUSH1 0x1F LT PUSH2 0x1453 JUMPI PUSH2 0x100 DUP1 DUP4 SLOAD DIV MUL DUP4 MSTORE SWAP2 PUSH1 0x20 ADD SWAP2 PUSH2 0x147E JUMP JUMPDEST DUP3 ADD SWAP2 SWAP1 PUSH1 0x0 MSTORE PUSH1 0x20 PUSH1 0x0 KECCAK256 SWAP1 JUMPDEST DUP2 SLOAD DUP2 MSTORE SWAP1 PUSH1 0x1 ADD SWAP1 PUSH1 0x20 ADD DUP1 DUP4 GT PUSH2 0x1461 JUMPI DUP3 SWAP1 SUB PUSH1 0x1F AND DUP3 ADD SWAP2 JUMPDEST POP POP POP POP POP SWAP1 DUP1 PUSH1 0x5 ADD SLOAD SWAP1 POP DUP7 JUMP JUMPDEST PUSH32 0xE1DCBDB91DF27212A29BC27177C840CF2F819ECF2187432E1FAC86C2DD5DFCA9 PUSH2 0x14B8 DUP2 PUSH2 0x2137 JUMP JUMPDEST PUSH2 0x14C0 PUSH2 0x209A JUMP JUMPDEST PUSH2 0x14C8 PUSH2 0x20F1 JUMP JUMPDEST PUSH1 0x1 PUSH1 0x1 PUSH1 0xA0 SHL SUB DUP4 AND PUSH2 0x151E JUMPI PUSH1 0x40 MLOAD PUSH3 0x461BCD PUSH1 0xE5 SHL DUP2 MSTORE PUSH1 0x20 PUSH1 0x4 DUP3 ADD MSTORE PUSH1 0x19 PUSH1 0x24 DUP3 ADD MSTORE PUSH32 0x496E76616C696420726563697069656E74206164647265737300000000000000 PUSH1 0x44 DUP3 ADD MSTORE PUSH1 0x64 ADD PUSH2 0x511 JUMP JUMPDEST PUSH1 0x0 DUP3 GT PUSH2 0x156E JUMPI PUSH1 0x40 MLOAD PUSH3 0x461BCD PUSH1 0xE5 SHL DUP2 MSTORE PUSH1 0x20 PUSH1 0x4 DUP3 ADD MSTORE PUSH1 0x1D PUSH1 0x24 DUP3 ADD MSTORE PUSH32 0x416D6F756E74206D7573742062652067726561746572207468616E2030000000 PUSH1 0x44 DUP3 ADD MSTORE PUSH1 0x64 ADD PUSH2 0x511 JUMP JUMPDEST PUSH1 0x3 SLOAD PUSH1 0x40 MLOAD PUSH4 0x70A08231 PUSH1 0xE0 SHL DUP2 MSTORE ADDRESS PUSH1 0x4 DUP3 ADD MSTORE DUP4 SWAP2 PUSH1 0x1 PUSH1 0x1 PUSH1 0xA0 SHL SUB AND SWAP1 PUSH4 0x70A08231 SWAP1 PUSH1 0x24 ADD PUSH1 0x20 PUSH1 0x40 MLOAD DUP1 DUP4 SUB DUP2 DUP7 GAS STATICCALL ISZERO DUP1 ISZERO PUSH2 0x15B6 JUMPI RETURNDATASIZE PUSH1 0x0 DUP1 RETURNDATACOPY RETURNDATASIZE PUSH1 0x0 REVERT JUMPDEST POP POP POP POP PUSH1 0x40 MLOAD RETURNDATASIZE PUSH1 0x1F NOT PUSH1 0x1F DUP3 ADD AND DUP3 ADD DUP1 PUSH1 0x40 MSTORE POP DUP2 ADD SWAP1 PUSH2 0x15DA SWAP2 SWAP1 PUSH2 0x25B9 JUMP JUMPDEST LT ISZERO PUSH2 0x161F JUMPI PUSH1 0x40 MLOAD PUSH3 0x461BCD PUSH1 0xE5 SHL DUP2 MSTORE PUSH1 0x20 PUSH1 0x4 DUP3 ADD MSTORE PUSH1 0x14 PUSH1 0x24 DUP3 ADD MSTORE PUSH20 0x496E73756666696369656E742062616C616E6365 PUSH1 0x60 SHL PUSH1 0x44 DUP3 ADD MSTORE PUSH1 0x64 ADD PUSH2 0x511 JUMP JUMPDEST PUSH1 0x3 SLOAD PUSH1 0x40 MLOAD PUSH4 0xA9059CBB PUSH1 0xE0 SHL DUP2 MSTORE PUSH1 0x1 PUSH1 0x1 PUSH1 0xA0 SHL SUB DUP6 DUP2 AND PUSH1 0x4 DUP4 ADD MSTORE PUSH1 0x24 DUP3 ADD DUP6 SWAP1 MSTORE PUSH1 0x0 SWAP3 AND SWAP1 PUSH4 0xA9059CBB SWAP1 PUSH1 0x44 ADD PUSH1 0x20 PUSH1 0x40 MLOAD DUP1 DUP4 SUB DUP2 PUSH1 0x0 DUP8 GAS CALL ISZERO DUP1 ISZERO PUSH2 0x1673 JUMPI RETURNDATASIZE PUSH1 0x0 DUP1 RETURNDATACOPY RETURNDATASIZE PUSH1 0x0 REVERT JUMPDEST POP POP POP POP PUSH1 0x40 MLOAD RETURNDATASIZE PUSH1 0x1F NOT PUSH1 0x1F DUP3 ADD AND DUP3 ADD DUP1 PUSH1 0x40 MSTORE POP DUP2 ADD SWAP1 PUSH2 0x1697 SWAP2 SWAP1 PUSH2 0x25D2 JUMP JUMPDEST SWAP1 POP DUP1 PUSH2 0x16B6 JUMPI PUSH1 0x40 MLOAD PUSH3 0x461BCD PUSH1 0xE5 SHL DUP2 MSTORE PUSH1 0x4 ADD PUSH2 0x511 SWAP1 PUSH2 0x25F4 JUMP JUMPDEST DUP4 PUSH1 0x1 PUSH1 0x1 PUSH1 0xA0 SHL SUB AND PUSH32 0xEAFF4B37086828766AD3268786972C0CD24259D4C87A80F9D3963A3C3D999B0D DUP5 PUSH1 0x40 MLOAD PUSH2 0x16F1 SWAP2 DUP2 MSTORE PUSH1 0x20 ADD SWAP1 JUMP JUMPDEST PUSH1 0x40 MLOAD DUP1 SWAP2 SUB SWAP1 LOG2 POP PUSH2 0xA58 PUSH1 0x1 PUSH1 0x2 SSTORE JUMP JUMPDEST PUSH1 0x0 DUP1 MLOAD PUSH1 0x20 PUSH2 0x2910 DUP4 CODECOPY DUP2 MLOAD SWAP2 MSTORE PUSH2 0x171C DUP2 PUSH2 0x2137 JUMP JUMPDEST PUSH1 0x0 DUP7 GT DUP1 PUSH2 0x172B JUMPI POP PUSH1 0x0 DUP5 GT JUMPDEST PUSH2 0x1771 JUMPI PUSH1 0x40 MLOAD PUSH3 0x461BCD PUSH1 0xE5 SHL DUP2 MSTORE PUSH1 0x20 PUSH1 0x4 DUP3 ADD MSTORE PUSH1 0x17 PUSH1 0x24 DUP3 ADD MSTORE PUSH23 0x141C9A58D9481BDC881D1C9A585B081C995C5D5A5C9959 PUSH1 0x4A SHL PUSH1 0x44 DUP3 ADD MSTORE PUSH1 0x64 ADD PUSH2 0x511 JUMP JUMPDEST PUSH1 0x0 DUP6 GT DUP1 ISZERO PUSH2 0x1785 JUMPI POP PUSH4 0x1E13380 DUP6 GT ISZERO JUMPDEST PUSH2 0x17CA JUMPI PUSH1 0x40 MLOAD PUSH3 0x461BCD PUSH1 0xE5 SHL DUP2 MSTORE PUSH1 0x20 PUSH1 0x4 DUP3 ADD MSTORE PUSH1 0x16 PUSH1 0x24 DUP3 ADD MSTORE PUSH22 0x4475726174696F6E206F7574206F6620626F756E6473 PUSH1 0x50 SHL PUSH1 0x44 DUP3 ADD MSTORE PUSH1 0x64 ADD PUSH2 0x511 JUMP JUMPDEST DUP5 DUP5 GT ISZERO PUSH2 0x1813 JUMPI PUSH1 0x40 MLOAD PUSH3 0x461BCD PUSH1 0xE5 SHL DUP2 MSTORE PUSH1 0x20 PUSH1 0x4 DUP3 ADD MSTORE PUSH1 0x16 PUSH1 0x24 DUP3 ADD MSTORE PUSH22 0x2A3934B0B61032BC31B2B2B23990323AB930BA34B7B7 PUSH1 0x51 SHL PUSH1 0x44 DUP3 ADD MSTORE PUSH1 0x64 ADD PUSH2 0x511 JUMP JUMPDEST PUSH1 0x64 DUP3 GT ISZERO PUSH2 0x1858 JUMPI PUSH1 0x40 MLOAD PUSH3 0x461BCD PUSH1 0xE5 SHL DUP2 MSTORE PUSH1 0x20 PUSH1 0x4 DUP3 ADD MSTORE PUSH1 0x11 PUSH1 0x24 DUP3 ADD MSTORE PUSH17 0x42656E656669747320746F6F206C6F6E67 PUSH1 0x78 SHL PUSH1 0x44 DUP3 ADD MSTORE PUSH1 0x64 ADD PUSH2 0x511 JUMP JUMPDEST PUSH1 0x6 DUP1 SLOAD SWAP1 PUSH1 0x0 PUSH2 0x1868 DUP4 PUSH2 0x2820 JUMP JUMPDEST SWAP2 SWAP1 POP SSTORE POP PUSH1 0x40 MLOAD DUP1 PUSH1 0xC0 ADD PUSH1 0x40 MSTORE DUP1 DUP8 DUP2 MSTORE PUSH1 0x20 ADD DUP7 DUP2 MSTORE PUSH1 0x20 ADD DUP6 DUP2 MSTORE PUSH1 0x20 ADD PUSH1 0x1 ISZERO ISZERO DUP2 MSTORE PUSH1 0x20 ADD DUP5 DUP5 DUP1 DUP1 PUSH1 0x1F ADD PUSH1 0x20 DUP1 SWAP2 DIV MUL PUSH1 0x20 ADD PUSH1 0x40 MLOAD SWAP1 DUP2 ADD PUSH1 0x40 MSTORE DUP1 SWAP4 SWAP3 SWAP2 SWAP1 DUP2 DUP2 MSTORE PUSH1 0x20 ADD DUP4 DUP4 DUP1 DUP3 DUP5 CALLDATACOPY PUSH1 0x0 SWAP3 ADD DUP3 SWAP1 MSTORE POP SWAP4 DUP6 MSTORE POP POP PUSH1 0x1 PUSH1 0x20 SWAP4 DUP5 ADD DUP2 SWAP1 MSTORE PUSH1 0x6 SLOAD DUP4 MSTORE PUSH1 0x5 DUP5 MSTORE PUSH1 0x40 SWAP3 DUP4 SWAP1 KECCAK256 DUP6 MLOAD DUP2 SSTORE SWAP4 DUP6 ADD MLOAD SWAP1 DUP5 ADD SSTORE POP DUP3 ADD MLOAD PUSH1 0x2 DUP3 ADD SSTORE PUSH1 0x60 DUP3 ADD MLOAD PUSH1 0x3 DUP3 ADD DUP1 SLOAD PUSH1 0xFF NOT AND SWAP2 ISZERO ISZERO SWAP2 SWAP1 SWAP2 OR SWAP1 SSTORE PUSH1 0x80 DUP3 ADD MLOAD PUSH1 0x4 DUP3 ADD SWAP1 PUSH2 0x1924 SWAP1 DUP3 PUSH2 0x2839 JUMP JUMPDEST POP PUSH1 0xA0 DUP3 ADD MLOAD DUP2 PUSH1 0x5 ADD SSTORE SWAP1 POP POP PUSH1 0x6 SLOAD PUSH32 0xC892CE8CEE1ECF3C64AA4C2C73D198B5DDD43C7B487F74DB6832F25241C9B122 DUP8 DUP8 DUP7 DUP7 PUSH1 0x1 PUSH1 0x40 MLOAD PUSH2 0x196D SWAP6 SWAP5 SWAP4 SWAP3 SWAP2 SWAP1 PUSH2 0x27EE JUMP JUMPDEST PUSH1 0x40 MLOAD DUP1 SWAP2 SUB SWAP1 LOG2 POP POP POP POP POP POP JUMP JUMPDEST PUSH2 0x1985 PUSH2 0x209A JUMP JUMPDEST CALLER PUSH1 0x0 SWAP1 DUP2 MSTORE PUSH1 0x4 PUSH1 0x20 MSTORE PUSH1 0x40 SWAP1 KECCAK256 DUP1 SLOAD PUSH1 0xFF AND PUSH2 0x19B5 JUMPI PUSH1 0x40 MLOAD PUSH3 0x461BCD PUSH1 0xE5 SHL DUP2 MSTORE PUSH1 0x4 ADD PUSH2 0x511 SWAP1 PUSH2 0x254F JUMP JUMPDEST PUSH3 0x15180 DUP2 PUSH1 0x4 ADD SLOAD PUSH2 0x19C8 SWAP2 SWAP1 PUSH2 0x264B JUMP JUMPDEST TIMESTAMP GT ISZERO PUSH2 0x1A0F JUMPI PUSH1 0x40 MLOAD PUSH3 0x461BCD PUSH1 0xE5 SHL DUP2 MSTORE PUSH1 0x20 PUSH1 0x4 DUP3 ADD MSTORE PUSH1 0x15 PUSH1 0x24 DUP3 ADD MSTORE PUSH21 0x1499599D5B99081DDA5B991BDDC8195E1C1A5C9959 PUSH1 0x5A SHL PUSH1 0x44 DUP3 ADD MSTORE PUSH1 0x64 ADD PUSH2 0x511 JUMP JUMPDEST PUSH1 0x2 DUP1 DUP3 ADD SLOAD PUSH1 0x0 SWAP1 DUP2 MSTORE PUSH1 0x5 PUSH1 0x20 SWAP1 DUP2 MSTORE PUSH1 0x40 DUP1 DUP4 KECCAK256 DUP2 MLOAD PUSH1 0xC0 DUP2 ADD DUP4 MSTORE DUP2 SLOAD DUP2 MSTORE PUSH1 0x1 DUP3 ADD SLOAD SWAP4 DUP2 ADD SWAP4 SWAP1 SWAP4 MSTORE SWAP4 DUP5 ADD SLOAD SWAP1 DUP3 ADD MSTORE PUSH1 0x3 DUP4 ADD SLOAD PUSH1 0xFF AND ISZERO ISZERO PUSH1 0x60 DUP3 ADD MSTORE PUSH1 0x4 DUP4 ADD DUP1 SLOAD SWAP3 SWAP4 SWAP2 SWAP3 PUSH1 0x80 DUP5 ADD SWAP2 SWAP1 PUSH2 0x1A6E SWAP1 PUSH2 0x257F JUMP JUMPDEST DUP1 PUSH1 0x1F ADD PUSH1 0x20 DUP1 SWAP2 DIV MUL PUSH1 0x20 ADD PUSH1 0x40 MLOAD SWAP1 DUP2 ADD PUSH1 0x40 MSTORE DUP1 SWAP3 SWAP2 SWAP1 DUP2 DUP2 MSTORE PUSH1 0x20 ADD DUP3 DUP1 SLOAD PUSH2 0x1A9A SWAP1 PUSH2 0x257F JUMP JUMPDEST DUP1 ISZERO PUSH2 0x1AE7 JUMPI DUP1 PUSH1 0x1F LT PUSH2 0x1ABC JUMPI PUSH2 0x100 DUP1 DUP4 SLOAD DIV MUL DUP4 MSTORE SWAP2 PUSH1 0x20 ADD SWAP2 PUSH2 0x1AE7 JUMP JUMPDEST DUP3 ADD SWAP2 SWAP1 PUSH1 0x0 MSTORE PUSH1 0x20 PUSH1 0x0 KECCAK256 SWAP1 JUMPDEST DUP2 SLOAD DUP2 MSTORE SWAP1 PUSH1 0x1 ADD SWAP1 PUSH1 0x20 ADD DUP1 DUP4 GT PUSH2 0x1ACA JUMPI DUP3 SWAP1 SUB PUSH1 0x1F AND DUP3 ADD SWAP2 JUMPDEST POP POP POP POP POP DUP2 MSTORE PUSH1 0x20 ADD PUSH1 0x5 DUP3 ADD SLOAD DUP2 MSTORE POP POP SWAP1 POP PUSH1 0x0 DUP2 PUSH1 0x0 ADD MLOAD GT PUSH2 0x1B47 JUMPI PUSH1 0x40 MLOAD PUSH3 0x461BCD PUSH1 0xE5 SHL DUP2 MSTORE PUSH1 0x20 PUSH1 0x4 DUP3 ADD MSTORE PUSH1 0x14 PUSH1 0x24 DUP3 ADD MSTORE PUSH20 0x139BC81C185E5B595B9D081D1BC81C99599D5B99 PUSH1 0x62 SHL PUSH1 0x44 DUP3 ADD MSTORE PUSH1 0x64 ADD PUSH2 0x511 JUMP JUMPDEST DUP2 SLOAD PUSH1 0xFF NOT SWAP1 DUP2 AND DUP4 SSTORE PUSH1 0x0 PUSH1 0x1 DUP5 ADD DUP2 SWAP1 SSTORE PUSH1 0x2 DUP5 ADD DUP2 SWAP1 SSTORE PUSH1 0x3 DUP1 DUP6 ADD DUP3 SWAP1 SSTORE PUSH1 0x4 DUP1 DUP7 ADD DUP4 SWAP1 SSTORE PUSH1 0x5 DUP7 ADD DUP1 SLOAD SWAP1 SWAP5 AND SWAP1 SWAP4 SSTORE SLOAD DUP4 MLOAD PUSH1 0x40 MLOAD PUSH4 0xA9059CBB PUSH1 0xE0 SHL DUP2 MSTORE CALLER SWAP5 DUP2 ADD SWAP5 SWAP1 SWAP5 MSTORE PUSH1 0x24 DUP5 ADD MSTORE SWAP1 SWAP2 PUSH1 0x1 PUSH1 0x1 PUSH1 0xA0 SHL SUB SWAP1 SWAP2 AND SWAP1 PUSH4 0xA9059CBB SWAP1 PUSH1 0x44 ADD PUSH1 0x20 PUSH1 0x40 MLOAD DUP1 DUP4 SUB DUP2 PUSH1 0x0 DUP8 GAS CALL ISZERO DUP1 ISZERO PUSH2 0x1BD0 JUMPI RETURNDATASIZE PUSH1 0x0 DUP1 RETURNDATACOPY RETURNDATASIZE PUSH1 0x0 REVERT JUMPDEST POP POP POP POP PUSH1 0x40 MLOAD RETURNDATASIZE PUSH1 0x1F NOT PUSH1 0x1F DUP3 ADD AND DUP3 ADD DUP1 PUSH1 0x40 MSTORE POP DUP2 ADD SWAP1 PUSH2 0x1BF4 SWAP2 SWAP1 PUSH2 0x25D2 JUMP JUMPDEST SWAP1 POP DUP1 PUSH2 0x1C3C JUMPI PUSH1 0x40 MLOAD PUSH3 0x461BCD PUSH1 0xE5 SHL DUP2 MSTORE PUSH1 0x20 PUSH1 0x4 DUP3 ADD MSTORE PUSH1 0x16 PUSH1 0x24 DUP3 ADD MSTORE PUSH22 0x1499599D5B99081D1C985B9CD9995C8819985A5B1959 PUSH1 0x52 SHL PUSH1 0x44 DUP3 ADD MSTORE PUSH1 0x64 ADD PUSH2 0x511 JUMP JUMPDEST DUP2 MLOAD PUSH1 0x40 MLOAD SWAP1 DUP2 MSTORE CALLER SWAP1 PUSH32 0xB5AEA4689FC1529924A9BA4572CD5D88D4F4C2778F9E40D15641F09B69E00D33 SWAP1 PUSH1 0x20 ADD PUSH1 0x40 MLOAD DUP1 SWAP2 SUB SWAP1 LOG2 POP POP POP PUSH2 0x1C80 PUSH1 0x1 PUSH1 0x2 SSTORE JUMP JUMPDEST JUMP JUMPDEST PUSH1 0x0 DUP3 DUP2 MSTORE PUSH1 0x20 DUP2 SWAP1 MSTORE PUSH1 0x40 SWAP1 KECCAK256 PUSH1 0x1 ADD SLOAD PUSH2 0x1C9D DUP2 PUSH2 0x2137 JUMP JUMPDEST PUSH2 0xA1F DUP4 DUP4 PUSH2 0x21D3 JUMP JUMPDEST PUSH1 0x0 JUMPDEST DUP2 DUP2 LT ISZERO PUSH2 0xA58 JUMPI PUSH1 0x0 PUSH1 0x4 PUSH1 0x0 DUP6 DUP6 DUP6 DUP2 DUP2 LT PUSH2 0x1CCA JUMPI PUSH2 0x1CCA PUSH2 0x28F9 JUMP JUMPDEST SWAP1 POP PUSH1 0x20 MUL ADD PUSH1 0x20 DUP2 ADD SWAP1 PUSH2 0x1CDF SWAP2 SWAP1 PUSH2 0x22E1 JUMP JUMPDEST PUSH1 0x1 PUSH1 0x1 PUSH1 0xA0 SHL SUB AND DUP2 MSTORE PUSH1 0x20 DUP2 ADD SWAP2 SWAP1 SWAP2 MSTORE PUSH1 0x40 ADD PUSH1 0x0 KECCAK256 DUP1 SLOAD SWAP1 SWAP2 POP PUSH1 0xFF AND DUP1 ISZERO PUSH2 0x1D10 JUMPI POP PUSH1 0x5 DUP2 ADD SLOAD PUSH1 0xFF AND JUMPDEST DUP1 ISZERO PUSH2 0x1D20 JUMPI POP DUP1 PUSH1 0x1 ADD SLOAD TIMESTAMP LT ISZERO JUMPDEST DUP1 ISZERO PUSH2 0x1D42 JUMPI POP PUSH1 0x2 DUP2 ADD SLOAD PUSH1 0x0 SWAP1 DUP2 MSTORE PUSH1 0x5 PUSH1 0x20 MSTORE PUSH1 0x40 SWAP1 KECCAK256 PUSH1 0x3 ADD SLOAD PUSH1 0xFF AND JUMPDEST ISZERO PUSH2 0x2087 JUMPI PUSH1 0x2 DUP1 DUP3 ADD SLOAD PUSH1 0x0 SWAP1 DUP2 MSTORE PUSH1 0x5 PUSH1 0x20 SWAP1 DUP2 MSTORE PUSH1 0x40 DUP1 DUP4 KECCAK256 DUP2 MLOAD PUSH1 0xC0 DUP2 ADD DUP4 MSTORE DUP2 SLOAD DUP2 MSTORE PUSH1 0x1 DUP3 ADD SLOAD SWAP4 DUP2 ADD SWAP4 SWAP1 SWAP4 MSTORE SWAP4 DUP5 ADD SLOAD SWAP1 DUP3 ADD MSTORE PUSH1 0x3 DUP4 ADD SLOAD PUSH1 0xFF AND ISZERO ISZERO PUSH1 0x60 DUP3 ADD MSTORE PUSH1 0x4 DUP4 ADD DUP1 SLOAD SWAP3 SWAP4 SWAP2 SWAP3 PUSH1 0x80 DUP5 ADD SWAP2 SWAP1 PUSH2 0x1DA6 SWAP1 PUSH2 0x257F JUMP JUMPDEST DUP1 PUSH1 0x1F ADD PUSH1 0x20 DUP1 SWAP2 DIV MUL PUSH1 0x20 ADD PUSH1 0x40 MLOAD SWAP1 DUP2 ADD PUSH1 0x40 MSTORE DUP1 SWAP3 SWAP2 SWAP1 DUP2 DUP2 MSTORE PUSH1 0x20 ADD DUP3 DUP1 SLOAD PUSH2 0x1DD2 SWAP1 PUSH2 0x257F JUMP JUMPDEST DUP1 ISZERO PUSH2 0x1E1F JUMPI DUP1 PUSH1 0x1F LT PUSH2 0x1DF4 JUMPI PUSH2 0x100 DUP1 DUP4 SLOAD DIV MUL DUP4 MSTORE SWAP2 PUSH1 0x20 ADD SWAP2 PUSH2 0x1E1F JUMP JUMPDEST DUP3 ADD SWAP2 SWAP1 PUSH1 0x0 MSTORE PUSH1 0x20 PUSH1 0x0 KECCAK256 SWAP1 JUMPDEST DUP2 SLOAD DUP2 MSTORE SWAP1 PUSH1 0x1 ADD SWAP1 PUSH1 0x20 ADD DUP1 DUP4 GT PUSH2 0x1E02 JUMPI DUP3 SWAP1 SUB PUSH1 0x1F AND DUP3 ADD SWAP2 JUMPDEST POP POP POP SWAP2 DUP4 MSTORE POP POP PUSH1 0x5 SWAP2 SWAP1 SWAP2 ADD SLOAD PUSH1 0x20 SWAP1 SWAP2 ADD MSTORE PUSH1 0x3 SLOAD PUSH1 0x40 MLOAD PUSH4 0x70A08231 PUSH1 0xE0 SHL DUP2 MSTORE ADDRESS PUSH1 0x4 DUP3 ADD MSTORE SWAP2 SWAP3 POP PUSH1 0x0 SWAP2 PUSH1 0x1 PUSH1 0x1 PUSH1 0xA0 SHL SUB SWAP1 SWAP2 AND SWAP1 PUSH4 0x70A08231 SWAP1 PUSH1 0x24 ADD PUSH1 0x20 PUSH1 0x40 MLOAD DUP1 DUP4 SUB DUP2 DUP7 GAS STATICCALL ISZERO DUP1 ISZERO PUSH2 0x1E82 JUMPI RETURNDATASIZE PUSH1 0x0 DUP1 RETURNDATACOPY RETURNDATASIZE PUSH1 0x0 REVERT JUMPDEST POP POP POP POP PUSH1 0x40 MLOAD RETURNDATASIZE PUSH1 0x1F NOT PUSH1 0x1F DUP3 ADD AND DUP3 ADD DUP1 PUSH1 0x40 MSTORE POP DUP2 ADD SWAP1 PUSH2 0x1EA6 SWAP2 SWAP1 PUSH2 0x25B9 JUMP JUMPDEST PUSH1 0x3 SLOAD SWAP1 SWAP2 POP PUSH1 0x0 SWAP1 PUSH1 0x1 PUSH1 0x1 PUSH1 0xA0 SHL SUB AND PUSH4 0x23B872DD DUP9 DUP9 DUP9 DUP2 DUP2 LT PUSH2 0x1ECF JUMPI PUSH2 0x1ECF PUSH2 0x28F9 JUMP JUMPDEST SWAP1 POP PUSH1 0x20 MUL ADD PUSH1 0x20 DUP2 ADD SWAP1 PUSH2 0x1EE4 SWAP2 SWAP1 PUSH2 0x22E1 JUMP JUMPDEST DUP6 MLOAD PUSH1 0x40 MLOAD PUSH1 0xE0 DUP5 SWAP1 SHL PUSH1 0x1 PUSH1 0x1 PUSH1 0xE0 SHL SUB NOT AND DUP2 MSTORE PUSH1 0x1 PUSH1 0x1 PUSH1 0xA0 SHL SUB SWAP1 SWAP3 AND PUSH1 0x4 DUP4 ADD MSTORE ADDRESS PUSH1 0x24 DUP4 ADD MSTORE PUSH1 0x44 DUP3 ADD MSTORE PUSH1 0x64 ADD PUSH1 0x20 PUSH1 0x40 MLOAD DUP1 DUP4 SUB DUP2 PUSH1 0x0 DUP8 GAS CALL ISZERO DUP1 ISZERO PUSH2 0x1F37 JUMPI RETURNDATASIZE PUSH1 0x0 DUP1 RETURNDATACOPY RETURNDATASIZE PUSH1 0x0 REVERT JUMPDEST POP POP POP POP PUSH1 0x40 MLOAD RETURNDATASIZE PUSH1 0x1F NOT PUSH1 0x1F DUP3 ADD AND DUP3 ADD DUP1 PUSH1 0x40 MSTORE POP DUP2 ADD SWAP1 PUSH2 0x1F5B SWAP2 SWAP1 PUSH2 0x25D2 JUMP JUMPDEST SWAP1 POP DUP1 DUP1 ISZERO PUSH2 0x1FE0 JUMPI POP DUP3 MLOAD PUSH1 0x3 SLOAD PUSH1 0x40 MLOAD PUSH4 0x70A08231 PUSH1 0xE0 SHL DUP2 MSTORE ADDRESS PUSH1 0x4 DUP3 ADD MSTORE DUP5 SWAP2 PUSH1 0x1 PUSH1 0x1 PUSH1 0xA0 SHL SUB AND SWAP1 PUSH4 0x70A08231 SWAP1 PUSH1 0x24 ADD PUSH1 0x20 PUSH1 0x40 MLOAD DUP1 DUP4 SUB DUP2 DUP7 GAS STATICCALL ISZERO DUP1 ISZERO PUSH2 0x1FAF JUMPI RETURNDATASIZE PUSH1 0x0 DUP1 RETURNDATACOPY RETURNDATASIZE PUSH1 0x0 REVERT JUMPDEST POP POP POP POP PUSH1 0x40 MLOAD RETURNDATASIZE PUSH1 0x1F NOT PUSH1 0x1F DUP3 ADD AND DUP3 ADD DUP1 PUSH1 0x40 MSTORE POP DUP2 ADD SWAP1 PUSH2 0x1FD3 SWAP2 SWAP1 PUSH2 0x25B9 JUMP JUMPDEST PUSH2 0x1FDD SWAP2 SWAP1 PUSH2 0x2638 JUMP JUMPDEST LT ISZERO JUMPDEST ISZERO PUSH2 0x2083 JUMPI DUP3 PUSH1 0x20 ADD MLOAD DUP5 PUSH1 0x1 ADD PUSH1 0x0 DUP3 DUP3 SLOAD PUSH2 0x1FFD SWAP2 SWAP1 PUSH2 0x264B JUMP JUMPDEST SWAP1 SWAP2 SSTORE POP POP TIMESTAMP PUSH1 0x4 DUP6 ADD SSTORE DUP7 DUP7 DUP7 DUP2 DUP2 LT PUSH2 0x201A JUMPI PUSH2 0x201A PUSH2 0x28F9 JUMP JUMPDEST SWAP1 POP PUSH1 0x20 MUL ADD PUSH1 0x20 DUP2 ADD SWAP1 PUSH2 0x202F SWAP2 SWAP1 PUSH2 0x22E1 JUMP JUMPDEST PUSH1 0x1 PUSH1 0x1 PUSH1 0xA0 SHL SUB AND PUSH32 0x844521BD3C7295DF35CA72576B1C04B6061D23891276D5C077CD73CBB3D31FC DUP6 PUSH1 0x2 ADD SLOAD DUP7 PUSH1 0x1 ADD SLOAD PUSH1 0x40 MLOAD PUSH2 0x207A SWAP3 SWAP2 SWAP1 SWAP2 DUP3 MSTORE PUSH1 0x20 DUP3 ADD MSTORE PUSH1 0x40 ADD SWAP1 JUMP JUMPDEST PUSH1 0x40 MLOAD DUP1 SWAP2 SUB SWAP1 LOG2 JUMPDEST POP POP POP JUMPDEST POP DUP1 PUSH2 0x2092 DUP2 PUSH2 0x2820 JUMP JUMPDEST SWAP2 POP POP PUSH2 0x1CAA JUMP JUMPDEST PUSH1 0x2 DUP1 SLOAD SUB PUSH2 0x20EB JUMPI PUSH1 0x40 MLOAD PUSH3 0x461BCD PUSH1 0xE5 SHL DUP2 MSTORE PUSH1 0x20 PUSH1 0x4 DUP3 ADD MSTORE PUSH1 0x1F PUSH1 0x24 DUP3 ADD MSTORE PUSH32 0x5265656E7472616E637947756172643A207265656E7472616E742063616C6C00 PUSH1 0x44 DUP3 ADD MSTORE PUSH1 0x64 ADD PUSH2 0x511 JUMP JUMPDEST PUSH1 0x2 DUP1 SSTORE JUMP JUMPDEST PUSH1 0x1 SLOAD PUSH1 0xFF AND ISZERO PUSH2 0x1C80 JUMPI PUSH1 0x40 MLOAD PUSH3 0x461BCD PUSH1 0xE5 SHL DUP2 MSTORE PUSH1 0x20 PUSH1 0x4 DUP3 ADD MSTORE PUSH1 0x10 PUSH1 0x24 DUP3 ADD MSTORE PUSH16 0x14185D5CD8589B194E881C185D5CD959 PUSH1 0x82 SHL PUSH1 0x44 DUP3 ADD MSTORE PUSH1 0x64 ADD PUSH2 0x511 JUMP JUMPDEST PUSH2 0x8C6 DUP2 CALLER PUSH2 0x223E JUMP JUMPDEST PUSH1 0x0 PUSH2 0x214D DUP4 DUP4 PUSH2 0x13A2 JUMP JUMPDEST PUSH2 0x21CB JUMPI PUSH1 0x0 DUP4 DUP2 MSTORE PUSH1 0x20 DUP2 DUP2 MSTORE PUSH1 0x40 DUP1 DUP4 KECCAK256 PUSH1 0x1 PUSH1 0x1 PUSH1 0xA0 SHL SUB DUP7 AND DUP5 MSTORE SWAP1 SWAP2 MSTORE SWAP1 KECCAK256 DUP1 SLOAD PUSH1 0xFF NOT AND PUSH1 0x1 OR SWAP1 SSTORE PUSH2 0x2183 CALLER SWAP1 JUMP JUMPDEST PUSH1 0x1 PUSH1 0x1 PUSH1 0xA0 SHL SUB AND DUP3 PUSH1 0x1 PUSH1 0x1 PUSH1 0xA0 SHL SUB AND DUP5 PUSH32 0x2F8788117E7EFF1D82E926EC794901D17C78024A50270940304540A733656F0D PUSH1 0x40 MLOAD PUSH1 0x40 MLOAD DUP1 SWAP2 SUB SWAP1 LOG4 POP PUSH1 0x1 PUSH2 0x4BC JUMP JUMPDEST POP PUSH1 0x0 PUSH2 0x4BC JUMP JUMPDEST PUSH1 0x0 PUSH2 0x21DF DUP4 DUP4 PUSH2 0x13A2 JUMP JUMPDEST ISZERO PUSH2 0x21CB JUMPI PUSH1 0x0 DUP4 DUP2 MSTORE PUSH1 0x20 DUP2 DUP2 MSTORE PUSH1 0x40 DUP1 DUP4 KECCAK256 PUSH1 0x1 PUSH1 0x1 PUSH1 0xA0 SHL SUB DUP7 AND DUP1 DUP6 MSTORE SWAP3 MSTORE DUP1 DUP4 KECCAK256 DUP1 SLOAD PUSH1 0xFF NOT AND SWAP1 SSTORE MLOAD CALLER SWAP3 DUP7 SWAP2 PUSH32 0xF6391F5C32D9C69D2A47EA670B442974B53935D1EDC7FD64EB21E047A839171B SWAP2 SWAP1 LOG4 POP PUSH1 0x1 PUSH2 0x4BC JUMP JUMPDEST PUSH2 0x2248 DUP3 DUP3 PUSH2 0x13A2 JUMP JUMPDEST PUSH2 0x2277 JUMPI PUSH1 0x40 MLOAD PUSH4 0xE2517D3F PUSH1 0xE0 SHL DUP2 MSTORE PUSH1 0x1 PUSH1 0x1 PUSH1 0xA0 SHL SUB DUP3 AND PUSH1 0x4 DUP3 ADD MSTORE PUSH1 0x24 DUP2 ADD DUP4 SWAP1 MSTORE PUSH1 0x44 ADD PUSH2 0x511 JUMP JUMPDEST POP POP JUMP JUMPDEST PUSH1 0x0 PUSH1 0x20 DUP3 DUP5 SUB SLT ISZERO PUSH2 0x228D JUMPI PUSH1 0x0 DUP1 REVERT JUMPDEST DUP2 CALLDATALOAD PUSH1 0x1 PUSH1 0x1 PUSH1 0xE0 SHL SUB NOT DUP2 AND DUP2 EQ PUSH2 0x22A5 JUMPI PUSH1 0x0 DUP1 REVERT JUMPDEST SWAP4 SWAP3 POP POP POP JUMP JUMPDEST PUSH1 0x0 PUSH1 0x20 DUP3 DUP5 SUB SLT ISZERO PUSH2 0x22BE JUMPI PUSH1 0x0 DUP1 REVERT JUMPDEST POP CALLDATALOAD SWAP2 SWAP1 POP JUMP JUMPDEST DUP1 CALLDATALOAD PUSH1 0x1 PUSH1 0x1 PUSH1 0xA0 SHL SUB DUP2 AND DUP2 EQ PUSH2 0x22DC JUMPI PUSH1 0x0 DUP1 REVERT JUMPDEST SWAP2 SWAP1 POP JUMP JUMPDEST PUSH1 0x0 PUSH1 0x20 DUP3 DUP5 SUB SLT ISZERO PUSH2 0x22F3 JUMPI PUSH1 0x0 DUP1 REVERT JUMPDEST PUSH2 0x22A5 DUP3 PUSH2 0x22C5 JUMP JUMPDEST PUSH1 0x0 DUP1 PUSH1 0x40 DUP4 DUP6 SUB SLT ISZERO PUSH2 0x230F JUMPI PUSH1 0x0 DUP1 REVERT JUMPDEST DUP3 CALLDATALOAD SWAP2 POP PUSH2 0x231F PUSH1 0x20 DUP5 ADD PUSH2 0x22C5 JUMP JUMPDEST SWAP1 POP SWAP3 POP SWAP3 SWAP1 POP JUMP JUMPDEST PUSH1 0x0 DUP1 DUP4 PUSH1 0x1F DUP5 ADD SLT PUSH2 0x233A JUMPI PUSH1 0x0 DUP1 REVERT JUMPDEST POP DUP2 CALLDATALOAD PUSH8 0xFFFFFFFFFFFFFFFF DUP2 GT ISZERO PUSH2 0x2352 JUMPI PUSH1 0x0 DUP1 REVERT JUMPDEST PUSH1 0x20 DUP4 ADD SWAP2 POP DUP4 PUSH1 0x20 DUP3 DUP6 ADD ADD GT ISZERO PUSH2 0x236A JUMPI PUSH1 0x0 DUP1 REVERT JUMPDEST SWAP3 POP SWAP3 SWAP1 POP JUMP JUMPDEST PUSH1 0x0 DUP1 PUSH1 0x0 DUP1 PUSH1 0x0 DUP1 PUSH1 0xA0 DUP8 DUP10 SUB SLT ISZERO PUSH2 0x238A JUMPI PUSH1 0x0 DUP1 REVERT JUMPDEST DUP7 CALLDATALOAD SWAP6 POP PUSH1 0x20 DUP8 ADD CALLDATALOAD SWAP5 POP PUSH1 0x40 DUP8 ADD CALLDATALOAD SWAP4 POP PUSH1 0x60 DUP8 ADD CALLDATALOAD SWAP3 POP PUSH1 0x80 DUP8 ADD CALLDATALOAD PUSH8 0xFFFFFFFFFFFFFFFF DUP2 GT ISZERO PUSH2 0x23BD JUMPI PUSH1 0x0 DUP1 REVERT JUMPDEST PUSH2 0x23C9 DUP10 DUP3 DUP11 ADD PUSH2 0x2328 JUMP JUMPDEST SWAP8 SWAP11 SWAP7 SWAP10 POP SWAP5 SWAP8 POP SWAP3 SWAP6 SWAP4 SWAP5 SWAP3 POP POP POP JUMP JUMPDEST DUP7 DUP2 MSTORE PUSH1 0x0 PUSH1 0x20 DUP8 DUP2 DUP5 ADD MSTORE DUP7 PUSH1 0x40 DUP5 ADD MSTORE DUP6 ISZERO ISZERO PUSH1 0x60 DUP5 ADD MSTORE PUSH1 0xC0 PUSH1 0x80 DUP5 ADD MSTORE DUP5 MLOAD DUP1 PUSH1 0xC0 DUP6 ADD MSTORE PUSH1 0x0 JUMPDEST DUP2 DUP2 LT ISZERO PUSH2 0x2423 JUMPI DUP7 DUP2 ADD DUP4 ADD MLOAD DUP6 DUP3 ADD PUSH1 0xE0 ADD MSTORE DUP3 ADD PUSH2 0x2407 JUMP JUMPDEST POP PUSH1 0x0 PUSH1 0xE0 DUP3 DUP7 ADD ADD MSTORE PUSH1 0xE0 PUSH1 0x1F NOT PUSH1 0x1F DUP4 ADD AND DUP6 ADD ADD SWAP3 POP POP POP DUP3 PUSH1 0xA0 DUP4 ADD MSTORE SWAP8 SWAP7 POP POP POP POP POP POP POP JUMP JUMPDEST PUSH1 0x0 DUP1 PUSH1 0x40 DUP4 DUP6 SUB SLT ISZERO PUSH2 0x2462 JUMPI PUSH1 0x0 DUP1 REVERT JUMPDEST PUSH2 0x246B DUP4 PUSH2 0x22C5 JUMP JUMPDEST SWAP5 PUSH1 0x20 SWAP4 SWAP1 SWAP4 ADD CALLDATALOAD SWAP4 POP POP POP JUMP JUMPDEST PUSH1 0x0 DUP1 PUSH1 0x0 DUP1 PUSH1 0x0 PUSH1 0x80 DUP7 DUP9 SUB SLT ISZERO PUSH2 0x2491 JUMPI PUSH1 0x0 DUP1 REVERT JUMPDEST DUP6 CALLDATALOAD SWAP5 POP PUSH1 0x20 DUP7 ADD CALLDATALOAD SWAP4 POP PUSH1 0x40 DUP7 ADD CALLDATALOAD SWAP3 POP PUSH1 0x60 DUP7 ADD CALLDATALOAD PUSH8 0xFFFFFFFFFFFFFFFF DUP2 GT ISZERO PUSH2 0x24BD JUMPI PUSH1 0x0 DUP1 REVERT JUMPDEST PUSH2 0x24C9 DUP9 DUP3 DUP10 ADD PUSH2 0x2328 JUMP JUMPDEST SWAP7 SWAP10 SWAP6 SWAP9 POP SWAP4 SWAP7 POP SWAP3 SWAP5 SWAP4 SWAP3 POP POP POP JUMP JUMPDEST PUSH1 0x0 DUP1 PUSH1 0x20 DUP4 DUP6 SUB SLT ISZERO PUSH2 0x24ED JUMPI PUSH1 0x0 DUP1 REVERT JUMPDEST DUP3 CALLDATALOAD PUSH8 0xFFFFFFFFFFFFFFFF DUP1 DUP3 GT ISZERO PUSH2 0x2505 JUMPI PUSH1 0x0 DUP1 REVERT JUMPDEST DUP2 DUP6 ADD SWAP2 POP DUP6 PUSH1 0x1F DUP4 ADD SLT PUSH2 0x2519 JUMPI PUSH1 0x0 DUP1 REVERT JUMPDEST DUP2 CALLDATALOAD DUP2 DUP2 GT ISZERO PUSH2 0x2528 JUMPI PUSH1 0x0 DUP1 REVERT JUMPDEST DUP7 PUSH1 0x20 DUP3 PUSH1 0x5 SHL DUP6 ADD ADD GT ISZERO PUSH2 0x253D JUMPI PUSH1 0x0 DUP1 REVERT JUMPDEST PUSH1 0x20 SWAP3 SWAP1 SWAP3 ADD SWAP7 SWAP2 SWAP6 POP SWAP1 SWAP4 POP POP POP POP JUMP JUMPDEST PUSH1 0x20 DUP1 DUP3 MSTORE PUSH1 0x16 SWAP1 DUP3 ADD MSTORE PUSH22 0x27379030B1BA34BB329039BAB139B1B934B83A34B7B7 PUSH1 0x51 SHL PUSH1 0x40 DUP3 ADD MSTORE PUSH1 0x60 ADD SWAP1 JUMP JUMPDEST PUSH1 0x1 DUP2 DUP2 SHR SWAP1 DUP3 AND DUP1 PUSH2 0x2593 JUMPI PUSH1 0x7F DUP3 AND SWAP2 POP JUMPDEST PUSH1 0x20 DUP3 LT DUP2 SUB PUSH2 0x25B3 JUMPI PUSH4 0x4E487B71 PUSH1 0xE0 SHL PUSH1 0x0 MSTORE PUSH1 0x22 PUSH1 0x4 MSTORE PUSH1 0x24 PUSH1 0x0 REVERT JUMPDEST POP SWAP2 SWAP1 POP JUMP JUMPDEST PUSH1 0x0 PUSH1 0x20 DUP3 DUP5 SUB SLT ISZERO PUSH2 0x25CB JUMPI PUSH1 0x0 DUP1 REVERT JUMPDEST POP MLOAD SWAP2 SWAP1 POP JUMP JUMPDEST PUSH1 0x0 PUSH1 0x20 DUP3 DUP5 SUB SLT ISZERO PUSH2 0x25E4 JUMPI PUSH1 0x0 DUP1 REVERT JUMPDEST DUP2 MLOAD DUP1 ISZERO ISZERO DUP2 EQ PUSH2 0x22A5 JUMPI PUSH1 0x0 DUP1 REVERT JUMPDEST PUSH1 0x20 DUP1 DUP3 MSTORE PUSH1 0x14 SWAP1 DUP3 ADD MSTORE PUSH20 0x1554D110C81D1C985B9CD9995C8819985A5B1959 PUSH1 0x62 SHL PUSH1 0x40 DUP3 ADD MSTORE PUSH1 0x60 ADD SWAP1 JUMP JUMPDEST PUSH4 0x4E487B71 PUSH1 0xE0 SHL PUSH1 0x0 MSTORE PUSH1 0x11 PUSH1 0x4 MSTORE PUSH1 0x24 PUSH1 0x0 REVERT JUMPDEST DUP2 DUP2 SUB DUP2 DUP2 GT ISZERO PUSH2 0x4BC JUMPI PUSH2 0x4BC PUSH2 0x2622 JUMP JUMPDEST DUP1 DUP3 ADD DUP1 DUP3 GT ISZERO PUSH2 0x4BC JUMPI PUSH2 0x4BC PUSH2 0x2622 JUMP JUMPDEST PUSH1 0x20 DUP1 DUP3 MSTORE PUSH1 0x22 SWAP1 DUP3 ADD MSTORE PUSH32 0x506C616E20646F6573206E6F74206578697374206F7220697320696E61637469 PUSH1 0x40 DUP3 ADD MSTORE PUSH2 0x7665 PUSH1 0xF0 SHL PUSH1 0x60 DUP3 ADD MSTORE PUSH1 0x80 ADD SWAP1 JUMP JUMPDEST PUSH4 0x4E487B71 PUSH1 0xE0 SHL PUSH1 0x0 MSTORE PUSH1 0x41 PUSH1 0x4 MSTORE PUSH1 0x24 PUSH1 0x0 REVERT JUMPDEST PUSH1 0x1F DUP3 GT ISZERO PUSH2 0xA58 JUMPI PUSH1 0x0 DUP2 DUP2 MSTORE PUSH1 0x20 DUP2 KECCAK256 PUSH1 0x1F DUP6 ADD PUSH1 0x5 SHR DUP2 ADD PUSH1 0x20 DUP7 LT ISZERO PUSH2 0x26DD JUMPI POP DUP1 JUMPDEST PUSH1 0x1F DUP6 ADD PUSH1 0x5 SHR DUP3 ADD SWAP2 POP JUMPDEST DUP2 DUP2 LT ISZERO PUSH2 0x26FC JUMPI DUP3 DUP2 SSTORE PUSH1 0x1 ADD PUSH2 0x26E9 JUMP JUMPDEST POP POP POP POP POP POP JUMP JUMPDEST PUSH8 0xFFFFFFFFFFFFFFFF DUP4 GT ISZERO PUSH2 0x271C JUMPI PUSH2 0x271C PUSH2 0x26A0 JUMP JUMPDEST PUSH2 0x2730 DUP4 PUSH2 0x272A DUP4 SLOAD PUSH2 0x257F JUMP JUMPDEST DUP4 PUSH2 0x26B6 JUMP JUMPDEST PUSH1 0x0 PUSH1 0x1F DUP5 GT PUSH1 0x1 DUP2 EQ PUSH2 0x2764 JUMPI PUSH1 0x0 DUP6 ISZERO PUSH2 0x274C JUMPI POP DUP4 DUP3 ADD CALLDATALOAD JUMPDEST PUSH1 0x0 NOT PUSH1 0x3 DUP8 SWAP1 SHL SHR NOT AND PUSH1 0x1 DUP7 SWAP1 SHL OR DUP4 SSTORE PUSH2 0x27BE JUMP JUMPDEST PUSH1 0x0 DUP4 DUP2 MSTORE PUSH1 0x20 SWAP1 KECCAK256 PUSH1 0x1F NOT DUP7 AND SWAP1 DUP4 JUMPDEST DUP3 DUP2 LT ISZERO PUSH2 0x2795 JUMPI DUP7 DUP6 ADD CALLDATALOAD DUP3 SSTORE PUSH1 0x20 SWAP5 DUP6 ADD SWAP5 PUSH1 0x1 SWAP1 SWAP3 ADD SWAP2 ADD PUSH2 0x2775 JUMP JUMPDEST POP DUP7 DUP3 LT ISZERO PUSH2 0x27B2 JUMPI PUSH1 0x0 NOT PUSH1 0xF8 DUP9 PUSH1 0x3 SHL AND SHR NOT DUP5 DUP8 ADD CALLDATALOAD AND DUP2 SSTORE JUMPDEST POP POP PUSH1 0x1 DUP6 PUSH1 0x1 SHL ADD DUP4 SSTORE JUMPDEST POP POP POP POP POP JUMP JUMPDEST DUP2 DUP4 MSTORE DUP2 DUP2 PUSH1 0x20 DUP6 ADD CALLDATACOPY POP PUSH1 0x0 DUP3 DUP3 ADD PUSH1 0x20 SWAP1 DUP2 ADD SWAP2 SWAP1 SWAP2 MSTORE PUSH1 0x1F SWAP1 SWAP2 ADD PUSH1 0x1F NOT AND SWAP1 SWAP2 ADD ADD SWAP1 JUMP JUMPDEST DUP6 DUP2 MSTORE DUP5 PUSH1 0x20 DUP3 ADD MSTORE PUSH1 0x80 PUSH1 0x40 DUP3 ADD MSTORE PUSH1 0x0 PUSH2 0x280E PUSH1 0x80 DUP4 ADD DUP6 DUP8 PUSH2 0x27C5 JUMP JUMPDEST SWAP1 POP DUP3 PUSH1 0x60 DUP4 ADD MSTORE SWAP7 SWAP6 POP POP POP POP POP POP JUMP JUMPDEST PUSH1 0x0 PUSH1 0x1 DUP3 ADD PUSH2 0x2832 JUMPI PUSH2 0x2832 PUSH2 0x2622 JUMP JUMPDEST POP PUSH1 0x1 ADD SWAP1 JUMP JUMPDEST DUP2 MLOAD PUSH8 0xFFFFFFFFFFFFFFFF DUP2 GT ISZERO PUSH2 0x2853 JUMPI PUSH2 0x2853 PUSH2 0x26A0 JUMP JUMPDEST PUSH2 0x2867 DUP2 PUSH2 0x2861 DUP5 SLOAD PUSH2 0x257F JUMP JUMPDEST DUP5 PUSH2 0x26B6 JUMP JUMPDEST PUSH1 0x20 DUP1 PUSH1 0x1F DUP4 GT PUSH1 0x1 DUP2 EQ PUSH2 0x289C JUMPI PUSH1 0x0 DUP5 ISZERO PUSH2 0x2884 JUMPI POP DUP6 DUP4 ADD MLOAD JUMPDEST PUSH1 0x0 NOT PUSH1 0x3 DUP7 SWAP1 SHL SHR NOT AND PUSH1 0x1 DUP6 SWAP1 SHL OR DUP6 SSTORE PUSH2 0x26FC JUMP JUMPDEST PUSH1 0x0 DUP6 DUP2 MSTORE PUSH1 0x20 DUP2 KECCAK256 PUSH1 0x1F NOT DUP7 AND SWAP2 JUMPDEST DUP3 DUP2 LT ISZERO PUSH2 0x28CB JUMPI DUP9 DUP7 ADD MLOAD DUP3 SSTORE SWAP5 DUP5 ADD SWAP5 PUSH1 0x1 SWAP1 SWAP2 ADD SWAP1 DUP5 ADD PUSH2 0x28AC JUMP JUMPDEST POP DUP6 DUP3 LT ISZERO PUSH2 0x28E9 JUMPI DUP8 DUP6 ADD MLOAD PUSH1 0x0 NOT PUSH1 0x3 DUP9 SWAP1 SHL PUSH1 0xF8 AND SHR NOT AND DUP2 SSTORE JUMPDEST POP POP POP POP POP PUSH1 0x1 SWAP1 DUP2 SHL ADD SWAP1 SSTORE POP JUMP JUMPDEST PUSH4 0x4E487B71 PUSH1 0xE0 SHL PUSH1 0x0 MSTORE PUSH1 0x32 PUSH1 0x4 MSTORE PUSH1 0x24 PUSH1 0x0 REVERT INVALID LOG4 SWAP9 SMOD KECCAK256 0x5C 0xE4 0xD3 SSTORE MULMOD 0x2E CREATE2 0xA8 LOG1 DUP16 JUMP 0xE8 SWAP2 EXTCODECOPY DELEGATECALL LOG2 ADD 0xFB 0xE2 DUP8 DUP3 JUMPDEST MULMOD JUMP SWAP4 0xC2 OR PUSH22 0xA264697066735822122082339DD2B5ECE0FA53F5D4F4 PUSH0 PUSH15 0xEC0D37ACCC064BD857E32EAB82D371 PUSH15 0x4C7164736F6C634300081400330000 "
				},
				"gasEstimates": {
					"creation": {
						"codeDepositCost": "2119400",
						"executionCost": "infinite",
						"totalCost": "infinite"
					},
					"external": {
						"ADMIN_ROLE()": "infinite",
						"DEFAULT_ADMIN_ROLE()": "262",
						"MAX_DURATION()": "306",
						"REFUND_WINDOW()": "241",
						"TREASURY_ROLE()": "239",
						"addPlan(uint256,uint256,uint256,string)": "infinite",
						"batchProcessRenewals(address[])": "infinite",
						"cancelSubscription()": "72105",
						"changePlan(uint256)": "infinite",
						"deactivatePlan(uint256)": "infinite",
						"getRoleAdmin(bytes32)": "2537",
						"getSubscription(address)": "13563",
						"grantRole(bytes32,address)": "infinite",
						"hasRole(bytes32,address)": "2696",
						"paused()": "2360",
						"planCount()": "2385",
						"plans(uint256)": "infinite",
						"purchaseSubscription(uint256)": "infinite",
						"refundSubscription()": "infinite",
						"renounceRole(bytes32,address)": "29091",
						"revokeRole(bytes32,address)": "infinite",
						"startTrial(uint256)": "infinite",
						"subscriptions(address)": "13327",
						"supportsInterface(bytes4)": "473",
						"toggleAutoRenew()": "25995",
						"updatePlan(uint256,uint256,uint256,uint256,string)": "infinite",
						"usdcToken()": "2405",
						"withdrawFunds(address,uint256)": "infinite"
					}
				},
				"methodIdentifiers": {
					"ADMIN_ROLE()": "75b238fc",
					"DEFAULT_ADMIN_ROLE()": "a217fddf",
					"MAX_DURATION()": "b1724b46",
					"REFUND_WINDOW()": "1153b5f3",
					"TREASURY_ROLE()": "d11a57ec",
					"addPlan(uint256,uint256,uint256,string)": "c3da1afe",
					"batchProcessRenewals(address[])": "e22ba7ad",
					"cancelSubscription()": "24e9edb0",
					"changePlan(uint256)": "05d567ca",
					"deactivatePlan(uint256)": "6174bc63",
					"getRoleAdmin(bytes32)": "248a9ca3",
					"getSubscription(address)": "0cbebc24",
					"grantRole(bytes32,address)": "2f2ff15d",
					"hasRole(bytes32,address)": "91d14854",
					"paused()": "5c975abb",
					"planCount()": "382d39bb",
					"plans(uint256)": "b1620616",
					"purchaseSubscription(uint256)": "8edf72f5",
					"refundSubscription()": "c5a7f77b",
					"renounceRole(bytes32,address)": "36568abe",
					"revokeRole(bytes32,address)": "d547741f",
					"startTrial(uint256)": "42912c9e",
					"subscriptions(address)": "f046395a",
					"supportsInterface(bytes4)": "01ffc9a7",
					"toggleAutoRenew()": "88860e4e",
					"updatePlan(uint256,uint256,uint256,uint256,string)": "793cdd1a",
					"usdcToken()": "11eac855",
					"withdrawFunds(address,uint256)": "c1075329"
				}
			},
			"storageLayout": {
				"storage": [
					{
						"astId": 26,
						"contract": "contracts/src/Nova3.sol:SubscriptionManager",
						"label": "_roles",
						"offset": 0,
						"slot": "0",
						"type": "t_mapping(t_bytes32,t_struct(RoleData)21_storage)"
					},
					{
						"astId": 396,
						"contract": "contracts/src/Nova3.sol:SubscriptionManager",
						"label": "_paused",
						"offset": 0,
						"slot": "1",
						"type": "t_bool"
					},
					{
						"astId": 497,
						"contract": "contracts/src/Nova3.sol:SubscriptionManager",
						"label": "_status",
						"offset": 0,
						"slot": "2",
						"type": "t_uint256"
					},
					{
						"astId": 710,
						"contract": "contracts/src/Nova3.sol:SubscriptionManager",
						"label": "usdcToken",
						"offset": 0,
						"slot": "3",
						"type": "t_contract(IERC20)629"
					},
					{
						"astId": 757,
						"contract": "contracts/src/Nova3.sol:SubscriptionManager",
						"label": "subscriptions",
						"offset": 0,
						"slot": "4",
						"type": "t_mapping(t_address,t_struct(Subscription)739_storage)"
					},
					{
						"astId": 762,
						"contract": "contracts/src/Nova3.sol:SubscriptionManager",
						"label": "plans",
						"offset": 0,
						"slot": "5",
						"type": "t_mapping(t_uint256,t_struct(Plan)752_storage)"
					},
					{
						"astId": 764,
						"contract": "contracts/src/Nova3.sol:SubscriptionManager",
						"label": "planCount",
						"offset": 0,
						"slot": "6",
						"type": "t_uint256"
					}
				],
				"types": {
					"t_address": {
						"encoding": "inplace",
						"label": "address",
						"numberOfBytes": "20"
					},
					"t_bool": {
						"encoding": "inplace",
						"label": "bool",
						"numberOfBytes": "1"
					},
					"t_bytes32": {
						"encoding": "inplace",
						"label": "bytes32",
						"numberOfBytes": "32"
					},
					"t_contract(IERC20)629": {
						"encoding": "inplace",
						"label": "contract IERC20",
						"numberOfBytes": "20"
					},
					"t_mapping(t_address,t_bool)": {
						"encoding": "mapping",
						"key": "t_address",
						"label": "mapping(address => bool)",
						"numberOfBytes": "32",
						"value": "t_bool"
					},
					"t_mapping(t_address,t_struct(Subscription)739_storage)": {
						"encoding": "mapping",
						"key": "t_address",
						"label": "mapping(address => struct SubscriptionManager.Subscription)",
						"numberOfBytes": "32",
						"value": "t_struct(Subscription)739_storage"
					},
					"t_mapping(t_bytes32,t_struct(RoleData)21_storage)": {
						"encoding": "mapping",
						"key": "t_bytes32",
						"label": "mapping(bytes32 => struct AccessControl.RoleData)",
						"numberOfBytes": "32",
						"value": "t_struct(RoleData)21_storage"
					},
					"t_mapping(t_uint256,t_struct(Plan)752_storage)": {
						"encoding": "mapping",
						"key": "t_uint256",
						"label": "mapping(uint256 => struct SubscriptionManager.Plan)",
						"numberOfBytes": "32",
						"value": "t_struct(Plan)752_storage"
					},
					"t_string_storage": {
						"encoding": "bytes",
						"label": "string",
						"numberOfBytes": "32"
					},
					"t_struct(Plan)752_storage": {
						"encoding": "inplace",
						"label": "struct SubscriptionManager.Plan",
						"members": [
							{
								"astId": 741,
								"contract": "contracts/src/Nova3.sol:SubscriptionManager",
								"label": "price",
								"offset": 0,
								"slot": "0",
								"type": "t_uint256"
							},
							{
								"astId": 743,
								"contract": "contracts/src/Nova3.sol:SubscriptionManager",
								"label": "duration",
								"offset": 0,
								"slot": "1",
								"type": "t_uint256"
							},
							{
								"astId": 745,
								"contract": "contracts/src/Nova3.sol:SubscriptionManager",
								"label": "trialDuration",
								"offset": 0,
								"slot": "2",
								"type": "t_uint256"
							},
							{
								"astId": 747,
								"contract": "contracts/src/Nova3.sol:SubscriptionManager",
								"label": "isActive",
								"offset": 0,
								"slot": "3",
								"type": "t_bool"
							},
							{
								"astId": 749,
								"contract": "contracts/src/Nova3.sol:SubscriptionManager",
								"label": "benefits",
								"offset": 0,
								"slot": "4",
								"type": "t_string_storage"
							},
							{
								"astId": 751,
								"contract": "contracts/src/Nova3.sol:SubscriptionManager",
								"label": "version",
								"offset": 0,
								"slot": "5",
								"type": "t_uint256"
							}
						],
						"numberOfBytes": "192"
					},
					"t_struct(RoleData)21_storage": {
						"encoding": "inplace",
						"label": "struct AccessControl.RoleData",
						"members": [
							{
								"astId": 18,
								"contract": "contracts/src/Nova3.sol:SubscriptionManager",
								"label": "hasRole",
								"offset": 0,
								"slot": "0",
								"type": "t_mapping(t_address,t_bool)"
							},
							{
								"astId": 20,
								"contract": "contracts/src/Nova3.sol:SubscriptionManager",
								"label": "adminRole",
								"offset": 0,
								"slot": "1",
								"type": "t_bytes32"
							}
						],
						"numberOfBytes": "64"
					},
					"t_struct(Subscription)739_storage": {
						"encoding": "inplace",
						"label": "struct SubscriptionManager.Subscription",
						"members": [
							{
								"astId": 728,
								"contract": "contracts/src/Nova3.sol:SubscriptionManager",
								"label": "isActive",
								"offset": 0,
								"slot": "0",
								"type": "t_bool"
							},
							{
								"astId": 730,
								"contract": "contracts/src/Nova3.sol:SubscriptionManager",
								"label": "expiryTime",
								"offset": 0,
								"slot": "1",
								"type": "t_uint256"
							},
							{
								"astId": 732,
								"contract": "contracts/src/Nova3.sol:SubscriptionManager",
								"label": "planId",
								"offset": 0,
								"slot": "2",
								"type": "t_uint256"
							},
							{
								"astId": 734,
								"contract": "contracts/src/Nova3.sol:SubscriptionManager",
								"label": "planVersion",
								"offset": 0,
								"slot": "3",
								"type": "t_uint256"
							},
							{
								"astId": 736,
								"contract": "contracts/src/Nova3.sol:SubscriptionManager",
								"label": "startTime",
								"offset": 0,
								"slot": "4",
								"type": "t_uint256"
							},
							{
								"astId": 738,
								"contract": "contracts/src/Nova3.sol:SubscriptionManager",
								"label": "autoRenew",
								"offset": 0,
								"slot": "5",
								"type": "t_bool"
							}
						],
						"numberOfBytes": "192"
					},
					"t_uint256": {
						"encoding": "inplace",
						"label": "uint256",
						"numberOfBytes": "32"
					}
				}
			},
			"userdoc": {
				"kind": "user",
				"methods": {},
				"version": 1
			}
		}
	}
}